{
  "_format": "hh-sol-artifact-1",
  "contractName": "ENSCache",
  "sourceName": "contracts/chainlinkClient/ENSCache.sol",
  "abi": [
    {
      "inputs": [
        {
          "internalType": "address",
          "name": "oracleaddress",
          "type": "address"
        },
        {
          "internalType": "string",
          "name": "chainlinkJobId",
          "type": "string"
        }
      ],
      "stateMutability": "nonpayable",
      "type": "constructor"
    },
    {
      "anonymous": false,
      "inputs": [
        {
          "indexed": true,
          "internalType": "bytes32",
          "name": "id",
          "type": "bytes32"
        }
      ],
      "name": "ChainlinkCancelled",
      "type": "event"
    },
    {
      "anonymous": false,
      "inputs": [
        {
          "indexed": true,
          "internalType": "bytes32",
          "name": "id",
          "type": "bytes32"
        }
      ],
      "name": "ChainlinkFulfilled",
      "type": "event"
    },
    {
      "anonymous": false,
      "inputs": [
        {
          "indexed": true,
          "internalType": "bytes32",
          "name": "id",
          "type": "bytes32"
        }
      ],
      "name": "ChainlinkRequested",
      "type": "event"
    },
    {
      "anonymous": false,
      "inputs": [
        {
          "indexed": true,
          "internalType": "address",
          "name": "previousOwner",
          "type": "address"
        },
        {
          "indexed": true,
          "internalType": "address",
          "name": "newOwner",
          "type": "address"
        }
      ],
      "name": "OwnershipTransferred",
      "type": "event"
    },
    {
      "inputs": [
        {
          "internalType": "bytes32",
          "name": "_requestId",
          "type": "bytes32"
        },
        {
          "internalType": "uint256",
          "name": "_payment",
          "type": "uint256"
        },
        {
          "internalType": "bytes4",
          "name": "_callbackFunctionId",
          "type": "bytes4"
        },
        {
          "internalType": "uint256",
          "name": "_expiration",
          "type": "uint256"
        }
      ],
      "name": "cancelRequest",
      "outputs": [],
      "stateMutability": "nonpayable",
      "type": "function"
    },
    {
      "inputs": [
        {
          "internalType": "bytes32",
          "name": "requestId",
          "type": "bytes32"
        },
        {
          "internalType": "bytes32",
          "name": "owneraddress",
          "type": "bytes32"
        }
      ],
      "name": "fulfillENSOwner",
      "outputs": [],
      "stateMutability": "nonpayable",
      "type": "function"
    },
    {
      "inputs": [],
      "name": "getChainlinkToken",
      "outputs": [
        {
          "internalType": "address",
          "name": "",
          "type": "address"
        }
      ],
      "stateMutability": "view",
      "type": "function"
    },
    {
      "inputs": [],
      "name": "jobId",
      "outputs": [
        {
          "internalType": "string",
          "name": "",
          "type": "string"
        }
      ],
      "stateMutability": "view",
      "type": "function"
    },
    {
      "inputs": [],
      "name": "oracle",
      "outputs": [
        {
          "internalType": "address",
          "name": "",
          "type": "address"
        }
      ],
      "stateMutability": "view",
      "type": "function"
    },
    {
      "inputs": [],
      "name": "owner",
      "outputs": [
        {
          "internalType": "address",
          "name": "",
          "type": "address"
        }
      ],
      "stateMutability": "view",
      "type": "function"
    },
    {
      "inputs": [
        {
          "internalType": "string",
          "name": "",
          "type": "string"
        }
      ],
      "name": "owners",
      "outputs": [
        {
          "internalType": "address",
          "name": "",
          "type": "address"
        }
      ],
      "stateMutability": "view",
      "type": "function"
    },
    {
      "inputs": [],
      "name": "renounceOwnership",
      "outputs": [],
      "stateMutability": "nonpayable",
      "type": "function"
    },
    {
      "inputs": [
        {
          "internalType": "string",
          "name": "ensName",
          "type": "string"
        }
      ],
      "name": "requestENSOwner",
      "outputs": [],
      "stateMutability": "nonpayable",
      "type": "function"
    },
    {
      "inputs": [
        {
          "internalType": "bytes32",
          "name": "",
          "type": "bytes32"
        }
      ],
      "name": "sentRequests",
      "outputs": [
        {
          "internalType": "string",
          "name": "",
          "type": "string"
        }
      ],
      "stateMutability": "view",
      "type": "function"
    },
    {
      "inputs": [
        {
          "internalType": "string",
          "name": "chainlinkJobId",
          "type": "string"
        }
      ],
      "name": "setChainlinkJobId",
      "outputs": [],
      "stateMutability": "nonpayable",
      "type": "function"
    },
    {
      "inputs": [
        {
          "internalType": "address",
          "name": "_link",
          "type": "address"
        }
      ],
      "name": "setChainlinkTokenAddress",
      "outputs": [],
      "stateMutability": "nonpayable",
      "type": "function"
    },
    {
      "inputs": [
        {
          "internalType": "address",
          "name": "oracleAddress",
          "type": "address"
        }
      ],
      "name": "setOracleAdress",
      "outputs": [],
      "stateMutability": "nonpayable",
      "type": "function"
    },
    {
      "inputs": [
        {
          "internalType": "address",
          "name": "newOwner",
          "type": "address"
        }
      ],
      "name": "transferOwnership",
      "outputs": [],
      "stateMutability": "nonpayable",
      "type": "function"
    },
    {
      "inputs": [],
      "name": "withdrawLink",
      "outputs": [],
      "stateMutability": "nonpayable",
      "type": "function"
    }
  ],
  "bytecode": "0x608060405260016004553480156200001657600080fd5b506040516200242c3803806200242c833981810160405260408110156200003c57600080fd5b8101908080519060200190929190805160405193929190846401000000008211156200006757600080fd5b838201915060208201858111156200007e57600080fd5b82518660018202830111640100000000821117156200009c57600080fd5b8083526020830192505050908051906020019080838360005b83811015620000d2578082015181840152602081019050620000b5565b50505050905090810190601f168015620001005780820380516001836020036101000a031916815260200191505b506040525050506000620001196200021a60201b60201c565b905080600660006101000a81548173ffffffffffffffffffffffffffffffffffffffff021916908373ffffffffffffffffffffffffffffffffffffffff1602179055508073ffffffffffffffffffffffffffffffffffffffff16600073ffffffffffffffffffffffffffffffffffffffff167f8be0079c531659141344cd1fd0a4f28419497f9722a3daafe3b4186f6b6457e060405160405180910390a35081600960006101000a81548173ffffffffffffffffffffffffffffffffffffffff021916908373ffffffffffffffffffffffffffffffffffffffff16021790555080600a90805190602001906200021192919062000222565b505050620002c8565b600033905090565b828054600181600116156101000203166002900490600052602060002090601f016020900481019282601f106200026557805160ff191683800117855562000296565b8280016001018555821562000296579182015b828111156200029557825182559160200191906001019062000278565b5b509050620002a59190620002a9565b5090565b5b80821115620002c4576000816000905550600101620002aa565b5090565b61215480620002d86000396000f3fe608060405234801561001057600080fd5b50600436106100f55760003560e01c80638dc654a211610097578063e90f432c11610066578063e90f432c146104ae578063ec65d0f814610527578063f2fde38b14610592578063fb358c0c146105d6576100f5565b80638dc654a214610370578063913d99321461037a578063c2939d97146103b2578063d5f5729d14610435576100f5565b80634f6583da116100d35780634f6583da14610257578063715018a6146102fe5780637dc0d1d0146103085780638da5cb5b1461033c576100f5565b8063165d35e1146100fa578063230e6d231461012e5780632b1fd99514610172575b600080fd5b61010261061a565b604051808273ffffffffffffffffffffffffffffffffffffffff16815260200191505060405180910390f35b6101706004803603602081101561014457600080fd5b81019080803573ffffffffffffffffffffffffffffffffffffffff169060200190929190505050610629565b005b61022b6004803603602081101561018857600080fd5b81019080803590602001906401000000008111156101a557600080fd5b8201836020820111156101b757600080fd5b803590602001918460018302840111640100000000831117156101d957600080fd5b91908080601f016020809104026020016040519081016040528093929190818152602001838380828437600081840152601f19601f8201169050808301925050505050505091929192905050506106e4565b604051808273ffffffffffffffffffffffffffffffffffffffff16815260200191505060405180910390f35b6102836004803603602081101561026d57600080fd5b810190808035906020019092919050505061072d565b6040518080602001828103825283818151815260200191508051906020019080838360005b838110156102c35780820151818401526020810190506102a8565b50505050905090810190601f1680156102f05780820380516001836020036101000a031916815260200191505b509250505060405180910390f35b6103066107dd565b005b61031061094d565b604051808273ffffffffffffffffffffffffffffffffffffffff16815260200191505060405180910390f35b610344610973565b604051808273ffffffffffffffffffffffffffffffffffffffff16815260200191505060405180910390f35b61037861099d565b005b6103b06004803603604081101561039057600080fd5b810190808035906020019092919080359060200190929190505050610c1a565b005b6103ba610dff565b6040518080602001828103825283818151815260200191508051906020019080838360005b838110156103fa5780820151818401526020810190506103df565b50505050905090810190601f1680156104275780820380516001836020036101000a031916815260200191505b509250505060405180910390f35b6104ac6004803603602081101561044b57600080fd5b810190808035906020019064010000000081111561046857600080fd5b82018360208201111561047a57600080fd5b8035906020019184600183028401116401000000008311171561049c57600080fd5b9091929391929390505050610e9d565b005b610525600480360360208110156104c457600080fd5b81019080803590602001906401000000008111156104e157600080fd5b8201836020820111156104f357600080fd5b8035906020019184600183028401116401000000008311171561051557600080fd5b909192939192939050505061104e565b005b6105906004803603608081101561053d57600080fd5b81019080803590602001909291908035906020019092919080357bffffffffffffffffffffffffffffffffffffffffffffffffffffffff1916906020019092919080359060200190929190505050611113565b005b6105d4600480360360208110156105a857600080fd5b81019080803573ffffffffffffffffffffffffffffffffffffffff1690602001909291905050506111d4565b005b610618600480360360208110156105ec57600080fd5b81019080803573ffffffffffffffffffffffffffffffffffffffff1690602001909291905050506113c9565b005b60006106246114bc565b905090565b6106316114e6565b73ffffffffffffffffffffffffffffffffffffffff1661064f610973565b73ffffffffffffffffffffffffffffffffffffffff16146106d8576040517f08c379a00000000000000000000000000000000000000000000000000000000081526004018080602001828103825260208152602001807f4f776e61626c653a2063616c6c6572206973206e6f7420746865206f776e657281525060200191505060405180910390fd5b6106e1816114ee565b50565b6007818051602081018201805184825260208301602085012081835280955050505050506000915054906101000a900473ffffffffffffffffffffffffffffffffffffffff1681565b60086020528060005260406000206000915090508054600181600116156101000203166002900480601f0160208091040260200160405190810160405280929190818152602001828054600181600116156101000203166002900480156107d55780601f106107aa576101008083540402835291602001916107d5565b820191906000526020600020905b8154815290600101906020018083116107b857829003601f168201915b505050505081565b6107e56114e6565b73ffffffffffffffffffffffffffffffffffffffff16610803610973565b73ffffffffffffffffffffffffffffffffffffffff161461088c576040517f08c379a00000000000000000000000000000000000000000000000000000000081526004018080602001828103825260208152602001807f4f776e61626c653a2063616c6c6572206973206e6f7420746865206f776e657281525060200191505060405180910390fd5b600073ffffffffffffffffffffffffffffffffffffffff16600660009054906101000a900473ffffffffffffffffffffffffffffffffffffffff1673ffffffffffffffffffffffffffffffffffffffff167f8be0079c531659141344cd1fd0a4f28419497f9722a3daafe3b4186f6b6457e060405160405180910390a36000600660006101000a81548173ffffffffffffffffffffffffffffffffffffffff021916908373ffffffffffffffffffffffffffffffffffffffff160217905550565b600960009054906101000a900473ffffffffffffffffffffffffffffffffffffffff1681565b6000600660009054906101000a900473ffffffffffffffffffffffffffffffffffffffff16905090565b6109a56114e6565b73ffffffffffffffffffffffffffffffffffffffff166109c3610973565b73ffffffffffffffffffffffffffffffffffffffff1614610a4c576040517f08c379a00000000000000000000000000000000000000000000000000000000081526004018080602001828103825260208152602001807f4f776e61626c653a2063616c6c6572206973206e6f7420746865206f776e657281525060200191505060405180910390fd5b6000610a566114bc565b90508073ffffffffffffffffffffffffffffffffffffffff1663a9059cbb338373ffffffffffffffffffffffffffffffffffffffff166370a08231306040518263ffffffff1660e01b8152600401808273ffffffffffffffffffffffffffffffffffffffff16815260200191505060206040518083038186803b158015610adc57600080fd5b505afa158015610af0573d6000803e3d6000fd5b505050506040513d6020811015610b0657600080fd5b81019080805190602001909291905050506040518363ffffffff1660e01b8152600401808373ffffffffffffffffffffffffffffffffffffffff16815260200182815260200192505050602060405180830381600087803b158015610b6a57600080fd5b505af1158015610b7e573d6000803e3d6000fd5b505050506040513d6020811015610b9457600080fd5b8101908080519060200190929190505050610c17576040517f08c379a00000000000000000000000000000000000000000000000000000000081526004018080602001828103825260128152602001807f556e61626c6520746f207472616e73666572000000000000000000000000000081525060200191505060405180910390fd5b50565b816005600082815260200190815260200160002060009054906101000a900473ffffffffffffffffffffffffffffffffffffffff1673ffffffffffffffffffffffffffffffffffffffff163373ffffffffffffffffffffffffffffffffffffffff1614610cd2576040517f08c379a00000000000000000000000000000000000000000000000000000000081526004018080602001828103825260288152602001806120f76028913960400191505060405180910390fd5b6005600082815260200190815260200160002060006101000a81549073ffffffffffffffffffffffffffffffffffffffff0219169055807f7cc135e0cebb02c3480ae5d74d377283180a2601f8f644edf7987b009316c63a60405160405180910390a28160001c6007600860008681526020019081526020016000206040518082805460018160011615610100020316600290048015610da95780601f10610d87576101008083540402835291820191610da9565b820191906000526020600020905b815481529060010190602001808311610d95575b5050915050908152602001604051809103902060006101000a81548173ffffffffffffffffffffffffffffffffffffffff021916908373ffffffffffffffffffffffffffffffffffffffff160217905550505050565b600a8054600181600116156101000203166002900480601f016020809104026020016040519081016040528092919081815260200182805460018160011615610100020316600290048015610e955780601f10610e6a57610100808354040283529160200191610e95565b820191906000526020600020905b815481529060010190602001808311610e7857829003601f168201915b505050505081565b610ea5611f89565b610f59610f4b600a8054600181600116156101000203166002900480601f016020809104026020016040519081016040528092919081815260200182805460018160011615610100020316600290048015610f415780601f10610f1657610100808354040283529160200191610f41565b820191906000526020600020905b815481529060010190602001808311610f2457829003601f168201915b5050505050611532565b3063913d993260e01b61155d565b9050610fe96040518060400160405280600781526020017f656e736e616d650000000000000000000000000000000000000000000000000081525084848080601f016020809104026020016040519081016040528093929190818152602001838380828437600081840152601f19601f820116905080830192505050505050508361158e9092919063ffffffff16565b6000611023600960009054906101000a900473ffffffffffffffffffffffffffffffffffffffff1683670de0b6b3a76400006001026115c1565b90508383600860008481526020019081526020016000209190611047929190611ff6565b5050505050565b6110566114e6565b73ffffffffffffffffffffffffffffffffffffffff16611074610973565b73ffffffffffffffffffffffffffffffffffffffff16146110fd576040517f08c379a00000000000000000000000000000000000000000000000000000000081526004018080602001828103825260208152602001807f4f776e61626c653a2063616c6c6572206973206e6f7420746865206f776e657281525060200191505060405180910390fd5b8181600a919061110e929190611ff6565b505050565b61111b6114e6565b73ffffffffffffffffffffffffffffffffffffffff16611139610973565b73ffffffffffffffffffffffffffffffffffffffff16146111c2576040517f08c379a00000000000000000000000000000000000000000000000000000000081526004018080602001828103825260208152602001807f4f776e61626c653a2063616c6c6572206973206e6f7420746865206f776e657281525060200191505060405180910390fd5b6111ce8484848461184a565b50505050565b6111dc6114e6565b73ffffffffffffffffffffffffffffffffffffffff166111fa610973565b73ffffffffffffffffffffffffffffffffffffffff1614611283576040517f08c379a00000000000000000000000000000000000000000000000000000000081526004018080602001828103825260208152602001807f4f776e61626c653a2063616c6c6572206973206e6f7420746865206f776e657281525060200191505060405180910390fd5b600073ffffffffffffffffffffffffffffffffffffffff168173ffffffffffffffffffffffffffffffffffffffff161415611309576040517f08c379a00000000000000000000000000000000000000000000000000000000081526004018080602001828103825260268152602001806120ae6026913960400191505060405180910390fd5b8073ffffffffffffffffffffffffffffffffffffffff16600660009054906101000a900473ffffffffffffffffffffffffffffffffffffffff1673ffffffffffffffffffffffffffffffffffffffff167f8be0079c531659141344cd1fd0a4f28419497f9722a3daafe3b4186f6b6457e060405160405180910390a380600660006101000a81548173ffffffffffffffffffffffffffffffffffffffff021916908373ffffffffffffffffffffffffffffffffffffffff16021790555050565b6113d16114e6565b73ffffffffffffffffffffffffffffffffffffffff166113ef610973565b73ffffffffffffffffffffffffffffffffffffffff1614611478576040517f08c379a00000000000000000000000000000000000000000000000000000000081526004018080602001828103825260208152602001807f4f776e61626c653a2063616c6c6572206973206e6f7420746865206f776e657281525060200191505060405180910390fd5b80600960006101000a81548173ffffffffffffffffffffffffffffffffffffffff021916908373ffffffffffffffffffffffffffffffffffffffff16021790555050565b6000600260009054906101000a900473ffffffffffffffffffffffffffffffffffffffff16905090565b600033905090565b80600260006101000a81548173ffffffffffffffffffffffffffffffffffffffff021916908373ffffffffffffffffffffffffffffffffffffffff16021790555050565b6000606082905060008151141561154f576000801b915050611558565b60208301519150505b919050565b611565611f89565b61156d611f89565b6115848585858461198e909392919063ffffffff16565b9150509392505050565b6115a5828460800151611a3e90919063ffffffff16565b6115bc818460800151611a3e90919063ffffffff16565b505050565b600030600454604051602001808373ffffffffffffffffffffffffffffffffffffffff1660601b815260140182815260200192505050604051602081830303815290604052805190602001209050600454836060018181525050836005600083815260200190815260200160002060006101000a81548173ffffffffffffffffffffffffffffffffffffffff021916908373ffffffffffffffffffffffffffffffffffffffff160217905550807fb5e6e01e79f91267dc17b4e6314d5d4d03593d2ceee0fbb452b750bd70ea5af960405160405180910390a2600260009054906101000a900473ffffffffffffffffffffffffffffffffffffffff1673ffffffffffffffffffffffffffffffffffffffff16634000aea085846116e387611a63565b6040518463ffffffff1660e01b8152600401808473ffffffffffffffffffffffffffffffffffffffff16815260200183815260200180602001828103825283818151815260200191508051906020019080838360005b83811015611754578082015181840152602081019050611739565b50505050905090810190601f1680156117815780820380516001836020036101000a031916815260200191505b50945050505050602060405180830381600087803b1580156117a257600080fd5b505af11580156117b6573d6000803e3d6000fd5b505050506040513d60208110156117cc57600080fd5b8101908080519060200190929190505050611832576040517f08c379a00000000000000000000000000000000000000000000000000000000081526004018080602001828103825260238152602001806120d46023913960400191505060405180910390fd5b60016004600082825401925050819055509392505050565b60006005600086815260200190815260200160002060009054906101000a900473ffffffffffffffffffffffffffffffffffffffff1690506005600086815260200190815260200160002060006101000a81549073ffffffffffffffffffffffffffffffffffffffff0219169055847fe1fe3afa0f7f761ff0a8b89086790efd5140d2907ebd5b7ff6bfcb5e075fd4c560405160405180910390a28073ffffffffffffffffffffffffffffffffffffffff16636ee4d553868686866040518563ffffffff1660e01b815260040180858152602001848152602001837bffffffffffffffffffffffffffffffffffffffffffffffffffffffff19168152602001828152602001945050505050600060405180830381600087803b15801561196f57600080fd5b505af1158015611983573d6000803e3d6000fd5b505050505050505050565b611996611f89565b6119a68560800151610100611be4565b508385600001818152505082856020019073ffffffffffffffffffffffffffffffffffffffff16908173ffffffffffffffffffffffffffffffffffffffff16815250508185604001907bffffffffffffffffffffffffffffffffffffffffffffffffffffffff191690817bffffffffffffffffffffffffffffffffffffffffffffffffffffffff191681525050849050949350505050565b611a4b8260038351611c38565b611a5e8183611d7d90919063ffffffff16565b505050565b6060634042994660e01b60008084600001518560200151866040015187606001516001896080015160000151604051602401808973ffffffffffffffffffffffffffffffffffffffff1681526020018881526020018781526020018673ffffffffffffffffffffffffffffffffffffffff168152602001857bffffffffffffffffffffffffffffffffffffffffffffffffffffffff1916815260200184815260200183815260200180602001828103825283818151815260200191508051906020019080838360005b83811015611b47578082015181840152602081019050611b2c565b50505050905090810190601f168015611b745780820380516001836020036101000a031916815260200191505b509950505050505050505050604051602081830303815290604052907bffffffffffffffffffffffffffffffffffffffffffffffffffffffff19166020820180517bffffffffffffffffffffffffffffffffffffffffffffffffffffffff83818316178352505050509050919050565b611bec612076565b600060208381611bf857fe5b0614611c115760208281611c0857fe5b06602003820191505b81836020018181525050604051808452600081528281016020016040525082905092915050565b60178111611c6557611c5f8160058460ff16901b60ff161784611d9f90919063ffffffff16565b50611d78565b60ff8111611ca757611c8a601860058460ff16901b1784611d9f90919063ffffffff16565b50611ca181600185611dbf9092919063ffffffff16565b50611d77565b61ffff8111611cea57611ccd601960058460ff16901b1784611d9f90919063ffffffff16565b50611ce481600285611dbf9092919063ffffffff16565b50611d76565b63ffffffff8111611d2f57611d12601a60058460ff16901b1784611d9f90919063ffffffff16565b50611d2981600485611dbf9092919063ffffffff16565b50611d75565b67ffffffffffffffff8111611d7457611d5b601b60058460ff16901b1784611d9f90919063ffffffff16565b50611d7281600885611dbf9092919063ffffffff16565b505b5b5b5b5b505050565b611d85612076565b611d9783846000015151848551611de1565b905092915050565b611da7612076565b611db78384600001515184611e9a565b905092915050565b611dc7612076565b611dd8848560000151518585611ee8565b90509392505050565b611de9612076565b8251821115611df757600080fd5b84602001518285011115611e2257611e21856002611e1b8860200151888701611f49565b02611f65565b5b600080865180518760208301019350808887011115611e415787860182525b60208701925050505b60208410611e6d5780518252602082019150602081019050602084039350611e4a565b60006001856020036101000a03905080198251168184511681811785525050879350505050949350505050565b611ea2612076565b83602001518310611ebf57611ebe846002866020015102611f65565b5b8351805160208583010184815381861415611edb576001820183525b5050508390509392505050565b611ef0612076565b84602001518483011115611f0e57611f0d85600286850102611f65565b5b60006001836101000a0390508551838682010185831982511617815281518588011115611f3b5784870182525b505085915050949350505050565b600081831115611f5b57829050611f5f565b8190505b92915050565b606082600001519050611f788383611be4565b50611f838382611d7d565b50505050565b6040518060a0016040528060008019168152602001600073ffffffffffffffffffffffffffffffffffffffff16815260200160007bffffffffffffffffffffffffffffffffffffffffffffffffffffffff1916815260200160008152602001611ff0612076565b81525090565b828054600181600116156101000203166002900490600052602060002090601f016020900481019282601f1061203757803560ff1916838001178555612065565b82800160010185558215612065579182015b82811115612064578235825591602001919060010190612049565b5b5090506120729190612090565b5090565b604051806040016040528060608152602001600081525090565b5b808211156120a9576000816000905550600101612091565b509056fe4f776e61626c653a206e6577206f776e657220697320746865207a65726f2061646472657373756e61626c6520746f207472616e73666572416e6443616c6c20746f206f7261636c65536f75726365206d75737420626520746865206f7261636c65206f66207468652072657175657374a2646970667358221220d3b99be83636182fec1b181e7e7b01fc700c744122215034ce3cc4c7debfe9bc64736f6c634300060c0033",
  "linkReferences": {},
  "deployedLinkReferences": {}
}