{
  "contractName": "NodeRegistry",
  "abi": [
    {
      "inputs": [
        {
          "internalType": "address",
          "name": "owner",
          "type": "address"
        },
        {
          "internalType": "bool",
          "name": "requiresWhitelist_",
          "type": "bool"
        },
        {
          "internalType": "address[]",
          "name": "initialNodes",
          "type": "address[]"
        },
        {
          "internalType": "string[]",
          "name": "initialUrls",
          "type": "string[]"
        }
      ],
      "stateMutability": "nonpayable",
      "type": "constructor"
    },
    {
      "anonymous": false,
      "inputs": [
        {
          "indexed": true,
          "internalType": "address",
          "name": "nodeAddress",
          "type": "address"
        }
      ],
      "name": "NodeRemoved",
      "type": "event"
    },
    {
      "anonymous": false,
      "inputs": [
        {
          "indexed": true,
          "internalType": "address",
          "name": "nodeAddress",
          "type": "address"
        },
        {
          "indexed": true,
          "internalType": "string",
          "name": "url",
          "type": "string"
        },
        {
          "indexed": true,
          "internalType": "uint256",
          "name": "isNew",
          "type": "uint256"
        },
        {
          "indexed": false,
          "internalType": "uint256",
          "name": "lastSeen",
          "type": "uint256"
        }
      ],
      "name": "NodeUpdated",
      "type": "event"
    },
    {
      "anonymous": false,
      "inputs": [
        {
          "indexed": true,
          "internalType": "address",
          "name": "nodeAddress",
          "type": "address"
        }
      ],
      "name": "NodeWhitelistApproved",
      "type": "event"
    },
    {
      "anonymous": false,
      "inputs": [
        {
          "indexed": true,
          "internalType": "address",
          "name": "nodeAddress",
          "type": "address"
        }
      ],
      "name": "NodeWhitelistRejected",
      "type": "event"
    },
    {
      "anonymous": false,
      "inputs": [
        {
          "indexed": true,
          "internalType": "address",
          "name": "previousOwner",
          "type": "address"
        },
        {
          "indexed": true,
          "internalType": "address",
          "name": "newOwner",
          "type": "address"
        }
      ],
      "name": "OwnershipTransferred",
      "type": "event"
    },
    {
      "anonymous": false,
      "inputs": [
        {
          "indexed": true,
          "internalType": "bool",
          "name": "value",
          "type": "bool"
        }
      ],
      "name": "RequiresWhitelistChanged",
      "type": "event"
    },
    {
      "inputs": [],
      "name": "claimOwnership",
      "outputs": [],
      "stateMutability": "nonpayable",
      "type": "function"
    },
    {
      "inputs": [],
      "name": "headNode",
      "outputs": [
        {
          "internalType": "address",
          "name": "",
          "type": "address"
        }
      ],
      "stateMutability": "view",
      "type": "function"
    },
    {
      "inputs": [],
      "name": "nodeCount",
      "outputs": [
        {
          "internalType": "uint64",
          "name": "",
          "type": "uint64"
        }
      ],
      "stateMutability": "view",
      "type": "function"
    },
    {
      "inputs": [],
      "name": "owner",
      "outputs": [
        {
          "internalType": "address",
          "name": "",
          "type": "address"
        }
      ],
      "stateMutability": "view",
      "type": "function"
    },
    {
      "inputs": [],
      "name": "pendingOwner",
      "outputs": [
        {
          "internalType": "address",
          "name": "",
          "type": "address"
        }
      ],
      "stateMutability": "view",
      "type": "function"
    },
    {
      "inputs": [],
      "name": "tailNode",
      "outputs": [
        {
          "internalType": "address",
          "name": "",
          "type": "address"
        }
      ],
      "stateMutability": "view",
      "type": "function"
    },
    {
      "inputs": [
        {
          "internalType": "address",
          "name": "newOwner",
          "type": "address"
        }
      ],
      "name": "transferOwnership",
      "outputs": [],
      "stateMutability": "nonpayable",
      "type": "function"
    },
    {
      "inputs": [
        {
          "internalType": "address",
          "name": "nodeAddress",
          "type": "address"
        }
      ],
      "name": "getNode",
      "outputs": [
        {
          "components": [
            {
              "internalType": "address",
              "name": "nodeAddress",
              "type": "address"
            },
            {
              "internalType": "string",
              "name": "url",
              "type": "string"
            },
            {
              "internalType": "uint256",
              "name": "lastSeen",
              "type": "uint256"
            }
          ],
          "internalType": "struct NodeRegistry.Node",
          "name": "",
          "type": "tuple"
        }
      ],
      "stateMutability": "view",
      "type": "function"
    },
    {
      "inputs": [
        {
          "internalType": "address",
          "name": "node",
          "type": "address"
        },
        {
          "internalType": "string",
          "name": "url_",
          "type": "string"
        }
      ],
      "name": "createOrUpdateNode",
      "outputs": [],
      "stateMutability": "nonpayable",
      "type": "function"
    },
    {
      "inputs": [
        {
          "internalType": "string",
          "name": "url_",
          "type": "string"
        }
      ],
      "name": "createOrUpdateNodeSelf",
      "outputs": [],
      "stateMutability": "nonpayable",
      "type": "function"
    },
    {
      "inputs": [
        {
          "internalType": "address",
          "name": "nodeAddress",
          "type": "address"
        }
      ],
      "name": "removeNode",
      "outputs": [],
      "stateMutability": "nonpayable",
      "type": "function"
    },
    {
      "inputs": [],
      "name": "removeNodeSelf",
      "outputs": [],
      "stateMutability": "nonpayable",
      "type": "function"
    },
    {
      "inputs": [
        {
          "internalType": "address",
          "name": "nodeAddress",
          "type": "address"
        }
      ],
      "name": "whitelistApproveNode",
      "outputs": [],
      "stateMutability": "nonpayable",
      "type": "function"
    },
    {
      "inputs": [
        {
          "internalType": "address",
          "name": "nodeAddress",
          "type": "address"
        }
      ],
      "name": "whitelistRejectNode",
      "outputs": [],
      "stateMutability": "nonpayable",
      "type": "function"
    },
    {
      "inputs": [
        {
          "internalType": "address",
          "name": "nodeAddress",
          "type": "address"
        }
      ],
      "name": "kickOut",
      "outputs": [],
      "stateMutability": "nonpayable",
      "type": "function"
    },
    {
      "inputs": [
        {
          "internalType": "bool",
          "name": "value",
          "type": "bool"
        }
      ],
      "name": "setRequiresWhitelist",
      "outputs": [],
      "stateMutability": "nonpayable",
      "type": "function"
    },
    {
      "inputs": [
        {
          "internalType": "uint256",
          "name": "i",
          "type": "uint256"
        }
      ],
      "name": "getNodeByNumber",
      "outputs": [
        {
          "components": [
            {
              "internalType": "address",
              "name": "nodeAddress",
              "type": "address"
            },
            {
              "internalType": "string",
              "name": "url",
              "type": "string"
            },
            {
              "internalType": "uint256",
              "name": "lastSeen",
              "type": "uint256"
            }
          ],
          "internalType": "struct NodeRegistry.Node",
          "name": "",
          "type": "tuple"
        }
      ],
      "stateMutability": "view",
      "type": "function"
    },
    {
      "inputs": [],
      "name": "getNodes",
      "outputs": [
        {
          "components": [
            {
              "internalType": "address",
              "name": "nodeAddress",
              "type": "address"
            },
            {
              "internalType": "string",
              "name": "url",
              "type": "string"
            },
            {
              "internalType": "uint256",
              "name": "lastSeen",
              "type": "uint256"
            }
          ],
          "internalType": "struct NodeRegistry.Node[]",
          "name": "",
          "type": "tuple[]"
        }
      ],
      "stateMutability": "view",
      "type": "function"
    }
  ],
  "bytecode": "0x60806040523480156200001157600080fd5b5060405162001ab938038062001ab98339810160408190526200003491620004e4565b600080546001600160a01b0319166001600160a01b0386161790556003805460ff60a01b1916600160a01b851515021790558051825114620000935760405162461bcd60e51b81526004016200008a9062000655565b60405180910390fd5b60005b8251811015620000e357620000da838281518110620000b157fe5b6020026020010151838381518110620000c657fe5b6020026020010151620000ee60201b60201c565b60010162000096565b505050505062000771565b6000546001600160a01b031633146200011b5760405162461bcd60e51b81526004016200008a906200067f565b6200013082826001600160e01b036200013416565b5050565b6001600160a01b03821660009081526004602052604081206002810154909190620002e357506040805160c0810182526001600160a01b0385811660608301818152608084018790524260a085015283526000602080850182905260025484168587015291815260048252939093208251805182546001600160a01b03191693169290921781558184015180516001959293928492620001dd928885019291909101906200036f565b5060409182015160029182015560208401516003840180546001600160a01b039283166001600160a01b0319918216179091559490920151600490930180549383169390941692909217909255600180546001600160401b03600160a01b8083048216840190911602600160a01b600160e01b031990911617905554161562000295576002546001600160a01b03908116600090815260046020526040902060030180546001600160a01b0319169186169190911790555b6003546001600160a01b0316620002c257600380546001600160a01b0319166001600160a01b0386161790555b600280546001600160a01b0319166001600160a01b03861617905562000302565b8251620002fa90600184019060208601906200036f565b504260028301555b604051819062000317906001850190620005df565b6040518091039020856001600160a01b03167f7b8ea65757bf0d882563917834f76c4df069ea7e489c9fc65bf764289792e3348560000160020154604051620003619190620006a2565b60405180910390a450505050565b828054600181600116156101000203166002900490600052602060002090601f016020900481019282601f10620003b257805160ff1916838001178555620003e2565b82800160010185558215620003e2579182015b82811115620003e2578251825591602001919060010190620003c5565b50620003f0929150620003f4565b5090565b6200041191905b80821115620003f05760008155600101620003fb565b90565b80516001600160a01b03811681146200042c57600080fd5b92915050565b600082601f83011262000443578081fd5b81516200045a6200045482620006d2565b620006ab565b818152915060208083019084810160005b84811015620004d9578151870188603f8201126200048857600080fd5b838101516200049b6200045482620006f2565b81815260408b81848601011115620004b257600080fd5b620004c38388840183870162000716565b508652505092820192908201906001016200046b565b505050505092915050565b60008060008060808587031215620004fa578384fd5b8451620005078162000749565b809450506020808601516200051c8162000762565b60408701519094506001600160401b038082111562000539578485fd5b81880189601f8201126200054b578586fd5b805192506200055e6200045484620006d2565b83815284810190828601868602840187018d10156200057b578889fd5b8893505b85841015620005a957620005948d8262000414565b8352600193909301929186019186016200057f565b5060608b01519097509450505080831115620005c3578384fd5b5050620005d38782880162000432565b91505092959194509250565b600080835460018082166000811462000601576001811462000619576200064a565b60ff198316865260028304607f16860193506200064a565b600283048786526020808720875b83811015620006425781548a82015290850190820162000627565b505050860193505b509195945050505050565b60208082526010908201526f6261645f747261636b65725f6461746160801b604082015260600190565b60208082526009908201526837b7363ca7bbb732b960b91b604082015260600190565b90815260200190565b6040518181016001600160401b0381118282101715620006ca57600080fd5b604052919050565b60006001600160401b03821115620006e8578081fd5b5060209081020190565b60006001600160401b0382111562000708578081fd5b50601f01601f191660200190565b60005b838110156200073357818101518382015260200162000719565b8381111562000743576000848401525b50505050565b6001600160a01b03811681146200075f57600080fd5b50565b80151581146200075f57600080fd5b61133880620007816000396000f3fe608060405234801561001057600080fd5b50600436106101165760003560e01c806399e68eea116100a2578063bfdf086611610071578063bfdf086614610218578063e29581aa14610220578063e30c397814610235578063e670c15d1461023d578063f2fde38b1461024557610116565b806399e68eea146101bf5780639d209048146101d2578063ae5b4961146101f2578063b2b99ec91461020557610116565b80635668c8fb116100e95780635668c8fb146101695780635888799c1461017c5780635d8f7f2a1461018f5780636da49b83146101a25780638da5cb5b146101b757610116565b806320a59a031461011b5780632af575801461013057806346c198f6146101435780634e71e0c814610161575b600080fd5b61012e61012936600461102d565b610258565b005b61012e61013e366004610fa6565b6102d4565b61014b61034a565b6040516101589190611180565b60405180910390f35b61012e610359565b61012e610177366004610fa6565b6103e7565b61012e61018a366004610fa6565b610426565b61012e61019d366004610fd4565b61049c565b6101aa6104d4565b60405161015891906112ed565b61014b6104eb565b61012e6101cd36600461104d565b6104fa565b6101e56101e0366004610fa6565b610556565b60405161015891906112d1565b6101e5610200366004611088565b610635565b61012e610213366004610fa6565b610782565b61014b6107b5565b6102286107c4565b6040516101589190611194565b61014b61095b565b61012e61096a565b61012e610253366004610fa6565b610975565b6000546001600160a01b0316331461028b5760405162461bcd60e51b8152600401610282906112ae565b60405180910390fd5b6003805460ff60a01b1916600160a01b831515908102919091179091556040517f7623db9c426686f05cec977c4cadb8ff9657502540ca665ae347731114dac69d90600090a250565b6000546001600160a01b031633146102fe5760405162461bcd60e51b8152600401610282906112ae565b6001600160a01b038116600081815260056020526040808220805460ff19166002179055517fbbe2a784aa6240d8175fa65a8459058efd8f44c5ab66caa2525fe9d6342108789190a250565b6003546001600160a01b031681565b6001546001600160a01b031633146103835760405162461bcd60e51b815260040161028290611284565b600154600080546040516001600160a01b0393841693909116917f8be0079c531659141344cd1fd0a4f28419497f9722a3daafe3b4186f6b6457e091a360018054600080546001600160a01b03199081166001600160a01b03841617909155169055565b6000546001600160a01b031633146104115760405162461bcd60e51b8152600401610282906112ae565b61041a816102d4565b61042381610782565b50565b6000546001600160a01b031633146104505760405162461bcd60e51b8152600401610282906112ae565b6001600160a01b038116600081815260056020526040808220805460ff19166001179055517fdfe83f699699403a4b116b6f9504680228c3f319bbf5ab26b48a81d3005d98b29190a250565b6000546001600160a01b031633146104c65760405162461bcd60e51b8152600401610282906112ae565b6104d082826109c1565b5050565b600154600160a01b900467ffffffffffffffff1681565b6000546001600160a01b031681565b600354600160a01b900460ff161580610530575060013360009081526005602052604090205460ff16600281111561052e57fe5b145b61054c5760405162461bcd60e51b8152600401610282906111f4565b61042333826109c1565b61055e610e26565b6001600160a01b03828116600090815260046020908152604091829020825160608101845281549094168452600180820180548551600261010094831615949094026000190190911692909204601f8101859004850283018501909552848252919493859385810193919083018282801561061a5780601f106105ef5761010080835404028352916020019161061a565b820191906000526020600020905b8154815290600101906020018083116105fd57829003601f168201915b50505050508152602001600282015481525050915050919050565b61063d610e26565b600154600160a01b900467ffffffffffffffff16821061066f5760405162461bcd60e51b815260040161028290611219565b6003546001600160a01b0316600081815260046020526040902060015b8481116106bc576003909101546001600160a01b031660008181526004602052604090209092509060010161068c565b506040805160608101825282546001600160a01b031681526001808401805484516020600261010095841615959095026000190190921693909304601f810182900482028401820190955284835292938593808601939291908301828280156107665780601f1061073b57610100808354040283529160200191610766565b820191906000526020600020905b81548152906001019060200180831161074957829003601f168201915b5050505050815260200160028201548152505092505050919050565b6000546001600160a01b031633146107ac5760405162461bcd60e51b8152600401610282906112ae565b61042381610bf2565b6002546001600160a01b031681565b600154606090819067ffffffffffffffff600160a01b909104811690811180156107ed57600080fd5b5060405190808252806020026020018201604052801561082757816020015b610814610e26565b81526020019060019003908161080c5790505b506003549091506001600160a01b031660005b600154600160a01b900467ffffffffffffffff16811015610952576001600160a01b03828116600090815260046020908152604091829020825160608101845281549094168452600180820180548551600261010094831615949094026000190190911692909204601f810185900485028301850190955284825291949385938581019391908301828280156109115780601f106108e657610100808354040283529160200191610911565b820191906000526020600020905b8154815290600101906020018083116108f457829003601f168201915b5050505050815260200160028201548152505084838151811061093057fe5b6020908102919091010152600301546001600160a01b0316915060010161083a565b50909150505b90565b6001546001600160a01b031681565b61097333610bf2565b565b6000546001600160a01b0316331461099f5760405162461bcd60e51b8152600401610282906112ae565b600180546001600160a01b0319166001600160a01b0392909216919091179055565b6001600160a01b03821660009081526004602052604081206002810154909190610b6c57506040805160c0810182526001600160a01b0385811660608301818152608084018790524260a085015283526000602080850182905260025484168587015291815260048252939093208251805182546001600160a01b03191693169290921781558184015180516001959293928492610a6792888501929190910190610e50565b5060409182015160029182015560208401516003840180546001600160a01b039283166001600160a01b03199182161790915594909201516004909301805493831693909416929092179092556001805467ffffffffffffffff600160a01b808304821684019091160267ffffffffffffffff60a01b19909116179055541615610b20576002546001600160a01b03908116600090815260046020526040902060030180546001600160a01b0319169186169190911790555b6003546001600160a01b0316610b4c57600380546001600160a01b0319166001600160a01b0386161790555b600280546001600160a01b0319166001600160a01b038616179055610b89565b8251610b819060018401906020860190610e50565b504260028301555b6040518190610b9c906001850190611110565b6040518091039020856001600160a01b03167f7b8ea65757bf0d882563917834f76c4df069ea7e489c9fc65bf764289792e3348560000160020154604051610be491906112e4565b60405180910390a450505050565b6001600160a01b03811660009081526004602052604090206002810154610c2b5760405162461bcd60e51b815260040161028290611262565b60048101546001600160a01b031615610c7b576004818101546001600160a01b0390811660009081526020929092526040909120600380840154910180546001600160a01b031916919092161790555b60038101546001600160a01b031615610cc95760038101546001600160a01b03908116600090815260046020819052604090912083820154910180546001600160a01b031916919092161790555b6001805460001967ffffffffffffffff600160a01b808404821692909201160267ffffffffffffffff60a01b199091161790556002546001600160a01b0383811691161415610d4557600280546001600160a01b0380821660009081526004602081905260409091200154166001600160a01b03199091161790555b6003546001600160a01b0383811691161415610d8c57600380546001600160a01b038082166000908152600460205260409020830154166001600160a01b03199091161790555b6001600160a01b038216600090815260046020526040812080546001600160a01b0319168155908181610dc26001830182610ece565b5060006002919091018190556003830180546001600160a01b031990811690915560049093018054909316909255506040516001600160a01b038416917fcfc24166db4bb677e857cacabd1541fb2b30645021b27c5130419589b84db52b91a25050565b604051806060016040528060006001600160a01b0316815260200160608152602001600081525090565b828054600181600116156101000203166002900490600052602060002090601f016020900481019282601f10610e9157805160ff1916838001178555610ebe565b82800160010185558215610ebe579182015b82811115610ebe578251825591602001919060010190610ea3565b50610eca929150610f0e565b5090565b50805460018160011615610100020316600290046000825580601f10610ef45750610423565b601f01602090049060005260206000209081019061042391905b61095891905b80821115610eca5760008155600101610f14565b600082601f830112610f38578081fd5b813567ffffffffffffffff80821115610f4f578283fd5b604051601f8301601f191681016020018281118282101715610f6f578485fd5b604052828152925082848301602001861015610f8a57600080fd5b8260208601602083013760006020848301015250505092915050565b600060208284031215610fb7578081fd5b81356001600160a01b0381168114610fcd578182fd5b9392505050565b60008060408385031215610fe6578081fd5b82356001600160a01b0381168114610ffc578182fd5b9150602083013567ffffffffffffffff811115611017578182fd5b61102385828601610f28565b9150509250929050565b60006020828403121561103e578081fd5b81358015158114610fcd578182fd5b60006020828403121561105e578081fd5b813567ffffffffffffffff811115611074578182fd5b61108084828501610f28565b949350505050565b600060208284031215611099578081fd5b5035919050565b600060018060a01b0382511683526020808301516060828601528051806060870152835b818110156110e0578281018401518782016080015283016110c4565b818111156110f15784608083890101525b5060409485015194860194909452505050601f01601f19160160800190565b600080835460018082166000811461112f576001811461114657611175565b60ff198316865260028304607f1686019350611175565b600283048786526020808720875b8381101561116d5781548a820152908501908201611154565b505050860193505b509195945050505050565b6001600160a01b0391909116815260200190565b6000602080830181845280855180835260408601915060408482028701019250838701855b828110156111e757603f198886030184526111d58583516110a0565b945092850192908501906001016111b9565b5092979650505050505050565b6020808252600b908201526a1b9bdd105c1c1c9bdd995960aa1b604082015260600190565b60208082526029908201527f6765744e74684e6f64653a206e206d757374206265206c657373207468616e206040820152681b9bd91950dbdd5b9d60ba1b606082015260800190565b6020808252600890820152671b9bdd119bdd5b9960c21b604082015260600190565b60208082526010908201526f37b7363ca832b73234b733a7bbb732b960811b604082015260600190565b60208082526009908201526837b7363ca7bbb732b960b91b604082015260600190565b600060208252610fcd60208301846110a0565b90815260200190565b67ffffffffffffffff9190911681526020019056fea26469706673582212208eb58adc48c49336898e085424950176575d9a86b3b28c377150a9e82cce3ac064736f6c63430006060033",
  "immutableReferences": {},
  "source": "pragma solidity ^0.6.0;\npragma experimental ABIEncoderV2;\n\nimport \"./Ownable.sol\";\n\n/**\n * @title Ownable\n * @dev The Ownable contract has an owner address, and provides basic authorization control\n * functions, this simplifies the implementation of \"user permissions\".\n */\ncontract NodeRegistry is Ownable {\n    event NodeUpdated(address indexed nodeAddress, string indexed url, uint indexed isNew, uint lastSeen);\n    event NodeRemoved(address indexed nodeAddress);\n    event NodeWhitelistApproved(address indexed nodeAddress);\n    event NodeWhitelistRejected(address indexed nodeAddress);\n    event RequiresWhitelistChanged(bool indexed value);\n    enum WhitelistState{\n        None,\n        Approved,\n        Rejected\n    }\n    struct Node{\n        address nodeAddress; // Ethereum address of the node (unique id)\n        string url; // Connection url, for example wss://node-domain-name:port\n        uint lastSeen; // what's the best way to store timestamps in smart contracts?\n    }\n    struct NodeLinkedListItem {\n        Node node;\n        address next; //linked list\n        address prev; //linked list\n    }\n\n    modifier whitelistOK() {\n        require(!requiresWhitelist || whitelist[msg.sender] == WhitelistState.Approved, \"notApproved\");\n        _;\n    }\n\n    uint64 public nodeCount;\n    address public tailNode;\n    address public headNode;\n    bool requiresWhitelist;\n    mapping(address => NodeLinkedListItem) nodes;\n    mapping(address => WhitelistState) whitelist;\n\n    constructor(address owner, bool requiresWhitelist_, address[] memory initialNodes, string[] memory initialUrls ) Ownable(owner) public {\n        requiresWhitelist = requiresWhitelist_;\n        require(initialNodes.length == initialUrls.length, \"bad_tracker_data\");\n        for (uint i = 0; i < initialNodes.length; i++) {\n            createOrUpdateNode(initialNodes[i], initialUrls[i]);\n        }\n    }\n\n    function getNode(address nodeAddress) public view returns (Node memory) {\n        NodeLinkedListItem storage n = nodes[nodeAddress];\n        return(n.node);\n    }\n \n    function createOrUpdateNode(address node, string memory url_) public onlyOwner {\n        _createOrUpdateNode(node, url_);\n    }\n\n    function createOrUpdateNodeSelf(string memory url_) public whitelistOK {\n        _createOrUpdateNode(msg.sender, url_);\n    }\n\n    function _createOrUpdateNode(address nodeAddress, string memory url_) internal {\n        NodeLinkedListItem storage n = nodes[nodeAddress];\n        uint isNew = 0;\n        if(n.node.lastSeen == 0){\n            isNew = 1;\n            nodes[nodeAddress] = NodeLinkedListItem({node: Node({nodeAddress: nodeAddress, url: url_, lastSeen: block.timestamp}), prev: tailNode, next: address(0)});\n            nodeCount++;\n            if(tailNode != address(0)){\n                NodeLinkedListItem storage prevNode = nodes[tailNode];\n                prevNode.next = nodeAddress;\n            }\n            if(headNode == address(0))\n                headNode = nodeAddress;\n            tailNode = nodeAddress;\n        }\n        else{\n            n.node.url = url_;\n            n.node.lastSeen = block.timestamp;\n        }\n        emit NodeUpdated(nodeAddress, n.node.url, isNew, n.node.lastSeen);\n    }\n\n    function removeNode(address nodeAddress) public onlyOwner {\n        _removeNode(nodeAddress);\n    }\n    function removeNodeSelf() public {\n        _removeNode(msg.sender);\n    }\n    function _removeNode(address nodeAddress) internal {\n        NodeLinkedListItem storage n = nodes[nodeAddress];\n        require(n.node.lastSeen != 0, \"notFound\");\n        if(n.prev != address(0)){\n            NodeLinkedListItem storage prevNode = nodes[n.prev];\n            prevNode.next = n.next;\n        }\n        if(n.next != address(0)){\n            NodeLinkedListItem storage nextNode = nodes[n.next];\n            nextNode.prev = n.prev;\n        }\n        nodeCount--;\n        if(nodeAddress == tailNode) {\n            NodeLinkedListItem storage tn = nodes[tailNode];\n            tailNode = tn.prev;\n        }\n        if(nodeAddress == headNode) {\n            NodeLinkedListItem storage hn = nodes[headNode];\n            headNode = hn.next;\n        }\n\n        delete nodes[nodeAddress];\n        emit NodeRemoved(nodeAddress);\n    }\n\n    function whitelistApproveNode(address nodeAddress) public onlyOwner {\n        whitelist[nodeAddress] = WhitelistState.Approved;\n        emit NodeWhitelistApproved(nodeAddress);\n    }\n    \n    function whitelistRejectNode(address nodeAddress) public onlyOwner {\n        whitelist[nodeAddress] = WhitelistState.Rejected;\n        emit NodeWhitelistRejected(nodeAddress);\n    }\n    \n    function kickOut(address nodeAddress) public onlyOwner {\n        whitelistRejectNode(nodeAddress);\n        removeNode(nodeAddress);\n    }\n\n    function setRequiresWhitelist(bool value) public onlyOwner {\n        requiresWhitelist = value;\n        emit RequiresWhitelistChanged(value);\n    }\n    /*\n        this function is O(N) because we need linked list functionality.\n\n        i=0 is first node\n    */\n    \n    function getNodeByNumber(uint i) public view returns (Node memory) {\n        require(i < nodeCount, \"getNthNode: n must be less than nodeCount\");\n        address currentNodeAddress = headNode;\n        NodeLinkedListItem storage n = nodes[currentNodeAddress];\n        for(uint nodeNum = 1; nodeNum <= i; nodeNum++){\n            currentNodeAddress = n.next;\n            n = nodes[currentNodeAddress];\n        }\n        return n.node;\n    }\n\n    function getNodes() public view returns (Node[] memory) {\n        Node[] memory nodeArray = new Node[](nodeCount);\n        address currentNodeAddress = headNode;\n        for(uint nodeNum = 0; nodeNum < nodeCount; nodeNum++){\n            NodeLinkedListItem storage n = nodes[currentNodeAddress];\n            nodeArray[nodeNum] = n.node;\n            currentNodeAddress = n.next;\n        }\n        return nodeArray;\n    }\n}",
  "sourcePath": "/home/heynow/streamr/network-contracts/contracts/NodeRegistry.sol",
  "compiler": {
    "name": "solc",
    "version": "0.6.6+commit.6c089d02.Emscripten.clang"
  },
  "schemaVersion": "3.1.0",
  "updatedAt": "2020-05-27T14:23:42.557Z",
  "devdoc": {
    "details": "The Ownable contract has an owner address, and provides basic authorization control functions, this simplifies the implementation of \"user permissions\".",
    "methods": {
      "claimOwnership()": {
        "details": "Allows the pendingOwner address to finalize the transfer."
      },
      "transferOwnership(address)": {
        "details": "Allows the current owner to set the pendingOwner address.",
        "params": {
          "newOwner": "The address to transfer ownership to."
        }
      }
    },
    "title": "Ownable"
  },
  "userdoc": {
    "methods": {}
  }
}