{
  "_format": "hh-sol-artifact-1",
  "contractName": "StreamRegistry",
  "sourceName": "contracts/StreamRegistry/StreamRegistry.sol",
  "abi": [
    {
      "inputs": [
        {
          "internalType": "address",
          "name": "ensCacheAddr",
          "type": "address"
        },
        {
          "internalType": "address",
          "name": "migratoraddr",
          "type": "address"
        }
      ],
      "stateMutability": "nonpayable",
      "type": "constructor"
    },
    {
      "anonymous": false,
      "inputs": [
        {
          "indexed": false,
          "internalType": "string",
          "name": "streamId",
          "type": "string"
        },
        {
          "indexed": false,
          "internalType": "address",
          "name": "user",
          "type": "address"
        },
        {
          "indexed": false,
          "internalType": "bool",
          "name": "edit",
          "type": "bool"
        },
        {
          "indexed": false,
          "internalType": "bool",
          "name": "canDelete",
          "type": "bool"
        },
        {
          "indexed": false,
          "internalType": "bool",
          "name": "publish",
          "type": "bool"
        },
        {
          "indexed": false,
          "internalType": "bool",
          "name": "subscribed",
          "type": "bool"
        },
        {
          "indexed": false,
          "internalType": "bool",
          "name": "share",
          "type": "bool"
        }
      ],
      "name": "PermissionUpdated",
      "type": "event"
    },
    {
      "anonymous": false,
      "inputs": [
        {
          "indexed": false,
          "internalType": "string",
          "name": "id",
          "type": "string"
        },
        {
          "indexed": false,
          "internalType": "string",
          "name": "metadata",
          "type": "string"
        }
      ],
      "name": "StreamCreated",
      "type": "event"
    },
    {
      "anonymous": false,
      "inputs": [
        {
          "indexed": false,
          "internalType": "string",
          "name": "id",
          "type": "string"
        }
      ],
      "name": "StreamDeleted",
      "type": "event"
    },
    {
      "anonymous": false,
      "inputs": [
        {
          "indexed": false,
          "internalType": "string",
          "name": "id",
          "type": "string"
        },
        {
          "indexed": false,
          "internalType": "string",
          "name": "metadata",
          "type": "string"
        }
      ],
      "name": "StreamUpdated",
      "type": "event"
    },
    {
      "inputs": [
        {
          "internalType": "address",
          "name": "_address",
          "type": "address"
        }
      ],
      "name": "addressToString",
      "outputs": [
        {
          "internalType": "string",
          "name": "",
          "type": "string"
        }
      ],
      "stateMutability": "pure",
      "type": "function"
    },
    {
      "inputs": [
        {
          "internalType": "string",
          "name": "streamIdPath",
          "type": "string"
        },
        {
          "internalType": "string",
          "name": "metadataJsonString",
          "type": "string"
        }
      ],
      "name": "createStream",
      "outputs": [],
      "stateMutability": "nonpayable",
      "type": "function"
    },
    {
      "inputs": [
        {
          "internalType": "string",
          "name": "ensName",
          "type": "string"
        },
        {
          "internalType": "string",
          "name": "streamIdPath",
          "type": "string"
        },
        {
          "internalType": "string",
          "name": "metadataJsonString",
          "type": "string"
        }
      ],
      "name": "createStreamWithENS",
      "outputs": [],
      "stateMutability": "nonpayable",
      "type": "function"
    },
    {
      "inputs": [
        {
          "internalType": "string",
          "name": "streamId",
          "type": "string"
        }
      ],
      "name": "deleteStream",
      "outputs": [],
      "stateMutability": "nonpayable",
      "type": "function"
    },
    {
      "inputs": [
        {
          "internalType": "string",
          "name": "streamId",
          "type": "string"
        },
        {
          "internalType": "address",
          "name": "user",
          "type": "address"
        }
      ],
      "name": "getAddressKey",
      "outputs": [
        {
          "internalType": "bytes32",
          "name": "",
          "type": "bytes32"
        }
      ],
      "stateMutability": "view",
      "type": "function"
    },
    {
      "inputs": [
        {
          "internalType": "string",
          "name": "streamId",
          "type": "string"
        },
        {
          "internalType": "address",
          "name": "user",
          "type": "address"
        }
      ],
      "name": "getDirectPermissionsForUser",
      "outputs": [
        {
          "components": [
            {
              "internalType": "bool",
              "name": "edit",
              "type": "bool"
            },
            {
              "internalType": "bool",
              "name": "canDelete",
              "type": "bool"
            },
            {
              "internalType": "bool",
              "name": "publish",
              "type": "bool"
            },
            {
              "internalType": "bool",
              "name": "subscribed",
              "type": "bool"
            },
            {
              "internalType": "bool",
              "name": "share",
              "type": "bool"
            }
          ],
          "internalType": "struct StreamRegistry.Permission",
          "name": "permission",
          "type": "tuple"
        }
      ],
      "stateMutability": "view",
      "type": "function"
    },
    {
      "inputs": [
        {
          "internalType": "string",
          "name": "streamId",
          "type": "string"
        },
        {
          "internalType": "address",
          "name": "user",
          "type": "address"
        }
      ],
      "name": "getPermissionsForUser",
      "outputs": [
        {
          "components": [
            {
              "internalType": "bool",
              "name": "edit",
              "type": "bool"
            },
            {
              "internalType": "bool",
              "name": "canDelete",
              "type": "bool"
            },
            {
              "internalType": "bool",
              "name": "publish",
              "type": "bool"
            },
            {
              "internalType": "bool",
              "name": "subscribed",
              "type": "bool"
            },
            {
              "internalType": "bool",
              "name": "share",
              "type": "bool"
            }
          ],
          "internalType": "struct StreamRegistry.Permission",
          "name": "permission",
          "type": "tuple"
        }
      ],
      "stateMutability": "view",
      "type": "function"
    },
    {
      "inputs": [
        {
          "internalType": "string",
          "name": "streamId",
          "type": "string"
        }
      ],
      "name": "getStreamMetadata",
      "outputs": [
        {
          "internalType": "string",
          "name": "des",
          "type": "string"
        }
      ],
      "stateMutability": "view",
      "type": "function"
    },
    {
      "inputs": [
        {
          "internalType": "string",
          "name": "streamId",
          "type": "string"
        },
        {
          "internalType": "address",
          "name": "user",
          "type": "address"
        },
        {
          "internalType": "enum StreamRegistry.PermissionType",
          "name": "permissionType",
          "type": "uint8"
        }
      ],
      "name": "grantPermission",
      "outputs": [],
      "stateMutability": "nonpayable",
      "type": "function"
    },
    {
      "inputs": [
        {
          "internalType": "string",
          "name": "streamId",
          "type": "string"
        },
        {
          "internalType": "enum StreamRegistry.PermissionType",
          "name": "permissionType",
          "type": "uint8"
        }
      ],
      "name": "grantPublicPermission",
      "outputs": [],
      "stateMutability": "nonpayable",
      "type": "function"
    },
    {
      "inputs": [
        {
          "internalType": "string",
          "name": "streamId",
          "type": "string"
        },
        {
          "internalType": "address",
          "name": "user",
          "type": "address"
        },
        {
          "internalType": "enum StreamRegistry.PermissionType",
          "name": "permissionType",
          "type": "uint8"
        }
      ],
      "name": "hasDirectPermission",
      "outputs": [
        {
          "internalType": "bool",
          "name": "userHasPermission",
          "type": "bool"
        }
      ],
      "stateMutability": "view",
      "type": "function"
    },
    {
      "inputs": [
        {
          "internalType": "string",
          "name": "streamId",
          "type": "string"
        },
        {
          "internalType": "address",
          "name": "user",
          "type": "address"
        },
        {
          "internalType": "enum StreamRegistry.PermissionType",
          "name": "permissionType",
          "type": "uint8"
        }
      ],
      "name": "hasPermission",
      "outputs": [
        {
          "internalType": "bool",
          "name": "userHasPermission",
          "type": "bool"
        }
      ],
      "stateMutability": "view",
      "type": "function"
    },
    {
      "inputs": [],
      "name": "migrationActive",
      "outputs": [
        {
          "internalType": "bool",
          "name": "",
          "type": "bool"
        }
      ],
      "stateMutability": "view",
      "type": "function"
    },
    {
      "inputs": [],
      "name": "migrator",
      "outputs": [
        {
          "internalType": "address",
          "name": "",
          "type": "address"
        }
      ],
      "stateMutability": "view",
      "type": "function"
    },
    {
      "inputs": [
        {
          "internalType": "string",
          "name": "streamId",
          "type": "string"
        },
        {
          "internalType": "address",
          "name": "user",
          "type": "address"
        },
        {
          "internalType": "bool",
          "name": "edit",
          "type": "bool"
        },
        {
          "internalType": "bool",
          "name": "deletePerm",
          "type": "bool"
        },
        {
          "internalType": "bool",
          "name": "publish",
          "type": "bool"
        },
        {
          "internalType": "bool",
          "name": "subscribe",
          "type": "bool"
        },
        {
          "internalType": "bool",
          "name": "share",
          "type": "bool"
        }
      ],
      "name": "migratorSetPermissionsForUser",
      "outputs": [],
      "stateMutability": "nonpayable",
      "type": "function"
    },
    {
      "inputs": [
        {
          "internalType": "string",
          "name": "streamId",
          "type": "string"
        },
        {
          "internalType": "string",
          "name": "metadata",
          "type": "string"
        }
      ],
      "name": "migratorSetStream",
      "outputs": [],
      "stateMutability": "nonpayable",
      "type": "function"
    },
    {
      "inputs": [
        {
          "internalType": "string",
          "name": "streamId",
          "type": "string"
        },
        {
          "internalType": "address",
          "name": "user",
          "type": "address"
        }
      ],
      "name": "revokeAllPermissionsForUser",
      "outputs": [],
      "stateMutability": "nonpayable",
      "type": "function"
    },
    {
      "inputs": [
        {
          "internalType": "string",
          "name": "streamId",
          "type": "string"
        },
        {
          "internalType": "address",
          "name": "user",
          "type": "address"
        },
        {
          "internalType": "enum StreamRegistry.PermissionType",
          "name": "permissionType",
          "type": "uint8"
        }
      ],
      "name": "revokePermission",
      "outputs": [],
      "stateMutability": "nonpayable",
      "type": "function"
    },
    {
      "inputs": [
        {
          "internalType": "string",
          "name": "streamId",
          "type": "string"
        },
        {
          "internalType": "enum StreamRegistry.PermissionType",
          "name": "permissionType",
          "type": "uint8"
        }
      ],
      "name": "revokePublicPermission",
      "outputs": [],
      "stateMutability": "nonpayable",
      "type": "function"
    },
    {
      "inputs": [],
      "name": "setMigrationComplete",
      "outputs": [],
      "stateMutability": "nonpayable",
      "type": "function"
    },
    {
      "inputs": [
        {
          "internalType": "string",
          "name": "streamId",
          "type": "string"
        },
        {
          "internalType": "address",
          "name": "user",
          "type": "address"
        },
        {
          "internalType": "bool",
          "name": "edit",
          "type": "bool"
        },
        {
          "internalType": "bool",
          "name": "deletePerm",
          "type": "bool"
        },
        {
          "internalType": "bool",
          "name": "publish",
          "type": "bool"
        },
        {
          "internalType": "bool",
          "name": "subscribe",
          "type": "bool"
        },
        {
          "internalType": "bool",
          "name": "share",
          "type": "bool"
        }
      ],
      "name": "setPermissionsForUser",
      "outputs": [],
      "stateMutability": "nonpayable",
      "type": "function"
    },
    {
      "inputs": [
        {
          "internalType": "string",
          "name": "streamId",
          "type": "string"
        },
        {
          "internalType": "bool",
          "name": "publish",
          "type": "bool"
        },
        {
          "internalType": "bool",
          "name": "subscribe",
          "type": "bool"
        }
      ],
      "name": "setPublicPermission",
      "outputs": [],
      "stateMutability": "nonpayable",
      "type": "function"
    },
    {
      "inputs": [
        {
          "internalType": "string",
          "name": "",
          "type": "string"
        }
      ],
      "name": "streamIdToMetadata",
      "outputs": [
        {
          "internalType": "string",
          "name": "",
          "type": "string"
        }
      ],
      "stateMutability": "view",
      "type": "function"
    },
    {
      "inputs": [
        {
          "internalType": "string",
          "name": "",
          "type": "string"
        },
        {
          "internalType": "bytes32",
          "name": "",
          "type": "bytes32"
        }
      ],
      "name": "streamIdToPermissions",
      "outputs": [
        {
          "internalType": "bool",
          "name": "edit",
          "type": "bool"
        },
        {
          "internalType": "bool",
          "name": "canDelete",
          "type": "bool"
        },
        {
          "internalType": "bool",
          "name": "publish",
          "type": "bool"
        },
        {
          "internalType": "bool",
          "name": "subscribed",
          "type": "bool"
        },
        {
          "internalType": "bool",
          "name": "share",
          "type": "bool"
        }
      ],
      "stateMutability": "view",
      "type": "function"
    },
    {
      "inputs": [
        {
          "internalType": "string",
          "name": "streamId",
          "type": "string"
        },
        {
          "internalType": "address",
          "name": "recipient",
          "type": "address"
        }
      ],
      "name": "transferAllPermissionsToUser",
      "outputs": [],
      "stateMutability": "nonpayable",
      "type": "function"
    },
    {
      "inputs": [
        {
          "internalType": "string",
          "name": "streamId",
          "type": "string"
        },
        {
          "internalType": "address",
          "name": "recipient",
          "type": "address"
        },
        {
          "internalType": "enum StreamRegistry.PermissionType",
          "name": "permissionType",
          "type": "uint8"
        }
      ],
      "name": "transferPermissionToUser",
      "outputs": [],
      "stateMutability": "nonpayable",
      "type": "function"
    },
    {
      "inputs": [
        {
          "internalType": "string",
          "name": "streamId",
          "type": "string"
        },
        {
          "internalType": "string",
          "name": "metadata",
          "type": "string"
        }
      ],
      "name": "updateStreamMetadata",
      "outputs": [],
      "stateMutability": "nonpayable",
      "type": "function"
    }
  ],
  "bytecode": "0x60806040526001600060146101000a81548160ff0219169083151502179055503480156200002c57600080fd5b5060405162004575380380620045758339818101604052810190620000529190620000f2565b81600460006101000a81548173ffffffffffffffffffffffffffffffffffffffff021916908373ffffffffffffffffffffffffffffffffffffffff160217905550806000806101000a81548173ffffffffffffffffffffffffffffffffffffffff021916908373ffffffffffffffffffffffffffffffffffffffff160217905550505062000181565b600081519050620000ec8162000167565b92915050565b600080604083850312156200010657600080fd5b60006200011685828601620000db565b92505060206200012985828601620000db565b9150509250929050565b6000620001408262000147565b9050919050565b600073ffffffffffffffffffffffffffffffffffffffff82169050919050565b620001728162000133565b81146200017e57600080fd5b50565b6143e480620001916000396000f3fe608060405234801561001057600080fd5b50600436106101a95760003560e01c806378800c76116100f9578063997e8aaa11610097578063d4892dbc11610071578063d4892dbc1461049c578063e8f3828e146104b8578063f36d4849146104e8578063f7f5078c1461051c576101a9565b8063997e8aaa14610434578063a020aa9714610450578063d3bcfc2a14610480576101a9565b806388b21038116100d357806388b21038146103c05780638a043af8146103f05780638d3949721461040c5780638ed6b01614610416576101a9565b806378800c76146103565780637cd07e471461037257806386902fe914610390576101a9565b8063466f878e116101665780635e57966d116101405780635e57966d146102be5780636394fbd2146102ee5780636453cbd71461031e5780636beff96d1461033a576101a9565b8063466f878e1461026a5780634dc51afb1461028657806350b5422b146102a2576101a9565b80630843564a146101ae5780630ef8cdc7146101de5780631b350891146101fa578063272cc993146102165780633e397aea1461023257806342617fe71461024e575b600080fd5b6101c860048036038101906101c391906138cc565b61054c565b6040516101d59190613e91565b60405180910390f35b6101f860048036038101906101f39190613772565b6105ad565b005b610214600480360381019061020f9190613588565b6105ce565b005b610230600480360381019061022b919061371a565b6106c5565b005b61024c60048036038101906102479190613642565b6107a9565b005b61026860048036038101906102639190613772565b61088f565b005b610284600480360381019061027f919061371a565b610a50565b005b6102a0600480360381019061029b91906136ae565b610b34565b005b6102bc60048036038101906102b79190613530565b610c1f565b005b6102d860048036038101906102d39190613499565b610e23565b6040516102e59190613f83565b60405180910390f35b610308600480360381019061030391906134eb565b6110b8565b6040516103159190613f83565b60405180910390f35b610338600480360381019061033391906134eb565b6111f7565b005b610354600480360381019061034f9190613530565b6113ae565b005b610370600480360381019061036b91906137e7565b6116d0565b005b61037a611843565b6040516103879190613e08565b60405180910390f35b6103aa60048036038101906103a5919061388b565b611867565b6040516103b79190613f83565b60405180910390f35b6103da60048036038101906103d59190613642565b61192d565b6040516103e79190613e23565b60405180910390f35b61040a60048036038101906104059190613642565b611959565b005b6104146119c6565b005b61041e611abf565b60405161042b9190613e23565b60405180910390f35b61044e60048036038101906104499190613642565b611ad2565b005b61046a60048036038101906104659190613530565b611bb8565b60405161047791906141b4565b60405180910390f35b61049a60048036038101906104959190613772565b611d55565b005b6104b660048036038101906104b19190613588565b611ea5565b005b6104d260048036038101906104cd9190613530565b611f91565b6040516104df91906141b4565b60405180910390f35b61050260048036038101906104fd9190613920565b61228a565b604051610513959493929190613e3e565b60405180910390f35b61053660048036038101906105319190613642565b612324565b6040516105439190613e23565b60405180910390f35b600060018360405161055e9190613dcb565b908152602001604051809103902060009054906101000a900463ffffffff168260405160200161058f9291906141cf565b60405160208183030381529060405280519060200120905092915050565b60606105b833610e23565b90506105c781868686866126b6565b5050505050565b60008054906101000a900473ffffffffffffffffffffffffffffffffffffffff1673ffffffffffffffffffffffffffffffffffffffff163373ffffffffffffffffffffffffffffffffffffffff161461065c576040517f08c379a0000000000000000000000000000000000000000000000000000000008152600401610653906140b4565b60405180910390fd5b600060149054906101000a900460ff166106ab576040517f08c379a00000000000000000000000000000000000000000000000000000000081526004016106a290614134565b60405180910390fd5b6106bb8888888888888888612a6d565b5050505050505050565b8282600382826040516106d9929190613db2565b9081526020016040518091039020600061073784848080601f016020809104026020016040519081016040528093929190818152602001838380828437600081840152601f19601f820116905080830192505050505050503361054c565b815260200190815260200160002060000160049054906101000a900460ff16610795576040517f08c379a000000000000000000000000000000000000000000000000000000000815260040161078c90614154565b60405180910390fd5b6107a285856000866107a9565b5050505050565b8383600382826040516107bd929190613db2565b9081526020016040518091039020600061081b84848080601f016020809104026020016040519081016040528093929190818152602001838380828437600081840152601f19601f820116905080830192505050505050503361054c565b815260200190815260200160002060000160049054906101000a900460ff16610879576040517f08c379a000000000000000000000000000000000000000000000000000000000815260040161087090614154565b60405180910390fd5b610887868686866000612c97565b505050505050565b83836000600283836040516108a5929190613db2565b90815260200160405180910390208054600181600116156101000203166002900490501415610909576040517f08c379a0000000000000000000000000000000000000000000000000000000008152600401610900906140d4565b60405180910390fd5b85856003828260405161091d929190613db2565b9081526020016040518091039020600061097b84848080601f016020809104026020016040519081016040528093929190818152602001838380828437600081840152601f19601f820116905080830192505050505050503361054c565b815260200190815260200160002060000160009054906101000a900460ff166109d9576040517f08c379a00000000000000000000000000000000000000000000000000000000081526004016109d090614094565b60405180910390fd5b858560028a8a6040516109ed929190613db2565b90815260200160405180910390209190610a08929190613274565b507fa60b7935888a7ab31214282090f1ab7207ab6d7abbf3c11080b75ce91d9a36d088888888604051610a3e9493929190613f48565b60405180910390a15050505050505050565b828260038282604051610a64929190613db2565b90815260200160405180910390206000610ac284848080601f016020809104026020016040519081016040528093929190818152602001838380828437600081840152601f19601f820116905080830192505050505050503361054c565b815260200190815260200160002060000160049054906101000a900460ff16610b20576040517f08c379a0000000000000000000000000000000000000000000000000000000008152600401610b1790614154565b60405180910390fd5b610b2d8585600086611ad2565b5050505050565b838360038282604051610b48929190613db2565b90815260200160405180910390206000610ba684848080601f016020809104026020016040519081016040528093929190818152602001838380828437600081840152601f19601f820116905080830192505050505050503361054c565b815260200190815260200160002060000160049054906101000a900460ff16610c04576040517f08c379a0000000000000000000000000000000000000000000000000000000008152600401610bfb90614154565b60405180910390fd5b610c178686600080600089896000611ea5565b505050505050565b828260038282604051610c33929190613db2565b90815260200160405180910390206000610c9184848080601f016020809104026020016040519081016040528093929190818152602001838380828437600081840152601f19601f820116905080830192505050505050503361054c565b815260200190815260200160002060000160049054906101000a900460ff16610cef576040517f08c379a0000000000000000000000000000000000000000000000000000000008152600401610ce690614154565b60405180910390fd5b60038585604051610d01929190613db2565b90815260200160405180910390206000610d5f87878080601f016020809104026020016040519081016040528093929190818152602001838380828437600081840152601f19601f820116905080830192505050505050508661054c565b8152602001908152602001600020600080820160006101000a81549060ff02191690556000820160016101000a81549060ff02191690556000820160026101000a81549060ff02191690556000820160036101000a81549060ff02191690556000820160046101000a81549060ff021916905550507f22e28c30c57984f353ee8f992671b9dbc19ac7481ed115987fd1050a5b229f388585856000806000806000604051610e14989796959493929190613ed0565b60405180910390a15050505050565b606060008273ffffffffffffffffffffffffffffffffffffffff1660001b905060606040518060400160405280601081526020017f303132333435363738396162636465660000000000000000000000000000000081525090506060602a67ffffffffffffffff81118015610e9757600080fd5b506040519080825280601f01601f191660200182016040528015610eca5781602001600182028036833780820191505090505b5090507f300000000000000000000000000000000000000000000000000000000000000081600081518110610efb57fe5b60200101907effffffffffffffffffffffffffffffffffffffffffffffffffffffffffffff1916908160001a9053507f780000000000000000000000000000000000000000000000000000000000000081600181518110610f5857fe5b60200101907effffffffffffffffffffffffffffffffffffffffffffffffffffffffffffff1916908160001a90535060005b60148110156110ac5782600485600c840160208110610fa557fe5b1a60f81b7effffffffffffffffffffffffffffffffffffffffffffffffffffffffffffff1916901c60f81c60ff1681518110610fdd57fe5b602001015160f81c60f81b826002830260020181518110610ffa57fe5b60200101907effffffffffffffffffffffffffffffffffffffffffffffffffffffffffffff1916908160001a90535082600f60f81b85600c84016020811061103e57fe5b1a60f81b1660f81c60ff168151811061105357fe5b602001015160f81c60f81b82600283026003018151811061107057fe5b60200101907effffffffffffffffffffffffffffffffffffffffffffffffffffffffffffff1916908160001a9053508080600101915050610f8a565b50809350505050919050565b606082826000600283836040516110d0929190613db2565b90815260200160405180910390208054600181600116156101000203166002900490501415611134576040517f08c379a000000000000000000000000000000000000000000000000000000000815260040161112b906140d4565b60405180910390fd5b60028585604051611146929190613db2565b90815260200160405180910390208054600181600116156101000203166002900480601f0160208091040260200160405190810160405280929190818152602001828054600181600116156101000203166002900480156111e85780601f106111bd576101008083540402835291602001916111e8565b820191906000526020600020905b8154815290600101906020018083116111cb57829003601f168201915b50505050509250505092915050565b818160006002838360405161120d929190613db2565b90815260200160405180910390208054600181600116156101000203166002900490501415611271576040517f08c379a0000000000000000000000000000000000000000000000000000000008152600401611268906140d4565b60405180910390fd5b838360038282604051611285929190613db2565b908152602001604051809103902060006112e384848080601f016020809104026020016040519081016040528093929190818152602001838380828437600081840152601f19601f820116905080830192505050505050503361054c565b815260200190815260200160002060000160019054906101000a900460ff16611341576040517f08c379a000000000000000000000000000000000000000000000000000000000815260040161133890614174565b60405180910390fd5b60028686604051611353929190613db2565b9081526020016040518091039020600061136d91906132f4565b7f74b7395f46349d84fba706c4d226c68bbf9206c2567ae3ec2a001b5a98128eae868660405161139e929190613eac565b60405180910390a1505050505050565b6113b661333c565b600384846040516113c8929190613db2565b9081526020016040518091039020600061142686868080601f016020809104026020016040519081016040528093929190818152602001838380828437600081840152601f19601f820116905080830192505050505050503361054c565b81526020019081526020016000206040518060a00160405290816000820160009054906101000a900460ff161515151581526020016000820160019054906101000a900460ff161515151581526020016000820160029054906101000a900460ff161515151581526020016000820160039054906101000a900460ff161515151581526020016000820160049054906101000a900460ff16151515158152505090508060000151806114d9575080602001515b806114e5575080604001515b806114f1575080606001515b806114fd575080608001515b61153c576040517f08c379a0000000000000000000000000000000000000000000000000000000008152600401611533906140f4565b60405180910390fd5b61154461333c565b60038585604051611556929190613db2565b908152602001604051809103902060006115b487878080601f016020809104026020016040519081016040528093929190818152602001838380828437600081840152601f19601f820116905080830192505050505050508661054c565b81526020019081526020016000206040518060a00160405290816000820160009054906101000a900460ff161515151581526020016000820160019054906101000a900460ff161515151581526020016000820160029054906101000a900460ff161515151581526020016000820160039054906101000a900460ff161515151581526020016000820160049054906101000a900460ff16151515158152505090506116b685858585600001518061166d575084600001515b86602001518061167e575085602001515b87604001518061168f575086604001515b8860600151806116a0575087606001515b8960800151806116b1575088608001515b612a6d565b6116c98585336000806000806000612a6d565b5050505050565b3373ffffffffffffffffffffffffffffffffffffffff16600460009054906101000a900473ffffffffffffffffffffffffffffffffffffffff1673ffffffffffffffffffffffffffffffffffffffff16632b1fd99588886040518363ffffffff1660e01b8152600401611744929190613eac565b60206040518083038186803b15801561175c57600080fd5b505afa158015611770573d6000803e3d6000fd5b505050506040513d601f19601f8201168201806040525081019061179491906134c2565b73ffffffffffffffffffffffffffffffffffffffff16146117ea576040517f08c379a00000000000000000000000000000000000000000000000000000000081526004016117e190614194565b60405180910390fd5b61183b86868080601f016020809104026020016040519081016040528093929190818152602001838380828437600081840152601f19601f82011690508083019250505050505050858585856126b6565b505050505050565b60008054906101000a900473ffffffffffffffffffffffffffffffffffffffff1681565b6002818051602081018201805184825260208301602085012081835280955050505050506000915090508054600181600116156101000203166002900480601f0160208091040260200160405190810160405280929190818152602001828054600181600116156101000203166002900480156119255780601f106118fa57610100808354040283529160200191611925565b820191906000526020600020905b81548152906001019060200180831161190857829003601f168201915b505050505081565b600061193b85858585612324565b8061194f575061194e8585600085612324565b5b9050949350505050565b61196584843384612324565b6119a4576040517f08c379a000000000000000000000000000000000000000000000000000000000815260040161199b906140f4565b60405180910390fd5b6119b2848433846000612c97565b6119c0848484846001612c97565b50505050565b60008054906101000a900473ffffffffffffffffffffffffffffffffffffffff1673ffffffffffffffffffffffffffffffffffffffff163373ffffffffffffffffffffffffffffffffffffffff1614611a54576040517f08c379a0000000000000000000000000000000000000000000000000000000008152600401611a4b906140b4565b60405180910390fd5b600060149054906101000a900460ff16611aa3576040517f08c379a0000000000000000000000000000000000000000000000000000000008152600401611a9a90614134565b60405180910390fd5b60008060146101000a81548160ff021916908315150217905550565b600060149054906101000a900460ff1681565b838360038282604051611ae6929190613db2565b90815260200160405180910390206000611b4484848080601f016020809104026020016040519081016040528093929190818152602001838380828437600081840152601f19601f820116905080830192505050505050503361054c565b815260200190815260200160002060000160049054906101000a900460ff16611ba2576040517f08c379a0000000000000000000000000000000000000000000000000000000008152600401611b9990614154565b60405180910390fd5b611bb0868686866001612c97565b505050505050565b611bc061333c565b8383600060028383604051611bd6929190613db2565b90815260200160405180910390208054600181600116156101000203166002900490501415611c3a576040517f08c379a0000000000000000000000000000000000000000000000000000000008152600401611c31906140d4565b60405180910390fd5b60038686604051611c4c929190613db2565b90815260200160405180910390206000611caa88888080601f016020809104026020016040519081016040528093929190818152602001838380828437600081840152601f19601f820116905080830192505050505050508761054c565b81526020019081526020016000206040518060a00160405290816000820160009054906101000a900460ff161515151581526020016000820160019054906101000a900460ff161515151581526020016000820160029054906101000a900460ff161515151581526020016000820160039054906101000a900460ff161515151581526020016000820160049054906101000a900460ff161515151581525050925050509392505050565b60008054906101000a900473ffffffffffffffffffffffffffffffffffffffff1673ffffffffffffffffffffffffffffffffffffffff163373ffffffffffffffffffffffffffffffffffffffff1614611de3576040517f08c379a0000000000000000000000000000000000000000000000000000000008152600401611dda906140b4565b60405180910390fd5b600060149054906101000a900460ff16611e32576040517f08c379a0000000000000000000000000000000000000000000000000000000008152600401611e2990614134565b60405180910390fd5b818160028686604051611e46929190613db2565b90815260200160405180910390209190611e61929190613274565b507fa60b7935888a7ab31214282090f1ab7207ab6d7abbf3c11080b75ce91d9a36d084848484604051611e979493929190613f48565b60405180910390a150505050565b878760038282604051611eb9929190613db2565b90815260200160405180910390206000611f1784848080601f016020809104026020016040519081016040528093929190818152602001838380828437600081840152601f19601f820116905080830192505050505050503361054c565b815260200190815260200160002060000160049054906101000a900460ff16611f75576040517f08c379a0000000000000000000000000000000000000000000000000000000008152600401611f6c90614154565b60405180910390fd5b611f858a8a8a8a8a8a8a8a612a6d565b50505050505050505050565b611f9961333c565b8383600060028383604051611faf929190613db2565b90815260200160405180910390208054600181600116156101000203166002900490501415612013576040517f08c379a000000000000000000000000000000000000000000000000000000000815260040161200a906140d4565b60405180910390fd5b60038686604051612025929190613db2565b9081526020016040518091039020600061208388888080601f016020809104026020016040519081016040528093929190818152602001838380828437600081840152601f19601f820116905080830192505050505050508761054c565b81526020019081526020016000206040518060a00160405290816000820160009054906101000a900460ff161515151581526020016000820160019054906101000a900460ff161515151581526020016000820160029054906101000a900460ff161515151581526020016000820160039054906101000a900460ff161515151581526020016000820160049054906101000a900460ff161515151581525050925061212d61333c565b6003878760405161213f929190613db2565b9081526020016040518091039020600061219e89898080601f016020809104026020016040519081016040528093929190818152602001838380828437600081840152601f19601f82011690508083019250505050505050600061054c565b81526020019081526020016000206040518060a00160405290816000820160009054906101000a900460ff161515151581526020016000820160019054906101000a900460ff161515151581526020016000820160029054906101000a900460ff161515151581526020016000820160039054906101000a900460ff161515151581526020016000820160049054906101000a900460ff1615151515815250509050836040015180612251575080604001515b846040019015159081151581525050836060015180612271575080606001515b8460600190151590811515815250505050509392505050565b600382805160208101820180518482526020830160208501208183528095505050505050602052806000526040600020600091509150508060000160009054906101000a900460ff16908060000160019054906101000a900460ff16908060000160029054906101000a900460ff16908060000160039054906101000a900460ff16908060000160049054906101000a900460ff16905085565b600080600481111561233257fe5b82600481111561233e57fe5b14156123da5760038585604051612356929190613db2565b908152602001604051809103902060006123b487878080601f016020809104026020016040519081016040528093929190818152602001838380828437600081840152601f19601f820116905080830192505050505050508661054c565b815260200190815260200160002060000160009054906101000a900460ff1690506126ae565b600160048111156123e757fe5b8260048111156123f357fe5b141561248f576003858560405161240b929190613db2565b9081526020016040518091039020600061246987878080601f016020809104026020016040519081016040528093929190818152602001838380828437600081840152601f19601f820116905080830192505050505050508661054c565b815260200190815260200160002060000160019054906101000a900460ff1690506126ae565b6003600481111561249c57fe5b8260048111156124a857fe5b141561254457600385856040516124c0929190613db2565b9081526020016040518091039020600061251e87878080601f016020809104026020016040519081016040528093929190818152602001838380828437600081840152601f19601f820116905080830192505050505050508661054c565b815260200190815260200160002060000160039054906101000a900460ff1690506126ae565b6002600481111561255157fe5b82600481111561255d57fe5b14156125f95760038585604051612575929190613db2565b908152602001604051809103902060006125d387878080601f016020809104026020016040519081016040528093929190818152602001838380828437600081840152601f19601f820116905080830192505050505050508661054c565b815260200190815260200160002060000160029054906101000a900460ff1690506126ae565b60048081111561260557fe5b82600481111561261157fe5b14156126ad5760038585604051612629929190613db2565b9081526020016040518091039020600061268787878080601f016020809104026020016040519081016040528093929190818152602001838380828437600081840152601f19601f820116905080830192505050505050508661054c565b815260200190815260200160002060000160049054906101000a900460ff1690506126ae565b5b949350505050565b606084848080601f016020809104026020016040519081016040528093929190818152602001838380828437600081840152601f19601f8201169050808301925050505050505090507f2f000000000000000000000000000000000000000000000000000000000000008160008151811061272d57fe5b602001015160f81c60f81b7effffffffffffffffffffffffffffffffffffffffffffffffffffffffffffff19161461279a576040517f08c379a000000000000000000000000000000000000000000000000000000000815260040161279190614074565b60405180910390fd5b60608686866040516020016127b193929190613de2565b604051602081830303815290604052905060006002826040516127d49190613dcb565b908152602001604051809103902080546001816001161561010002031660029004905014612837576040517f08c379a000000000000000000000000000000000000000000000000000000000815260040161282e90614114565b60405180910390fd5b600180826040516128489190613dcb565b908152602001604051809103902060009054906101000a900463ffffffff16016001826040516128789190613dcb565b908152602001604051809103902060006101000a81548163ffffffff021916908363ffffffff16021790555083836002836040516128b69190613dcb565b908152602001604051809103902091906128d1929190613274565b506040518060a00160405280600115158152602001600115158152602001600115158152602001600115158152602001600115158152506003826040516129189190613dcb565b90815260200160405180910390206000612932843361054c565b815260200190815260200160002060008201518160000160006101000a81548160ff02191690831515021790555060208201518160000160016101000a81548160ff02191690831515021790555060408201518160000160026101000a81548160ff02191690831515021790555060608201518160000160036101000a81548160ff02191690831515021790555060808201518160000160046101000a81548160ff0219169083151502179055509050507f0db027888a30ca08149af1347f6ce2f48daffedd9d6d21ab6249c4d802ce592f818585604051612a169392919061401b565b60405180910390a17f22e28c30c57984f353ee8f992671b9dbc19ac7481ed115987fd1050a5b229f3881336001806001806001604051612a5c9796959493929190613fa5565b60405180910390a150505050505050565b600073ffffffffffffffffffffffffffffffffffffffff168673ffffffffffffffffffffffffffffffffffffffff16141580612ab757508480612aad5750835b80612ab55750805b155b612af6576040517f08c379a0000000000000000000000000000000000000000000000000000000008152600401612aed90614054565b60405180910390fd5b6040518060a00160405280861515815260200185151581526020018415158152602001831515815260200182151581525060038989604051612b39929190613db2565b90815260200160405180910390206000612b978b8b8080601f016020809104026020016040519081016040528093929190818152602001838380828437600081840152601f19601f820116905080830192505050505050508a61054c565b815260200190815260200160002060008201518160000160006101000a81548160ff02191690831515021790555060208201518160000160016101000a81548160ff02191690831515021790555060408201518160000160026101000a81548160ff02191690831515021790555060608201518160000160036101000a81548160ff02191690831515021790555060808201518160000160046101000a81548160ff0219169083151502179055509050507f22e28c30c57984f353ee8f992671b9dbc19ac7481ed115987fd1050a5b229f388888888888888888604051612c85989796959493929190613ed0565b60405180910390a15050505050505050565b600073ffffffffffffffffffffffffffffffffffffffff168373ffffffffffffffffffffffffffffffffffffffff16141580612ce9575060036004811115612cdb57fe5b826004811115612ce757fe5b145b80612d0a575060026004811115612cfc57fe5b826004811115612d0857fe5b145b612d49576040517f08c379a0000000000000000000000000000000000000000000000000000000008152600401612d4090614054565b60405180910390fd5b60006004811115612d5657fe5b826004811115612d6257fe5b1415612e06578060038686604051612d7b929190613db2565b90815260200160405180910390206000612dd988888080601f016020809104026020016040519081016040528093929190818152602001838380828437600081840152601f19601f820116905080830192505050505050508761054c565b815260200190815260200160002060000160006101000a81548160ff0219169083151502179055506130f9565b60016004811115612e1357fe5b826004811115612e1f57fe5b1415612ec3578060038686604051612e38929190613db2565b90815260200160405180910390206000612e9688888080601f016020809104026020016040519081016040528093929190818152602001838380828437600081840152601f19601f820116905080830192505050505050508761054c565b815260200190815260200160002060000160016101000a81548160ff0219169083151502179055506130f8565b60036004811115612ed057fe5b826004811115612edc57fe5b1415612f80578060038686604051612ef5929190613db2565b90815260200160405180910390206000612f5388888080601f016020809104026020016040519081016040528093929190818152602001838380828437600081840152601f19601f820116905080830192505050505050508761054c565b815260200190815260200160002060000160036101000a81548160ff0219169083151502179055506130f7565b60026004811115612f8d57fe5b826004811115612f9957fe5b141561303d578060038686604051612fb2929190613db2565b9081526020016040518091039020600061301088888080601f016020809104026020016040519081016040528093929190818152602001838380828437600081840152601f19601f820116905080830192505050505050508761054c565b815260200190815260200160002060000160026101000a81548160ff0219169083151502179055506130f6565b60048081111561304957fe5b82600481111561305557fe5b14156130f557806003868660405161306e929190613db2565b908152602001604051809103902060006130cc88888080601f016020809104026020016040519081016040528093929190818152602001838380828437600081840152601f19601f820116905080830192505050505050508761054c565b815260200190815260200160002060000160046101000a81548160ff0219169083151502179055505b5b5b5b5b61310161333c565b60038686604051613113929190613db2565b9081526020016040518091039020600061317188888080601f016020809104026020016040519081016040528093929190818152602001838380828437600081840152601f19601f820116905080830192505050505050508761054c565b81526020019081526020016000206040518060a00160405290816000820160009054906101000a900460ff161515151581526020016000820160019054906101000a900460ff161515151581526020016000820160029054906101000a900460ff161515151581526020016000820160039054906101000a900460ff161515151581526020016000820160049054906101000a900460ff16151515158152505090507f22e28c30c57984f353ee8f992671b9dbc19ac7481ed115987fd1050a5b229f3886868684600001518560200151866040015187606001518860800151604051613264989796959493929190613ed0565b60405180910390a1505050505050565b828054600181600116156101000203166002900490600052602060002090601f016020900481019282601f106132b557803560ff19168380011785556132e3565b828001600101855582156132e3579182015b828111156132e25782358255916020019190600101906132c7565b5b5090506132f09190613375565b5090565b50805460018160011615610100020316600290046000825580601f1061331a5750613339565b601f0160209004906000526020600020908101906133389190613375565b5b50565b6040518060a001604052806000151581526020016000151581526020016000151581526020016000151581526020016000151581525090565b5b8082111561338e576000816000905550600101613376565b5090565b6000813590506133a181614359565b92915050565b6000815190506133b681614359565b92915050565b6000813590506133cb81614370565b92915050565b6000813590506133e081614387565b92915050565b6000813590506133f58161439e565b92915050565b60008083601f84011261340d57600080fd5b8235905067ffffffffffffffff81111561342657600080fd5b60208301915083600182028301111561343e57600080fd5b9250929050565b600082601f83011261345657600080fd5b813561346961346482614225565b6141f8565b9150808252602083016020830185838301111561348557600080fd5b613490838284614306565b50505092915050565b6000602082840312156134ab57600080fd5b60006134b984828501613392565b91505092915050565b6000602082840312156134d457600080fd5b60006134e2848285016133a7565b91505092915050565b600080602083850312156134fe57600080fd5b600083013567ffffffffffffffff81111561351857600080fd5b613524858286016133fb565b92509250509250929050565b60008060006040848603121561354557600080fd5b600084013567ffffffffffffffff81111561355f57600080fd5b61356b868287016133fb565b9350935050602061357e86828701613392565b9150509250925092565b60008060008060008060008060e0898b0312156135a457600080fd5b600089013567ffffffffffffffff8111156135be57600080fd5b6135ca8b828c016133fb565b985098505060206135dd8b828c01613392565b96505060406135ee8b828c016133bc565b95505060606135ff8b828c016133bc565b94505060806136108b828c016133bc565b93505060a06136218b828c016133bc565b92505060c06136328b828c016133bc565b9150509295985092959890939650565b6000806000806060858703121561365857600080fd5b600085013567ffffffffffffffff81111561367257600080fd5b61367e878288016133fb565b9450945050602061369187828801613392565b92505060406136a2878288016133e6565b91505092959194509250565b600080600080606085870312156136c457600080fd5b600085013567ffffffffffffffff8111156136de57600080fd5b6136ea878288016133fb565b945094505060206136fd878288016133bc565b925050604061370e878288016133bc565b91505092959194509250565b60008060006040848603121561372f57600080fd5b600084013567ffffffffffffffff81111561374957600080fd5b613755868287016133fb565b93509350506020613768868287016133e6565b9150509250925092565b6000806000806040858703121561378857600080fd5b600085013567ffffffffffffffff8111156137a257600080fd5b6137ae878288016133fb565b9450945050602085013567ffffffffffffffff8111156137cd57600080fd5b6137d9878288016133fb565b925092505092959194509250565b6000806000806000806060878903121561380057600080fd5b600087013567ffffffffffffffff81111561381a57600080fd5b61382689828a016133fb565b9650965050602087013567ffffffffffffffff81111561384557600080fd5b61385189828a016133fb565b9450945050604087013567ffffffffffffffff81111561387057600080fd5b61387c89828a016133fb565b92509250509295509295509295565b60006020828403121561389d57600080fd5b600082013567ffffffffffffffff8111156138b757600080fd5b6138c384828501613445565b91505092915050565b600080604083850312156138df57600080fd5b600083013567ffffffffffffffff8111156138f957600080fd5b61390585828601613445565b925050602061391685828601613392565b9150509250929050565b6000806040838503121561393357600080fd5b600083013567ffffffffffffffff81111561394d57600080fd5b61395985828601613445565b925050602061396a858286016133d1565b9150509250929050565b61397d816142d0565b82525050565b61398c81614278565b82525050565b61399b8161428a565b82525050565b6139aa8161428a565b82525050565b6139b981614296565b82525050565b60006139cb838561425c565b93506139d8838584614306565b6139e183614348565b840190509392505050565b60006139f8838561426d565b9350613a05838584614306565b82840190509392505050565b6000613a1c82614251565b613a26818561425c565b9350613a36818560208601614315565b613a3f81614348565b840191505092915050565b6000613a5582614251565b613a5f818561426d565b9350613a6f818560208601614315565b80840191505092915050565b6000613a88601b8361425c565b91507f6572726f725f7075626c696343616e4f6e6c79537562735075626c00000000006000830152602082019050919050565b6000613ac8601c8361425c565b91507f6572726f725f706174684d757374537461727457697468536c617368000000006000830152602082019050919050565b6000613b0860168361425c565b91507f6572726f725f6e6f456469745065726d697373696f6e000000000000000000006000830152602082019050919050565b6000613b4860148361425c565b91507f6572726f725f6d75737442654d69677261746f720000000000000000000000006000830152602082019050919050565b6000613b8860188361425c565b91507f6572726f725f73747265616d446f65734e6f74457869737400000000000000006000830152602082019050919050565b6000613bc8601c8361425c565b91507f6572726f725f6e6f5065726d697373696f6e546f5472616e73666572000000006000830152602082019050919050565b6000613c0860198361425c565b91507f6572726f725f73747265616d416c7265616479457869737473000000000000006000830152602082019050919050565b6000613c4860178361425c565b91507f6572726f725f6d6967726174696f6e4973436c6f7365640000000000000000006000830152602082019050919050565b6000613c8860178361425c565b91507f6572726f725f6e6f53616872655065726d697373696f6e0000000000000000006000830152602082019050919050565b6000613cc860188361425c565b91507f6572726f725f6e6f44656c6574655065726d697373696f6e00000000000000006000830152602082019050919050565b6000613d0860178361425c565b91507f6572726f725f6e6f744f776e65724f66454e534e616d650000000000000000006000830152602082019050919050565b60a082016000820151613d516000850182613992565b506020820151613d646020850182613992565b506040820151613d776040850182613992565b506060820151613d8a6060850182613992565b506080820151613d9d6080850182613992565b50505050565b613dac816142c0565b82525050565b6000613dbf8284866139ec565b91508190509392505050565b6000613dd78284613a4a565b915081905092915050565b6000613dee8286613a4a565b9150613dfb8284866139ec565b9150819050949350505050565b6000602082019050613e1d6000830184613983565b92915050565b6000602082019050613e3860008301846139a1565b92915050565b600060a082019050613e5360008301886139a1565b613e6060208301876139a1565b613e6d60408301866139a1565b613e7a60608301856139a1565b613e8760808301846139a1565b9695505050505050565b6000602082019050613ea660008301846139b0565b92915050565b60006020820190508181036000830152613ec78184866139bf565b90509392505050565b600060e0820190508181036000830152613eeb818a8c6139bf565b9050613efa6020830189613983565b613f0760408301886139a1565b613f1460608301876139a1565b613f2160808301866139a1565b613f2e60a08301856139a1565b613f3b60c08301846139a1565b9998505050505050505050565b60006040820190508181036000830152613f638186886139bf565b90508181036020830152613f788184866139bf565b905095945050505050565b60006020820190508181036000830152613f9d8184613a11565b905092915050565b600060e0820190508181036000830152613fbf818a613a11565b9050613fce6020830189613974565b613fdb60408301886139a1565b613fe860608301876139a1565b613ff560808301866139a1565b61400260a08301856139a1565b61400f60c08301846139a1565b98975050505050505050565b600060408201905081810360008301526140358186613a11565b9050818103602083015261404a8184866139bf565b9050949350505050565b6000602082019050818103600083015261406d81613a7b565b9050919050565b6000602082019050818103600083015261408d81613abb565b9050919050565b600060208201905081810360008301526140ad81613afb565b9050919050565b600060208201905081810360008301526140cd81613b3b565b9050919050565b600060208201905081810360008301526140ed81613b7b565b9050919050565b6000602082019050818103600083015261410d81613bbb565b9050919050565b6000602082019050818103600083015261412d81613bfb565b9050919050565b6000602082019050818103600083015261414d81613c3b565b9050919050565b6000602082019050818103600083015261416d81613c7b565b9050919050565b6000602082019050818103600083015261418d81613cbb565b9050919050565b600060208201905081810360008301526141ad81613cfb565b9050919050565b600060a0820190506141c96000830184613d3b565b92915050565b60006040820190506141e46000830185613da3565b6141f16020830184613983565b9392505050565b6000604051905081810181811067ffffffffffffffff8211171561421b57600080fd5b8060405250919050565b600067ffffffffffffffff82111561423c57600080fd5b601f19601f8301169050602081019050919050565b600081519050919050565b600082825260208201905092915050565b600081905092915050565b6000614283826142a0565b9050919050565b60008115159050919050565b6000819050919050565b600073ffffffffffffffffffffffffffffffffffffffff82169050919050565b600063ffffffff82169050919050565b60006142db826142e2565b9050919050565b60006142ed826142f4565b9050919050565b60006142ff826142a0565b9050919050565b82818337600083830152505050565b60005b83811015614333578082015181840152602081019050614318565b83811115614342576000848401525b50505050565b6000601f19601f8301169050919050565b61436281614278565b811461436d57600080fd5b50565b6143798161428a565b811461438457600080fd5b50565b61439081614296565b811461439b57600080fd5b50565b600581106143ab57600080fd5b5056fea26469706673582212205b2bd577d4591bb21293e6149854a4ed07e102436c7e63bfd76c79ffeb4c103464736f6c634300060c0033",
  "linkReferences": {},
  "deployedLinkReferences": {}
}