{
  "_format": "hh-sol-artifact-1",
  "contractName": "StreamStorageRegistry",
  "sourceName": "contracts/StreamStorageRegistry/StreamStorageRegistry.sol",
  "abi": [
    {
      "inputs": [
        {
          "internalType": "address",
          "name": "streamRegistryAddress",
          "type": "address"
        },
        {
          "internalType": "address",
          "name": "nodeRegistryAddress",
          "type": "address"
        },
        {
          "internalType": "address",
          "name": "trustedForwarderAddress",
          "type": "address"
        }
      ],
      "stateMutability": "nonpayable",
      "type": "constructor"
    },
    {
      "anonymous": false,
      "inputs": [
        {
          "indexed": false,
          "internalType": "string",
          "name": "streamId",
          "type": "string"
        },
        {
          "indexed": true,
          "internalType": "address",
          "name": "nodeAddress",
          "type": "address"
        }
      ],
      "name": "Added",
      "type": "event"
    },
    {
      "anonymous": false,
      "inputs": [
        {
          "indexed": false,
          "internalType": "string",
          "name": "streamId",
          "type": "string"
        },
        {
          "indexed": true,
          "internalType": "address",
          "name": "nodeAddress",
          "type": "address"
        }
      ],
      "name": "Removed",
      "type": "event"
    },
    {
      "inputs": [],
      "name": "_trustedForwarder",
      "outputs": [
        {
          "internalType": "address",
          "name": "",
          "type": "address"
        }
      ],
      "stateMutability": "view",
      "type": "function"
    },
    {
      "inputs": [
        {
          "internalType": "string",
          "name": "streamId",
          "type": "string"
        },
        {
          "internalType": "address[]",
          "name": "addNodes",
          "type": "address[]"
        },
        {
          "internalType": "address[]",
          "name": "removeNodes",
          "type": "address[]"
        }
      ],
      "name": "addAndRemoveStorageNodes",
      "outputs": [],
      "stateMutability": "nonpayable",
      "type": "function"
    },
    {
      "inputs": [
        {
          "internalType": "string",
          "name": "streamId",
          "type": "string"
        },
        {
          "internalType": "address",
          "name": "nodeAddress",
          "type": "address"
        }
      ],
      "name": "addStorageNode",
      "outputs": [],
      "stateMutability": "nonpayable",
      "type": "function"
    },
    {
      "inputs": [
        {
          "internalType": "string",
          "name": "streamId",
          "type": "string"
        },
        {
          "internalType": "address",
          "name": "nodeAddress",
          "type": "address"
        }
      ],
      "name": "isStorageNodeOf",
      "outputs": [
        {
          "internalType": "bool",
          "name": "",
          "type": "bool"
        }
      ],
      "stateMutability": "view",
      "type": "function"
    },
    {
      "inputs": [
        {
          "internalType": "address",
          "name": "forwarder",
          "type": "address"
        }
      ],
      "name": "isTrustedForwarder",
      "outputs": [
        {
          "internalType": "bool",
          "name": "",
          "type": "bool"
        }
      ],
      "stateMutability": "view",
      "type": "function"
    },
    {
      "inputs": [],
      "name": "nodeRegistry",
      "outputs": [
        {
          "internalType": "contract NodeRegistry",
          "name": "",
          "type": "address"
        }
      ],
      "stateMutability": "view",
      "type": "function"
    },
    {
      "inputs": [
        {
          "internalType": "string",
          "name": "",
          "type": "string"
        },
        {
          "internalType": "address",
          "name": "",
          "type": "address"
        }
      ],
      "name": "pairs",
      "outputs": [
        {
          "internalType": "uint256",
          "name": "dateCreated",
          "type": "uint256"
        }
      ],
      "stateMutability": "view",
      "type": "function"
    },
    {
      "inputs": [
        {
          "internalType": "string",
          "name": "streamId",
          "type": "string"
        },
        {
          "internalType": "address",
          "name": "nodeAddress",
          "type": "address"
        }
      ],
      "name": "removeStorageNode",
      "outputs": [],
      "stateMutability": "nonpayable",
      "type": "function"
    },
    {
      "inputs": [],
      "name": "streamRegistry",
      "outputs": [
        {
          "internalType": "contract StreamRegistry",
          "name": "",
          "type": "address"
        }
      ],
      "stateMutability": "view",
      "type": "function"
    }
  ],
  "bytecode": "0x60806040523480156200001157600080fd5b5060405162001f0138038062001f0183398181016040528101906200003791906200011b565b80806000806101000a81548173ffffffffffffffffffffffffffffffffffffffff021916908373ffffffffffffffffffffffffffffffffffffffff1602179055505082600160006101000a81548173ffffffffffffffffffffffffffffffffffffffff021916908373ffffffffffffffffffffffffffffffffffffffff16021790555081600260006101000a81548173ffffffffffffffffffffffffffffffffffffffff021916908373ffffffffffffffffffffffffffffffffffffffff160217905550505050620001ca565b6000815190506200011581620001b0565b92915050565b600080600060608486031215620001375762000136620001ab565b5b6000620001478682870162000104565b93505060206200015a8682870162000104565b92505060406200016d8682870162000104565b9150509250925092565b600062000184826200018b565b9050919050565b600073ffffffffffffffffffffffffffffffffffffffff82169050919050565b600080fd5b620001bb8162000177565b8114620001c757600080fd5b50565b611d2780620001da6000396000f3fe608060405234801561001057600080fd5b50600436106100935760003560e01c8063842107cd11610066578063842107cd14610132578063a030f2df1461014e578063a1aeaf221461017e578063d9b5c4a51461019a578063e3642153146101b857610093565b806356c022bb14610098578063572b6c05146100b6578063749d18d7146100e657806380e9f2ba14610102575b600080fd5b6100a06101d6565b6040516100ad91906117c7565b60405180910390f35b6100d060048036038101906100cb9190611477565b6101fa565b6040516100dd91906117e2565b60405180910390f35b61010060048036038101906100fb91906114d1565b610253565b005b61011c600480360381019061011791906115e5565b61052a565b6040516101299190611920565b60405180910390f35b61014c600480360381019061014791906114d1565b61056b565b005b610168600480360381019061016391906114d1565b61093f565b60405161017591906117e2565b60405180910390f35b61019860048036038101906101939190611531565b610b36565b005b6101a2610fb0565b6040516101af9190611826565b60405180910390f35b6101c0610fd6565b6040516101cd9190611841565b60405180910390f35b60008054906101000a900473ffffffffffffffffffffffffffffffffffffffff1681565b60008060009054906101000a900473ffffffffffffffffffffffffffffffffffffffff1673ffffffffffffffffffffffffffffffffffffffff168273ffffffffffffffffffffffffffffffffffffffff16149050919050565b8282600160009054906101000a900473ffffffffffffffffffffffffffffffffffffffff1673ffffffffffffffffffffffffffffffffffffffff1663261a323e83836040518363ffffffff1660e01b81526004016102b292919061185c565b60206040518083038186803b1580156102ca57600080fd5b505afa1580156102de573d6000803e3d6000fd5b505050506040513d601f19601f8201168201806040525081019061030291906114a4565b610341576040517f08c379a000000000000000000000000000000000000000000000000000000000815260040161033890611900565b60405180910390fd5b6000600160009054906101000a900473ffffffffffffffffffffffffffffffffffffffff1673ffffffffffffffffffffffffffffffffffffffff166391d148547f2de84d9fbdf6d06e2cc584295043dbd76046423b9f8bae9426d4fa5e7c03f4a76103aa610ffc565b6040518363ffffffff1660e01b81526004016103c79291906117fd565b60206040518083038186803b1580156103df57600080fd5b505afa1580156103f3573d6000803e3d6000fd5b505050506040513d601f19601f8201168201806040525081019061041791906114a4565b90508061051757600160009054906101000a900473ffffffffffffffffffffffffffffffffffffffff1673ffffffffffffffffffffffffffffffffffffffff166388b210388484610466610ffc565b60006040518563ffffffff1660e01b81526004016104879493929190611880565b60206040518083038186803b15801561049f57600080fd5b505afa1580156104b3573d6000803e3d6000fd5b505050506040513d601f19601f820116820180604052508101906104d791906114a4565b610516576040517f08c379a000000000000000000000000000000000000000000000000000000000815260040161050d906118e0565b60405180910390fd5b5b61052286868661102e565b505050505050565b600382805160208101820180518482526020830160208501208183528095505050505050602052806000526040600020600091509150508060000154905081565b8282600160009054906101000a900473ffffffffffffffffffffffffffffffffffffffff1673ffffffffffffffffffffffffffffffffffffffff1663261a323e83836040518363ffffffff1660e01b81526004016105ca92919061185c565b60206040518083038186803b1580156105e257600080fd5b505afa1580156105f6573d6000803e3d6000fd5b505050506040513d601f19601f8201168201806040525081019061061a91906114a4565b610659576040517f08c379a000000000000000000000000000000000000000000000000000000000815260040161065090611900565b60405180910390fd5b6000600160009054906101000a900473ffffffffffffffffffffffffffffffffffffffff1673ffffffffffffffffffffffffffffffffffffffff166391d148547f2de84d9fbdf6d06e2cc584295043dbd76046423b9f8bae9426d4fa5e7c03f4a76106c2610ffc565b6040518363ffffffff1660e01b81526004016106df9291906117fd565b60206040518083038186803b1580156106f757600080fd5b505afa15801561070b573d6000803e3d6000fd5b505050506040513d601f19601f8201168201806040525081019061072f91906114a4565b90508061082f57600160009054906101000a900473ffffffffffffffffffffffffffffffffffffffff1673ffffffffffffffffffffffffffffffffffffffff166388b21038848461077e610ffc565b60006040518563ffffffff1660e01b815260040161079f9493929190611880565b60206040518083038186803b1580156107b757600080fd5b505afa1580156107cb573d6000803e3d6000fd5b505050506040513d601f19601f820116820180604052508101906107ef91906114a4565b61082e576040517f08c379a0000000000000000000000000000000000000000000000000000000008152600401610825906118e0565b60405180910390fd5b5b6000600260009054906101000a900473ffffffffffffffffffffffffffffffffffffffff1673ffffffffffffffffffffffffffffffffffffffff16639d209048866040518263ffffffff1660e01b815260040161088c91906117c7565b60006040518083038186803b1580156108a457600080fd5b505afa1580156108b8573d6000803e3d6000fd5b505050506040513d6000823e3d601f19601f820116820180604052508101906108e19190611641565b905060008160400151141561092b576040517f08c379a0000000000000000000000000000000000000000000000000000000008152600401610922906118c0565b60405180910390fd5b6109368787876110eb565b50505050505050565b6000600160009054906101000a900473ffffffffffffffffffffffffffffffffffffffff1673ffffffffffffffffffffffffffffffffffffffff1663261a323e85856040518363ffffffff1660e01b815260040161099e92919061185c565b60206040518083038186803b1580156109b657600080fd5b505afa1580156109ca573d6000803e3d6000fd5b505050506040513d601f19601f820116820180604052508101906109ee91906114a4565b6109fb5760009050610b2f565b6000600260009054906101000a900473ffffffffffffffffffffffffffffffffffffffff1673ffffffffffffffffffffffffffffffffffffffff16639d209048846040518263ffffffff1660e01b8152600401610a5891906117c7565b60006040518083038186803b158015610a7057600080fd5b505afa158015610a84573d6000803e3d6000fd5b505050506040513d6000823e3d601f19601f82011682018060405250810190610aad9190611641565b9050600081604001511415610ac6576000915050610b2f565b600060038686604051610ada9291906117ae565b908152602001604051809103902060008573ffffffffffffffffffffffffffffffffffffffff1673ffffffffffffffffffffffffffffffffffffffff1681526020019081526020016000206000015414159150505b9392505050565b8585600160009054906101000a900473ffffffffffffffffffffffffffffffffffffffff1673ffffffffffffffffffffffffffffffffffffffff1663261a323e83836040518363ffffffff1660e01b8152600401610b9592919061185c565b60206040518083038186803b158015610bad57600080fd5b505afa158015610bc1573d6000803e3d6000fd5b505050506040513d601f19601f82011682018060405250810190610be591906114a4565b610c24576040517f08c379a0000000000000000000000000000000000000000000000000000000008152600401610c1b90611900565b60405180910390fd5b6000600160009054906101000a900473ffffffffffffffffffffffffffffffffffffffff1673ffffffffffffffffffffffffffffffffffffffff166391d148547f2de84d9fbdf6d06e2cc584295043dbd76046423b9f8bae9426d4fa5e7c03f4a7610c8d610ffc565b6040518363ffffffff1660e01b8152600401610caa9291906117fd565b60206040518083038186803b158015610cc257600080fd5b505afa158015610cd6573d6000803e3d6000fd5b505050506040513d601f19601f82011682018060405250810190610cfa91906114a4565b905080610dfa57600160009054906101000a900473ffffffffffffffffffffffffffffffffffffffff1673ffffffffffffffffffffffffffffffffffffffff166388b210388484610d49610ffc565b60006040518563ffffffff1660e01b8152600401610d6a9493929190611880565b60206040518083038186803b158015610d8257600080fd5b505afa158015610d96573d6000803e3d6000fd5b505050506040513d601f19601f82011682018060405250810190610dba91906114a4565b610df9576040517f08c379a0000000000000000000000000000000000000000000000000000000008152600401610df0906118e0565b60405180910390fd5b5b60005b87879050811015610f50576000888883818110610e1d57610e1c611b86565b5b9050602002016020810190610e329190611477565b90506000600260009054906101000a900473ffffffffffffffffffffffffffffffffffffffff1673ffffffffffffffffffffffffffffffffffffffff16639d209048836040518263ffffffff1660e01b8152600401610e9191906117c7565b60006040518083038186803b158015610ea957600080fd5b505afa158015610ebd573d6000803e3d6000fd5b505050506040513d6000823e3d601f19601f82011682018060405250810190610ee69190611641565b9050600081604001511415610f30576040517f08c379a0000000000000000000000000000000000000000000000000000000008152600401610f27906118c0565b60405180910390fd5b610f3b8c8c846110eb565b50508080610f4890611adf565b915050610dfd565b5060005b85859050811015610fa457610f918a8a888885818110610f7757610f76611b86565b5b9050602002016020810190610f8c9190611477565b61102e565b8080610f9c90611adf565b915050610f54565b50505050505050505050565b600260009054906101000a900473ffffffffffffffffffffffffffffffffffffffff1681565b600160009054906101000a900473ffffffffffffffffffffffffffffffffffffffff1681565b6000611007336101fa565b1561101b57601436033560601c905061102a565b61102361120f565b905061102b565b5b90565b600383836040516110409291906117ae565b908152602001604051809103902060008273ffffffffffffffffffffffffffffffffffffffff1673ffffffffffffffffffffffffffffffffffffffff16815260200190815260200160002060008082016000905550508073ffffffffffffffffffffffffffffffffffffffff167f264d05230c1929427b5dcfcf1c83668ac376e215a2c35cb0e2c21816bbe28d0684846040516110de92919061185c565b60405180910390a2505050565b6000600384846040516110ff9291906117ae565b908152602001604051809103902060008373ffffffffffffffffffffffffffffffffffffffff1673ffffffffffffffffffffffffffffffffffffffff1681526020019081526020016000206000015414156111ba5742600384846040516111679291906117ae565b908152602001604051809103902060008373ffffffffffffffffffffffffffffffffffffffff1673ffffffffffffffffffffffffffffffffffffffff168152602001908152602001600020600001819055505b8073ffffffffffffffffffffffffffffffffffffffff167ffb989cb0d132b51483b9258c1befbe92caa5f5b046af3dfdcc617dcf425af493848460405161120292919061185c565b60405180910390a2505050565b600033905090565b600061122a61122584611960565b61193b565b90508281526020810184848401111561124657611245611bfd565b5b611251848285611a6c565b509392505050565b600061126c61126784611960565b61193b565b90508281526020810184848401111561128857611287611bfd565b5b611293848285611a7b565b509392505050565b6000813590506112aa81611cac565b92915050565b6000815190506112bf81611cac565b92915050565b60008083601f8401126112db576112da611be9565b5b8235905067ffffffffffffffff8111156112f8576112f7611be4565b5b60208301915083602082028301111561131457611313611bf8565b5b9250929050565b60008151905061132a81611cc3565b92915050565b60008083601f84011261134657611345611be9565b5b8235905067ffffffffffffffff81111561136357611362611be4565b5b60208301915083600182028301111561137f5761137e611bf8565b5b9250929050565b600082601f83011261139b5761139a611be9565b5b81356113ab848260208601611217565b91505092915050565b600082601f8301126113c9576113c8611be9565b5b81516113d9848260208601611259565b91505092915050565b6000606082840312156113f8576113f7611bee565b5b611402606061193b565b90506000611412848285016112b0565b600083015250602082015167ffffffffffffffff81111561143657611435611bf3565b5b611442848285016113b4565b602083015250604061145684828501611462565b60408301525092915050565b60008151905061147181611cda565b92915050565b60006020828403121561148d5761148c611c07565b5b600061149b8482850161129b565b91505092915050565b6000602082840312156114ba576114b9611c07565b5b60006114c88482850161131b565b91505092915050565b6000806000604084860312156114ea576114e9611c07565b5b600084013567ffffffffffffffff81111561150857611507611c02565b5b61151486828701611330565b935093505060206115278682870161129b565b9150509250925092565b6000806000806000806060878903121561154e5761154d611c07565b5b600087013567ffffffffffffffff81111561156c5761156b611c02565b5b61157889828a01611330565b9650965050602087013567ffffffffffffffff81111561159b5761159a611c02565b5b6115a789828a016112c5565b9450945050604087013567ffffffffffffffff8111156115ca576115c9611c02565b5b6115d689828a016112c5565b92509250509295509295509295565b600080604083850312156115fc576115fb611c07565b5b600083013567ffffffffffffffff81111561161a57611619611c02565b5b61162685828601611386565b92505060206116378582860161129b565b9150509250929050565b60006020828403121561165757611656611c07565b5b600082015167ffffffffffffffff81111561167557611674611c02565b5b611681848285016113e2565b91505092915050565b611693816119ad565b82525050565b6116a2816119bf565b82525050565b6116b1816119cb565b82525050565b6116c081611a12565b82525050565b6116cf81611a36565b82525050565b6116de81611a5a565b82525050565b60006116f08385611991565b93506116fd838584611a6c565b61170683611c0c565b840190509392505050565b600061171d83856119a2565b935061172a838584611a6c565b82840190509392505050565b6000611743601e83611991565b915061174e82611c1d565b602082019050919050565b6000611766601683611991565b915061177182611c46565b602082019050919050565b6000611789601883611991565b915061179482611c6f565b602082019050919050565b6117a881611a08565b82525050565b60006117bb828486611711565b91508190509392505050565b60006020820190506117dc600083018461168a565b92915050565b60006020820190506117f76000830184611699565b92915050565b600060408201905061181260008301856116a8565b61181f602083018461168a565b9392505050565b600060208201905061183b60008301846116b7565b92915050565b600060208201905061185660008301846116c6565b92915050565b600060208201905081810360008301526118778184866116e4565b90509392505050565b6000606082019050818103600083015261189b8186886116e4565b90506118aa602083018561168a565b6118b760408301846116d5565b95945050505050565b600060208201905081810360008301526118d981611736565b9050919050565b600060208201905081810360008301526118f981611759565b9050919050565b600060208201905081810360008301526119198161177c565b9050919050565b6000602082019050611935600083018461179f565b92915050565b6000611945611956565b90506119518282611aae565b919050565b6000604051905090565b600067ffffffffffffffff82111561197b5761197a611bb5565b5b61198482611c0c565b9050602081019050919050565b600082825260208201905092915050565b600081905092915050565b60006119b8826119e8565b9050919050565b60008115159050919050565b6000819050919050565b60008190506119e382611c98565b919050565b600073ffffffffffffffffffffffffffffffffffffffff82169050919050565b6000819050919050565b6000611a1d82611a24565b9050919050565b6000611a2f826119e8565b9050919050565b6000611a4182611a48565b9050919050565b6000611a53826119e8565b9050919050565b6000611a65826119d5565b9050919050565b82818337600083830152505050565b60005b83811015611a99578082015181840152602081019050611a7e565b83811115611aa8576000848401525b50505050565b611ab782611c0c565b810181811067ffffffffffffffff82111715611ad657611ad5611bb5565b5b80604052505050565b6000611aea82611a08565b91507fffffffffffffffffffffffffffffffffffffffffffffffffffffffffffffffff821415611b1d57611b1c611b28565b5b600182019050919050565b7f4e487b7100000000000000000000000000000000000000000000000000000000600052601160045260246000fd5b7f4e487b7100000000000000000000000000000000000000000000000000000000600052602160045260246000fd5b7f4e487b7100000000000000000000000000000000000000000000000000000000600052603260045260246000fd5b7f4e487b7100000000000000000000000000000000000000000000000000000000600052604160045260246000fd5b600080fd5b600080fd5b600080fd5b600080fd5b600080fd5b600080fd5b600080fd5b600080fd5b6000601f19601f8301169050919050565b7f6572726f725f73746f726167654e6f64654e6f74526567697374657265640000600082015250565b7f6572726f725f6e6f456469745065726d697373696f6e00000000000000000000600082015250565b7f6572726f725f73747265616d446f65734e6f7445786973740000000000000000600082015250565b60058110611ca957611ca8611b57565b5b50565b611cb5816119ad565b8114611cc057600080fd5b50565b611ccc816119bf565b8114611cd757600080fd5b50565b611ce381611a08565b8114611cee57600080fd5b5056fea2646970667358221220aef3dcda6324d533adbcf4b0dd75d083dc200148efbdc9deeeb261984bf459a864736f6c63430008060033",
  "linkReferences": {},
  "deployedLinkReferences": {}
}