{
  "address": "0x951FF05D5be8608f907125c813feAF02467C8684",
  "abi": [
    {
      "inputs": [
        {
          "internalType": "address",
          "name": "ensCacheAddr",
          "type": "address"
        }
      ],
      "stateMutability": "nonpayable",
      "type": "constructor"
    },
    {
      "anonymous": false,
      "inputs": [
        {
          "indexed": false,
          "internalType": "string",
          "name": "streamId",
          "type": "string"
        },
        {
          "indexed": false,
          "internalType": "address",
          "name": "user",
          "type": "address"
        },
        {
          "indexed": false,
          "internalType": "bool",
          "name": "edit",
          "type": "bool"
        },
        {
          "indexed": false,
          "internalType": "bool",
          "name": "canDelete",
          "type": "bool"
        },
        {
          "indexed": false,
          "internalType": "bool",
          "name": "publish",
          "type": "bool"
        },
        {
          "indexed": false,
          "internalType": "bool",
          "name": "subscribed",
          "type": "bool"
        },
        {
          "indexed": false,
          "internalType": "bool",
          "name": "share",
          "type": "bool"
        }
      ],
      "name": "PermissionUpdated",
      "type": "event"
    },
    {
      "anonymous": false,
      "inputs": [
        {
          "indexed": false,
          "internalType": "string",
          "name": "id",
          "type": "string"
        },
        {
          "indexed": false,
          "internalType": "string",
          "name": "metadata",
          "type": "string"
        }
      ],
      "name": "StreamCreated",
      "type": "event"
    },
    {
      "anonymous": false,
      "inputs": [
        {
          "indexed": false,
          "internalType": "string",
          "name": "id",
          "type": "string"
        }
      ],
      "name": "StreamDeleted",
      "type": "event"
    },
    {
      "anonymous": false,
      "inputs": [
        {
          "indexed": false,
          "internalType": "string",
          "name": "id",
          "type": "string"
        },
        {
          "indexed": false,
          "internalType": "string",
          "name": "metadata",
          "type": "string"
        }
      ],
      "name": "StreamUpdated",
      "type": "event"
    },
    {
      "inputs": [
        {
          "internalType": "address",
          "name": "_address",
          "type": "address"
        }
      ],
      "name": "addressToString",
      "outputs": [
        {
          "internalType": "string",
          "name": "",
          "type": "string"
        }
      ],
      "stateMutability": "pure",
      "type": "function"
    },
    {
      "inputs": [
        {
          "internalType": "string",
          "name": "streamIdPath",
          "type": "string"
        },
        {
          "internalType": "string",
          "name": "metadataJsonString",
          "type": "string"
        }
      ],
      "name": "createStream",
      "outputs": [],
      "stateMutability": "nonpayable",
      "type": "function"
    },
    {
      "inputs": [
        {
          "internalType": "string",
          "name": "ensName",
          "type": "string"
        },
        {
          "internalType": "string",
          "name": "streamIdPath",
          "type": "string"
        },
        {
          "internalType": "string",
          "name": "metadataJsonString",
          "type": "string"
        }
      ],
      "name": "createStreamWithENS",
      "outputs": [],
      "stateMutability": "nonpayable",
      "type": "function"
    },
    {
      "inputs": [
        {
          "internalType": "string",
          "name": "streamId",
          "type": "string"
        }
      ],
      "name": "deleteStream",
      "outputs": [],
      "stateMutability": "nonpayable",
      "type": "function"
    },
    {
      "inputs": [
        {
          "internalType": "string",
          "name": "streamId",
          "type": "string"
        },
        {
          "internalType": "address",
          "name": "user",
          "type": "address"
        }
      ],
      "name": "getAddressKey",
      "outputs": [
        {
          "internalType": "bytes32",
          "name": "",
          "type": "bytes32"
        }
      ],
      "stateMutability": "view",
      "type": "function"
    },
    {
      "inputs": [
        {
          "internalType": "string",
          "name": "streamId",
          "type": "string"
        },
        {
          "internalType": "address",
          "name": "user",
          "type": "address"
        }
      ],
      "name": "getPermissionsForUser",
      "outputs": [
        {
          "components": [
            {
              "internalType": "bool",
              "name": "edit",
              "type": "bool"
            },
            {
              "internalType": "bool",
              "name": "canDelete",
              "type": "bool"
            },
            {
              "internalType": "bool",
              "name": "publish",
              "type": "bool"
            },
            {
              "internalType": "bool",
              "name": "subscribed",
              "type": "bool"
            },
            {
              "internalType": "bool",
              "name": "share",
              "type": "bool"
            }
          ],
          "internalType": "struct StreamRegistry.Permission",
          "name": "permission",
          "type": "tuple"
        }
      ],
      "stateMutability": "view",
      "type": "function"
    },
    {
      "inputs": [
        {
          "internalType": "string",
          "name": "streamId",
          "type": "string"
        }
      ],
      "name": "getStreamMetadata",
      "outputs": [
        {
          "internalType": "string",
          "name": "des",
          "type": "string"
        }
      ],
      "stateMutability": "view",
      "type": "function"
    },
    {
      "inputs": [
        {
          "internalType": "string",
          "name": "streamId",
          "type": "string"
        },
        {
          "internalType": "address",
          "name": "user",
          "type": "address"
        },
        {
          "internalType": "enum StreamRegistry.PermissionType",
          "name": "permissionType",
          "type": "uint8"
        }
      ],
      "name": "grantPermission",
      "outputs": [],
      "stateMutability": "nonpayable",
      "type": "function"
    },
    {
      "inputs": [
        {
          "internalType": "string",
          "name": "streamId",
          "type": "string"
        },
        {
          "internalType": "address",
          "name": "user",
          "type": "address"
        },
        {
          "internalType": "enum StreamRegistry.PermissionType",
          "name": "permissionType",
          "type": "uint8"
        }
      ],
      "name": "hasPermission",
      "outputs": [
        {
          "internalType": "bool",
          "name": "userHasPermission",
          "type": "bool"
        }
      ],
      "stateMutability": "view",
      "type": "function"
    },
    {
      "inputs": [
        {
          "internalType": "string",
          "name": "streamId",
          "type": "string"
        },
        {
          "internalType": "address",
          "name": "user",
          "type": "address"
        }
      ],
      "name": "revokeAllPermissionsForUser",
      "outputs": [],
      "stateMutability": "nonpayable",
      "type": "function"
    },
    {
      "inputs": [
        {
          "internalType": "string",
          "name": "streamId",
          "type": "string"
        },
        {
          "internalType": "address",
          "name": "user",
          "type": "address"
        },
        {
          "internalType": "enum StreamRegistry.PermissionType",
          "name": "permissionType",
          "type": "uint8"
        }
      ],
      "name": "revokePermission",
      "outputs": [],
      "stateMutability": "nonpayable",
      "type": "function"
    },
    {
      "inputs": [
        {
          "internalType": "string",
          "name": "streamId",
          "type": "string"
        },
        {
          "internalType": "address",
          "name": "user",
          "type": "address"
        },
        {
          "internalType": "bool",
          "name": "edit",
          "type": "bool"
        },
        {
          "internalType": "bool",
          "name": "deletePerm",
          "type": "bool"
        },
        {
          "internalType": "bool",
          "name": "publish",
          "type": "bool"
        },
        {
          "internalType": "bool",
          "name": "subscribe",
          "type": "bool"
        },
        {
          "internalType": "bool",
          "name": "share",
          "type": "bool"
        }
      ],
      "name": "setPermissionsForUser",
      "outputs": [],
      "stateMutability": "nonpayable",
      "type": "function"
    },
    {
      "inputs": [
        {
          "internalType": "string",
          "name": "",
          "type": "string"
        }
      ],
      "name": "streamIdToMetadata",
      "outputs": [
        {
          "internalType": "string",
          "name": "",
          "type": "string"
        }
      ],
      "stateMutability": "view",
      "type": "function"
    },
    {
      "inputs": [
        {
          "internalType": "string",
          "name": "",
          "type": "string"
        },
        {
          "internalType": "bytes32",
          "name": "",
          "type": "bytes32"
        }
      ],
      "name": "streamIdToPermissions",
      "outputs": [
        {
          "internalType": "bool",
          "name": "edit",
          "type": "bool"
        },
        {
          "internalType": "bool",
          "name": "canDelete",
          "type": "bool"
        },
        {
          "internalType": "bool",
          "name": "publish",
          "type": "bool"
        },
        {
          "internalType": "bool",
          "name": "subscribed",
          "type": "bool"
        },
        {
          "internalType": "bool",
          "name": "share",
          "type": "bool"
        }
      ],
      "stateMutability": "view",
      "type": "function"
    },
    {
      "inputs": [
        {
          "internalType": "string",
          "name": "streamId",
          "type": "string"
        },
        {
          "internalType": "string",
          "name": "metadata",
          "type": "string"
        }
      ],
      "name": "updateStreamMetadata",
      "outputs": [],
      "stateMutability": "nonpayable",
      "type": "function"
    }
  ],
  "transactionHash": "0x42de7d393eb5a372c3922686de752c9b4248fe699b164679a80fce55e616dad3",
  "args": [
    "0x2fb7Cd141026fcF23Abb07593A14D6E45dC33D54"
  ],
  "solcInputHash": "9218d279e89d6c3b5d8a8cda184e0c9b",
  "bytecode": "0x60806040523480156200001157600080fd5b50604051620033c8380380620033c8833981810160405281019062000037919062000096565b80600360006101000a81548173ffffffffffffffffffffffffffffffffffffffff021916908373ffffffffffffffffffffffffffffffffffffffff1602179055505062000110565b6000815190506200009081620000f6565b92915050565b600060208284031215620000a957600080fd5b6000620000b9848285016200007f565b91505092915050565b6000620000cf82620000d6565b9050919050565b600073ffffffffffffffffffffffffffffffffffffffff82169050919050565b6200010181620000c2565b81146200010d57600080fd5b50565b6132a880620001206000396000f3fe608060405234801561001057600080fd5b50600436106100f55760003560e01c80636453cbd711610097578063997e8aaa11610066578063997e8aaa14610292578063d4892dbc146102ae578063e8f3828e146102ca578063f36d4849146102fa576100f5565b80636453cbd7146101fa57806378800c761461021657806386902fe91461023257806388b2103814610262576100f5565b806342617fe7116100d357806342617fe71461016257806350b5422b1461017e5780635e57966d1461019a5780636394fbd2146101ca576100f5565b80630843564a146100fa5780630ef8cdc71461012a5780633e397aea14610146575b600080fd5b610114600480360381019061010f919061292b565b61032e565b6040516101219190612dd5565b60405180910390f35b610144600480360381019061013f91906127d1565b61038e565b005b610160600480360381019061015b9190612765565b6103af565b005b61017c600480360381019061017791906127d1565b610609565b005b61019860048036038101906101939190612653565b6107ca565b005b6101b460048036038101906101af91906125bc565b6109ce565b6040516101c19190612ec7565b60405180910390f35b6101e460048036038101906101df919061260e565b610c63565b6040516101f19190612ec7565b60405180910390f35b610214600480360381019061020f919061260e565b610da2565b005b610230600480360381019061022b9190612846565b610f59565b005b61024c600480360381019061024791906128ea565b6110cc565b6040516102599190612ec7565b60405180910390f35b61027c60048036038101906102779190612765565b611192565b6040516102899190612d67565b60405180910390f35b6102ac60048036038101906102a79190612765565b611524565b005b6102c860048036038101906102c391906126ab565b61177e565b005b6102e460048036038101906102df9190612653565b6119f1565b6040516102f19190613078565b60405180910390f35b610314600480360381019061030f919061297f565b611b8e565b604051610325959493929190612d82565b60405180910390f35b6000808360405161033f9190612d2a565b908152602001604051809103902060009054906101000a900463ffffffff1682604051602001610370929190613093565b60405160208183030381529060405280519060200120905092915050565b6060610399336109ce565b90506103a88186868686611c28565b5050505050565b8383600282826040516103c3929190612d11565b9081526020016040518091039020600061042184848080601f016020809104026020016040519081016040528093929190818152602001838380828437600081840152601f19601f820116905080830192505050505050503361032e565b815260200190815260200160002060000160049054906101000a900460ff1661047f576040517f08c379a000000000000000000000000000000000000000000000000000000000815260040161047690613058565b60405180910390fd5b61048d868686866000611fe0565b610495612397565b600287876040516104a7929190612d11565b9081526020016040518091039020600061050589898080601f016020809104026020016040519081016040528093929190818152602001838380828437600081840152601f19601f820116905080830192505050505050508861032e565b81526020019081526020016000206040518060a00160405290816000820160009054906101000a900460ff161515151581526020016000820160019054906101000a900460ff161515151581526020016000820160029054906101000a900460ff161515151581526020016000820160039054906101000a900460ff161515151581526020016000820160049054906101000a900460ff16151515158152505090507f22e28c30c57984f353ee8f992671b9dbc19ac7481ed115987fd1050a5b229f38878787846000015185602001518660400151876060015188608001516040516105f8989796959493929190612e14565b60405180910390a150505050505050565b838360006001838360405161061f929190612d11565b90815260200160405180910390208054600181600116156101000203166002900490501415610683576040517f08c379a000000000000000000000000000000000000000000000000000000000815260040161067a90612fb8565b60405180910390fd5b858560028282604051610697929190612d11565b908152602001604051809103902060006106f584848080601f016020809104026020016040519081016040528093929190818152602001838380828437600081840152601f19601f820116905080830192505050505050503361032e565b815260200190815260200160002060000160009054906101000a900460ff16610753576040517f08c379a000000000000000000000000000000000000000000000000000000000815260040161074a90613018565b60405180910390fd5b858560018a8a604051610767929190612d11565b908152602001604051809103902091906107829291906123d0565b507fa60b7935888a7ab31214282090f1ab7207ab6d7abbf3c11080b75ce91d9a36d0888888886040516107b89493929190612e8c565b60405180910390a15050505050505050565b8282600282826040516107de929190612d11565b9081526020016040518091039020600061083c84848080601f016020809104026020016040519081016040528093929190818152602001838380828437600081840152601f19601f820116905080830192505050505050503361032e565b815260200190815260200160002060000160049054906101000a900460ff1661089a576040517f08c379a000000000000000000000000000000000000000000000000000000000815260040161089190613058565b60405180910390fd5b600285856040516108ac929190612d11565b9081526020016040518091039020600061090a87878080601f016020809104026020016040519081016040528093929190818152602001838380828437600081840152601f19601f820116905080830192505050505050508661032e565b8152602001908152602001600020600080820160006101000a81549060ff02191690556000820160016101000a81549060ff02191690556000820160026101000a81549060ff02191690556000820160036101000a81549060ff02191690556000820160046101000a81549060ff021916905550507f22e28c30c57984f353ee8f992671b9dbc19ac7481ed115987fd1050a5b229f3885858560008060008060006040516109bf989796959493929190612e14565b60405180910390a15050505050565b606060008273ffffffffffffffffffffffffffffffffffffffff1660001b905060606040518060400160405280601081526020017f303132333435363738396162636465660000000000000000000000000000000081525090506060602a67ffffffffffffffff81118015610a4257600080fd5b506040519080825280601f01601f191660200182016040528015610a755781602001600182028036833780820191505090505b5090507f300000000000000000000000000000000000000000000000000000000000000081600081518110610aa657fe5b60200101907effffffffffffffffffffffffffffffffffffffffffffffffffffffffffffff1916908160001a9053507f780000000000000000000000000000000000000000000000000000000000000081600181518110610b0357fe5b60200101907effffffffffffffffffffffffffffffffffffffffffffffffffffffffffffff1916908160001a90535060005b6014811015610c575782600485600c840160208110610b5057fe5b1a60f81b7effffffffffffffffffffffffffffffffffffffffffffffffffffffffffffff1916901c60f81c60ff1681518110610b8857fe5b602001015160f81c60f81b826002830260020181518110610ba557fe5b60200101907effffffffffffffffffffffffffffffffffffffffffffffffffffffffffffff1916908160001a90535082600f60f81b85600c840160208110610be957fe5b1a60f81b1660f81c60ff1681518110610bfe57fe5b602001015160f81c60f81b826002830260030181518110610c1b57fe5b60200101907effffffffffffffffffffffffffffffffffffffffffffffffffffffffffffff1916908160001a9053508080600101915050610b35565b50809350505050919050565b60608282600060018383604051610c7b929190612d11565b90815260200160405180910390208054600181600116156101000203166002900490501415610cdf576040517f08c379a0000000000000000000000000000000000000000000000000000000008152600401610cd690612fb8565b60405180910390fd5b60018585604051610cf1929190612d11565b90815260200160405180910390208054600181600116156101000203166002900480601f016020809104026020016040519081016040528092919081815260200182805460018160011615610100020316600290048015610d935780601f10610d6857610100808354040283529160200191610d93565b820191906000526020600020905b815481529060010190602001808311610d7657829003601f168201915b50505050509250505092915050565b8181600060018383604051610db8929190612d11565b90815260200160405180910390208054600181600116156101000203166002900490501415610e1c576040517f08c379a0000000000000000000000000000000000000000000000000000000008152600401610e1390612fb8565b60405180910390fd5b838360028282604051610e30929190612d11565b90815260200160405180910390206000610e8e84848080601f016020809104026020016040519081016040528093929190818152602001838380828437600081840152601f19601f820116905080830192505050505050503361032e565b815260200190815260200160002060000160019054906101000a900460ff16610eec576040517f08c379a0000000000000000000000000000000000000000000000000000000008152600401610ee390612fd8565b60405180910390fd5b60018686604051610efe929190612d11565b90815260200160405180910390206000610f189190612450565b7f74b7395f46349d84fba706c4d226c68bbf9206c2567ae3ec2a001b5a98128eae8686604051610f49929190612df0565b60405180910390a1505050505050565b3373ffffffffffffffffffffffffffffffffffffffff16600360009054906101000a900473ffffffffffffffffffffffffffffffffffffffff1673ffffffffffffffffffffffffffffffffffffffff16632b1fd99588886040518363ffffffff1660e01b8152600401610fcd929190612df0565b60206040518083038186803b158015610fe557600080fd5b505afa158015610ff9573d6000803e3d6000fd5b505050506040513d601f19601f8201168201806040525081019061101d91906125e5565b73ffffffffffffffffffffffffffffffffffffffff1614611073576040517f08c379a000000000000000000000000000000000000000000000000000000000815260040161106a90613038565b60405180910390fd5b6110c486868080601f016020809104026020016040519081016040528093929190818152602001838380828437600081840152601f19601f8201169050808301925050505050505085858585611c28565b505050505050565b6001818051602081018201805184825260208301602085012081835280955050505050506000915090508054600181600116156101000203166002900480601f01602080910402602001604051908101604052809291908181526020018280546001816001161561010002031660029004801561118a5780601f1061115f5761010080835404028352916020019161118a565b820191906000526020600020905b81548152906001019060200180831161116d57829003601f168201915b505050505081565b60008060048111156111a057fe5b8260048111156111ac57fe5b141561124857600285856040516111c4929190612d11565b9081526020016040518091039020600061122287878080601f016020809104026020016040519081016040528093929190818152602001838380828437600081840152601f19601f820116905080830192505050505050508661032e565b815260200190815260200160002060000160009054906101000a900460ff16905061151c565b6001600481111561125557fe5b82600481111561126157fe5b14156112fd5760028585604051611279929190612d11565b908152602001604051809103902060006112d787878080601f016020809104026020016040519081016040528093929190818152602001838380828437600081840152601f19601f820116905080830192505050505050508661032e565b815260200190815260200160002060000160019054906101000a900460ff16905061151c565b6003600481111561130a57fe5b82600481111561131657fe5b14156113b2576002858560405161132e929190612d11565b9081526020016040518091039020600061138c87878080601f016020809104026020016040519081016040528093929190818152602001838380828437600081840152601f19601f820116905080830192505050505050508661032e565b815260200190815260200160002060000160039054906101000a900460ff16905061151c565b600260048111156113bf57fe5b8260048111156113cb57fe5b141561146757600285856040516113e3929190612d11565b9081526020016040518091039020600061144187878080601f016020809104026020016040519081016040528093929190818152602001838380828437600081840152601f19601f820116905080830192505050505050508661032e565b815260200190815260200160002060000160029054906101000a900460ff16905061151c565b60048081111561147357fe5b82600481111561147f57fe5b141561151b5760028585604051611497929190612d11565b908152602001604051809103902060006114f587878080601f016020809104026020016040519081016040528093929190818152602001838380828437600081840152601f19601f820116905080830192505050505050508661032e565b815260200190815260200160002060000160049054906101000a900460ff16905061151c565b5b949350505050565b838360028282604051611538929190612d11565b9081526020016040518091039020600061159684848080601f016020809104026020016040519081016040528093929190818152602001838380828437600081840152601f19601f820116905080830192505050505050503361032e565b815260200190815260200160002060000160049054906101000a900460ff166115f4576040517f08c379a00000000000000000000000000000000000000000000000000000000081526004016115eb90613058565b60405180910390fd5b611602868686866001611fe0565b61160a612397565b6002878760405161161c929190612d11565b9081526020016040518091039020600061167a89898080601f016020809104026020016040519081016040528093929190818152602001838380828437600081840152601f19601f820116905080830192505050505050508861032e565b81526020019081526020016000206040518060a00160405290816000820160009054906101000a900460ff161515151581526020016000820160019054906101000a900460ff161515151581526020016000820160029054906101000a900460ff161515151581526020016000820160039054906101000a900460ff161515151581526020016000820160049054906101000a900460ff16151515158152505090507f22e28c30c57984f353ee8f992671b9dbc19ac7481ed115987fd1050a5b229f388787878460000151856020015186604001518760600151886080015160405161176d989796959493929190612e14565b60405180910390a150505050505050565b878760028282604051611792929190612d11565b908152602001604051809103902060006117f084848080601f016020809104026020016040519081016040528093929190818152602001838380828437600081840152601f19601f820116905080830192505050505050503361032e565b815260200190815260200160002060000160049054906101000a900460ff1661184e576040517f08c379a000000000000000000000000000000000000000000000000000000000815260040161184590613058565b60405180910390fd5b6040518060a00160405280881515815260200187151581526020018615158152602001851515815260200184151581525060028b8b604051611891929190612d11565b908152602001604051809103902060006118ef8d8d8080601f016020809104026020016040519081016040528093929190818152602001838380828437600081840152601f19601f820116905080830192505050505050508c61032e565b815260200190815260200160002060008201518160000160006101000a81548160ff02191690831515021790555060208201518160000160016101000a81548160ff02191690831515021790555060408201518160000160026101000a81548160ff02191690831515021790555060608201518160000160036101000a81548160ff02191690831515021790555060808201518160000160046101000a81548160ff0219169083151502179055509050507f22e28c30c57984f353ee8f992671b9dbc19ac7481ed115987fd1050a5b229f388a8a8a8a8a8a8a8a6040516119dd989796959493929190612e14565b60405180910390a150505050505050505050565b6119f9612397565b8383600060018383604051611a0f929190612d11565b90815260200160405180910390208054600181600116156101000203166002900490501415611a73576040517f08c379a0000000000000000000000000000000000000000000000000000000008152600401611a6a90612fb8565b60405180910390fd5b60028686604051611a85929190612d11565b90815260200160405180910390206000611ae388888080601f016020809104026020016040519081016040528093929190818152602001838380828437600081840152601f19601f820116905080830192505050505050508761032e565b81526020019081526020016000206040518060a00160405290816000820160009054906101000a900460ff161515151581526020016000820160019054906101000a900460ff161515151581526020016000820160029054906101000a900460ff161515151581526020016000820160039054906101000a900460ff161515151581526020016000820160049054906101000a900460ff161515151581525050925050509392505050565b600282805160208101820180518482526020830160208501208183528095505050505050602052806000526040600020600091509150508060000160009054906101000a900460ff16908060000160019054906101000a900460ff16908060000160029054906101000a900460ff16908060000160039054906101000a900460ff16908060000160049054906101000a900460ff16905085565b606084848080601f016020809104026020016040519081016040528093929190818152602001838380828437600081840152601f19601f8201169050808301925050505050505090507f2f0000000000000000000000000000000000000000000000000000000000000081600081518110611c9f57fe5b602001015160f81c60f81b7effffffffffffffffffffffffffffffffffffffffffffffffffffffffffffff191614611d0c576040517f08c379a0000000000000000000000000000000000000000000000000000000008152600401611d0390612f98565b60405180910390fd5b6060868686604051602001611d2393929190612d41565b60405160208183030381529060405290506000600182604051611d469190612d2a565b908152602001604051809103902080546001816001161561010002031660029004905014611da9576040517f08c379a0000000000000000000000000000000000000000000000000000000008152600401611da090612ff8565b60405180910390fd5b6001600082604051611dbb9190612d2a565b908152602001604051809103902060009054906101000a900463ffffffff1601600082604051611deb9190612d2a565b908152602001604051809103902060006101000a81548163ffffffff021916908363ffffffff1602179055508383600183604051611e299190612d2a565b90815260200160405180910390209190611e449291906123d0565b506040518060a0016040528060011515815260200160011515815260200160011515815260200160011515815260200160011515815250600282604051611e8b9190612d2a565b90815260200160405180910390206000611ea5843361032e565b815260200190815260200160002060008201518160000160006101000a81548160ff02191690831515021790555060208201518160000160016101000a81548160ff02191690831515021790555060408201518160000160026101000a81548160ff02191690831515021790555060608201518160000160036101000a81548160ff02191690831515021790555060808201518160000160046101000a81548160ff0219169083151502179055509050507f0db027888a30ca08149af1347f6ce2f48daffedd9d6d21ab6249c4d802ce592f818585604051611f8993929190612f5f565b60405180910390a17f22e28c30c57984f353ee8f992671b9dbc19ac7481ed115987fd1050a5b229f3881336001806001806001604051611fcf9796959493929190612ee9565b60405180910390a150505050505050565b60006004811115611fed57fe5b826004811115611ff957fe5b141561209d578060028686604051612012929190612d11565b9081526020016040518091039020600061207088888080601f016020809104026020016040519081016040528093929190818152602001838380828437600081840152601f19601f820116905080830192505050505050508761032e565b815260200190815260200160002060000160006101000a81548160ff021916908315150217905550612390565b600160048111156120aa57fe5b8260048111156120b657fe5b141561215a5780600286866040516120cf929190612d11565b9081526020016040518091039020600061212d88888080601f016020809104026020016040519081016040528093929190818152602001838380828437600081840152601f19601f820116905080830192505050505050508761032e565b815260200190815260200160002060000160016101000a81548160ff02191690831515021790555061238f565b6003600481111561216757fe5b82600481111561217357fe5b141561221757806002868660405161218c929190612d11565b908152602001604051809103902060006121ea88888080601f016020809104026020016040519081016040528093929190818152602001838380828437600081840152601f19601f820116905080830192505050505050508761032e565b815260200190815260200160002060000160036101000a81548160ff02191690831515021790555061238e565b6002600481111561222457fe5b82600481111561223057fe5b14156122d4578060028686604051612249929190612d11565b908152602001604051809103902060006122a788888080601f016020809104026020016040519081016040528093929190818152602001838380828437600081840152601f19601f820116905080830192505050505050508761032e565b815260200190815260200160002060000160026101000a81548160ff02191690831515021790555061238d565b6004808111156122e057fe5b8260048111156122ec57fe5b141561238c578060028686604051612305929190612d11565b9081526020016040518091039020600061236388888080601f016020809104026020016040519081016040528093929190818152602001838380828437600081840152601f19601f820116905080830192505050505050508761032e565b815260200190815260200160002060000160046101000a81548160ff0219169083151502179055505b5b5b5b5b5050505050565b6040518060a001604052806000151581526020016000151581526020016000151581526020016000151581526020016000151581525090565b828054600181600116156101000203166002900490600052602060002090601f016020900481019282601f1061241157803560ff191683800117855561243f565b8280016001018555821561243f579182015b8281111561243e578235825591602001919060010190612423565b5b50905061244c9190612498565b5090565b50805460018160011615610100020316600290046000825580601f106124765750612495565b601f0160209004906000526020600020908101906124949190612498565b5b50565b5b808211156124b1576000816000905550600101612499565b5090565b6000813590506124c48161321d565b92915050565b6000815190506124d98161321d565b92915050565b6000813590506124ee81613234565b92915050565b6000813590506125038161324b565b92915050565b60008135905061251881613262565b92915050565b60008083601f84011261253057600080fd5b8235905067ffffffffffffffff81111561254957600080fd5b60208301915083600182028301111561256157600080fd5b9250929050565b600082601f83011261257957600080fd5b813561258c612587826130e9565b6130bc565b915080825260208301602083018583830111156125a857600080fd5b6125b38382846131ca565b50505092915050565b6000602082840312156125ce57600080fd5b60006125dc848285016124b5565b91505092915050565b6000602082840312156125f757600080fd5b6000612605848285016124ca565b91505092915050565b6000806020838503121561262157600080fd5b600083013567ffffffffffffffff81111561263b57600080fd5b6126478582860161251e565b92509250509250929050565b60008060006040848603121561266857600080fd5b600084013567ffffffffffffffff81111561268257600080fd5b61268e8682870161251e565b935093505060206126a1868287016124b5565b9150509250925092565b60008060008060008060008060e0898b0312156126c757600080fd5b600089013567ffffffffffffffff8111156126e157600080fd5b6126ed8b828c0161251e565b985098505060206127008b828c016124b5565b96505060406127118b828c016124df565b95505060606127228b828c016124df565b94505060806127338b828c016124df565b93505060a06127448b828c016124df565b92505060c06127558b828c016124df565b9150509295985092959890939650565b6000806000806060858703121561277b57600080fd5b600085013567ffffffffffffffff81111561279557600080fd5b6127a18782880161251e565b945094505060206127b4878288016124b5565b92505060406127c587828801612509565b91505092959194509250565b600080600080604085870312156127e757600080fd5b600085013567ffffffffffffffff81111561280157600080fd5b61280d8782880161251e565b9450945050602085013567ffffffffffffffff81111561282c57600080fd5b6128388782880161251e565b925092505092959194509250565b6000806000806000806060878903121561285f57600080fd5b600087013567ffffffffffffffff81111561287957600080fd5b61288589828a0161251e565b9650965050602087013567ffffffffffffffff8111156128a457600080fd5b6128b089828a0161251e565b9450945050604087013567ffffffffffffffff8111156128cf57600080fd5b6128db89828a0161251e565b92509250509295509295509295565b6000602082840312156128fc57600080fd5b600082013567ffffffffffffffff81111561291657600080fd5b61292284828501612568565b91505092915050565b6000806040838503121561293e57600080fd5b600083013567ffffffffffffffff81111561295857600080fd5b61296485828601612568565b9250506020612975858286016124b5565b9150509250929050565b6000806040838503121561299257600080fd5b600083013567ffffffffffffffff8111156129ac57600080fd5b6129b885828601612568565b92505060206129c9858286016124f4565b9150509250929050565b6129dc81613194565b82525050565b6129eb8161313c565b82525050565b6129fa8161314e565b82525050565b612a098161314e565b82525050565b612a188161315a565b82525050565b6000612a2a8385613120565b9350612a378385846131ca565b612a408361320c565b840190509392505050565b6000612a578385613131565b9350612a648385846131ca565b82840190509392505050565b6000612a7b82613115565b612a858185613120565b9350612a958185602086016131d9565b612a9e8161320c565b840191505092915050565b6000612ab482613115565b612abe8185613131565b9350612ace8185602086016131d9565b80840191505092915050565b6000612ae7601683613120565b91507f70617468206d7573742073746172742077697468202f000000000000000000006000830152602082019050919050565b6000612b27601583613120565b91507f73747265616d20646f6573206e6f7420657869737400000000000000000000006000830152602082019050919050565b6000612b67601483613120565b91507f6e6f2064656c657465207065726d697373696f6e0000000000000000000000006000830152602082019050919050565b6000612ba7601783613120565b91507f73747265616d20696420616c72656179206578697374730000000000000000006000830152602082019050919050565b6000612be7601283613120565b91507f6e6f2065646974207065726d697373696f6e00000000000000000000000000006000830152602082019050919050565b6000612c27602083613120565b91507f796f75206d757374206265206f776e6572206f662074686520656e736e616d656000830152602082019050919050565b6000612c67601383613120565b91507f6e6f207368617265207065726d697373696f6e000000000000000000000000006000830152602082019050919050565b60a082016000820151612cb060008501826129f1565b506020820151612cc360208501826129f1565b506040820151612cd660408501826129f1565b506060820151612ce960608501826129f1565b506080820151612cfc60808501826129f1565b50505050565b612d0b81613184565b82525050565b6000612d1e828486612a4b565b91508190509392505050565b6000612d368284612aa9565b915081905092915050565b6000612d4d8286612aa9565b9150612d5a828486612a4b565b9150819050949350505050565b6000602082019050612d7c6000830184612a00565b92915050565b600060a082019050612d976000830188612a00565b612da46020830187612a00565b612db16040830186612a00565b612dbe6060830185612a00565b612dcb6080830184612a00565b9695505050505050565b6000602082019050612dea6000830184612a0f565b92915050565b60006020820190508181036000830152612e0b818486612a1e565b90509392505050565b600060e0820190508181036000830152612e2f818a8c612a1e565b9050612e3e60208301896129e2565b612e4b6040830188612a00565b612e586060830187612a00565b612e656080830186612a00565b612e7260a0830185612a00565b612e7f60c0830184612a00565b9998505050505050505050565b60006040820190508181036000830152612ea7818688612a1e565b90508181036020830152612ebc818486612a1e565b905095945050505050565b60006020820190508181036000830152612ee18184612a70565b905092915050565b600060e0820190508181036000830152612f03818a612a70565b9050612f1260208301896129d3565b612f1f6040830188612a00565b612f2c6060830187612a00565b612f396080830186612a00565b612f4660a0830185612a00565b612f5360c0830184612a00565b98975050505050505050565b60006040820190508181036000830152612f798186612a70565b90508181036020830152612f8e818486612a1e565b9050949350505050565b60006020820190508181036000830152612fb181612ada565b9050919050565b60006020820190508181036000830152612fd181612b1a565b9050919050565b60006020820190508181036000830152612ff181612b5a565b9050919050565b6000602082019050818103600083015261301181612b9a565b9050919050565b6000602082019050818103600083015261303181612bda565b9050919050565b6000602082019050818103600083015261305181612c1a565b9050919050565b6000602082019050818103600083015261307181612c5a565b9050919050565b600060a08201905061308d6000830184612c9a565b92915050565b60006040820190506130a86000830185612d02565b6130b560208301846129e2565b9392505050565b6000604051905081810181811067ffffffffffffffff821117156130df57600080fd5b8060405250919050565b600067ffffffffffffffff82111561310057600080fd5b601f19601f8301169050602081019050919050565b600081519050919050565b600082825260208201905092915050565b600081905092915050565b600061314782613164565b9050919050565b60008115159050919050565b6000819050919050565b600073ffffffffffffffffffffffffffffffffffffffff82169050919050565b600063ffffffff82169050919050565b600061319f826131a6565b9050919050565b60006131b1826131b8565b9050919050565b60006131c382613164565b9050919050565b82818337600083830152505050565b60005b838110156131f75780820151818401526020810190506131dc565b83811115613206576000848401525b50505050565b6000601f19601f8301169050919050565b6132268161313c565b811461323157600080fd5b50565b61323d8161314e565b811461324857600080fd5b50565b6132548161315a565b811461325f57600080fd5b50565b6005811061326f57600080fd5b5056fea2646970667358221220b836626307b4f31d9d2a0ae51a90a7939286bbdf91b0a32ab2b8e2ca5cc7cd1664736f6c634300060c0033",
  "devdoc": {
    "kind": "dev",
    "methods": {},
    "version": 1
  },
  "userdoc": {
    "kind": "user",
    "methods": {},
    "version": 1
  },
  "storageLayout": {
    "storage": [
      {
        "astId": 1888,
        "contract": "contracts/StreamRegistry/StreamRegistry.sol:StreamRegistry",
        "label": "streamIdToVersion",
        "offset": 0,
        "slot": "0",
        "type": "t_mapping(t_string_memory_ptr,t_uint32)"
      },
      {
        "astId": 1892,
        "contract": "contracts/StreamRegistry/StreamRegistry.sol:StreamRegistry",
        "label": "streamIdToMetadata",
        "offset": 0,
        "slot": "1",
        "type": "t_mapping(t_string_memory_ptr,t_string_storage)"
      },
      {
        "astId": 1898,
        "contract": "contracts/StreamRegistry/StreamRegistry.sol:StreamRegistry",
        "label": "streamIdToPermissions",
        "offset": 0,
        "slot": "2",
        "type": "t_mapping(t_string_memory_ptr,t_mapping(t_bytes32,t_struct(Permission)1911_storage))"
      },
      {
        "astId": 1900,
        "contract": "contracts/StreamRegistry/StreamRegistry.sol:StreamRegistry",
        "label": "ensCache",
        "offset": 0,
        "slot": "3",
        "type": "t_contract(ENSCache)2975"
      }
    ],
    "types": {
      "t_bool": {
        "encoding": "inplace",
        "label": "bool",
        "numberOfBytes": "1"
      },
      "t_bytes32": {
        "encoding": "inplace",
        "label": "bytes32",
        "numberOfBytes": "32"
      },
      "t_contract(ENSCache)2975": {
        "encoding": "inplace",
        "label": "contract ENSCache",
        "numberOfBytes": "20"
      },
      "t_mapping(t_bytes32,t_struct(Permission)1911_storage)": {
        "encoding": "mapping",
        "key": "t_bytes32",
        "label": "mapping(bytes32 => struct StreamRegistry.Permission)",
        "numberOfBytes": "32",
        "value": "t_struct(Permission)1911_storage"
      },
      "t_mapping(t_string_memory_ptr,t_mapping(t_bytes32,t_struct(Permission)1911_storage))": {
        "encoding": "mapping",
        "key": "t_string_memory_ptr",
        "label": "mapping(string => mapping(bytes32 => struct StreamRegistry.Permission))",
        "numberOfBytes": "32",
        "value": "t_mapping(t_bytes32,t_struct(Permission)1911_storage)"
      },
      "t_mapping(t_string_memory_ptr,t_string_storage)": {
        "encoding": "mapping",
        "key": "t_string_memory_ptr",
        "label": "mapping(string => string)",
        "numberOfBytes": "32",
        "value": "t_string_storage"
      },
      "t_mapping(t_string_memory_ptr,t_uint32)": {
        "encoding": "mapping",
        "key": "t_string_memory_ptr",
        "label": "mapping(string => uint32)",
        "numberOfBytes": "32",
        "value": "t_uint32"
      },
      "t_string_memory_ptr": {
        "encoding": "bytes",
        "label": "string",
        "numberOfBytes": "32"
      },
      "t_string_storage": {
        "encoding": "bytes",
        "label": "string",
        "numberOfBytes": "32"
      },
      "t_struct(Permission)1911_storage": {
        "encoding": "inplace",
        "label": "struct StreamRegistry.Permission",
        "members": [
          {
            "astId": 1902,
            "contract": "contracts/StreamRegistry/StreamRegistry.sol:StreamRegistry",
            "label": "edit",
            "offset": 0,
            "slot": "0",
            "type": "t_bool"
          },
          {
            "astId": 1904,
            "contract": "contracts/StreamRegistry/StreamRegistry.sol:StreamRegistry",
            "label": "canDelete",
            "offset": 1,
            "slot": "0",
            "type": "t_bool"
          },
          {
            "astId": 1906,
            "contract": "contracts/StreamRegistry/StreamRegistry.sol:StreamRegistry",
            "label": "publish",
            "offset": 2,
            "slot": "0",
            "type": "t_bool"
          },
          {
            "astId": 1908,
            "contract": "contracts/StreamRegistry/StreamRegistry.sol:StreamRegistry",
            "label": "subscribed",
            "offset": 3,
            "slot": "0",
            "type": "t_bool"
          },
          {
            "astId": 1910,
            "contract": "contracts/StreamRegistry/StreamRegistry.sol:StreamRegistry",
            "label": "share",
            "offset": 4,
            "slot": "0",
            "type": "t_bool"
          }
        ],
        "numberOfBytes": "32"
      },
      "t_uint32": {
        "encoding": "inplace",
        "label": "uint32",
        "numberOfBytes": "4"
      }
    }
  }
}