{
  "contractName": "Uniswap2Adapter",
  "abi": [
    {
      "inputs": [
        {
          "internalType": "address",
          "name": "_marketplace",
          "type": "address"
        },
        {
          "internalType": "address",
          "name": "_uniswapRouter",
          "type": "address"
        },
        {
          "internalType": "address",
          "name": "_datacoin",
          "type": "address"
        }
      ],
      "payable": false,
      "stateMutability": "nonpayable",
      "type": "constructor"
    },
    {
      "constant": true,
      "inputs": [],
      "name": "datacoin",
      "outputs": [
        {
          "internalType": "contract IERC20Token",
          "name": "",
          "type": "address"
        }
      ],
      "payable": false,
      "stateMutability": "view",
      "type": "function"
    },
    {
      "constant": true,
      "inputs": [],
      "name": "liquidityToken",
      "outputs": [
        {
          "internalType": "address",
          "name": "",
          "type": "address"
        }
      ],
      "payable": false,
      "stateMutability": "view",
      "type": "function"
    },
    {
      "constant": true,
      "inputs": [],
      "name": "marketplace",
      "outputs": [
        {
          "internalType": "contract IMarketplace",
          "name": "",
          "type": "address"
        }
      ],
      "payable": false,
      "stateMutability": "view",
      "type": "function"
    },
    {
      "constant": true,
      "inputs": [],
      "name": "uniswapRouter",
      "outputs": [
        {
          "internalType": "contract IUniswapV2Router01",
          "name": "",
          "type": "address"
        }
      ],
      "payable": false,
      "stateMutability": "view",
      "type": "function"
    },
    {
      "constant": false,
      "inputs": [
        {
          "internalType": "bytes32",
          "name": "productId",
          "type": "bytes32"
        },
        {
          "internalType": "uint256",
          "name": "minSubscriptionSeconds",
          "type": "uint256"
        },
        {
          "internalType": "uint256",
          "name": "timeWindow",
          "type": "uint256"
        },
        {
          "internalType": "address",
          "name": "erc20_address",
          "type": "address"
        },
        {
          "internalType": "uint256",
          "name": "amount",
          "type": "uint256"
        }
      ],
      "name": "buyWithERC20",
      "outputs": [],
      "payable": false,
      "stateMutability": "nonpayable",
      "type": "function"
    },
    {
      "constant": false,
      "inputs": [
        {
          "internalType": "bytes32",
          "name": "productId",
          "type": "bytes32"
        },
        {
          "internalType": "uint256",
          "name": "minSubscriptionSeconds",
          "type": "uint256"
        },
        {
          "internalType": "uint256",
          "name": "timeWindow",
          "type": "uint256"
        }
      ],
      "name": "buyWithETH",
      "outputs": [],
      "payable": true,
      "stateMutability": "payable",
      "type": "function"
    }
  ],
  "bytecode": "0x608060405234801561001057600080fd5b506040516111d43803806111d48339818101604052606081101561003357600080fd5b5080516020820151604090920151600080546001600160a01b039384166001600160a01b03199182161790915560018054948416948216949094179093556002805492909116919092161790556111458061008f6000396000f3fe6080604052600436106100555760003560e01c80631b04c9571461005a57806343cd8f7e14610085578063735de9f7146100b657806379c88f20146100cb5780639030d0f7146100e0578063abc8c7af1461012b575b600080fd5b6100836004803603606081101561007057600080fd5b5080359060208101359060400135610140565b005b34801561009157600080fd5b5061009a610287565b604080516001600160a01b039092168252519081900360200190f35b3480156100c257600080fd5b5061009a610296565b3480156100d757600080fd5b5061009a6102a5565b3480156100ec57600080fd5b50610083600480360360a081101561010357600080fd5b508035906020810135906040810135906001600160a01b0360608201351690608001356102b4565b34801561013757600080fd5b5061009a610607565b600061014b84610616565b9050806101f95734156101865760405133903480156108fc02916000818181858888f19350505050158015610184573d6000803e3d6000fd5b505b60008054604080516301cc3a8960e11b8152600481018890526024810187905233604482015290516001600160a01b039092169263039875129260648084019382900301818387803b1580156101db57600080fd5b505af11580156101ef573d6000803e3d6000fd5b5050505050610282565b6102808484848434600160009054906101000a90046001600160a01b03166001600160a01b031663ad5c46486040518163ffffffff1660e01b815260040160206040518083038186803b15801561024f57600080fd5b505afa158015610263573d6000803e3d6000fd5b505050506040513d602081101561027957600080fd5b5051610854565b505b505050565b6003546001600160a01b031681565b6001546001600160a01b031681565b6002546001600160a01b031681565b6001600160a01b038216610308576040805162461bcd60e51b81526020600482015260166024820152751d5cd948189d5e55da5d1a115512081a5b9cdd19585960521b604482015290519081900360640190fd5b600061031386610616565b90508061038d5760008054604080516301cc3a8960e11b8152600481018a90526024810189905233604482015290516001600160a01b039092169263039875129260648084019382900301818387803b15801561036f57600080fd5b505af1158015610383573d6000803e3d6000fd5b5050505050610600565b604080516323b872dd60e01b815233600482015230602482015260448101849052905184916001600160a01b038316916323b872dd916064808201926020929091908290030181600087803b1580156103e557600080fd5b505af11580156103f9573d6000803e3d6000fd5b505050506040513d602081101561040f57600080fd5b5051610462576040805162461bcd60e51b815260206004820152601f60248201527f6d7573742070726520617070726f766520746f6b656e207472616e7366657200604482015290519081900360640190fd5b6001546040805163095ea7b360e01b81526001600160a01b03928316600482015260006024820181905291519284169263095ea7b392604480840193602093929083900390910190829087803b1580156104bb57600080fd5b505af11580156104cf573d6000803e3d6000fd5b505050506040513d60208110156104e557600080fd5b505161052a576040805162461bcd60e51b815260206004820152600f60248201526e185c1c1c9bdd985b0819985a5b1959608a1b604482015290519081900360640190fd5b6001546040805163095ea7b360e01b81526001600160a01b0392831660048201526024810186905290519183169163095ea7b3916044808201926020929091908290030181600087803b15801561058057600080fd5b505af1158015610594573d6000803e3d6000fd5b505050506040513d60208110156105aa57600080fd5b50516105ef576040805162461bcd60e51b815260206004820152600f60248201526e185c1c1c9bdd985b0819985a5b1959608a1b604482015290519081900360640190fd5b6105fd878787858789610854565b50505b5050505050565b6000546001600160a01b031681565b6000805460408051633a20e9df60e01b81526004810185905290518392839283926001600160a01b0390921691633a20e9df916024808201928692909190829003018186803b15801561066857600080fd5b505afa15801561067c573d6000803e3d6000fd5b505050506040513d6000823e601f3d908101601f1916820160405260e08110156106a557600080fd5b81019080805160405193929190846401000000008211156106c557600080fd5b9083019060208201858111156106da57600080fd5b82516401000000008111828201881017156106f457600080fd5b82525081516020918201929091019080838360005b83811015610721578181015183820152602001610709565b50505050905090810190601f16801561074e5780820380516001836020036101000a031916815260200191505b506040526020810151606082015160809092015190975090955093505050506001600160a01b0383166107b4576040805162461bcd60e51b81526020600482015260096024820152681b9bdd08199bdd5b9960ba1b604482015290519081900360640190fd5b60005460405163bee7d43360e01b8152600160048201818152602483018690526001600160a01b039093169263bee7d433928691869160440182858111156107f857fe5b60ff168152602001935050505060206040518083038186803b15801561081d57600080fd5b505afa158015610831573d6000803e3d6000fd5b505050506040513d602081101561084757600080fd5b505193505050505b919050565b60006108608487610fb1565b600254604080516370a0823160e01b815230600482015290519293506000926001600160a01b03909216916370a0823191602480820192602092909190829003018186803b1580156108b157600080fd5b505afa1580156108c5573d6000803e3d6000fd5b505050506040513d60208110156108db57600080fd5b50519050600060606108ec85610fe1565b9050600160009054906101000a90046001600160a01b03166001600160a01b031663ad5c46486040518163ffffffff1660e01b815260040160206040518083038186803b15801561093c57600080fd5b505afa158015610950573d6000803e3d6000fd5b505050506040513d602081101561096657600080fd5b50516001600160a01b0386811691161415610b0f5760018054604051637ff36ab560e01b8152600481018381523060448301819052428d01606484018190526080602485019081528751608486015287516001600160a01b0390961696637ff36ab5968e9691958a9594939092909160a4909101906020808801910280838360005b83811015610a005781810151838201526020016109e8565b50505050905001955050505050506000604051808303818588803b158015610a2757600080fd5b505af1158015610a3b573d6000803e3d6000fd5b50505050506040513d6000823e601f3d908101601f191682016040526020811015610a6557600080fd5b8101908080516040519392919084640100000000821115610a8557600080fd5b908301906020820185811115610a9a57600080fd5b8251866020820283011164010000000082111715610ab757600080fd5b82525081516020918201928201910280838360005b83811015610ae4578181015183820152602001610acc565b50505050905001604052505050600182510381518110610b0057fe5b60200260200101519150610ca7565b600180546040516338ed173960e01b815260048101898152602482018490523060648301819052428d016084840181905260a060448501908152875160a486015287516001600160a01b03909616966338ed1739968e9691958a9594939092909160c4909101906020808801910280838360005b83811015610b9b578181015183820152602001610b83565b505050509050019650505050505050600060405180830381600087803b158015610bc457600080fd5b505af1158015610bd8573d6000803e3d6000fd5b505050506040513d6000823e601f3d908101601f191682016040526020811015610c0157600080fd5b8101908080516040519392919084640100000000821115610c2157600080fd5b908301906020820185811115610c3657600080fd5b8251866020820283011164010000000082111715610c5357600080fd5b82525081516020918201928201910280838360005b83811015610c80578181015183820152602001610c68565b50505050905001604052505050600182510381518110610c9c57fe5b602002602001015191505b600254604080516370a0823160e01b81523060048201529051849286926001600160a01b03909116916370a0823191602480820192602092909190829003018186803b158015610cf657600080fd5b505afa158015610d0a573d6000803e3d6000fd5b505050506040513d6020811015610d2057600080fd5b50510310801590610d315750838210155b610d82576040805162461bcd60e51b815260206004820152601c60248201527f6e6f7420656e6f7567682064617461636f696e20726563656976656400000000604482015290519081900360640190fd5b600254600080546040805163095ea7b360e01b81526001600160a01b039283166004820152602481018490529051919093169263095ea7b39260448083019360209390929083900390910190829087803b158015610ddf57600080fd5b505af1158015610df3573d6000803e3d6000fd5b505050506040513d6020811015610e0957600080fd5b5051610e4e576040805162461bcd60e51b815260206004820152600f60248201526e185c1c1c9bdd985b0819985a5b1959608a1b604482015290519081900360640190fd5b600254600080546040805163095ea7b360e01b81526001600160a01b039283166004820152602481018790529051919093169263095ea7b39260448083019360209390929083900390910190829087803b158015610eab57600080fd5b505af1158015610ebf573d6000803e3d6000fd5b505050506040513d6020811015610ed557600080fd5b5051610f1a576040805162461bcd60e51b815260206004820152600f60248201526e185c1c1c9bdd985b0819985a5b1959608a1b604482015290519081900360640190fd5b6000546001600160a01b031663039875128b898581610f3557fe5b04336040518463ffffffff1660e01b815260040180848152602001838152602001826001600160a01b03166001600160a01b031681526020019350505050600060405180830381600087803b158015610f8d57600080fd5b505af1158015610fa1573d6000803e3d6000fd5b5050505050505050505050505050565b600082610fc057506000610fdb565b82820282848281610fcd57fe5b0414610fd857600080fd5b90505b92915050565b6003546060906001600160a01b031661106c576040805160028082526060808301845292602083019080388339019050509050828160008151811061102257fe5b6001600160a01b03928316602091820292909201015260025482519116908290600190811061104d57fe5b6001600160a01b0390921660209283029190910190910152905061084f565b60408051600380825260808201909252606091602082018380388339019050509050828160008151811061109c57fe5b6001600160a01b0392831660209182029290920101526003548251911690829060019081106110c757fe5b6001600160a01b03928316602091820292909201015260028054835192169183919081106110f157fe5b6001600160a01b0390921660209283029190910190910152905091905056fea265627a7a723158204a699bf22025c60c855cac37d718061f1969aed5f5cddcf0f011b45aae36aee464736f6c63430005100032",
  "source": "pragma solidity ^0.5.16;\n\n//import \"@uniswap/v2-periphery/contracts/interfaces/IUniswapV2Router02.sol\"; \n\ncontract IMarketplace {\n    enum ProductState {\n        NotDeployed,                // non-existent or deleted\n        Deployed                    // created or redeployed\n    }\n\n    enum Currency {\n        DATA,                       // \"token wei\" (10^-18 DATA)\n        USD                         // attodollars (10^-18 USD)\n    }\n\n    function getProduct(bytes32 id) public view returns (string memory name, address owner, address beneficiary, uint pricePerSecond, Currency currency, uint minimumSubscriptionSeconds, ProductState state) {}\n    function getSubscription(bytes32 productId, address subscriber) public view returns (bool isValid, uint endTimestamp) {}\n    function getPriceInData(uint subscriptionSeconds, uint price, Currency unit) public view returns (uint datacoinAmount) {}\n    function buyFor(bytes32 productId, uint subscriptionSeconds, address recipient) public {}\n}\n\ninterface IERC20Token {\n    function name() external view returns (string memory);\n    function symbol() external view returns (string memory);\n    function decimals() external view returns (uint8);\n    function totalSupply() external view returns (uint256);\n    function balanceOf(address _owner) external view returns (uint256);\n    function allowance(address _owner, address _spender) external view returns (uint256);\n    function transfer(address _to, uint256 _value) external returns (bool success);\n    function transferFrom(address _from, address _to, uint256 _value) external returns (bool success);\n    function approve(address _spender, uint256 _value) external returns (bool success);\n}\n\n\ninterface IUniswapV2Router01 {\n    function factory() external pure returns (address);\n    function WETH() external pure returns (address);\n\n    function addLiquidity(\n        address tokenA,\n        address tokenB,\n        uint amountADesired,\n        uint amountBDesired,\n        uint amountAMin,\n        uint amountBMin,\n        address to,\n        uint deadline\n    ) external returns (uint amountA, uint amountB, uint liquidity);\n    function addLiquidityETH(\n        address token,\n        uint amountTokenDesired,\n        uint amountTokenMin,\n        uint amountETHMin,\n        address to,\n        uint deadline\n    ) external payable returns (uint amountToken, uint amountETH, uint liquidity);\n    function removeLiquidity(\n        address tokenA,\n        address tokenB,\n        uint liquidity,\n        uint amountAMin,\n        uint amountBMin,\n        address to,\n        uint deadline\n    ) external returns (uint amountA, uint amountB);\n    function removeLiquidityETH(\n        address token,\n        uint liquidity,\n        uint amountTokenMin,\n        uint amountETHMin,\n        address to,\n        uint deadline\n    ) external returns (uint amountToken, uint amountETH);\n    function removeLiquidityWithPermit(\n        address tokenA,\n        address tokenB,\n        uint liquidity,\n        uint amountAMin,\n        uint amountBMin,\n        address to,\n        uint deadline,\n        bool approveMax, uint8 v, bytes32 r, bytes32 s\n    ) external returns (uint amountA, uint amountB);\n    function removeLiquidityETHWithPermit(\n        address token,\n        uint liquidity,\n        uint amountTokenMin,\n        uint amountETHMin,\n        address to,\n        uint deadline,\n        bool approveMax, uint8 v, bytes32 r, bytes32 s\n    ) external returns (uint amountToken, uint amountETH);\n    function swapExactTokensForTokens(\n        uint amountIn,\n        uint amountOutMin,\n        address[] calldata path,\n        address to,\n        uint deadline\n    ) external returns (uint[] memory amounts);\n    function swapTokensForExactTokens(\n        uint amountOut,\n        uint amountInMax,\n        address[] calldata path,\n        address to,\n        uint deadline\n    ) external returns (uint[] memory amounts);\n    function swapExactETHForTokens(uint amountOutMin, address[] calldata path, address to, uint deadline)\n        external\n        payable\n        returns (uint[] memory amounts);\n    function swapTokensForExactETH(uint amountOut, uint amountInMax, address[] calldata path, address to, uint deadline)\n        external\n        returns (uint[] memory amounts);\n    function swapExactTokensForETH(uint amountIn, uint amountOutMin, address[] calldata path, address to, uint deadline)\n        external\n        returns (uint[] memory amounts);\n    function swapETHForExactTokens(uint amountOut, address[] calldata path, address to, uint deadline)\n        external\n        payable\n        returns (uint[] memory amounts);\n\n    function quote(uint amountA, uint reserveA, uint reserveB) external pure returns (uint amountB);\n    function getAmountOut(uint amountIn, uint reserveIn, uint reserveOut) external pure returns (uint amountOut);\n    function getAmountIn(uint amountOut, uint reserveIn, uint reserveOut) external pure returns (uint amountIn);\n    function getAmountsOut(uint amountIn, address[] calldata path) external view returns (uint[] memory amounts);\n    function getAmountsIn(uint amountOut, address[] calldata path) external view returns (uint[] memory amounts);\n\n}\n\ncontract Uniswap2Adapter {\n//    using SafeMath for uint256;\n\n    IMarketplace public marketplace;\n    IUniswapV2Router01 public uniswapRouter;\n    IERC20Token public datacoin;\n    address public liquidityToken;\n\n    constructor(address _marketplace, address _uniswapRouter, address _datacoin) public {\n        marketplace = IMarketplace(_marketplace);\n        uniswapRouter = IUniswapV2Router01(_uniswapRouter);\n        datacoin = IERC20Token(_datacoin);\n    }\n    function mul(uint256 a, uint256 b) internal pure returns (uint256) {\n        // Gas optimization: this is cheaper than requiring 'a' not being zero, but the\n        // benefit is lost if 'b' is also tested.\n        // See: https://github.com/OpenZeppelin/openzeppelin-solidity/pull/522\n        if (a == 0) {\n            return 0;\n        }\n\n        uint256 c = a * b;\n        require(c / a == b);\n\n        return c;\n    }\n    /*\n        token address 0x0 means ETH\n    */\n    /*\n    //returns the amount to_tokens that would be received from an input_amount of from_tokens\n    function getConversionRateInput(address from_token, address to_token, uint input_amount) public view returns (uint){\n        require(from_token != to_token, \"must specify different tokens \");\n        uint eth_amount;\n        if(from_token == address(0)){\n            eth_amount = input_amount;\n        }\n        else{\n            address from_token_exchange = uniswap_router.getExchange(from_token);\n            require(from_token_exchange != address(0), \"couldnt find exchange for from_token\");\n            IUniswapExchange exfrom = IUniswapExchange(from_token_exchange);\n            eth_amount = exfrom.getTokenToEthInputPrice(input_amount);\n        }\n        if(to_token == address(0)){\n            return eth_amount;\n        }\n        else{\n            address to_token_exchange = uniswap_router.getExchange(to_token);\n            require(to_token_exchange != address(0), \"couldnt find exchange for to_token\");\n            IUniswapExchange exto = IUniswapExchange(to_token_exchange);\n            return exto.getEthToTokenInputPrice(eth_amount);\n        }\n    }\n\n    // returns the amount from_tokens needed to buy output_amount of to_tokens\n    function getConversionRateOutput(address from_token, address to_token, uint output_amount) public view returns (uint){\n        require(from_token != to_token, \"must specify different tokens \");\n        uint eth_amount;\n        if(to_token == address(0)){\n            eth_amount = output_amount;\n        }\n        else{\n            address to_token_exchange = uniswap_router.getExchange(to_token);\n            require(to_token_exchange != address(0), \"couldnt find exchange for to_token\");\n            IUniswapExchange exto = IUniswapExchange(to_token_exchange);\n            eth_amount = exto.getEthToTokenOutputPrice(output_amount);\n        }\n        if(from_token == address(0)){\n            return eth_amount;\n        }\n        else{\n            address from_token_exchange = uniswap_router.getExchange(from_token);\n            require(from_token_exchange != address(0), \"couldnt find exchange for from_token\");\n            IUniswapExchange exfrom = IUniswapExchange(from_token_exchange);\n            return exfrom.getTokenToEthOutputPrice(eth_amount);\n        }\n    }\n    */\n    \n\n    function _getPricePerSecondData(bytes32 productId) internal view returns (uint) {\n        (, address owner,, uint pricePerSecond, IMarketplace.Currency priceCurrency,,) = marketplace.getProduct(productId);\n        require(owner != address(0), \"not found\");\n        return marketplace.getPriceInData(1, pricePerSecond, priceCurrency);\n    }\n    function buyWithERC20(bytes32 productId, uint minSubscriptionSeconds,uint timeWindow, address erc20_address, uint amount) public {\n        require(erc20_address != address(0), \"use buyWithETH instead\");\n        uint pricePerSecondData = _getPricePerSecondData(productId);\n        if(pricePerSecondData == 0x0){\n            //subscription is free. return payment and subscribe\n            marketplace.buyFor(productId,minSubscriptionSeconds,msg.sender);\n            return;\n        }\n        IERC20Token fromToken = IERC20Token(erc20_address);\n        require(fromToken.transferFrom(msg.sender, address(this), amount), \"must pre approve token transfer\");\n        // use the exchange of the received token. this exchange will query its factory to find\n        // the DATAcoin exchange in tokenToTokenTransferInput() in _buyWithUniswap()\n        require(fromToken.approve(address(uniswapRouter), 0), \"approval failed\");\n        require(fromToken.approve(address(uniswapRouter), amount), \"approval failed\");\n        _buyWithUniswap(productId, minSubscriptionSeconds, timeWindow, pricePerSecondData, amount, erc20_address);\n    }\n\n    function buyWithETH(bytes32 productId, uint minSubscriptionSeconds,uint timeWindow) public payable{\n        uint pricePerSecondData = _getPricePerSecondData(productId);\n        if(pricePerSecondData == 0x0){\n            //subscription is free. return payment and subscribe\n            if(msg.value > 0x0){\n                msg.sender.transfer(msg.value);\n            }\n            marketplace.buyFor(productId,minSubscriptionSeconds,msg.sender);\n            return;\n        }\n        _buyWithUniswap(productId, minSubscriptionSeconds, timeWindow, pricePerSecondData, msg.value, uniswapRouter.WETH());\n    }\n    /**\n        from_token = uniswapRouter.WETH() means ETH\n     */\n    function _buyWithUniswap(bytes32 productId, uint minSubscriptionSeconds, uint timeWindow, uint pricePerSecondData, uint amount, address from_token) internal{\n        uint price = mul(pricePerSecondData,minSubscriptionSeconds);\n        uint256 datacoin_before_transfer = datacoin.balanceOf(address(this));\n        // TransferInput should revert if it cant get at least 'price' amount of DATAcoin \n        uint256 received_datacoin;\n        address[] memory path = _uniswapPath(from_token);\n        if(from_token == address(uniswapRouter.WETH())){\n            received_datacoin = uniswapRouter.swapExactETHForTokens.value(amount)(1, path, address(this), now + timeWindow)[path.length - 1];\n        }\n        else{\n            received_datacoin = uniswapRouter.swapExactTokensForTokens(amount, 1, path, address(this), now + timeWindow)[path.length - 1];\n        }\n        require(datacoin.balanceOf(address(this)) - datacoin_before_transfer >= received_datacoin && received_datacoin >= price, \"not enough datacoin received\");\n        require(datacoin.approve(address(marketplace),0), \"approval failed\");\n        require(datacoin.approve(address(marketplace), received_datacoin), \"approval failed\");\n        marketplace.buyFor(productId, received_datacoin / pricePerSecondData, msg.sender);\n    }\n\n    function _uniswapPath(address fromCoin) internal view returns (address[] memory) {\n        if(liquidityToken == address(0)){\n            //no intermediate\n            address[] memory path = new address[](2);\n            path[0] = fromCoin;\n            path[1] = address(datacoin);\n            return path;\n        }\n        //use intermediate liquidity token\n        address[] memory path = new address[](3);\n        path[0] = fromCoin;\n        path[1] = liquidityToken;\n        path[2] = address(datacoin);\n        return path;\n    }\n}\n",
  "sourcePath": "/home/heynow/streamr/marketplace-contracts/contracts/Uniswap2Adapter.sol",
  "compiler": {
    "name": "solc",
    "version": "0.5.16+commit.9c3226ce.Emscripten.clang"
  },
  "schemaVersion": "3.0.23",
  "updatedAt": "2021-04-28T13:39:32.951Z",
  "devdoc": {
    "methods": {}
  },
  "userdoc": {
    "methods": {}
  }
}