{
  "_format": "hh-sol-artifact-1",
  "contractName": "ENSCache",
  "sourceName": "contracts/chainlinkClient/ENSCache.sol",
  "abi": [
    {
      "inputs": [
        {
          "internalType": "address",
          "name": "oracleaddress",
          "type": "address"
        },
        {
          "internalType": "string",
          "name": "chainlinkJobId",
          "type": "string"
        },
        {
          "internalType": "address",
          "name": "trustedForwarder",
          "type": "address"
        }
      ],
      "stateMutability": "nonpayable",
      "type": "constructor"
    },
    {
      "anonymous": false,
      "inputs": [
        {
          "indexed": true,
          "internalType": "bytes32",
          "name": "id",
          "type": "bytes32"
        }
      ],
      "name": "ChainlinkCancelled",
      "type": "event"
    },
    {
      "anonymous": false,
      "inputs": [
        {
          "indexed": true,
          "internalType": "bytes32",
          "name": "id",
          "type": "bytes32"
        }
      ],
      "name": "ChainlinkFulfilled",
      "type": "event"
    },
    {
      "anonymous": false,
      "inputs": [
        {
          "indexed": true,
          "internalType": "bytes32",
          "name": "id",
          "type": "bytes32"
        }
      ],
      "name": "ChainlinkRequested",
      "type": "event"
    },
    {
      "anonymous": false,
      "inputs": [
        {
          "indexed": true,
          "internalType": "address",
          "name": "previousOwner",
          "type": "address"
        },
        {
          "indexed": true,
          "internalType": "address",
          "name": "newOwner",
          "type": "address"
        }
      ],
      "name": "OwnershipTransferred",
      "type": "event"
    },
    {
      "inputs": [],
      "name": "_trustedForwarder",
      "outputs": [
        {
          "internalType": "address",
          "name": "",
          "type": "address"
        }
      ],
      "stateMutability": "view",
      "type": "function"
    },
    {
      "inputs": [
        {
          "internalType": "bytes32",
          "name": "_requestId",
          "type": "bytes32"
        },
        {
          "internalType": "uint256",
          "name": "_payment",
          "type": "uint256"
        },
        {
          "internalType": "bytes4",
          "name": "_callbackFunctionId",
          "type": "bytes4"
        },
        {
          "internalType": "uint256",
          "name": "_expiration",
          "type": "uint256"
        }
      ],
      "name": "cancelRequest",
      "outputs": [],
      "stateMutability": "nonpayable",
      "type": "function"
    },
    {
      "inputs": [
        {
          "internalType": "bytes32",
          "name": "requestId",
          "type": "bytes32"
        },
        {
          "internalType": "bytes32",
          "name": "owneraddress",
          "type": "bytes32"
        }
      ],
      "name": "fulfillENSOwner",
      "outputs": [],
      "stateMutability": "nonpayable",
      "type": "function"
    },
    {
      "inputs": [],
      "name": "getChainlinkToken",
      "outputs": [
        {
          "internalType": "address",
          "name": "",
          "type": "address"
        }
      ],
      "stateMutability": "view",
      "type": "function"
    },
    {
      "inputs": [
        {
          "internalType": "address",
          "name": "forwarder",
          "type": "address"
        }
      ],
      "name": "isTrustedForwarder",
      "outputs": [
        {
          "internalType": "bool",
          "name": "",
          "type": "bool"
        }
      ],
      "stateMutability": "view",
      "type": "function"
    },
    {
      "inputs": [],
      "name": "jobId",
      "outputs": [
        {
          "internalType": "string",
          "name": "",
          "type": "string"
        }
      ],
      "stateMutability": "view",
      "type": "function"
    },
    {
      "inputs": [],
      "name": "oracle",
      "outputs": [
        {
          "internalType": "address",
          "name": "",
          "type": "address"
        }
      ],
      "stateMutability": "view",
      "type": "function"
    },
    {
      "inputs": [],
      "name": "owner",
      "outputs": [
        {
          "internalType": "address",
          "name": "",
          "type": "address"
        }
      ],
      "stateMutability": "view",
      "type": "function"
    },
    {
      "inputs": [
        {
          "internalType": "string",
          "name": "",
          "type": "string"
        }
      ],
      "name": "owners",
      "outputs": [
        {
          "internalType": "address",
          "name": "",
          "type": "address"
        }
      ],
      "stateMutability": "view",
      "type": "function"
    },
    {
      "inputs": [],
      "name": "renounceOwnership",
      "outputs": [],
      "stateMutability": "nonpayable",
      "type": "function"
    },
    {
      "inputs": [
        {
          "internalType": "string",
          "name": "ensName",
          "type": "string"
        }
      ],
      "name": "requestENSOwner",
      "outputs": [],
      "stateMutability": "nonpayable",
      "type": "function"
    },
    {
      "inputs": [
        {
          "internalType": "string",
          "name": "ensName",
          "type": "string"
        },
        {
          "internalType": "string",
          "name": "streamIdPath",
          "type": "string"
        },
        {
          "internalType": "string",
          "name": "metadataJsonString",
          "type": "string"
        }
      ],
      "name": "requestENSOwnerAndCreateStream",
      "outputs": [],
      "stateMutability": "nonpayable",
      "type": "function"
    },
    {
      "inputs": [
        {
          "internalType": "string",
          "name": "chainlinkJobId",
          "type": "string"
        }
      ],
      "name": "setChainlinkJobId",
      "outputs": [],
      "stateMutability": "nonpayable",
      "type": "function"
    },
    {
      "inputs": [
        {
          "internalType": "address",
          "name": "_link",
          "type": "address"
        }
      ],
      "name": "setChainlinkTokenAddress",
      "outputs": [],
      "stateMutability": "nonpayable",
      "type": "function"
    },
    {
      "inputs": [
        {
          "internalType": "address",
          "name": "oracleAddress",
          "type": "address"
        }
      ],
      "name": "setOracleAdress",
      "outputs": [],
      "stateMutability": "nonpayable",
      "type": "function"
    },
    {
      "inputs": [
        {
          "internalType": "address",
          "name": "streamRegistryAddress",
          "type": "address"
        }
      ],
      "name": "setStreamRegistry",
      "outputs": [],
      "stateMutability": "nonpayable",
      "type": "function"
    },
    {
      "inputs": [
        {
          "internalType": "bytes32",
          "name": "",
          "type": "bytes32"
        }
      ],
      "name": "tempENSnames",
      "outputs": [
        {
          "internalType": "string",
          "name": "",
          "type": "string"
        }
      ],
      "stateMutability": "view",
      "type": "function"
    },
    {
      "inputs": [
        {
          "internalType": "bytes32",
          "name": "",
          "type": "bytes32"
        }
      ],
      "name": "tempIdPaths",
      "outputs": [
        {
          "internalType": "string",
          "name": "",
          "type": "string"
        }
      ],
      "stateMutability": "view",
      "type": "function"
    },
    {
      "inputs": [
        {
          "internalType": "bytes32",
          "name": "",
          "type": "bytes32"
        }
      ],
      "name": "tempMetadatas",
      "outputs": [
        {
          "internalType": "string",
          "name": "",
          "type": "string"
        }
      ],
      "stateMutability": "view",
      "type": "function"
    },
    {
      "inputs": [
        {
          "internalType": "address",
          "name": "newOwner",
          "type": "address"
        }
      ],
      "name": "transferOwnership",
      "outputs": [],
      "stateMutability": "nonpayable",
      "type": "function"
    },
    {
      "inputs": [],
      "name": "withdrawLink",
      "outputs": [],
      "stateMutability": "nonpayable",
      "type": "function"
    }
  ],
  "bytecode": "0x608060405260016005553480156200001657600080fd5b5060405162001fb338038062001fb383398101604081905262000039916200020e565b600080546001600160a01b0319166001600160a01b0383161790556200006862000062620000a2565b620000be565b600c80546001600160a01b0319166001600160a01b03851617905581516200009890600d9060208501906200014b565b5050505062000366565b6000620000b96200011060201b62000c721760201c565b905090565b600780546001600160a01b038381166001600160a01b0319831681179093556040519116919082907f8be0079c531659141344cd1fd0a4f28419497f9722a3daafe3b4186f6b6457e090600090a35050565b600080546001600160a01b031633141562000132575060131936013560601c90565b620000b96200014760201b62000c941760201c565b3390565b828054620001599062000313565b90600052602060002090601f0160209004810192826200017d5760008555620001c8565b82601f106200019857805160ff1916838001178555620001c8565b82800160010185558215620001c8579182015b82811115620001c8578251825591602001919060010190620001ab565b50620001d6929150620001da565b5090565b5b80821115620001d65760008155600101620001db565b80516001600160a01b03811681146200020957600080fd5b919050565b6000806000606084860312156200022457600080fd5b6200022f84620001f1565b602085810151919450906001600160401b03808211156200024f57600080fd5b818701915087601f8301126200026457600080fd5b81518181111562000279576200027962000350565b604051601f8201601f19908116603f01168101908382118183101715620002a457620002a462000350565b816040528281528a86848701011115620002bd57600080fd5b600093505b82841015620002e15784840186015181850187015292850192620002c2565b82841115620002f35760008684830101525b8097505050505050506200030a60408501620001f1565b90509250925092565b600181811c908216806200032857607f821691505b602082108114156200034a57634e487b7160e01b600052602260045260246000fd5b50919050565b634e487b7160e01b600052604160045260246000fd5b611c3d80620003766000396000f3fe608060405234801561001057600080fd5b50600436106101075760003560e01c80630c3cac3b1461010c578063165d35e114610121578063230e6d231461013f5780632b1fd99514610152578063413a38ed146101865780635244c7a3146101a657806356c022bb146101b9578063572b6c05146101cc578063715018a6146101ef5780637dc0d1d0146101f75780638da5cb5b1461020a5780638dc654a214610212578063913d99321461021a578063a74e712f1461022d578063add14a7414610240578063c2939d9714610253578063d5f5729d1461025b578063e90f432c1461026e578063ec65d0f814610281578063f2fde38b14610294578063fb358c0c146102a7575b600080fd5b61011f61011a366004611531565b6102ba565b005b610129610324565b6040516101369190611883565b60405180910390f35b61011f61014d366004611531565b610333565b6101296101603660046116dd565b80516020818301810180516008825292820191909301209152546001600160a01b031681565b61019961019436600461157c565b610393565b6040516101369190611926565b61011f6101b4366004611644565b61042d565b600054610129906001600160a01b031681565b6101df6101da366004611531565b6105bf565b6040519015158152602001610136565b61011f6105d3565b600c54610129906001600160a01b031681565b61012961061e565b61011f61062d565b61011f610228366004611595565b6107ca565b61019961023b36600461157c565b6109c0565b61019961024e36600461157c565b6109d9565b6101996109f2565b61011f610269366004611603565b6109ff565b61011f61027c366004611603565b610ac3565b61011f61028f3660046115b7565b610b13565b61011f6102a2366004611531565b610b64565b61011f6102b5366004611531565b610c11565b6102c2610c98565b6001600160a01b03166102d361061e565b6001600160a01b0316146103025760405162461bcd60e51b81526004016102f990611a16565b60405180910390fd5b600e80546001600160a01b0319166001600160a01b0392909216919091179055565b600061032e610ca2565b905090565b61033b610c98565b6001600160a01b031661034c61061e565b6001600160a01b0316146103725760405162461bcd60e51b81526004016102f990611a16565b600380546001600160a01b0319166001600160a01b03831617905550565b50565b600b60205260009081526040902080546103ac90611b84565b80601f01602080910402602001604051908101604052809291908181526020018280546103d890611b84565b80156104255780601f106103fa57610100808354040283529160200191610425565b820191906000526020600020905b81548152906001019060200180831161040857829003601f168201915b505050505081565b60006104d36104c5600d805461044290611b84565b80601f016020809104026020016040519081016040528092919081815260200182805461046e90611b84565b80156104bb5780601f10610490576101008083540402835291602001916104bb565b820191906000526020600020905b81548152906001019060200180831161049e57829003601f168201915b5050505050610cb1565b3063489ecc9960e11b610cce565b905061053860405180604001604052806007815260200166656e736e616d6560c81b81525088888080601f016020809104026020016040519081016040528093929190818152602001838380828437600092019190915250869493925050610cf39050565b600c54600090610564906001600160a01b03168361055f670de0b6b3a76400006001611b4e565b610d11565b6000818152600960205260409020909150610580908989611401565b506000818152600a6020526040902061059a908787611401565b506000818152600b602052604090206105b4908585611401565b505050505050505050565b6000546001600160a01b0391821691161490565b6105db610c98565b6001600160a01b03166105ec61061e565b6001600160a01b0316146106125760405162461bcd60e51b81526004016102f990611a16565b61061c6000610eab565b565b6007546001600160a01b031690565b610635610c98565b6001600160a01b031661064661061e565b6001600160a01b03161461066c5760405162461bcd60e51b81526004016102f990611a16565b6000610676610ca2565b9050806001600160a01b031663a9059cbb61068f610c98565b6040516370a0823160e01b81526001600160a01b038516906370a08231906106bb903090600401611883565b60206040518083038186803b1580156106d357600080fd5b505afa1580156106e7573d6000803e3d6000fd5b505050506040513d601f19601f8201168201806040525081019061070b919061178d565b6040516001600160e01b031960e085901b1681526001600160a01b0390921660048301526024820152604401602060405180830381600087803b15801561075157600080fd5b505af1158015610765573d6000803e3d6000fd5b505050506040513d601f19601f82011682018060405250810190610789919061155a565b6103905760405162461bcd60e51b81526020600482015260126024820152712ab730b13632903a37903a3930b739b332b960711b60448201526064016102f9565b60008281526006602052604090205482906001600160a01b03166107ec610c98565b6001600160a01b0316146108535760405162461bcd60e51b815260206004820152602860248201527f536f75726365206d75737420626520746865206f7261636c65206f6620746865604482015267081c995c5d595cdd60c21b60648201526084016102f9565b60008181526006602052604080822080546001600160a01b03191690555182917f7cc135e0cebb02c3480ae5d74d377283180a2601f8f644edf7987b009316c63a91a260008381526009602052604090819020905183916008916108b79190611862565b908152604080516020928190038301812080546001600160a01b0319166001600160a01b03958616179055600e54600088815260098552838120600a865293902094169363237e03da9361090c93920161186e565b60408051601f198184030181528282526000888152600b60209081528382206009909152929020909260089161094191611862565b908152604051908190036020018120546001600160e01b031960e086901b1682526109899392916001600160a01b039091169060019081906000199081908390600401611939565b600060405180830381600087803b1580156109a357600080fd5b505af11580156109b7573d6000803e3d6000fd5b50505050505050565b600a60205260009081526040902080546103ac90611b84565b600960205260009081526040902080546103ac90611b84565b600d80546103ac90611b84565b6000610a146104c5600d805461044290611b84565b9050610a7960405180604001604052806007815260200166656e736e616d6560c81b81525084848080601f016020809104026020016040519081016040528093929190818152602001838380828437600092019190915250869493925050610cf39050565b600c54600090610aa0906001600160a01b03168361055f670de0b6b3a76400006001611b4e565b6000818152600960205260409020909150610abc908585611401565b5050505050565b610acb610c98565b6001600160a01b0316610adc61061e565b6001600160a01b031614610b025760405162461bcd60e51b81526004016102f990611a16565b610b0e600d8383611401565b505050565b610b1b610c98565b6001600160a01b0316610b2c61061e565b6001600160a01b031614610b525760405162461bcd60e51b81526004016102f990611a16565b610b5e84848484610efd565b50505050565b610b6c610c98565b6001600160a01b0316610b7d61061e565b6001600160a01b031614610ba35760405162461bcd60e51b81526004016102f990611a16565b6001600160a01b038116610c085760405162461bcd60e51b815260206004820152602660248201527f4f776e61626c653a206e6577206f776e657220697320746865207a65726f206160448201526564647265737360d01b60648201526084016102f9565b61039081610eab565b610c19610c98565b6001600160a01b0316610c2a61061e565b6001600160a01b031614610c505760405162461bcd60e51b81526004016102f990611a16565b600c80546001600160a01b0319166001600160a01b0392909216919091179055565b6000610c7d336105bf565b15610c8f575060131936013560601c90565b503390565b3390565b600061032e610c72565b6003546001600160a01b031690565b80516000908290610cc55750600092915050565b50506020015190565b610cd6611485565b610cde611485565b610cea81868686610fc4565b95945050505050565b6080830151610d029083611001565b6080830151610b0e9082611001565b6005546040516001600160601b03193060601b166020820152603481019190915260009060540160408051808303601f19018152918152815160209283012060055460608701526000818152600690935281832080546001600160a01b0319166001600160a01b038916179055905190925082917fb5e6e01e79f91267dc17b4e6314d5d4d03593d2ceee0fbb452b750bd70ea5af991a26003546001600160a01b0316634000aea08584610dc487611018565b6040518463ffffffff1660e01b8152600401610de2939291906118ff565b602060405180830381600087803b158015610dfc57600080fd5b505af1158015610e10573d6000803e3d6000fd5b505050506040513d601f19601f82011682018060405250810190610e34919061155a565b610e8c5760405162461bcd60e51b815260206004820152602360248201527f756e61626c6520746f207472616e73666572416e6443616c6c20746f206f7261604482015262636c6560e81b60648201526084016102f9565b600160056000828254610e9f9190611a4b565b90915550509392505050565b600780546001600160a01b038381166001600160a01b0319831681179093556040519116919082907f8be0079c531659141344cd1fd0a4f28419497f9722a3daafe3b4186f6b6457e090600090a35050565b60008481526006602052604080822080546001600160a01b0319811690915590516001600160a01b039091169186917fe1fe3afa0f7f761ff0a8b89086790efd5140d2907ebd5b7ff6bfcb5e075fd4c59190a2604051636ee4d55360e01b815260048101869052602481018590526001600160e01b031984166044820152606481018390526001600160a01b03821690636ee4d55390608401600060405180830381600087803b158015610fb057600080fd5b505af11580156105b4573d6000803e3d6000fd5b610fcc611485565b610fdc8560800151610100611093565b50509183526001600160a01b031660208301526001600160e01b031916604082015290565b61100e82600383516110f1565b610b0e82826111be565b6060634042994660e01b6000808460000151856020015186604001518760600151600189608001516000015160405160240161105b989796959493929190611897565b60408051601f198184030181529190526020810180516001600160e01b03166001600160e01b03199093169290921790915292915050565b61109b6114ba565b6110a6602083611bb9565b156110ce576110b6602083611bb9565b6110c1906020611b6d565b6110cb9083611a4b565b91505b506020808301829052604080518085526000815283019091019052815b92915050565b6017811161110c57610b5e8360e0600585901b1683176111df565b60ff811161113657611129836018611fe0600586901b16176111df565b50610b5e838260016111f7565b61ffff811161116157611154836019611fe0600586901b16176111df565b50610b5e838260026111f7565b63ffffffff811161118e5761118183601a611fe0600586901b16176111df565b50610b5e838260046111f7565b6001600160401b038111610b0e576111b183601b611fe0600586901b16176111df565b50610b5e838260086111f7565b6111c66114ba565b6111d883846000015151848551611218565b9392505050565b6111e76114ba565b6111d88384600001515184611310565b6111ff6114ba565b61121084856000015151858561135f565b949350505050565b6112206114ba565b825182111561122e57600080fd5b602085015161123d8386611a4b565b111561127057611270856112608760200151878661125b9190611a4b565b6113d3565b61126b906002611b4e565b6113ea565b60008086518051876020830101935080888701111561128f5787860182525b505050602084015b602084106112cf57805182526112ae602083611a4b565b91506112bb602082611a4b565b90506112c8602085611b6d565b9350611297565b600060016112de866020611b6d565b6112ea90610100611aa6565b6112f49190611b6d565b9151835183169219169190911790915250849050949350505050565b6113186114ba565b8360200151831061133857611338848560200151600261126b9190611b4e565b835180516020858301018481535080851415611355576001810182525b5093949350505050565b6113676114ba565b60208501516113768584611a4b565b111561138a5761138a856112608685611a4b565b6000600161139a84610100611aa6565b6113a49190611b6d565b90508551838682010185831982511617815250805184870111156113c85783860181525b509495945050505050565b6000818311156113e45750816110eb565b50919050565b81516113f68383611093565b50610b5e83826111be565b82805461140d90611b84565b90600052602060002090601f01602090048101928261142f5760008555611475565b82601f106114485782800160ff19823516178555611475565b82800160010185558215611475579182015b8281111561147557823582559160200191906001019061145a565b506114819291506114d4565b5090565b6040805160a0810182526000808252602082018190529181018290526060810191909152608081016114b56114ba565b905290565b604051806040016040528060608152602001600081525090565b5b8082111561148157600081556001016114d5565b60008083601f8401126114fb57600080fd5b5081356001600160401b0381111561151257600080fd5b60208301915083602082850101111561152a57600080fd5b9250929050565b60006020828403121561154357600080fd5b81356001600160a01b03811681146111d857600080fd5b60006020828403121561156c57600080fd5b815180151581146111d857600080fd5b60006020828403121561158e57600080fd5b5035919050565b600080604083850312156115a857600080fd5b50508035926020909101359150565b600080600080608085870312156115cd57600080fd5b843593506020850135925060408501356001600160e01b0319811681146115f357600080fd5b9396929550929360600135925050565b6000806020838503121561161657600080fd5b82356001600160401b0381111561162c57600080fd5b611638858286016114e9565b90969095509350505050565b6000806000806000806060878903121561165d57600080fd5b86356001600160401b038082111561167457600080fd5b6116808a838b016114e9565b9098509650602089013591508082111561169957600080fd5b6116a58a838b016114e9565b909650945060408901359150808211156116be57600080fd5b506116cb89828a016114e9565b979a9699509497509295939492505050565b6000602082840312156116ef57600080fd5b81356001600160401b038082111561170657600080fd5b818401915084601f83011261171a57600080fd5b81358181111561172c5761172c611bf1565b604051601f8201601f19908116603f0116810190838211818310171561175457611754611bf1565b8160405282815287602084870101111561176d57600080fd5b826020860160208301376000928101602001929092525095945050505050565b60006020828403121561179f57600080fd5b5051919050565b6000815180845260005b818110156117cc576020818501810151868301820152016117b0565b818111156117de576000602083870101525b50601f01601f19169290920160200192915050565b6000815461180081611b84565b60018281168015611818576001811461182957611858565b60ff19841687528287019450611858565b8560005260208060002060005b8581101561184f5781548a820152908401908201611836565b50505082870194505b5050505092915050565b60006111d882846117f3565b600061121061187d83866117f3565b846117f3565b6001600160a01b0391909116815260200190565b6001600160a01b0389811682526020820189905260408201889052861660608201526001600160e01b03198516608082015260a0810184905260c0810183905261010060e082018190526000906118f0838201856117a6565b9b9a5050505050505050505050565b60018060a01b0384168152826020820152606060408201526000610cea60608301846117a6565b6020815260006111d860208301846117a6565b600061010080835261194d8184018c6117a6565b905060208382038185015260008b5461196581611b84565b808552600182811680156119805760018114611994576119c2565b60ff198416878701526040870194506119c2565b8f6000528560002060005b848110156119ba57815489820189015290830190870161199f565b880187019550505b5050506001600160a01b038c1660408701525092506119df915050565b861515606083015285151560808301528460a08301528360c0830152611a0960e083018415159052565b9998505050505050505050565b6020808252818101527f4f776e61626c653a2063616c6c6572206973206e6f7420746865206f776e6572604082015260600190565b60008219821115611a5e57611a5e611bdb565b500190565b600181815b80851115611a9e578160001904821115611a8457611a84611bdb565b80851615611a9157918102915b93841c9390800290611a68565b509250929050565b60006111d88383600082611abc575060016110eb565b81611ac9575060006110eb565b8160018114611adf5760028114611ae957611b05565b60019150506110eb565b60ff841115611afa57611afa611bdb565b50506001821b6110eb565b5060208310610133831016604e8410600b8410161715611b28575081810a6110eb565b611b328383611a63565b8060001904821115611b4657611b46611bdb565b029392505050565b6000816000190483118215151615611b6857611b68611bdb565b500290565b600082821015611b7f57611b7f611bdb565b500390565b600181811c90821680611b9857607f821691505b602082108114156113e457634e487b7160e01b600052602260045260246000fd5b600082611bd657634e487b7160e01b600052601260045260246000fd5b500690565b634e487b7160e01b600052601160045260246000fd5b634e487b7160e01b600052604160045260246000fdfea26469706673582212203ba4353849f1e609394c643ca7999c76a98db206018858902399cd0f53d8659064736f6c63430008060033",
  "linkReferences": {},
  "deployedLinkReferences": {}
}