{
  "_format": "hh-sol-artifact-1",
  "contractName": "StreamRegistry",
  "sourceName": "contracts/StreamRegistry/StreamRegistry.sol",
  "abi": [
    {
      "inputs": [
        {
          "internalType": "address",
          "name": "ensCacheAddr",
          "type": "address"
        },
        {
          "internalType": "address",
          "name": "trustedForwarderAddress",
          "type": "address"
        }
      ],
      "stateMutability": "nonpayable",
      "type": "constructor"
    },
    {
      "anonymous": false,
      "inputs": [
        {
          "indexed": false,
          "internalType": "string",
          "name": "streamId",
          "type": "string"
        },
        {
          "indexed": false,
          "internalType": "address",
          "name": "user",
          "type": "address"
        },
        {
          "indexed": false,
          "internalType": "bool",
          "name": "canEdit",
          "type": "bool"
        },
        {
          "indexed": false,
          "internalType": "bool",
          "name": "canDelete",
          "type": "bool"
        },
        {
          "indexed": false,
          "internalType": "uint256",
          "name": "publishExpiration",
          "type": "uint256"
        },
        {
          "indexed": false,
          "internalType": "uint256",
          "name": "subscribeExpiration",
          "type": "uint256"
        },
        {
          "indexed": false,
          "internalType": "bool",
          "name": "canGrant",
          "type": "bool"
        }
      ],
      "name": "PermissionUpdated",
      "type": "event"
    },
    {
      "anonymous": false,
      "inputs": [
        {
          "indexed": true,
          "internalType": "bytes32",
          "name": "role",
          "type": "bytes32"
        },
        {
          "indexed": true,
          "internalType": "bytes32",
          "name": "previousAdminRole",
          "type": "bytes32"
        },
        {
          "indexed": true,
          "internalType": "bytes32",
          "name": "newAdminRole",
          "type": "bytes32"
        }
      ],
      "name": "RoleAdminChanged",
      "type": "event"
    },
    {
      "anonymous": false,
      "inputs": [
        {
          "indexed": true,
          "internalType": "bytes32",
          "name": "role",
          "type": "bytes32"
        },
        {
          "indexed": true,
          "internalType": "address",
          "name": "account",
          "type": "address"
        },
        {
          "indexed": true,
          "internalType": "address",
          "name": "sender",
          "type": "address"
        }
      ],
      "name": "RoleGranted",
      "type": "event"
    },
    {
      "anonymous": false,
      "inputs": [
        {
          "indexed": true,
          "internalType": "bytes32",
          "name": "role",
          "type": "bytes32"
        },
        {
          "indexed": true,
          "internalType": "address",
          "name": "account",
          "type": "address"
        },
        {
          "indexed": true,
          "internalType": "address",
          "name": "sender",
          "type": "address"
        }
      ],
      "name": "RoleRevoked",
      "type": "event"
    },
    {
      "anonymous": false,
      "inputs": [
        {
          "indexed": false,
          "internalType": "string",
          "name": "id",
          "type": "string"
        },
        {
          "indexed": false,
          "internalType": "string",
          "name": "metadata",
          "type": "string"
        }
      ],
      "name": "StreamCreated",
      "type": "event"
    },
    {
      "anonymous": false,
      "inputs": [
        {
          "indexed": false,
          "internalType": "string",
          "name": "id",
          "type": "string"
        }
      ],
      "name": "StreamDeleted",
      "type": "event"
    },
    {
      "anonymous": false,
      "inputs": [
        {
          "indexed": false,
          "internalType": "string",
          "name": "id",
          "type": "string"
        },
        {
          "indexed": false,
          "internalType": "string",
          "name": "metadata",
          "type": "string"
        }
      ],
      "name": "StreamUpdated",
      "type": "event"
    },
    {
      "inputs": [],
      "name": "DEFAULT_ADMIN_ROLE",
      "outputs": [
        {
          "internalType": "bytes32",
          "name": "",
          "type": "bytes32"
        }
      ],
      "stateMutability": "view",
      "type": "function"
    },
    {
      "inputs": [],
      "name": "MAX_INT",
      "outputs": [
        {
          "internalType": "uint256",
          "name": "",
          "type": "uint256"
        }
      ],
      "stateMutability": "view",
      "type": "function"
    },
    {
      "inputs": [],
      "name": "TRUSTED_ROLE",
      "outputs": [
        {
          "internalType": "bytes32",
          "name": "",
          "type": "bytes32"
        }
      ],
      "stateMutability": "view",
      "type": "function"
    },
    {
      "inputs": [],
      "name": "_trustedForwarder",
      "outputs": [
        {
          "internalType": "address",
          "name": "",
          "type": "address"
        }
      ],
      "stateMutability": "view",
      "type": "function"
    },
    {
      "inputs": [
        {
          "internalType": "address",
          "name": "_address",
          "type": "address"
        }
      ],
      "name": "addressToString",
      "outputs": [
        {
          "internalType": "string",
          "name": "",
          "type": "string"
        }
      ],
      "stateMutability": "pure",
      "type": "function"
    },
    {
      "inputs": [
        {
          "internalType": "string",
          "name": "streamIdPath",
          "type": "string"
        },
        {
          "internalType": "string",
          "name": "metadataJsonString",
          "type": "string"
        }
      ],
      "name": "createStream",
      "outputs": [],
      "stateMutability": "nonpayable",
      "type": "function"
    },
    {
      "inputs": [
        {
          "internalType": "string",
          "name": "ensName",
          "type": "string"
        },
        {
          "internalType": "string",
          "name": "streamIdPath",
          "type": "string"
        },
        {
          "internalType": "string",
          "name": "metadataJsonString",
          "type": "string"
        }
      ],
      "name": "createStreamWithENS",
      "outputs": [],
      "stateMutability": "nonpayable",
      "type": "function"
    },
    {
      "inputs": [
        {
          "internalType": "string",
          "name": "streamId",
          "type": "string"
        }
      ],
      "name": "deleteStream",
      "outputs": [],
      "stateMutability": "nonpayable",
      "type": "function"
    },
    {
      "inputs": [
        {
          "internalType": "string",
          "name": "streamId",
          "type": "string"
        }
      ],
      "name": "exists",
      "outputs": [
        {
          "internalType": "bool",
          "name": "",
          "type": "bool"
        }
      ],
      "stateMutability": "view",
      "type": "function"
    },
    {
      "inputs": [
        {
          "internalType": "string",
          "name": "streamId",
          "type": "string"
        },
        {
          "internalType": "address",
          "name": "user",
          "type": "address"
        }
      ],
      "name": "getAddressKey",
      "outputs": [
        {
          "internalType": "bytes32",
          "name": "",
          "type": "bytes32"
        }
      ],
      "stateMutability": "view",
      "type": "function"
    },
    {
      "inputs": [
        {
          "internalType": "string",
          "name": "streamId",
          "type": "string"
        },
        {
          "internalType": "address",
          "name": "user",
          "type": "address"
        }
      ],
      "name": "getDirectPermissionsForUser",
      "outputs": [
        {
          "components": [
            {
              "internalType": "bool",
              "name": "canEdit",
              "type": "bool"
            },
            {
              "internalType": "bool",
              "name": "canDelete",
              "type": "bool"
            },
            {
              "internalType": "uint256",
              "name": "publishExpiration",
              "type": "uint256"
            },
            {
              "internalType": "uint256",
              "name": "subscribeExpiration",
              "type": "uint256"
            },
            {
              "internalType": "bool",
              "name": "canGrant",
              "type": "bool"
            }
          ],
          "internalType": "struct StreamRegistry.Permission",
          "name": "permission",
          "type": "tuple"
        }
      ],
      "stateMutability": "view",
      "type": "function"
    },
    {
      "inputs": [
        {
          "internalType": "string",
          "name": "streamId",
          "type": "string"
        },
        {
          "internalType": "address",
          "name": "user",
          "type": "address"
        }
      ],
      "name": "getPermissionsForUser",
      "outputs": [
        {
          "components": [
            {
              "internalType": "bool",
              "name": "canEdit",
              "type": "bool"
            },
            {
              "internalType": "bool",
              "name": "canDelete",
              "type": "bool"
            },
            {
              "internalType": "uint256",
              "name": "publishExpiration",
              "type": "uint256"
            },
            {
              "internalType": "uint256",
              "name": "subscribeExpiration",
              "type": "uint256"
            },
            {
              "internalType": "bool",
              "name": "canGrant",
              "type": "bool"
            }
          ],
          "internalType": "struct StreamRegistry.Permission",
          "name": "permission",
          "type": "tuple"
        }
      ],
      "stateMutability": "view",
      "type": "function"
    },
    {
      "inputs": [
        {
          "internalType": "bytes32",
          "name": "role",
          "type": "bytes32"
        }
      ],
      "name": "getRoleAdmin",
      "outputs": [
        {
          "internalType": "bytes32",
          "name": "",
          "type": "bytes32"
        }
      ],
      "stateMutability": "view",
      "type": "function"
    },
    {
      "inputs": [
        {
          "internalType": "string",
          "name": "streamId",
          "type": "string"
        }
      ],
      "name": "getStreamMetadata",
      "outputs": [
        {
          "internalType": "string",
          "name": "des",
          "type": "string"
        }
      ],
      "stateMutability": "view",
      "type": "function"
    },
    {
      "inputs": [
        {
          "internalType": "string",
          "name": "streamId",
          "type": "string"
        },
        {
          "internalType": "address",
          "name": "user",
          "type": "address"
        },
        {
          "internalType": "enum StreamRegistry.PermissionType",
          "name": "permissionType",
          "type": "uint8"
        }
      ],
      "name": "grantPermission",
      "outputs": [],
      "stateMutability": "nonpayable",
      "type": "function"
    },
    {
      "inputs": [
        {
          "internalType": "string",
          "name": "streamId",
          "type": "string"
        },
        {
          "internalType": "enum StreamRegistry.PermissionType",
          "name": "permissionType",
          "type": "uint8"
        }
      ],
      "name": "grantPublicPermission",
      "outputs": [],
      "stateMutability": "nonpayable",
      "type": "function"
    },
    {
      "inputs": [
        {
          "internalType": "bytes32",
          "name": "role",
          "type": "bytes32"
        },
        {
          "internalType": "address",
          "name": "account",
          "type": "address"
        }
      ],
      "name": "grantRole",
      "outputs": [],
      "stateMutability": "nonpayable",
      "type": "function"
    },
    {
      "inputs": [
        {
          "internalType": "string",
          "name": "streamId",
          "type": "string"
        },
        {
          "internalType": "address",
          "name": "user",
          "type": "address"
        },
        {
          "internalType": "enum StreamRegistry.PermissionType",
          "name": "permissionType",
          "type": "uint8"
        }
      ],
      "name": "hasDirectPermission",
      "outputs": [
        {
          "internalType": "bool",
          "name": "userHasPermission",
          "type": "bool"
        }
      ],
      "stateMutability": "view",
      "type": "function"
    },
    {
      "inputs": [
        {
          "internalType": "string",
          "name": "streamId",
          "type": "string"
        },
        {
          "internalType": "address",
          "name": "user",
          "type": "address"
        },
        {
          "internalType": "enum StreamRegistry.PermissionType",
          "name": "permissionType",
          "type": "uint8"
        }
      ],
      "name": "hasPermission",
      "outputs": [
        {
          "internalType": "bool",
          "name": "userHasPermission",
          "type": "bool"
        }
      ],
      "stateMutability": "view",
      "type": "function"
    },
    {
      "inputs": [
        {
          "internalType": "string",
          "name": "streamId",
          "type": "string"
        },
        {
          "internalType": "enum StreamRegistry.PermissionType",
          "name": "permissionType",
          "type": "uint8"
        }
      ],
      "name": "hasPublicPermission",
      "outputs": [
        {
          "internalType": "bool",
          "name": "userHasPermission",
          "type": "bool"
        }
      ],
      "stateMutability": "view",
      "type": "function"
    },
    {
      "inputs": [
        {
          "internalType": "bytes32",
          "name": "role",
          "type": "bytes32"
        },
        {
          "internalType": "address",
          "name": "account",
          "type": "address"
        }
      ],
      "name": "hasRole",
      "outputs": [
        {
          "internalType": "bool",
          "name": "",
          "type": "bool"
        }
      ],
      "stateMutability": "view",
      "type": "function"
    },
    {
      "inputs": [
        {
          "internalType": "address",
          "name": "forwarder",
          "type": "address"
        }
      ],
      "name": "isTrustedForwarder",
      "outputs": [
        {
          "internalType": "bool",
          "name": "",
          "type": "bool"
        }
      ],
      "stateMutability": "view",
      "type": "function"
    },
    {
      "inputs": [
        {
          "internalType": "bytes32",
          "name": "role",
          "type": "bytes32"
        },
        {
          "internalType": "address",
          "name": "account",
          "type": "address"
        }
      ],
      "name": "renounceRole",
      "outputs": [],
      "stateMutability": "nonpayable",
      "type": "function"
    },
    {
      "inputs": [
        {
          "internalType": "string",
          "name": "streamId",
          "type": "string"
        },
        {
          "internalType": "address",
          "name": "user",
          "type": "address"
        }
      ],
      "name": "revokeAllPermissionsForUser",
      "outputs": [],
      "stateMutability": "nonpayable",
      "type": "function"
    },
    {
      "inputs": [
        {
          "internalType": "string",
          "name": "streamId",
          "type": "string"
        },
        {
          "internalType": "address",
          "name": "user",
          "type": "address"
        },
        {
          "internalType": "enum StreamRegistry.PermissionType",
          "name": "permissionType",
          "type": "uint8"
        }
      ],
      "name": "revokePermission",
      "outputs": [],
      "stateMutability": "nonpayable",
      "type": "function"
    },
    {
      "inputs": [
        {
          "internalType": "string",
          "name": "streamId",
          "type": "string"
        },
        {
          "internalType": "enum StreamRegistry.PermissionType",
          "name": "permissionType",
          "type": "uint8"
        }
      ],
      "name": "revokePublicPermission",
      "outputs": [],
      "stateMutability": "nonpayable",
      "type": "function"
    },
    {
      "inputs": [
        {
          "internalType": "bytes32",
          "name": "role",
          "type": "bytes32"
        },
        {
          "internalType": "address",
          "name": "account",
          "type": "address"
        }
      ],
      "name": "revokeRole",
      "outputs": [],
      "stateMutability": "nonpayable",
      "type": "function"
    },
    {
      "inputs": [
        {
          "internalType": "string",
          "name": "streamId",
          "type": "string"
        },
        {
          "internalType": "address",
          "name": "user",
          "type": "address"
        },
        {
          "internalType": "enum StreamRegistry.PermissionType",
          "name": "permissionType",
          "type": "uint8"
        },
        {
          "internalType": "uint256",
          "name": "expirationTime",
          "type": "uint256"
        }
      ],
      "name": "setExpirationTime",
      "outputs": [],
      "stateMutability": "nonpayable",
      "type": "function"
    },
    {
      "inputs": [
        {
          "internalType": "string",
          "name": "streamId",
          "type": "string"
        },
        {
          "internalType": "address[]",
          "name": "users",
          "type": "address[]"
        },
        {
          "components": [
            {
              "internalType": "bool",
              "name": "canEdit",
              "type": "bool"
            },
            {
              "internalType": "bool",
              "name": "canDelete",
              "type": "bool"
            },
            {
              "internalType": "uint256",
              "name": "publishExpiration",
              "type": "uint256"
            },
            {
              "internalType": "uint256",
              "name": "subscribeExpiration",
              "type": "uint256"
            },
            {
              "internalType": "bool",
              "name": "canGrant",
              "type": "bool"
            }
          ],
          "internalType": "struct StreamRegistry.Permission[]",
          "name": "permissions",
          "type": "tuple[]"
        }
      ],
      "name": "setPermissions",
      "outputs": [],
      "stateMutability": "nonpayable",
      "type": "function"
    },
    {
      "inputs": [
        {
          "internalType": "string",
          "name": "streamId",
          "type": "string"
        },
        {
          "internalType": "address",
          "name": "user",
          "type": "address"
        },
        {
          "internalType": "bool",
          "name": "canEdit",
          "type": "bool"
        },
        {
          "internalType": "bool",
          "name": "deletePerm",
          "type": "bool"
        },
        {
          "internalType": "uint256",
          "name": "publishExpiration",
          "type": "uint256"
        },
        {
          "internalType": "uint256",
          "name": "subscribeExpiration",
          "type": "uint256"
        },
        {
          "internalType": "bool",
          "name": "canGrant",
          "type": "bool"
        }
      ],
      "name": "setPermissionsForUser",
      "outputs": [],
      "stateMutability": "nonpayable",
      "type": "function"
    },
    {
      "inputs": [
        {
          "internalType": "string",
          "name": "streamId",
          "type": "string"
        },
        {
          "internalType": "uint256",
          "name": "publishExpiration",
          "type": "uint256"
        },
        {
          "internalType": "uint256",
          "name": "subscribeExpiration",
          "type": "uint256"
        }
      ],
      "name": "setPublicPermission",
      "outputs": [],
      "stateMutability": "nonpayable",
      "type": "function"
    },
    {
      "inputs": [
        {
          "internalType": "string",
          "name": "",
          "type": "string"
        }
      ],
      "name": "streamIdToMetadata",
      "outputs": [
        {
          "internalType": "string",
          "name": "",
          "type": "string"
        }
      ],
      "stateMutability": "view",
      "type": "function"
    },
    {
      "inputs": [
        {
          "internalType": "string",
          "name": "",
          "type": "string"
        },
        {
          "internalType": "bytes32",
          "name": "",
          "type": "bytes32"
        }
      ],
      "name": "streamIdToPermissions",
      "outputs": [
        {
          "internalType": "bool",
          "name": "canEdit",
          "type": "bool"
        },
        {
          "internalType": "bool",
          "name": "canDelete",
          "type": "bool"
        },
        {
          "internalType": "uint256",
          "name": "publishExpiration",
          "type": "uint256"
        },
        {
          "internalType": "uint256",
          "name": "subscribeExpiration",
          "type": "uint256"
        },
        {
          "internalType": "bool",
          "name": "canGrant",
          "type": "bool"
        }
      ],
      "stateMutability": "view",
      "type": "function"
    },
    {
      "inputs": [
        {
          "internalType": "bytes4",
          "name": "interfaceId",
          "type": "bytes4"
        }
      ],
      "name": "supportsInterface",
      "outputs": [
        {
          "internalType": "bool",
          "name": "",
          "type": "bool"
        }
      ],
      "stateMutability": "view",
      "type": "function"
    },
    {
      "inputs": [
        {
          "internalType": "string",
          "name": "streamId",
          "type": "string"
        },
        {
          "internalType": "address",
          "name": "recipient",
          "type": "address"
        }
      ],
      "name": "transferAllPermissionsToUser",
      "outputs": [],
      "stateMutability": "nonpayable",
      "type": "function"
    },
    {
      "inputs": [
        {
          "internalType": "string",
          "name": "streamId",
          "type": "string"
        },
        {
          "internalType": "address",
          "name": "recipient",
          "type": "address"
        },
        {
          "internalType": "enum StreamRegistry.PermissionType",
          "name": "permissionType",
          "type": "uint8"
        }
      ],
      "name": "transferPermissionToUser",
      "outputs": [],
      "stateMutability": "nonpayable",
      "type": "function"
    },
    {
      "inputs": [
        {
          "internalType": "string",
          "name": "streamId",
          "type": "string"
        },
        {
          "internalType": "address",
          "name": "user",
          "type": "address"
        },
        {
          "internalType": "bool",
          "name": "canEdit",
          "type": "bool"
        },
        {
          "internalType": "bool",
          "name": "deletePerm",
          "type": "bool"
        },
        {
          "internalType": "uint256",
          "name": "publishExpiration",
          "type": "uint256"
        },
        {
          "internalType": "uint256",
          "name": "subscribeExpiration",
          "type": "uint256"
        },
        {
          "internalType": "bool",
          "name": "canGrant",
          "type": "bool"
        }
      ],
      "name": "trustedSetPermissionsForUser",
      "outputs": [],
      "stateMutability": "nonpayable",
      "type": "function"
    },
    {
      "inputs": [
        {
          "internalType": "string",
          "name": "streamId",
          "type": "string"
        },
        {
          "internalType": "string",
          "name": "metadata",
          "type": "string"
        }
      ],
      "name": "trustedSetStream",
      "outputs": [],
      "stateMutability": "nonpayable",
      "type": "function"
    },
    {
      "inputs": [
        {
          "internalType": "string[]",
          "name": "streamids",
          "type": "string[]"
        },
        {
          "internalType": "address[]",
          "name": "users",
          "type": "address[]"
        },
        {
          "internalType": "string[]",
          "name": "metadatas",
          "type": "string[]"
        },
        {
          "components": [
            {
              "internalType": "bool",
              "name": "canEdit",
              "type": "bool"
            },
            {
              "internalType": "bool",
              "name": "canDelete",
              "type": "bool"
            },
            {
              "internalType": "uint256",
              "name": "publishExpiration",
              "type": "uint256"
            },
            {
              "internalType": "uint256",
              "name": "subscribeExpiration",
              "type": "uint256"
            },
            {
              "internalType": "bool",
              "name": "canGrant",
              "type": "bool"
            }
          ],
          "internalType": "struct StreamRegistry.Permission[]",
          "name": "permissions",
          "type": "tuple[]"
        }
      ],
      "name": "trustedSetStreams",
      "outputs": [],
      "stateMutability": "nonpayable",
      "type": "function"
    },
    {
      "inputs": [
        {
          "internalType": "string",
          "name": "streamId",
          "type": "string"
        },
        {
          "internalType": "string",
          "name": "metadata",
          "type": "string"
        }
      ],
      "name": "updateStreamMetadata",
      "outputs": [],
      "stateMutability": "nonpayable",
      "type": "function"
    }
  ],
  "bytecode": "0x60806040523480156200001157600080fd5b506040516200647738038062006477833981810160405281019062000037919062000327565b80806000806101000a81548173ffffffffffffffffffffffffffffffffffffffff021916908373ffffffffffffffffffffffffffffffffffffffff1602179055505081600460006101000a81548173ffffffffffffffffffffffffffffffffffffffff021916908373ffffffffffffffffffffffffffffffffffffffff160217905550620000cf6000801b33620000d760201b60201c565b5050620003c1565b620000e98282620000ed60201b60201c565b5050565b620000ff8282620001de60201b60201c565b620001da57600180600084815260200190815260200160002060000160008373ffffffffffffffffffffffffffffffffffffffff1673ffffffffffffffffffffffffffffffffffffffff16815260200190815260200160002060006101000a81548160ff0219169083151502179055506200017f6200024960201b60201c565b73ffffffffffffffffffffffffffffffffffffffff168173ffffffffffffffffffffffffffffffffffffffff16837f2f8788117e7eff1d82e926ec794901d17c78024a50270940304540a733656f0d60405160405180910390a45b5050565b60006001600084815260200190815260200160002060000160008373ffffffffffffffffffffffffffffffffffffffff1673ffffffffffffffffffffffffffffffffffffffff16815260200190815260200160002060009054906101000a900460ff16905092915050565b6000620002606200026560201b6200318a1760201c565b905090565b60006200027833620002af60201b60201c565b156200028e57601436033560601c9050620002ab565b620002a36200030860201b620031bc1760201c565b9050620002ac565b5b90565b60008060009054906101000a900473ffffffffffffffffffffffffffffffffffffffff1673ffffffffffffffffffffffffffffffffffffffff168273ffffffffffffffffffffffffffffffffffffffff16149050919050565b600033905090565b6000815190506200032181620003a7565b92915050565b60008060408385031215620003415762000340620003a2565b5b6000620003518582860162000310565b9250506020620003648582860162000310565b9150509250929050565b60006200037b8262000382565b9050919050565b600073ffffffffffffffffffffffffffffffffffffffff82169050919050565b600080fd5b620003b2816200036e565b8114620003be57600080fd5b50565b6160a680620003d16000396000f3fe608060405234801561001057600080fd5b50600436106102485760003560e01c80636453cbd71161013b578063a217fddf116100b8578063d547741f1161007c578063d547741f14610705578063e8f3828e14610721578063f36d484914610751578063f7f5078c14610785578063fb5642a0146107b557610248565b8063a217fddf14610677578063a8989d3f14610695578063b6a91597146106b1578063ca76cc8e146106cd578063d2d78c3e146106e957610248565b806388b21038116100ff57806388b21038146105af5780638a043af8146105df57806391d14854146105fb578063997e8aaa1461062b578063a020aa971461064757610248565b80636453cbd71461050f5780636beff96d1461052b57806378800c76146105475780637b3681b51461056357806386902fe91461057f57610248565b806336568abe116101c957806356c022bb1161018d57806356c022bb14610443578063572b6c05146104615780635901692e146104915780635e57966d146104af5780636394fbd2146104df57610248565b806336568abe146103b75780633e397aea146103d357806342617fe7146103ef578063466f878e1461040b57806350b5422b1461042757610248565b8063248a9ca311610210578063248a9ca314610303578063261a323e14610333578063272cc993146103635780632f2ff15d1461037f57806333fb4ac51461039b57610248565b806301ffc9a71461024d578063022bf1d11461027d5780630843564a14610299578063098d3228146102c95780630ef8cdc7146102e7575b600080fd5b610267600480360381019061026291906148c5565b6107e5565b60405161027491906153bf565b60405180910390f35b61029760048036038101906102929190614b5d565b61085f565b005b6102b360048036038101906102ae9190614e63565b610a73565b6040516102c0919061542d565b60405180910390f35b6102d1610ad4565b6040516102de9190615843565b60405180910390f35b61030160048036038101906102fc9190614c71565b610af8565b005b61031d60048036038101906103189190614858565b610b20565b60405161032a919061542d565b60405180910390f35b61034d600480360381019061034891906148f2565b610b40565b60405161035a91906153bf565b60405180910390f35b61037d60048036038101906103789190614c11565b610b7a565b005b61039960048036038101906103949190614885565b610c65565b005b6103b560048036038101906103b0919061476f565b610c8e565b005b6103d160048036038101906103cc9190614885565b610f0a565b005b6103ed60048036038101906103e89190614a61565b610f8d565b005b61040960048036038101906104049190614c71565b6110b9565b005b61042560048036038101906104209190614c11565b611252565b005b610441600480360381019061043c919061493f565b61133d565b005b61044b61156f565b60405161045891906153a4565b60405180910390f35b61047b60048036038101906104769190614715565b611593565b60405161048891906153bf565b60405180910390f35b6104996115ec565b6040516104a6919061542d565b60405180910390f35b6104c960048036038101906104c49190614715565b611610565b6040516104d69190615597565b60405180910390f35b6104f960048036038101906104f491906148f2565b61191b565b6040516105069190615597565b60405180910390f35b610529600480360381019061052491906148f2565b611a1b565b005b6105456004803603810190610540919061493f565b611baa565b005b610561600480360381019061055c9190614cf2565b611eb8565b005b61057d60048036038101906105789190614ad5565b612032565b005b61059960048036038101906105949190614e1a565b612315565b6040516105a69190615597565b60405180910390f35b6105c960048036038101906105c49190614a61565b6123cb565b6040516105d691906153bf565b60405180910390f35b6105f960048036038101906105f49190614a61565b6123f7565b005b61061560048036038101906106109190614885565b612472565b60405161062291906153bf565b60405180910390f35b61064560048036038101906106409190614a61565b6124dd565b005b610661600480360381019061065c919061493f565b6125ca565b60405161066e9190615828565b60405180910390f35b61067f612716565b60405161068c919061542d565b60405180910390f35b6106af60048036038101906106aa9190614da6565b61271d565b005b6106cb60048036038101906106c6919061499f565b61280f565b005b6106e760048036038101906106e29190614c71565b612899565b005b61070360048036038101906106fe919061499f565b61297c565b005b61071f600480360381019061071a9190614885565b612a6f565b005b61073b6004803603810190610736919061493f565b612a98565b6040516107489190615828565b60405180910390f35b61076b60048036038101906107669190614ebf565b612d2e565b60405161077c9594939291906153da565b60405180910390f35b61079f600480360381019061079a9190614a61565b612dae565b6040516107ac91906153bf565b60405180910390f35b6107cf60048036038101906107ca9190614c11565b613172565b6040516107dc91906153bf565b60405180910390f35b60007f7965db0b000000000000000000000000000000000000000000000000000000007bffffffffffffffffffffffffffffffffffffffffffffffffffffffff1916827bffffffffffffffffffffffffffffffffffffffffffffffffffffffff191614806108585750610857826131c4565b5b9050919050565b858560028282604051610873929190615314565b908152602001604051809103902060006108d884848080601f016020809104026020016040519081016040528093929190818152602001838380828437600081840152601f19601f820116905080830192505050505050506108d361322e565b610a73565b815260200190815260200160002060030160009054906101000a900460ff16610936576040517f08c379a000000000000000000000000000000000000000000000000000000000815260040161092d90615748565b60405180910390fd5b83839050868690501461094857600080fd5b600086869050905060005b81811015610a675760008686838181106109705761096f615c96565b5b905060a002018036038101906109869190614f1b565b90506109d38b8b8b8b868181106109a05761099f615c96565b5b90506020020160208101906109b59190614715565b8460000151856020015186604001518760600151886080015161323d565b7fd22d58032f55c61c3896b3f67eb399b25071b61e122a23d4cd06bc87d4b7b8c18b8b8b8b86818110610a0957610a08615c96565b5b9050602002016020810190610a1e9190614715565b84600001518560200151866040015187606001518860800151604051610a4b9897969594939291906154e4565b60405180910390a1508080610a5f90615bc0565b915050610953565b50505050505050505050565b6000600583604051610a85919061532d565b908152602001604051809103902060009054906101000a900463ffffffff1682604051602001610ab692919061585e565b60405160208183030381529060405280519060200120905092915050565b7fffffffffffffffffffffffffffffffffffffffffffffffffffffffffffffffff81565b6000610b0a610b0561322e565b611610565b9050610b198186868686613437565b5050505050565b600060016000838152602001908152602001600020600101549050919050565b60008060038484604051610b55929190615314565b90815260200160405180910390208054610b6e90615b5d565b90501415905092915050565b828260028282604051610b8e929190615314565b90815260200160405180910390206000610bf384848080601f016020809104026020016040519081016040528093929190818152602001838380828437600081840152601f19601f82011690508083019250505050505050610bee61322e565b610a73565b815260200190815260200160002060030160009054906101000a900460ff16610c51576040517f08c379a0000000000000000000000000000000000000000000000000000000008152600401610c4890615748565b60405180910390fd5b610c5e8585600086610f8d565b5050505050565b610c6e82610b20565b610c7f81610c7a61322e565b613879565b610c898383613916565b505050565b610cbf7f2de84d9fbdf6d06e2cc584295043dbd76046423b9f8bae9426d4fa5e7c03f4a7610cba61322e565b612472565b610cfe576040517f08c379a0000000000000000000000000000000000000000000000000000000008152600401610cf590615708565b60405180910390fd5b600088889050905060005b81811015610efe573660008b8b84818110610d2757610d26615c96565b5b9050602002810190610d399190615887565b91509150878784818110610d5057610d4f615c96565b5b9050602002810190610d629190615887565b60038484604051610d74929190615314565b90815260200160405180910390209190610d8f929190614316565b506000868685818110610da557610da4615c96565b5b905060a00201803603810190610dbb9190614f1b565b9050610e0883838d8d88818110610dd557610dd4615c96565b5b9050602002016020810190610dea9190614715565b8460000151856020015186604001518760600151886080015161323d565b7f0db027888a30ca08149af1347f6ce2f48daffedd9d6d21ab6249c4d802ce592f83838b8b88818110610e3e57610e3d615c96565b5b9050602002810190610e509190615887565b604051610e60949392919061555c565b60405180910390a17fd22d58032f55c61c3896b3f67eb399b25071b61e122a23d4cd06bc87d4b7b8c183838d8d88818110610e9e57610e9d615c96565b5b9050602002016020810190610eb39190614715565b84600001518560200151866040015187606001518860800151604051610ee09897969594939291906154e4565b60405180910390a15050508080610ef690615bc0565b915050610d09565b50505050505050505050565b610f1261322e565b73ffffffffffffffffffffffffffffffffffffffff168173ffffffffffffffffffffffffffffffffffffffff1614610f7f576040517f08c379a0000000000000000000000000000000000000000000000000000000008152600401610f76906157e8565b60405180910390fd5b610f8982826139f6565b5050565b83838360028383604051610fa2929190615314565b9081526020016040518091039020600061100785858080601f016020809104026020016040519081016040528093929190818152602001838380828437600081840152601f19601f8201169050808301925050505050505061100261322e565b610a73565b815260200190815260200160002060030160009054906101000a900460ff168061106357508073ffffffffffffffffffffffffffffffffffffffff1661104b61322e565b73ffffffffffffffffffffffffffffffffffffffff16145b6110a2576040517f08c379a000000000000000000000000000000000000000000000000000000000815260040161109990615748565b60405180910390fd5b6110b0878787876000613ad8565b50505050505050565b83836110c58282610b40565b611104576040517f08c379a00000000000000000000000000000000000000000000000000000000081526004016110fb90615728565b60405180910390fd5b858560028282604051611118929190615314565b9081526020016040518091039020600061117d84848080601f016020809104026020016040519081016040528093929190818152602001838380828437600081840152601f19601f8201169050808301925050505050505061117861322e565b610a73565b815260200190815260200160002060000160009054906101000a900460ff166111db576040517f08c379a00000000000000000000000000000000000000000000000000000000081526004016111d2906156e8565b60405180910390fd5b858560038a8a6040516111ef929190615314565b9081526020016040518091039020919061120a929190614316565b507fa60b7935888a7ab31214282090f1ab7207ab6d7abbf3c11080b75ce91d9a36d088888888604051611240949392919061555c565b60405180910390a15050505050505050565b828260028282604051611266929190615314565b908152602001604051809103902060006112cb84848080601f016020809104026020016040519081016040528093929190818152602001838380828437600081840152601f19601f820116905080830192505050505050506112c661322e565b610a73565b815260200190815260200160002060030160009054906101000a900460ff16611329576040517f08c379a000000000000000000000000000000000000000000000000000000000815260040161132090615748565b60405180910390fd5b61133685856000866124dd565b5050505050565b82828260028383604051611352929190615314565b908152602001604051809103902060006113b785858080601f016020809104026020016040519081016040528093929190818152602001838380828437600081840152601f19601f820116905080830192505050505050506113b261322e565b610a73565b815260200190815260200160002060030160009054906101000a900460ff168061141357508073ffffffffffffffffffffffffffffffffffffffff166113fb61322e565b73ffffffffffffffffffffffffffffffffffffffff16145b611452576040517f08c379a000000000000000000000000000000000000000000000000000000000815260040161144990615748565b60405180910390fd5b60028686604051611464929190615314565b908152602001604051809103902060006114c288888080601f016020809104026020016040519081016040528093929190818152602001838380828437600081840152601f19601f8201169050808301925050505050505087610a73565b8152602001908152602001600020600080820160006101000a81549060ff02191690556000820160016101000a81549060ff0219169055600182016000905560028201600090556003820160006101000a81549060ff021916905550507fd22d58032f55c61c3896b3f67eb399b25071b61e122a23d4cd06bc87d4b7b8c1868686600080600080600060405161155f98979695949392919061546c565b60405180910390a1505050505050565b60008054906101000a900473ffffffffffffffffffffffffffffffffffffffff1681565b60008060009054906101000a900473ffffffffffffffffffffffffffffffffffffffff1673ffffffffffffffffffffffffffffffffffffffff168273ffffffffffffffffffffffffffffffffffffffff16149050919050565b7f2de84d9fbdf6d06e2cc584295043dbd76046423b9f8bae9426d4fa5e7c03f4a781565b606060008273ffffffffffffffffffffffffffffffffffffffff1660001b905060006040518060400160405280601081526020017f303132333435363738396162636465660000000000000000000000000000000081525090506000602a67ffffffffffffffff81111561168757611686615cc5565b5b6040519080825280601f01601f1916602001820160405280156116b95781602001600182028036833780820191505090505b5090507f3000000000000000000000000000000000000000000000000000000000000000816000815181106116f1576116f0615c96565b5b60200101907effffffffffffffffffffffffffffffffffffffffffffffffffffffffffffff1916908160001a9053507f78000000000000000000000000000000000000000000000000000000000000008160018151811061175557611754615c96565b5b60200101907effffffffffffffffffffffffffffffffffffffffffffffffffffffffffffff1916908160001a90535060005b601481101561190f5782600485600c846117a19190615967565b602081106117b2576117b1615c96565b5b1a60f81b7effffffffffffffffffffffffffffffffffffffffffffffffffffffffffffff1916901c60f81c60ff16815181106117f1576117f0615c96565b5b602001015160f81c60f81b8260028361180a91906159f7565b60026118169190615967565b8151811061182757611826615c96565b5b60200101907effffffffffffffffffffffffffffffffffffffffffffffffffffffffffffff1916908160001a90535082600f60f81b85600c8461186a9190615967565b6020811061187b5761187a615c96565b5b1a60f81b1660f81c60ff168151811061189757611896615c96565b5b602001015160f81c60f81b826002836118b091906159f7565b60036118bc9190615967565b815181106118cd576118cc615c96565b5b60200101907effffffffffffffffffffffffffffffffffffffffffffffffffffffffffffff1916908160001a905350808061190790615bc0565b915050611787565b50809350505050919050565b606082826119298282610b40565b611968576040517f08c379a000000000000000000000000000000000000000000000000000000000815260040161195f90615728565b60405180910390fd5b6003858560405161197a929190615314565b9081526020016040518091039020805461199390615b5d565b80601f01602080910402602001604051908101604052809291908181526020018280546119bf90615b5d565b8015611a0c5780601f106119e157610100808354040283529160200191611a0c565b820191906000526020600020905b8154815290600101906020018083116119ef57829003601f168201915b50505050509250505092915050565b8181611a278282610b40565b611a66576040517f08c379a0000000000000000000000000000000000000000000000000000000008152600401611a5d90615728565b60405180910390fd5b838360028282604051611a7a929190615314565b90815260200160405180910390206000611adf84848080601f016020809104026020016040519081016040528093929190818152602001838380828437600081840152601f19601f82011690508083019250505050505050611ada61322e565b610a73565b815260200190815260200160002060000160019054906101000a900460ff16611b3d576040517f08c379a0000000000000000000000000000000000000000000000000000000008152600401611b34906157c8565b60405180910390fd5b60038686604051611b4f929190615314565b90815260200160405180910390206000611b69919061439c565b7f74b7395f46349d84fba706c4d226c68bbf9206c2567ae3ec2a001b5a98128eae8686604051611b9a929190615448565b60405180910390a1505050505050565b600060028484604051611bbe929190615314565b90815260200160405180910390206000611c2386868080601f016020809104026020016040519081016040528093929190818152602001838380828437600081840152601f19601f82011690508083019250505050505050611c1e61322e565b610a73565b81526020019081526020016000206040518060a00160405290816000820160009054906101000a900460ff161515151581526020016000820160019054906101000a900460ff1615151515815260200160018201548152602001600282015481526020016003820160009054906101000a900460ff1615151515815250509050806000015180611cb4575080602001515b80611cc3575060008160400151115b80611cd2575060008160600151115b80611cde575080608001515b611d1d576040517f08c379a0000000000000000000000000000000000000000000000000000000008152600401611d1490615768565b60405180910390fd5b600060028585604051611d31929190615314565b90815260200160405180910390206000611d8f87878080601f016020809104026020016040519081016040528093929190818152602001838380828437600081840152601f19601f8201169050808301925050505050505086610a73565b81526020019081526020016000206040518060a00160405290816000820160009054906101000a900460ff161515151581526020016000820160019054906101000a900460ff1615151515815260200160018201548152602001600282015481526020016003820160009054906101000a900460ff161515151581525050905060008160400151836040015111611e2a578160400151611e30565b82604001515b905060008260600151846060015111611e4d578260600151611e53565b83606001515b9050611e95878787876000015180611e6c575086600001515b886020015180611e7d575087602001515b87878b6080015180611e9057508a608001515b61323d565b611eaf8787611ea261322e565b600080600080600061323d565b50505050505050565b611ec061322e565b73ffffffffffffffffffffffffffffffffffffffff16600460009054906101000a900473ffffffffffffffffffffffffffffffffffffffff1673ffffffffffffffffffffffffffffffffffffffff16632b1fd99588886040518363ffffffff1660e01b8152600401611f33929190615448565b60206040518083038186803b158015611f4b57600080fd5b505afa158015611f5f573d6000803e3d6000fd5b505050506040513d601f19601f82011682018060405250810190611f839190614742565b73ffffffffffffffffffffffffffffffffffffffff1614611fd9576040517f08c379a0000000000000000000000000000000000000000000000000000000008152600401611fd090615808565b60405180910390fd5b61202a86868080601f016020809104026020016040519081016040528093929190818152602001838380828437600081840152601f19601f8201169050808301925050505050505085858585613437565b505050505050565b848460028282604051612046929190615314565b908152602001604051809103902060006120ab84848080601f016020809104026020016040519081016040528093929190818152602001838380828437600081840152601f19601f820116905080830192505050505050506120a661322e565b610a73565b815260200190815260200160002060030160009054906101000a900460ff16612109576040517f08c379a000000000000000000000000000000000000000000000000000000000815260040161210090615748565b60405180910390fd5b6003600481111561211d5761211c615c38565b5b8460048111156121305761212f615c38565b5b148061216057506002600481111561214b5761214a615c38565b5b84600481111561215e5761215d615c38565b5b145b61219f576040517f08c379a0000000000000000000000000000000000000000000000000000000008152600401612196906156a8565b60405180910390fd5b600260048111156121b3576121b2615c38565b5b8460048111156121c6576121c5615c38565b5b14156122575782600288886040516121df929190615314565b9081526020016040518091039020600061223d8a8a8080601f016020809104026020016040519081016040528093929190818152602001838380828437600081840152601f19601f8201169050808301925050505050505089610a73565b81526020019081526020016000206001018190555061230c565b6003600481111561226b5761226a615c38565b5b84600481111561227e5761227d615c38565b5b141561230b578260028888604051612297929190615314565b908152602001604051809103902060006122f58a8a8080601f016020809104026020016040519081016040528093929190818152602001838380828437600081840152601f19601f8201169050808301925050505050505089610a73565b8152602001908152602001600020600201819055505b5b50505050505050565b600381805160208101820180518482526020830160208501208183528095505050505050600091509050805461234a90615b5d565b80601f016020809104026020016040519081016040528092919081815260200182805461237690615b5d565b80156123c35780601f10612398576101008083540402835291602001916123c3565b820191906000526020600020905b8154815290600101906020018083116123a657829003601f168201915b505050505081565b60006123d985858585612dae565b806123ed57506123ec8585600085612dae565b5b9050949350505050565b61240a848461240461322e565b84612dae565b612449576040517f08c379a000000000000000000000000000000000000000000000000000000000815260040161244090615768565b60405180910390fd5b61245e848461245661322e565b846000613ad8565b61246c848484846001613ad8565b50505050565b60006001600084815260200190815260200160002060000160008373ffffffffffffffffffffffffffffffffffffffff1673ffffffffffffffffffffffffffffffffffffffff16815260200190815260200160002060009054906101000a900460ff16905092915050565b8383600282826040516124f1929190615314565b9081526020016040518091039020600061255684848080601f016020809104026020016040519081016040528093929190818152602001838380828437600081840152601f19601f8201169050808301925050505050505061255161322e565b610a73565b815260200190815260200160002060030160009054906101000a900460ff166125b4576040517f08c379a00000000000000000000000000000000000000000000000000000000081526004016125ab90615748565b60405180910390fd5b6125c2868686866001613ad8565b505050505050565b6125d26143dc565b83836125de8282610b40565b61261d576040517f08c379a000000000000000000000000000000000000000000000000000000000815260040161261490615728565b60405180910390fd5b6002868660405161262f929190615314565b9081526020016040518091039020600061268d88888080601f016020809104026020016040519081016040528093929190818152602001838380828437600081840152601f19601f8201169050808301925050505050505087610a73565b81526020019081526020016000206040518060a00160405290816000820160009054906101000a900460ff161515151581526020016000820160019054906101000a900460ff1615151515815260200160018201548152602001600282015481526020016003820160009054906101000a900460ff161515151581525050925050509392505050565b6000801b81565b838360028282604051612731929190615314565b9081526020016040518091039020600061279684848080601f016020809104026020016040519081016040528093929190818152602001838380828437600081840152601f19601f8201169050808301925050505050505061279161322e565b610a73565b815260200190815260200160002060030160009054906101000a900460ff166127f4576040517f08c379a00000000000000000000000000000000000000000000000000000000081526004016127eb90615748565b60405180910390fd5b612807868660008060008989600061297c565b505050505050565b6128407f2de84d9fbdf6d06e2cc584295043dbd76046423b9f8bae9426d4fa5e7c03f4a761283b61322e565b612472565b61287f576040517f08c379a000000000000000000000000000000000000000000000000000000000815260040161287690615708565b60405180910390fd5b61288f888888888888888861323d565b5050505050505050565b6128ca7f2de84d9fbdf6d06e2cc584295043dbd76046423b9f8bae9426d4fa5e7c03f4a76128c561322e565b612472565b612909576040517f08c379a000000000000000000000000000000000000000000000000000000000815260040161290090615708565b60405180910390fd5b81816003868660405161291d929190615314565b90815260200160405180910390209190612938929190614316565b507fa60b7935888a7ab31214282090f1ab7207ab6d7abbf3c11080b75ce91d9a36d08484848460405161296e949392919061555c565b60405180910390a150505050565b878760028282604051612990929190615314565b908152602001604051809103902060006129f584848080601f016020809104026020016040519081016040528093929190818152602001838380828437600081840152601f19601f820116905080830192505050505050506129f061322e565b610a73565b815260200190815260200160002060030160009054906101000a900460ff16612a53576040517f08c379a0000000000000000000000000000000000000000000000000000000008152600401612a4a90615748565b60405180910390fd5b612a638a8a8a8a8a8a8a8a61323d565b50505050505050505050565b612a7882610b20565b612a8981612a8461322e565b613879565b612a9383836139f6565b505050565b612aa06143dc565b8383612aac8282610b40565b612aeb576040517f08c379a0000000000000000000000000000000000000000000000000000000008152600401612ae290615728565b60405180910390fd5b60028686604051612afd929190615314565b90815260200160405180910390206000612b5b88888080601f016020809104026020016040519081016040528093929190818152602001838380828437600081840152601f19601f8201169050808301925050505050505087610a73565b81526020019081526020016000206040518060a00160405290816000820160009054906101000a900460ff161515151581526020016000820160019054906101000a900460ff1615151515815260200160018201548152602001600282015481526020016003820160009054906101000a900460ff1615151515815250509250600060028787604051612bef929190615314565b90815260200160405180910390206000612c4e89898080601f016020809104026020016040519081016040528093929190818152602001838380828437600081840152601f19601f820116905080830192505050505050506000610a73565b81526020019081526020016000206040518060a00160405290816000820160009054906101000a900460ff161515151581526020016000820160019054906101000a900460ff1615151515815260200160018201548152602001600282015481526020016003820160009054906101000a900460ff1615151515815250509050428460400151108015612ce5575042816040015110155b15612cf95780604001518460400181815250505b428460600151108015612d10575042816060015110155b15612d245780606001518460600181815250505b5050509392505050565b600282805160208101820180518482526020830160208501208183528095505050505050602052806000526040600020600091509150508060000160009054906101000a900460ff16908060000160019054906101000a900460ff16908060010154908060020154908060030160009054906101000a900460ff16905085565b6000806004811115612dc357612dc2615c38565b5b826004811115612dd657612dd5615c38565b5b1415612e725760028585604051612dee929190615314565b90815260200160405180910390206000612e4c87878080601f016020809104026020016040519081016040528093929190818152602001838380828437600081840152601f19601f8201169050808301925050505050505086610a73565b815260200190815260200160002060000160009054906101000a900460ff16905061316a565b60016004811115612e8657612e85615c38565b5b826004811115612e9957612e98615c38565b5b1415612f355760028585604051612eb1929190615314565b90815260200160405180910390206000612f0f87878080601f016020809104026020016040519081016040528093929190818152602001838380828437600081840152601f19601f8201169050808301925050505050505086610a73565b815260200190815260200160002060000160019054906101000a900460ff16905061316a565b60026004811115612f4957612f48615c38565b5b826004811115612f5c57612f5b615c38565b5b1415612fee574260028686604051612f75929190615314565b90815260200160405180910390206000612fd388888080601f016020809104026020016040519081016040528093929190818152602001838380828437600081840152601f19601f8201169050808301925050505050505087610a73565b8152602001908152602001600020600101541015905061316a565b6003600481111561300257613001615c38565b5b82600481111561301557613014615c38565b5b14156130a757426002868660405161302e929190615314565b9081526020016040518091039020600061308c88888080601f016020809104026020016040519081016040528093929190818152602001838380828437600081840152601f19601f8201169050808301925050505050505087610a73565b8152602001908152602001600020600201541015905061316a565b6004808111156130ba576130b9615c38565b5b8260048111156130cd576130cc615c38565b5b141561316957600285856040516130e5929190615314565b9081526020016040518091039020600061314387878080601f016020809104026020016040519081016040528093929190818152602001838380828437600081840152601f19601f8201169050808301925050505050505086610a73565b815260200190815260200160002060030160009054906101000a900460ff16905061316a565b5b949350505050565b60006131818484600085612dae565b90509392505050565b600061319533611593565b156131a957601436033560601c90506131b8565b6131b16131bc565b90506131b9565b5b90565b600033905090565b60007f01ffc9a7000000000000000000000000000000000000000000000000000000007bffffffffffffffffffffffffffffffffffffffffffffffffffffffff1916827bffffffffffffffffffffffffffffffffffffffffffffffffffffffff1916149050919050565b600061323861318a565b905090565b600073ffffffffffffffffffffffffffffffffffffffff168673ffffffffffffffffffffffffffffffffffffffff161415806132875750848061327d5750835b806132855750805b155b6132c6576040517f08c379a00000000000000000000000000000000000000000000000000000000081526004016132bd90615688565b60405180910390fd5b6040518060a001604052808615158152602001851515815260200184815260200183815260200182151581525060028989604051613305929190615314565b908152602001604051809103902060006133638b8b8080601f016020809104026020016040519081016040528093929190818152602001838380828437600081840152601f19601f820116905080830192505050505050508a610a73565b815260200190815260200160002060008201518160000160006101000a81548160ff02191690831515021790555060208201518160000160016101000a81548160ff021916908315150217905550604082015181600101556060820151816002015560808201518160030160006101000a81548160ff0219169083151502179055509050507fd22d58032f55c61c3896b3f67eb399b25071b61e122a23d4cd06bc87d4b7b8c188888888888888886040516134259897969594939291906154e4565b60405180910390a15050505050505050565b600082829050141561347e576040517f08c379a000000000000000000000000000000000000000000000000000000000815260040161347590615788565b60405180910390fd5b600084848080601f016020809104026020016040519081016040528093929190818152602001838380828437600081840152601f19601f8201169050808301925050505050505090507f2f00000000000000000000000000000000000000000000000000000000000000816000815181106134fc576134fb615c96565b5b602001015160f81c60f81b7effffffffffffffffffffffffffffffffffffffffffffffffffffffffffffff191614613569576040517f08c379a0000000000000000000000000000000000000000000000000000000008152600401613560906156c8565b60405180910390fd5b600086868660405160200161358093929190615344565b604051602081830303815290604052905060006003826040516135a3919061532d565b908152602001604051809103902080546135bc90615b5d565b9050146135fe576040517f08c379a00000000000000000000000000000000000000000000000000000000081526004016135f5906157a8565b60405180910390fd5b6001600582604051613610919061532d565b908152602001604051809103902060009054906101000a900463ffffffff1661363991906159bd565b600582604051613649919061532d565b908152602001604051809103902060006101000a81548163ffffffff021916908363ffffffff1602179055508383600383604051613687919061532d565b908152602001604051809103902091906136a2929190614316565b506040518060a001604052806001151581526020016001151581526020017fffffffffffffffffffffffffffffffffffffffffffffffffffffffffffffffff81526020017fffffffffffffffffffffffffffffffffffffffffffffffffffffffffffffffff815260200160011515815250600282604051613723919061532d565b908152602001604051809103902060006137448461373f61322e565b610a73565b815260200190815260200160002060008201518160000160006101000a81548160ff02191690831515021790555060208201518160000160016101000a81548160ff021916908315150217905550604082015181600101556060820151816002015560808201518160030160006101000a81548160ff0219169083151502179055509050507f0db027888a30ca08149af1347f6ce2f48daffedd9d6d21ab6249c4d802ce592f8185856040516137fc9392919061562f565b60405180910390a17fd22d58032f55c61c3896b3f67eb399b25071b61e122a23d4cd06bc87d4b7b8c18161382e61322e565b6001807fffffffffffffffffffffffffffffffffffffffffffffffffffffffffffffffff80600160405161386897969594939291906155b9565b60405180910390a150505050505050565b6138838282612472565b613912576138a88173ffffffffffffffffffffffffffffffffffffffff1660146140da565b6138b68360001c60206140da565b6040516020016138c792919061536a565b6040516020818303038152906040526040517f08c379a00000000000000000000000000000000000000000000000000000000081526004016139099190615597565b60405180910390fd5b5050565b6139208282612472565b6139f257600180600084815260200190815260200160002060000160008373ffffffffffffffffffffffffffffffffffffffff1673ffffffffffffffffffffffffffffffffffffffff16815260200190815260200160002060006101000a81548160ff02191690831515021790555061399761322e565b73ffffffffffffffffffffffffffffffffffffffff168173ffffffffffffffffffffffffffffffffffffffff16837f2f8788117e7eff1d82e926ec794901d17c78024a50270940304540a733656f0d60405160405180910390a45b5050565b613a008282612472565b15613ad45760006001600084815260200190815260200160002060000160008373ffffffffffffffffffffffffffffffffffffffff1673ffffffffffffffffffffffffffffffffffffffff16815260200190815260200160002060006101000a81548160ff021916908315150217905550613a7961322e565b73ffffffffffffffffffffffffffffffffffffffff168173ffffffffffffffffffffffffffffffffffffffff16837ff6391f5c32d9c69d2a47ea670b442974b53935d1edc7fd64eb21e047a839171b60405160405180910390a45b5050565b600073ffffffffffffffffffffffffffffffffffffffff168373ffffffffffffffffffffffffffffffffffffffff16141580613b38575060036004811115613b2357613b22615c38565b5b826004811115613b3657613b35615c38565b5b145b80613b67575060026004811115613b5257613b51615c38565b5b826004811115613b6557613b64615c38565b5b145b613ba6576040517f08c379a0000000000000000000000000000000000000000000000000000000008152600401613b9d90615688565b60405180910390fd5b60006004811115613bba57613bb9615c38565b5b826004811115613bcd57613bcc615c38565b5b1415613c71578060028686604051613be6929190615314565b90815260200160405180910390206000613c4488888080601f016020809104026020016040519081016040528093929190818152602001838380828437600081840152601f19601f8201169050808301925050505050505087610a73565b815260200190815260200160002060000160006101000a81548160ff021916908315150217905550613fd0565b60016004811115613c8557613c84615c38565b5b826004811115613c9857613c97615c38565b5b1415613d3c578060028686604051613cb1929190615314565b90815260200160405180910390206000613d0f88888080601f016020809104026020016040519081016040528093929190818152602001838380828437600081840152601f19601f8201169050808301925050505050505087610a73565b815260200190815260200160002060000160016101000a81548160ff021916908315150217905550613fcf565b60026004811115613d5057613d4f615c38565b5b826004811115613d6357613d62615c38565b5b1415613e215780613d75576000613d97565b7fffffffffffffffffffffffffffffffffffffffffffffffffffffffffffffffff5b60028686604051613da9929190615314565b90815260200160405180910390206000613e0788888080601f016020809104026020016040519081016040528093929190818152602001838380828437600081840152601f19601f8201169050808301925050505050505087610a73565b815260200190815260200160002060010181905550613fce565b60036004811115613e3557613e34615c38565b5b826004811115613e4857613e47615c38565b5b1415613f065780613e5a576000613e7c565b7fffffffffffffffffffffffffffffffffffffffffffffffffffffffffffffffff5b60028686604051613e8e929190615314565b90815260200160405180910390206000613eec88888080601f016020809104026020016040519081016040528093929190818152602001838380828437600081840152601f19601f8201169050808301925050505050505087610a73565b815260200190815260200160002060020181905550613fcd565b600480811115613f1957613f18615c38565b5b826004811115613f2c57613f2b615c38565b5b1415613fcc578060028686604051613f45929190615314565b90815260200160405180910390206000613fa388888080601f016020809104026020016040519081016040528093929190818152602001838380828437600081840152601f19601f8201169050808301925050505050505087610a73565b815260200190815260200160002060030160006101000a81548160ff0219169083151502179055505b5b5b5b5b600060028686604051613fe4929190615314565b9081526020016040518091039020600061404288888080601f016020809104026020016040519081016040528093929190818152602001838380828437600081840152601f19601f8201169050808301925050505050505087610a73565b815260200190815260200160002090507fd22d58032f55c61c3896b3f67eb399b25071b61e122a23d4cd06bc87d4b7b8c18686868460000160009054906101000a900460ff168560000160019054906101000a900460ff16866001015487600201548860030160009054906101000a900460ff166040516140ca9897969594939291906154e4565b60405180910390a1505050505050565b6060600060028360026140ed91906159f7565b6140f79190615967565b67ffffffffffffffff8111156141105761410f615cc5565b5b6040519080825280601f01601f1916602001820160405280156141425781602001600182028036833780820191505090505b5090507f30000000000000000000000000000000000000000000000000000000000000008160008151811061417a57614179615c96565b5b60200101907effffffffffffffffffffffffffffffffffffffffffffffffffffffffffffff1916908160001a9053507f7800000000000000000000000000000000000000000000000000000000000000816001815181106141de576141dd615c96565b5b60200101907effffffffffffffffffffffffffffffffffffffffffffffffffffffffffffff1916908160001a9053506000600184600261421e91906159f7565b6142289190615967565b90505b60018111156142c8577f3031323334353637383961626364656600000000000000000000000000000000600f86166010811061426a57614269615c96565b5b1a60f81b82828151811061428157614280615c96565b5b60200101907effffffffffffffffffffffffffffffffffffffffffffffffffffffffffffff1916908160001a905350600485901c9450806142c190615b33565b905061422b565b506000841461430c576040517f08c379a000000000000000000000000000000000000000000000000000000000815260040161430390615668565b60405180910390fd5b8091505092915050565b82805461432290615b5d565b90600052602060002090601f016020900481019282614344576000855561438b565b82601f1061435d57803560ff191683800117855561438b565b8280016001018555821561438b579182015b8281111561438a57823582559160200191906001019061436f565b5b5090506143989190614411565b5090565b5080546143a890615b5d565b6000825580601f106143ba57506143d9565b601f0160209004906000526020600020908101906143d89190614411565b5b50565b6040518060a0016040528060001515815260200160001515815260200160008152602001600081526020016000151581525090565b5b8082111561442a576000816000905550600101614412565b5090565b600061444161443c8461590f565b6158ea565b90508281526020810184848401111561445d5761445c615d17565b5b614468848285615af1565b509392505050565b60008135905061447f81615fed565b92915050565b60008151905061449481615fed565b92915050565b60008083601f8401126144b0576144af615cf9565b5b8235905067ffffffffffffffff8111156144cd576144cc615cf4565b5b6020830191508360208202830111156144e9576144e8615d0d565b5b9250929050565b60008083601f84011261450657614505615cf9565b5b8235905067ffffffffffffffff81111561452357614522615cf4565b5b60208301915083602082028301111561453f5761453e615d0d565b5b9250929050565b60008083601f84011261455c5761455b615cf9565b5b8235905067ffffffffffffffff81111561457957614578615cf4565b5b6020830191508360a082028301111561459557614594615d0d565b5b9250929050565b6000813590506145ab81616004565b92915050565b6000813590506145c08161601b565b92915050565b6000813590506145d581616032565b92915050565b6000813590506145ea81616049565b92915050565b60008083601f84011261460657614605615cf9565b5b8235905067ffffffffffffffff81111561462357614622615cf4565b5b60208301915083600182028301111561463f5761463e615d0d565b5b9250929050565b600082601f83011261465b5761465a615cf9565b5b813561466b84826020860161442e565b91505092915050565b600060a0828403121561468a57614689615d03565b5b61469460a06158ea565b905060006146a48482850161459c565b60008301525060206146b88482850161459c565b60208301525060406146cc84828501614700565b60408301525060606146e084828501614700565b60608301525060806146f48482850161459c565b60808301525092915050565b60008135905061470f81616059565b92915050565b60006020828403121561472b5761472a615d21565b5b600061473984828501614470565b91505092915050565b60006020828403121561475857614757615d21565b5b600061476684828501614485565b91505092915050565b6000806000806000806000806080898b03121561478f5761478e615d21565b5b600089013567ffffffffffffffff8111156147ad576147ac615d1c565b5b6147b98b828c016144f0565b9850985050602089013567ffffffffffffffff8111156147dc576147db615d1c565b5b6147e88b828c0161449a565b9650965050604089013567ffffffffffffffff81111561480b5761480a615d1c565b5b6148178b828c016144f0565b9450945050606089013567ffffffffffffffff81111561483a57614839615d1c565b5b6148468b828c01614546565b92509250509295985092959890939650565b60006020828403121561486e5761486d615d21565b5b600061487c848285016145b1565b91505092915050565b6000806040838503121561489c5761489b615d21565b5b60006148aa858286016145b1565b92505060206148bb85828601614470565b9150509250929050565b6000602082840312156148db576148da615d21565b5b60006148e9848285016145c6565b91505092915050565b6000806020838503121561490957614908615d21565b5b600083013567ffffffffffffffff81111561492757614926615d1c565b5b614933858286016145f0565b92509250509250929050565b60008060006040848603121561495857614957615d21565b5b600084013567ffffffffffffffff81111561497657614975615d1c565b5b614982868287016145f0565b9350935050602061499586828701614470565b9150509250925092565b60008060008060008060008060e0898b0312156149bf576149be615d21565b5b600089013567ffffffffffffffff8111156149dd576149dc615d1c565b5b6149e98b828c016145f0565b985098505060206149fc8b828c01614470565b9650506040614a0d8b828c0161459c565b9550506060614a1e8b828c0161459c565b9450506080614a2f8b828c01614700565b93505060a0614a408b828c01614700565b92505060c0614a518b828c0161459c565b9150509295985092959890939650565b60008060008060608587031215614a7b57614a7a615d21565b5b600085013567ffffffffffffffff811115614a9957614a98615d1c565b5b614aa5878288016145f0565b94509450506020614ab887828801614470565b9250506040614ac9878288016145db565b91505092959194509250565b600080600080600060808688031215614af157614af0615d21565b5b600086013567ffffffffffffffff811115614b0f57614b0e615d1c565b5b614b1b888289016145f0565b95509550506020614b2e88828901614470565b9350506040614b3f888289016145db565b9250506060614b5088828901614700565b9150509295509295909350565b60008060008060008060608789031215614b7a57614b79615d21565b5b600087013567ffffffffffffffff811115614b9857614b97615d1c565b5b614ba489828a016145f0565b9650965050602087013567ffffffffffffffff811115614bc757614bc6615d1c565b5b614bd389828a0161449a565b9450945050604087013567ffffffffffffffff811115614bf657614bf5615d1c565b5b614c0289828a01614546565b92509250509295509295509295565b600080600060408486031215614c2a57614c29615d21565b5b600084013567ffffffffffffffff811115614c4857614c47615d1c565b5b614c54868287016145f0565b93509350506020614c67868287016145db565b9150509250925092565b60008060008060408587031215614c8b57614c8a615d21565b5b600085013567ffffffffffffffff811115614ca957614ca8615d1c565b5b614cb5878288016145f0565b9450945050602085013567ffffffffffffffff811115614cd857614cd7615d1c565b5b614ce4878288016145f0565b925092505092959194509250565b60008060008060008060608789031215614d0f57614d0e615d21565b5b600087013567ffffffffffffffff811115614d2d57614d2c615d1c565b5b614d3989828a016145f0565b9650965050602087013567ffffffffffffffff811115614d5c57614d5b615d1c565b5b614d6889828a016145f0565b9450945050604087013567ffffffffffffffff811115614d8b57614d8a615d1c565b5b614d9789828a016145f0565b92509250509295509295509295565b60008060008060608587031215614dc057614dbf615d21565b5b600085013567ffffffffffffffff811115614dde57614ddd615d1c565b5b614dea878288016145f0565b94509450506020614dfd87828801614700565b9250506040614e0e87828801614700565b91505092959194509250565b600060208284031215614e3057614e2f615d21565b5b600082013567ffffffffffffffff811115614e4e57614e4d615d1c565b5b614e5a84828501614646565b91505092915050565b60008060408385031215614e7a57614e79615d21565b5b600083013567ffffffffffffffff811115614e9857614e97615d1c565b5b614ea485828601614646565b9250506020614eb585828601614470565b9150509250929050565b60008060408385031215614ed657614ed5615d21565b5b600083013567ffffffffffffffff811115614ef457614ef3615d1c565b5b614f0085828601614646565b9250506020614f11858286016145b1565b9150509250929050565b600060a08284031215614f3157614f30615d21565b5b6000614f3f84828501614674565b91505092915050565b614f5181615a51565b82525050565b614f6081615a63565b82525050565b614f6f81615a63565b82525050565b614f7e81615a6f565b82525050565b614f8d81615adf565b82525050565b6000614f9f838561594b565b9350614fac838584615af1565b614fb583615d26565b840190509392505050565b6000614fcc838561595c565b9350614fd9838584615af1565b82840190509392505050565b6000614ff082615940565b614ffa818561594b565b935061500a818560208601615b00565b61501381615d26565b840191505092915050565b600061502982615940565b615033818561595c565b9350615043818560208601615b00565b80840191505092915050565b600061505c60208361594b565b915061506782615d37565b602082019050919050565b600061507f601b8361594b565b915061508a82615d60565b602082019050919050565b60006150a260168361594b565b91506150ad82615d89565b602082019050919050565b60006150c5601c8361594b565b91506150d082615db2565b602082019050919050565b60006150e860168361594b565b91506150f382615ddb565b602082019050919050565b600061510b60178361594b565b915061511682615e04565b602082019050919050565b600061512e60188361594b565b915061513982615e2d565b602082019050919050565b600061515160178361594b565b915061515c82615e56565b602082019050919050565b6000615174601c8361594b565b915061517f82615e7f565b602082019050919050565b6000615197601f8361594b565b91506151a282615ea8565b602082019050919050565b60006151ba60198361594b565b91506151c582615ed1565b602082019050919050565b60006151dd60178361595c565b91506151e882615efa565b601782019050919050565b600061520060188361594b565b915061520b82615f23565b602082019050919050565b600061522360118361595c565b915061522e82615f4c565b601182019050919050565b6000615246602f8361594b565b915061525182615f75565b604082019050919050565b600061526960178361594b565b915061527482615fc4565b602082019050919050565b60a0820160008201516152956000850182614f57565b5060208201516152a86020850182614f57565b5060408201516152bb60408501826152e7565b5060608201516152ce60608501826152e7565b5060808201516152e16080850182614f57565b50505050565b6152f081615ac5565b82525050565b6152ff81615ac5565b82525050565b61530e81615acf565b82525050565b6000615321828486614fc0565b91508190509392505050565b6000615339828461501e565b915081905092915050565b6000615350828661501e565b915061535d828486614fc0565b9150819050949350505050565b6000615375826151d0565b9150615381828561501e565b915061538c82615216565b9150615398828461501e565b91508190509392505050565b60006020820190506153b96000830184614f48565b92915050565b60006020820190506153d46000830184614f66565b92915050565b600060a0820190506153ef6000830188614f66565b6153fc6020830187614f66565b61540960408301866152f6565b61541660608301856152f6565b6154236080830184614f66565b9695505050505050565b60006020820190506154426000830184614f75565b92915050565b60006020820190508181036000830152615463818486614f93565b90509392505050565b600060e0820190508181036000830152615487818a8c614f93565b90506154966020830189614f48565b6154a36040830188614f66565b6154b06060830187614f66565b6154bd6080830186614f84565b6154ca60a0830185614f84565b6154d760c0830184614f66565b9998505050505050505050565b600060e08201905081810360008301526154ff818a8c614f93565b905061550e6020830189614f48565b61551b6040830188614f66565b6155286060830187614f66565b61553560808301866152f6565b61554260a08301856152f6565b61554f60c0830184614f66565b9998505050505050505050565b60006040820190508181036000830152615577818688614f93565b9050818103602083015261558c818486614f93565b905095945050505050565b600060208201905081810360008301526155b18184614fe5565b905092915050565b600060e08201905081810360008301526155d3818a614fe5565b90506155e26020830189614f48565b6155ef6040830188614f66565b6155fc6060830187614f66565b61560960808301866152f6565b61561660a08301856152f6565b61562360c0830184614f66565b98975050505050505050565b600060408201905081810360008301526156498186614fe5565b9050818103602083015261565e818486614f93565b9050949350505050565b600060208201905081810360008301526156818161504f565b9050919050565b600060208201905081810360008301526156a181615072565b9050919050565b600060208201905081810360008301526156c181615095565b9050919050565b600060208201905081810360008301526156e1816150b8565b9050919050565b60006020820190508181036000830152615701816150db565b9050919050565b60006020820190508181036000830152615721816150fe565b9050919050565b6000602082019050818103600083015261574181615121565b9050919050565b6000602082019050818103600083015261576181615144565b9050919050565b6000602082019050818103600083015261578181615167565b9050919050565b600060208201905081810360008301526157a18161518a565b9050919050565b600060208201905081810360008301526157c1816151ad565b9050919050565b600060208201905081810360008301526157e1816151f3565b9050919050565b6000602082019050818103600083015261580181615239565b9050919050565b600060208201905081810360008301526158218161525c565b9050919050565b600060a08201905061583d600083018461527f565b92915050565b600060208201905061585860008301846152f6565b92915050565b60006040820190506158736000830185615305565b6158806020830184614f48565b9392505050565b600080833560016020038436030381126158a4576158a3615d08565b5b80840192508235915067ffffffffffffffff8211156158c6576158c5615cfe565b5b6020830192506001820236038313156158e2576158e1615d12565b5b509250929050565b60006158f4615905565b90506159008282615b8f565b919050565b6000604051905090565b600067ffffffffffffffff82111561592a57615929615cc5565b5b61593382615d26565b9050602081019050919050565b600081519050919050565b600082825260208201905092915050565b600081905092915050565b600061597282615ac5565b915061597d83615ac5565b9250827fffffffffffffffffffffffffffffffffffffffffffffffffffffffffffffffff038211156159b2576159b1615c09565b5b828201905092915050565b60006159c882615acf565b91506159d383615acf565b92508263ffffffff038211156159ec576159eb615c09565b5b828201905092915050565b6000615a0282615ac5565b9150615a0d83615ac5565b9250817fffffffffffffffffffffffffffffffffffffffffffffffffffffffffffffffff0483118215151615615a4657615a45615c09565b5b828202905092915050565b6000615a5c82615aa5565b9050919050565b60008115159050919050565b6000819050919050565b60007fffffffff0000000000000000000000000000000000000000000000000000000082169050919050565b600073ffffffffffffffffffffffffffffffffffffffff82169050919050565b6000819050919050565b600063ffffffff82169050919050565b6000615aea82615ac5565b9050919050565b82818337600083830152505050565b60005b83811015615b1e578082015181840152602081019050615b03565b83811115615b2d576000848401525b50505050565b6000615b3e82615ac5565b91506000821415615b5257615b51615c09565b5b600182039050919050565b60006002820490506001821680615b7557607f821691505b60208210811415615b8957615b88615c67565b5b50919050565b615b9882615d26565b810181811067ffffffffffffffff82111715615bb757615bb6615cc5565b5b80604052505050565b6000615bcb82615ac5565b91507fffffffffffffffffffffffffffffffffffffffffffffffffffffffffffffffff821415615bfe57615bfd615c09565b5b600182019050919050565b7f4e487b7100000000000000000000000000000000000000000000000000000000600052601160045260246000fd5b7f4e487b7100000000000000000000000000000000000000000000000000000000600052602160045260246000fd5b7f4e487b7100000000000000000000000000000000000000000000000000000000600052602260045260246000fd5b7f4e487b7100000000000000000000000000000000000000000000000000000000600052603260045260246000fd5b7f4e487b7100000000000000000000000000000000000000000000000000000000600052604160045260246000fd5b600080fd5b600080fd5b600080fd5b600080fd5b600080fd5b600080fd5b600080fd5b600080fd5b600080fd5b600080fd5b6000601f19601f8301169050919050565b7f537472696e67733a20686578206c656e67746820696e73756666696369656e74600082015250565b7f6572726f725f7075626c696343616e4f6e6c79537562735075626c0000000000600082015250565b7f6572726f725f74696d654f6e6c794f6250756253756200000000000000000000600082015250565b7f6572726f725f706174684d757374537461727457697468536c61736800000000600082015250565b7f6572726f725f6e6f456469745065726d697373696f6e00000000000000000000600082015250565b7f6572726f725f6d757374426554727573746564526f6c65000000000000000000600082015250565b7f6572726f725f73747265616d446f65734e6f7445786973740000000000000000600082015250565b7f6572726f725f6e6f53686172655065726d697373696f6e000000000000000000600082015250565b7f6572726f725f6e6f5065726d697373696f6e546f5472616e7366657200000000600082015250565b7f6572726f725f6d657461646174614a736f6e537472696e674973456d70747900600082015250565b7f6572726f725f73747265616d416c726561647945786973747300000000000000600082015250565b7f416363657373436f6e74726f6c3a206163636f756e7420000000000000000000600082015250565b7f6572726f725f6e6f44656c6574655065726d697373696f6e0000000000000000600082015250565b7f206973206d697373696e6720726f6c6520000000000000000000000000000000600082015250565b7f416363657373436f6e74726f6c3a2063616e206f6e6c792072656e6f756e636560008201527f20726f6c657320666f722073656c660000000000000000000000000000000000602082015250565b7f6572726f725f6e6f744f776e65724f66454e534e616d65000000000000000000600082015250565b615ff681615a51565b811461600157600080fd5b50565b61600d81615a63565b811461601857600080fd5b50565b61602481615a6f565b811461602f57600080fd5b50565b61603b81615a79565b811461604657600080fd5b50565b6005811061605657600080fd5b50565b61606281615ac5565b811461606d57600080fd5b5056fea26469706673582212208d5d3b8380a4bd64bc75b8d76d8ce1045942ed941673cf2a01bc2793785fbd5064736f6c63430008060033",
  "linkReferences": {},
  "deployedLinkReferences": {}
}