{
  "_format": "hh-sol-artifact-1",
  "contractName": "StreamRegistry",
  "sourceName": "contracts/StreamRegistry/StreamRegistry.sol",
  "abi": [
    {
      "inputs": [
        {
          "internalType": "address",
          "name": "ensCacheAddr",
          "type": "address"
        },
        {
          "internalType": "address",
          "name": "trustedForwarderAddress",
          "type": "address"
        }
      ],
      "stateMutability": "nonpayable",
      "type": "constructor"
    },
    {
      "anonymous": false,
      "inputs": [
        {
          "indexed": false,
          "internalType": "string",
          "name": "streamId",
          "type": "string"
        },
        {
          "indexed": false,
          "internalType": "address",
          "name": "user",
          "type": "address"
        },
        {
          "indexed": false,
          "internalType": "bool",
          "name": "edit",
          "type": "bool"
        },
        {
          "indexed": false,
          "internalType": "bool",
          "name": "canDelete",
          "type": "bool"
        },
        {
          "indexed": false,
          "internalType": "uint256",
          "name": "publishExpiration",
          "type": "uint256"
        },
        {
          "indexed": false,
          "internalType": "uint256",
          "name": "subscribeExpiration",
          "type": "uint256"
        },
        {
          "indexed": false,
          "internalType": "bool",
          "name": "share",
          "type": "bool"
        }
      ],
      "name": "PermissionUpdated",
      "type": "event"
    },
    {
      "anonymous": false,
      "inputs": [
        {
          "indexed": true,
          "internalType": "bytes32",
          "name": "role",
          "type": "bytes32"
        },
        {
          "indexed": true,
          "internalType": "bytes32",
          "name": "previousAdminRole",
          "type": "bytes32"
        },
        {
          "indexed": true,
          "internalType": "bytes32",
          "name": "newAdminRole",
          "type": "bytes32"
        }
      ],
      "name": "RoleAdminChanged",
      "type": "event"
    },
    {
      "anonymous": false,
      "inputs": [
        {
          "indexed": true,
          "internalType": "bytes32",
          "name": "role",
          "type": "bytes32"
        },
        {
          "indexed": true,
          "internalType": "address",
          "name": "account",
          "type": "address"
        },
        {
          "indexed": true,
          "internalType": "address",
          "name": "sender",
          "type": "address"
        }
      ],
      "name": "RoleGranted",
      "type": "event"
    },
    {
      "anonymous": false,
      "inputs": [
        {
          "indexed": true,
          "internalType": "bytes32",
          "name": "role",
          "type": "bytes32"
        },
        {
          "indexed": true,
          "internalType": "address",
          "name": "account",
          "type": "address"
        },
        {
          "indexed": true,
          "internalType": "address",
          "name": "sender",
          "type": "address"
        }
      ],
      "name": "RoleRevoked",
      "type": "event"
    },
    {
      "anonymous": false,
      "inputs": [
        {
          "indexed": false,
          "internalType": "string",
          "name": "id",
          "type": "string"
        },
        {
          "indexed": false,
          "internalType": "string",
          "name": "metadata",
          "type": "string"
        }
      ],
      "name": "StreamCreated",
      "type": "event"
    },
    {
      "anonymous": false,
      "inputs": [
        {
          "indexed": false,
          "internalType": "string",
          "name": "id",
          "type": "string"
        }
      ],
      "name": "StreamDeleted",
      "type": "event"
    },
    {
      "anonymous": false,
      "inputs": [
        {
          "indexed": false,
          "internalType": "string",
          "name": "id",
          "type": "string"
        },
        {
          "indexed": false,
          "internalType": "string",
          "name": "metadata",
          "type": "string"
        }
      ],
      "name": "StreamUpdated",
      "type": "event"
    },
    {
      "inputs": [],
      "name": "DEFAULT_ADMIN_ROLE",
      "outputs": [
        {
          "internalType": "bytes32",
          "name": "",
          "type": "bytes32"
        }
      ],
      "stateMutability": "view",
      "type": "function"
    },
    {
      "inputs": [],
      "name": "MAX_INT",
      "outputs": [
        {
          "internalType": "uint256",
          "name": "",
          "type": "uint256"
        }
      ],
      "stateMutability": "view",
      "type": "function"
    },
    {
      "inputs": [],
      "name": "TRUSTED_ROLE",
      "outputs": [
        {
          "internalType": "bytes32",
          "name": "",
          "type": "bytes32"
        }
      ],
      "stateMutability": "view",
      "type": "function"
    },
    {
      "inputs": [],
      "name": "_trustedForwarder",
      "outputs": [
        {
          "internalType": "address",
          "name": "",
          "type": "address"
        }
      ],
      "stateMutability": "view",
      "type": "function"
    },
    {
      "inputs": [
        {
          "internalType": "address",
          "name": "_address",
          "type": "address"
        }
      ],
      "name": "addressToString",
      "outputs": [
        {
          "internalType": "string",
          "name": "",
          "type": "string"
        }
      ],
      "stateMutability": "pure",
      "type": "function"
    },
    {
      "inputs": [
        {
          "internalType": "string",
          "name": "streamIdPath",
          "type": "string"
        },
        {
          "internalType": "string",
          "name": "metadataJsonString",
          "type": "string"
        }
      ],
      "name": "createStream",
      "outputs": [],
      "stateMutability": "nonpayable",
      "type": "function"
    },
    {
      "inputs": [
        {
          "internalType": "string",
          "name": "ensName",
          "type": "string"
        },
        {
          "internalType": "string",
          "name": "streamIdPath",
          "type": "string"
        },
        {
          "internalType": "string",
          "name": "metadataJsonString",
          "type": "string"
        }
      ],
      "name": "createStreamWithENS",
      "outputs": [],
      "stateMutability": "nonpayable",
      "type": "function"
    },
    {
      "inputs": [
        {
          "internalType": "string",
          "name": "streamId",
          "type": "string"
        }
      ],
      "name": "deleteStream",
      "outputs": [],
      "stateMutability": "nonpayable",
      "type": "function"
    },
    {
      "inputs": [
        {
          "internalType": "string",
          "name": "streamId",
          "type": "string"
        }
      ],
      "name": "exists",
      "outputs": [
        {
          "internalType": "bool",
          "name": "",
          "type": "bool"
        }
      ],
      "stateMutability": "view",
      "type": "function"
    },
    {
      "inputs": [
        {
          "internalType": "string",
          "name": "streamId",
          "type": "string"
        },
        {
          "internalType": "address",
          "name": "user",
          "type": "address"
        }
      ],
      "name": "getAddressKey",
      "outputs": [
        {
          "internalType": "bytes32",
          "name": "",
          "type": "bytes32"
        }
      ],
      "stateMutability": "view",
      "type": "function"
    },
    {
      "inputs": [
        {
          "internalType": "string",
          "name": "streamId",
          "type": "string"
        },
        {
          "internalType": "address",
          "name": "user",
          "type": "address"
        }
      ],
      "name": "getDirectPermissionsForUser",
      "outputs": [
        {
          "components": [
            {
              "internalType": "bool",
              "name": "edit",
              "type": "bool"
            },
            {
              "internalType": "bool",
              "name": "canDelete",
              "type": "bool"
            },
            {
              "internalType": "uint256",
              "name": "publishExpiration",
              "type": "uint256"
            },
            {
              "internalType": "uint256",
              "name": "subscribeExpiration",
              "type": "uint256"
            },
            {
              "internalType": "bool",
              "name": "share",
              "type": "bool"
            }
          ],
          "internalType": "struct StreamRegistry.Permission",
          "name": "permission",
          "type": "tuple"
        }
      ],
      "stateMutability": "view",
      "type": "function"
    },
    {
      "inputs": [
        {
          "internalType": "string",
          "name": "streamId",
          "type": "string"
        },
        {
          "internalType": "address",
          "name": "user",
          "type": "address"
        }
      ],
      "name": "getPermissionsForUser",
      "outputs": [
        {
          "components": [
            {
              "internalType": "bool",
              "name": "edit",
              "type": "bool"
            },
            {
              "internalType": "bool",
              "name": "canDelete",
              "type": "bool"
            },
            {
              "internalType": "uint256",
              "name": "publishExpiration",
              "type": "uint256"
            },
            {
              "internalType": "uint256",
              "name": "subscribeExpiration",
              "type": "uint256"
            },
            {
              "internalType": "bool",
              "name": "share",
              "type": "bool"
            }
          ],
          "internalType": "struct StreamRegistry.Permission",
          "name": "permission",
          "type": "tuple"
        }
      ],
      "stateMutability": "view",
      "type": "function"
    },
    {
      "inputs": [
        {
          "internalType": "bytes32",
          "name": "role",
          "type": "bytes32"
        }
      ],
      "name": "getRoleAdmin",
      "outputs": [
        {
          "internalType": "bytes32",
          "name": "",
          "type": "bytes32"
        }
      ],
      "stateMutability": "view",
      "type": "function"
    },
    {
      "inputs": [
        {
          "internalType": "string",
          "name": "streamId",
          "type": "string"
        }
      ],
      "name": "getStreamMetadata",
      "outputs": [
        {
          "internalType": "string",
          "name": "des",
          "type": "string"
        }
      ],
      "stateMutability": "view",
      "type": "function"
    },
    {
      "inputs": [
        {
          "internalType": "string",
          "name": "streamId",
          "type": "string"
        },
        {
          "internalType": "address",
          "name": "user",
          "type": "address"
        },
        {
          "internalType": "enum StreamRegistry.PermissionType",
          "name": "permissionType",
          "type": "uint8"
        }
      ],
      "name": "grantPermission",
      "outputs": [],
      "stateMutability": "nonpayable",
      "type": "function"
    },
    {
      "inputs": [
        {
          "internalType": "string",
          "name": "streamId",
          "type": "string"
        },
        {
          "internalType": "enum StreamRegistry.PermissionType",
          "name": "permissionType",
          "type": "uint8"
        }
      ],
      "name": "grantPublicPermission",
      "outputs": [],
      "stateMutability": "nonpayable",
      "type": "function"
    },
    {
      "inputs": [
        {
          "internalType": "bytes32",
          "name": "role",
          "type": "bytes32"
        },
        {
          "internalType": "address",
          "name": "account",
          "type": "address"
        }
      ],
      "name": "grantRole",
      "outputs": [],
      "stateMutability": "nonpayable",
      "type": "function"
    },
    {
      "inputs": [
        {
          "internalType": "string",
          "name": "streamId",
          "type": "string"
        },
        {
          "internalType": "address",
          "name": "user",
          "type": "address"
        },
        {
          "internalType": "enum StreamRegistry.PermissionType",
          "name": "permissionType",
          "type": "uint8"
        }
      ],
      "name": "hasDirectPermission",
      "outputs": [
        {
          "internalType": "bool",
          "name": "userHasPermission",
          "type": "bool"
        }
      ],
      "stateMutability": "view",
      "type": "function"
    },
    {
      "inputs": [
        {
          "internalType": "string",
          "name": "streamId",
          "type": "string"
        },
        {
          "internalType": "address",
          "name": "user",
          "type": "address"
        },
        {
          "internalType": "enum StreamRegistry.PermissionType",
          "name": "permissionType",
          "type": "uint8"
        }
      ],
      "name": "hasPermission",
      "outputs": [
        {
          "internalType": "bool",
          "name": "userHasPermission",
          "type": "bool"
        }
      ],
      "stateMutability": "view",
      "type": "function"
    },
    {
      "inputs": [
        {
          "internalType": "bytes32",
          "name": "role",
          "type": "bytes32"
        },
        {
          "internalType": "address",
          "name": "account",
          "type": "address"
        }
      ],
      "name": "hasRole",
      "outputs": [
        {
          "internalType": "bool",
          "name": "",
          "type": "bool"
        }
      ],
      "stateMutability": "view",
      "type": "function"
    },
    {
      "inputs": [
        {
          "internalType": "address",
          "name": "forwarder",
          "type": "address"
        }
      ],
      "name": "isTrustedForwarder",
      "outputs": [
        {
          "internalType": "bool",
          "name": "",
          "type": "bool"
        }
      ],
      "stateMutability": "view",
      "type": "function"
    },
    {
      "inputs": [
        {
          "internalType": "bytes32",
          "name": "role",
          "type": "bytes32"
        },
        {
          "internalType": "address",
          "name": "account",
          "type": "address"
        }
      ],
      "name": "renounceRole",
      "outputs": [],
      "stateMutability": "nonpayable",
      "type": "function"
    },
    {
      "inputs": [
        {
          "internalType": "string",
          "name": "streamId",
          "type": "string"
        },
        {
          "internalType": "address",
          "name": "user",
          "type": "address"
        }
      ],
      "name": "revokeAllPermissionsForUser",
      "outputs": [],
      "stateMutability": "nonpayable",
      "type": "function"
    },
    {
      "inputs": [
        {
          "internalType": "string",
          "name": "streamId",
          "type": "string"
        },
        {
          "internalType": "address",
          "name": "user",
          "type": "address"
        },
        {
          "internalType": "enum StreamRegistry.PermissionType",
          "name": "permissionType",
          "type": "uint8"
        }
      ],
      "name": "revokePermission",
      "outputs": [],
      "stateMutability": "nonpayable",
      "type": "function"
    },
    {
      "inputs": [
        {
          "internalType": "string",
          "name": "streamId",
          "type": "string"
        },
        {
          "internalType": "enum StreamRegistry.PermissionType",
          "name": "permissionType",
          "type": "uint8"
        }
      ],
      "name": "revokePublicPermission",
      "outputs": [],
      "stateMutability": "nonpayable",
      "type": "function"
    },
    {
      "inputs": [
        {
          "internalType": "bytes32",
          "name": "role",
          "type": "bytes32"
        },
        {
          "internalType": "address",
          "name": "account",
          "type": "address"
        }
      ],
      "name": "revokeRole",
      "outputs": [],
      "stateMutability": "nonpayable",
      "type": "function"
    },
    {
      "inputs": [
        {
          "internalType": "string",
          "name": "streamId",
          "type": "string"
        },
        {
          "internalType": "address",
          "name": "user",
          "type": "address"
        },
        {
          "internalType": "enum StreamRegistry.PermissionType",
          "name": "permissionType",
          "type": "uint8"
        },
        {
          "internalType": "uint256",
          "name": "expirationTime",
          "type": "uint256"
        }
      ],
      "name": "setExpirationTime",
      "outputs": [],
      "stateMutability": "nonpayable",
      "type": "function"
    },
    {
      "inputs": [
        {
          "internalType": "string",
          "name": "streamId",
          "type": "string"
        },
        {
          "internalType": "address",
          "name": "user",
          "type": "address"
        },
        {
          "internalType": "bool",
          "name": "edit",
          "type": "bool"
        },
        {
          "internalType": "bool",
          "name": "deletePerm",
          "type": "bool"
        },
        {
          "internalType": "uint256",
          "name": "publishExpiration",
          "type": "uint256"
        },
        {
          "internalType": "uint256",
          "name": "subscribeExpiration",
          "type": "uint256"
        },
        {
          "internalType": "bool",
          "name": "share",
          "type": "bool"
        }
      ],
      "name": "setPermissionsForUser",
      "outputs": [],
      "stateMutability": "nonpayable",
      "type": "function"
    },
    {
      "inputs": [
        {
          "internalType": "string",
          "name": "streamId",
          "type": "string"
        },
        {
          "internalType": "uint256",
          "name": "publishExpiration",
          "type": "uint256"
        },
        {
          "internalType": "uint256",
          "name": "subscribeExpiration",
          "type": "uint256"
        }
      ],
      "name": "setPublicPermission",
      "outputs": [],
      "stateMutability": "nonpayable",
      "type": "function"
    },
    {
      "inputs": [
        {
          "internalType": "string",
          "name": "",
          "type": "string"
        }
      ],
      "name": "streamIdToMetadata",
      "outputs": [
        {
          "internalType": "string",
          "name": "",
          "type": "string"
        }
      ],
      "stateMutability": "view",
      "type": "function"
    },
    {
      "inputs": [
        {
          "internalType": "string",
          "name": "",
          "type": "string"
        },
        {
          "internalType": "bytes32",
          "name": "",
          "type": "bytes32"
        }
      ],
      "name": "streamIdToPermissions",
      "outputs": [
        {
          "internalType": "bool",
          "name": "edit",
          "type": "bool"
        },
        {
          "internalType": "bool",
          "name": "canDelete",
          "type": "bool"
        },
        {
          "internalType": "uint256",
          "name": "publishExpiration",
          "type": "uint256"
        },
        {
          "internalType": "uint256",
          "name": "subscribeExpiration",
          "type": "uint256"
        },
        {
          "internalType": "bool",
          "name": "share",
          "type": "bool"
        }
      ],
      "stateMutability": "view",
      "type": "function"
    },
    {
      "inputs": [
        {
          "internalType": "bytes4",
          "name": "interfaceId",
          "type": "bytes4"
        }
      ],
      "name": "supportsInterface",
      "outputs": [
        {
          "internalType": "bool",
          "name": "",
          "type": "bool"
        }
      ],
      "stateMutability": "view",
      "type": "function"
    },
    {
      "inputs": [
        {
          "internalType": "string",
          "name": "streamId",
          "type": "string"
        },
        {
          "internalType": "address",
          "name": "recipient",
          "type": "address"
        }
      ],
      "name": "transferAllPermissionsToUser",
      "outputs": [],
      "stateMutability": "nonpayable",
      "type": "function"
    },
    {
      "inputs": [
        {
          "internalType": "string",
          "name": "streamId",
          "type": "string"
        },
        {
          "internalType": "address",
          "name": "recipient",
          "type": "address"
        },
        {
          "internalType": "enum StreamRegistry.PermissionType",
          "name": "permissionType",
          "type": "uint8"
        }
      ],
      "name": "transferPermissionToUser",
      "outputs": [],
      "stateMutability": "nonpayable",
      "type": "function"
    },
    {
      "inputs": [
        {
          "internalType": "string",
          "name": "streamId",
          "type": "string"
        },
        {
          "internalType": "address",
          "name": "user",
          "type": "address"
        },
        {
          "internalType": "bool",
          "name": "edit",
          "type": "bool"
        },
        {
          "internalType": "bool",
          "name": "deletePerm",
          "type": "bool"
        },
        {
          "internalType": "uint256",
          "name": "publishExpiration",
          "type": "uint256"
        },
        {
          "internalType": "uint256",
          "name": "subscribeExpiration",
          "type": "uint256"
        },
        {
          "internalType": "bool",
          "name": "share",
          "type": "bool"
        }
      ],
      "name": "trustedSetPermissionsForUser",
      "outputs": [],
      "stateMutability": "nonpayable",
      "type": "function"
    },
    {
      "inputs": [
        {
          "internalType": "string",
          "name": "streamId",
          "type": "string"
        },
        {
          "internalType": "string",
          "name": "metadata",
          "type": "string"
        }
      ],
      "name": "trustedSetStream",
      "outputs": [],
      "stateMutability": "nonpayable",
      "type": "function"
    },
    {
      "inputs": [
        {
          "internalType": "string",
          "name": "streamId",
          "type": "string"
        },
        {
          "internalType": "string",
          "name": "metadata",
          "type": "string"
        }
      ],
      "name": "updateStreamMetadata",
      "outputs": [],
      "stateMutability": "nonpayable",
      "type": "function"
    }
  ],
  "bytecode": "0x60806040523480156200001157600080fd5b5060405162005b7738038062005b77833981810160405281019062000037919062000327565b80806000806101000a81548173ffffffffffffffffffffffffffffffffffffffff021916908373ffffffffffffffffffffffffffffffffffffffff1602179055505081600460006101000a81548173ffffffffffffffffffffffffffffffffffffffff021916908373ffffffffffffffffffffffffffffffffffffffff160217905550620000cf6000801b33620000d760201b60201c565b5050620003c1565b620000e98282620000ed60201b60201c565b5050565b620000ff8282620001de60201b60201c565b620001da57600180600084815260200190815260200160002060000160008373ffffffffffffffffffffffffffffffffffffffff1673ffffffffffffffffffffffffffffffffffffffff16815260200190815260200160002060006101000a81548160ff0219169083151502179055506200017f6200024960201b60201c565b73ffffffffffffffffffffffffffffffffffffffff168173ffffffffffffffffffffffffffffffffffffffff16837f2f8788117e7eff1d82e926ec794901d17c78024a50270940304540a733656f0d60405160405180910390a45b5050565b60006001600084815260200190815260200160002060000160008373ffffffffffffffffffffffffffffffffffffffff1673ffffffffffffffffffffffffffffffffffffffff16815260200190815260200160002060009054906101000a900460ff16905092915050565b6000620002606200026560201b62002c591760201c565b905090565b60006200027833620002af60201b60201c565b156200028e57601436033560601c9050620002ab565b620002a36200030860201b62002c8b1760201c565b9050620002ac565b5b90565b60008060009054906101000a900473ffffffffffffffffffffffffffffffffffffffff1673ffffffffffffffffffffffffffffffffffffffff168273ffffffffffffffffffffffffffffffffffffffff16149050919050565b600033905090565b6000815190506200032181620003a7565b92915050565b60008060408385031215620003415762000340620003a2565b5b6000620003518582860162000310565b9250506020620003648582860162000310565b9150509250929050565b60006200037b8262000382565b9050919050565b600073ffffffffffffffffffffffffffffffffffffffff82169050919050565b600080fd5b620003b2816200036e565b8114620003be57600080fd5b50565b6157a680620003d16000396000f3fe608060405234801561001057600080fd5b50600436106102275760003560e01c80636453cbd711610130578063a020aa97116100b8578063d2d78c3e1161007c578063d2d78c3e14610690578063d547741f146106ac578063e8f3828e146106c8578063f36d4849146106f8578063f7f5078c1461072c57610227565b8063a020aa97146105ee578063a217fddf1461061e578063a8989d3f1461063c578063b6a9159714610658578063ca76cc8e1461067457610227565b806386902fe9116100ff57806386902fe91461052657806388b21038146105565780638a043af81461058657806391d14854146105a2578063997e8aaa146105d257610227565b80636453cbd7146104b65780636beff96d146104d257806378800c76146104ee5780637b3681b51461050a57610227565b80633e397aea116101b357806356c022bb1161018257806356c022bb146103ea578063572b6c05146104085780635901692e146104385780635e57966d146104565780636394fbd21461048657610227565b80633e397aea1461037a57806342617fe714610396578063466f878e146103b257806350b5422b146103ce57610227565b8063248a9ca3116101fa578063248a9ca3146102c6578063261a323e146102f6578063272cc993146103265780632f2ff15d1461034257806336568abe1461035e57610227565b806301ffc9a71461022c5780630843564a1461025c578063098d32281461028c5780630ef8cdc7146102aa575b600080fd5b6102466004803603810190610241919061411d565b61075c565b6040516102539190614b36565b60405180910390f35b61027660048036038101906102719190614607565b6107d6565b6040516102839190614ba4565b60405180910390f35b610294610837565b6040516102a19190614fba565b60405180910390f35b6102c460048036038101906102bf9190614415565b61085b565b005b6102e060048036038101906102db91906140b0565b610883565b6040516102ed9190614ba4565b60405180910390f35b610310600480360381019061030b919061414a565b6108a3565b60405161031d9190614b36565b60405180910390f35b610340600480360381019061033b91906143b5565b6108dd565b005b61035c600480360381019061035791906140dd565b6109c8565b005b610378600480360381019061037391906140dd565b6109f1565b005b610394600480360381019061038f91906142b9565b610a74565b005b6103b060048036038101906103ab9190614415565b610ba0565b005b6103cc60048036038101906103c791906143b5565b610d39565b005b6103e860048036038101906103e39190614197565b610e24565b005b6103f2611056565b6040516103ff9190614b1b565b60405180910390f35b610422600480360381019061041d9190614056565b61107a565b60405161042f9190614b36565b60405180910390f35b6104406110d3565b60405161044d9190614ba4565b60405180910390f35b610470600480360381019061046b9190614056565b6110f7565b60405161047d9190614d0e565b60405180910390f35b6104a0600480360381019061049b919061414a565b611402565b6040516104ad9190614d0e565b60405180910390f35b6104d060048036038101906104cb919061414a565b611502565b005b6104ec60048036038101906104e79190614197565b611691565b005b61050860048036038101906105039190614496565b61199f565b005b610524600480360381019061051f919061432d565b611b19565b005b610540600480360381019061053b91906145be565b611dfc565b60405161054d9190614d0e565b60405180910390f35b610570600480360381019061056b91906142b9565b611eb2565b60405161057d9190614b36565b60405180910390f35b6105a0600480360381019061059b91906142b9565b611ede565b005b6105bc60048036038101906105b791906140dd565b611f59565b6040516105c99190614b36565b60405180910390f35b6105ec60048036038101906105e791906142b9565b611fc4565b005b61060860048036038101906106039190614197565b6120b1565b6040516106159190614f9f565b60405180910390f35b6106266121fd565b6040516106339190614ba4565b60405180910390f35b6106566004803603810190610651919061454a565b612204565b005b610672600480360381019061066d91906141f7565b6122f6565b005b61068e60048036038101906106899190614415565b612380565b005b6106aa60048036038101906106a591906141f7565b612463565b005b6106c660048036038101906106c191906140dd565b612556565b005b6106e260048036038101906106dd9190614197565b61257f565b6040516106ef9190614f9f565b60405180910390f35b610712600480360381019061070d9190614663565b612815565b604051610723959493929190614b51565b60405180910390f35b610746600480360381019061074191906142b9565b612895565b6040516107539190614b36565b60405180910390f35b60007f7965db0b000000000000000000000000000000000000000000000000000000007bffffffffffffffffffffffffffffffffffffffffffffffffffffffff1916827bffffffffffffffffffffffffffffffffffffffffffffffffffffffff191614806107cf57506107ce82612c93565b5b9050919050565b60006005836040516107e89190614aa4565b908152602001604051809103902060009054906101000a900463ffffffff1682604051602001610819929190614fd5565b60405160208183030381529060405280519060200120905092915050565b7fffffffffffffffffffffffffffffffffffffffffffffffffffffffffffffffff81565b600061086d610868612cfd565b6110f7565b905061087c8186868686612d0c565b5050505050565b600060016000838152602001908152602001600020600101549050919050565b600080600384846040516108b8929190614a8b565b908152602001604051809103902080546108d190615271565b90501415905092915050565b8282600282826040516108f1929190614a8b565b9081526020016040518091039020600061095684848080601f016020809104026020016040519081016040528093929190818152602001838380828437600081840152601f19601f82011690508083019250505050505050610951612cfd565b6107d6565b815260200190815260200160002060030160009054906101000a900460ff166109b4576040517f08c379a00000000000000000000000000000000000000000000000000000000081526004016109ab90614ebf565b60405180910390fd5b6109c18585600086610a74565b5050505050565b6109d182610883565b6109e2816109dd612cfd565b61314e565b6109ec83836131eb565b505050565b6109f9612cfd565b73ffffffffffffffffffffffffffffffffffffffff168173ffffffffffffffffffffffffffffffffffffffff1614610a66576040517f08c379a0000000000000000000000000000000000000000000000000000000008152600401610a5d90614f5f565b60405180910390fd5b610a7082826132cb565b5050565b83838360028383604051610a89929190614a8b565b90815260200160405180910390206000610aee85858080601f016020809104026020016040519081016040528093929190818152602001838380828437600081840152601f19601f82011690508083019250505050505050610ae9612cfd565b6107d6565b815260200190815260200160002060030160009054906101000a900460ff1680610b4a57508073ffffffffffffffffffffffffffffffffffffffff16610b32612cfd565b73ffffffffffffffffffffffffffffffffffffffff16145b610b89576040517f08c379a0000000000000000000000000000000000000000000000000000000008152600401610b8090614ebf565b60405180910390fd5b610b978787878760006133ad565b50505050505050565b8383610bac82826108a3565b610beb576040517f08c379a0000000000000000000000000000000000000000000000000000000008152600401610be290614e9f565b60405180910390fd5b858560028282604051610bff929190614a8b565b90815260200160405180910390206000610c6484848080601f016020809104026020016040519081016040528093929190818152602001838380828437600081840152601f19601f82011690508083019250505050505050610c5f612cfd565b6107d6565b815260200190815260200160002060000160009054906101000a900460ff16610cc2576040517f08c379a0000000000000000000000000000000000000000000000000000000008152600401610cb990614e5f565b60405180910390fd5b858560038a8a604051610cd6929190614a8b565b90815260200160405180910390209190610cf1929190613de5565b507fa60b7935888a7ab31214282090f1ab7207ab6d7abbf3c11080b75ce91d9a36d088888888604051610d279493929190614cd3565b60405180910390a15050505050505050565b828260028282604051610d4d929190614a8b565b90815260200160405180910390206000610db284848080601f016020809104026020016040519081016040528093929190818152602001838380828437600081840152601f19601f82011690508083019250505050505050610dad612cfd565b6107d6565b815260200190815260200160002060030160009054906101000a900460ff16610e10576040517f08c379a0000000000000000000000000000000000000000000000000000000008152600401610e0790614ebf565b60405180910390fd5b610e1d8585600086611fc4565b5050505050565b82828260028383604051610e39929190614a8b565b90815260200160405180910390206000610e9e85858080601f016020809104026020016040519081016040528093929190818152602001838380828437600081840152601f19601f82011690508083019250505050505050610e99612cfd565b6107d6565b815260200190815260200160002060030160009054906101000a900460ff1680610efa57508073ffffffffffffffffffffffffffffffffffffffff16610ee2612cfd565b73ffffffffffffffffffffffffffffffffffffffff16145b610f39576040517f08c379a0000000000000000000000000000000000000000000000000000000008152600401610f3090614ebf565b60405180910390fd5b60028686604051610f4b929190614a8b565b90815260200160405180910390206000610fa988888080601f016020809104026020016040519081016040528093929190818152602001838380828437600081840152601f19601f82011690508083019250505050505050876107d6565b8152602001908152602001600020600080820160006101000a81549060ff02191690556000820160016101000a81549060ff0219169055600182016000905560028201600090556003820160006101000a81549060ff021916905550507fd22d58032f55c61c3896b3f67eb399b25071b61e122a23d4cd06bc87d4b7b8c18686866000806000806000604051611046989796959493929190614be3565b60405180910390a1505050505050565b60008054906101000a900473ffffffffffffffffffffffffffffffffffffffff1681565b60008060009054906101000a900473ffffffffffffffffffffffffffffffffffffffff1673ffffffffffffffffffffffffffffffffffffffff168273ffffffffffffffffffffffffffffffffffffffff16149050919050565b7f2de84d9fbdf6d06e2cc584295043dbd76046423b9f8bae9426d4fa5e7c03f4a781565b606060008273ffffffffffffffffffffffffffffffffffffffff1660001b905060006040518060400160405280601081526020017f303132333435363738396162636465660000000000000000000000000000000081525090506000602a67ffffffffffffffff81111561116e5761116d6153d9565b5b6040519080825280601f01601f1916602001820160405280156111a05781602001600182028036833780820191505090505b5090507f3000000000000000000000000000000000000000000000000000000000000000816000815181106111d8576111d76153aa565b5b60200101907effffffffffffffffffffffffffffffffffffffffffffffffffffffffffffff1916908160001a9053507f78000000000000000000000000000000000000000000000000000000000000008160018151811061123c5761123b6153aa565b5b60200101907effffffffffffffffffffffffffffffffffffffffffffffffffffffffffffff1916908160001a90535060005b60148110156113f65782600485600c84611288919061507b565b60208110611299576112986153aa565b5b1a60f81b7effffffffffffffffffffffffffffffffffffffffffffffffffffffffffffff1916901c60f81c60ff16815181106112d8576112d76153aa565b5b602001015160f81c60f81b826002836112f1919061510b565b60026112fd919061507b565b8151811061130e5761130d6153aa565b5b60200101907effffffffffffffffffffffffffffffffffffffffffffffffffffffffffffff1916908160001a90535082600f60f81b85600c84611351919061507b565b60208110611362576113616153aa565b5b1a60f81b1660f81c60ff168151811061137e5761137d6153aa565b5b602001015160f81c60f81b82600283611397919061510b565b60036113a3919061507b565b815181106113b4576113b36153aa565b5b60200101907effffffffffffffffffffffffffffffffffffffffffffffffffffffffffffff1916908160001a90535080806113ee906152d4565b91505061126e565b50809350505050919050565b6060828261141082826108a3565b61144f576040517f08c379a000000000000000000000000000000000000000000000000000000000815260040161144690614e9f565b60405180910390fd5b60038585604051611461929190614a8b565b9081526020016040518091039020805461147a90615271565b80601f01602080910402602001604051908101604052809291908181526020018280546114a690615271565b80156114f35780601f106114c8576101008083540402835291602001916114f3565b820191906000526020600020905b8154815290600101906020018083116114d657829003601f168201915b50505050509250505092915050565b818161150e82826108a3565b61154d576040517f08c379a000000000000000000000000000000000000000000000000000000000815260040161154490614e9f565b60405180910390fd5b838360028282604051611561929190614a8b565b908152602001604051809103902060006115c684848080601f016020809104026020016040519081016040528093929190818152602001838380828437600081840152601f19601f820116905080830192505050505050506115c1612cfd565b6107d6565b815260200190815260200160002060000160019054906101000a900460ff16611624576040517f08c379a000000000000000000000000000000000000000000000000000000000815260040161161b90614f3f565b60405180910390fd5b60038686604051611636929190614a8b565b908152602001604051809103902060006116509190613e6b565b7f74b7395f46349d84fba706c4d226c68bbf9206c2567ae3ec2a001b5a98128eae8686604051611681929190614bbf565b60405180910390a1505050505050565b6000600284846040516116a5929190614a8b565b9081526020016040518091039020600061170a86868080601f016020809104026020016040519081016040528093929190818152602001838380828437600081840152601f19601f82011690508083019250505050505050611705612cfd565b6107d6565b81526020019081526020016000206040518060a00160405290816000820160009054906101000a900460ff161515151581526020016000820160019054906101000a900460ff1615151515815260200160018201548152602001600282015481526020016003820160009054906101000a900460ff161515151581525050905080600001518061179b575080602001515b806117aa575060008160400151115b806117b9575060008160600151115b806117c5575080608001515b611804576040517f08c379a00000000000000000000000000000000000000000000000000000000081526004016117fb90614edf565b60405180910390fd5b600060028585604051611818929190614a8b565b9081526020016040518091039020600061187687878080601f016020809104026020016040519081016040528093929190818152602001838380828437600081840152601f19601f82011690508083019250505050505050866107d6565b81526020019081526020016000206040518060a00160405290816000820160009054906101000a900460ff161515151581526020016000820160019054906101000a900460ff1615151515815260200160018201548152602001600282015481526020016003820160009054906101000a900460ff161515151581525050905060008160400151836040015111611911578160400151611917565b82604001515b90506000826060015184606001511161193457826060015161193a565b83606001515b905061197c878787876000015180611953575086600001515b886020015180611964575087602001515b87878b608001518061197757508a608001515b6139af565b6119968787611989612cfd565b60008060008060006139af565b50505050505050565b6119a7612cfd565b73ffffffffffffffffffffffffffffffffffffffff16600460009054906101000a900473ffffffffffffffffffffffffffffffffffffffff1673ffffffffffffffffffffffffffffffffffffffff16632b1fd99588886040518363ffffffff1660e01b8152600401611a1a929190614bbf565b60206040518083038186803b158015611a3257600080fd5b505afa158015611a46573d6000803e3d6000fd5b505050506040513d601f19601f82011682018060405250810190611a6a9190614083565b73ffffffffffffffffffffffffffffffffffffffff1614611ac0576040517f08c379a0000000000000000000000000000000000000000000000000000000008152600401611ab790614f7f565b60405180910390fd5b611b1186868080601f016020809104026020016040519081016040528093929190818152602001838380828437600081840152601f19601f8201169050808301925050505050505085858585612d0c565b505050505050565b848460028282604051611b2d929190614a8b565b90815260200160405180910390206000611b9284848080601f016020809104026020016040519081016040528093929190818152602001838380828437600081840152601f19601f82011690508083019250505050505050611b8d612cfd565b6107d6565b815260200190815260200160002060030160009054906101000a900460ff16611bf0576040517f08c379a0000000000000000000000000000000000000000000000000000000008152600401611be790614ebf565b60405180910390fd5b60036004811115611c0457611c0361534c565b5b846004811115611c1757611c1661534c565b5b1480611c47575060026004811115611c3257611c3161534c565b5b846004811115611c4557611c4461534c565b5b145b611c86576040517f08c379a0000000000000000000000000000000000000000000000000000000008152600401611c7d90614e1f565b60405180910390fd5b60026004811115611c9a57611c9961534c565b5b846004811115611cad57611cac61534c565b5b1415611d3e578260028888604051611cc6929190614a8b565b90815260200160405180910390206000611d248a8a8080601f016020809104026020016040519081016040528093929190818152602001838380828437600081840152601f19601f82011690508083019250505050505050896107d6565b815260200190815260200160002060010181905550611df3565b60036004811115611d5257611d5161534c565b5b846004811115611d6557611d6461534c565b5b1415611df2578260028888604051611d7e929190614a8b565b90815260200160405180910390206000611ddc8a8a8080601f016020809104026020016040519081016040528093929190818152602001838380828437600081840152601f19601f82011690508083019250505050505050896107d6565b8152602001908152602001600020600201819055505b5b50505050505050565b6003818051602081018201805184825260208301602085012081835280955050505050506000915090508054611e3190615271565b80601f0160208091040260200160405190810160405280929190818152602001828054611e5d90615271565b8015611eaa5780601f10611e7f57610100808354040283529160200191611eaa565b820191906000526020600020905b815481529060010190602001808311611e8d57829003601f168201915b505050505081565b6000611ec085858585612895565b80611ed45750611ed38585600085612895565b5b9050949350505050565b611ef18484611eeb612cfd565b84612895565b611f30576040517f08c379a0000000000000000000000000000000000000000000000000000000008152600401611f2790614edf565b60405180910390fd5b611f458484611f3d612cfd565b8460006133ad565b611f538484848460016133ad565b50505050565b60006001600084815260200190815260200160002060000160008373ffffffffffffffffffffffffffffffffffffffff1673ffffffffffffffffffffffffffffffffffffffff16815260200190815260200160002060009054906101000a900460ff16905092915050565b838360028282604051611fd8929190614a8b565b9081526020016040518091039020600061203d84848080601f016020809104026020016040519081016040528093929190818152602001838380828437600081840152601f19601f82011690508083019250505050505050612038612cfd565b6107d6565b815260200190815260200160002060030160009054906101000a900460ff1661209b576040517f08c379a000000000000000000000000000000000000000000000000000000000815260040161209290614ebf565b60405180910390fd5b6120a98686868660016133ad565b505050505050565b6120b9613eab565b83836120c582826108a3565b612104576040517f08c379a00000000000000000000000000000000000000000000000000000000081526004016120fb90614e9f565b60405180910390fd5b60028686604051612116929190614a8b565b9081526020016040518091039020600061217488888080601f016020809104026020016040519081016040528093929190818152602001838380828437600081840152601f19601f82011690508083019250505050505050876107d6565b81526020019081526020016000206040518060a00160405290816000820160009054906101000a900460ff161515151581526020016000820160019054906101000a900460ff1615151515815260200160018201548152602001600282015481526020016003820160009054906101000a900460ff161515151581525050925050509392505050565b6000801b81565b838360028282604051612218929190614a8b565b9081526020016040518091039020600061227d84848080601f016020809104026020016040519081016040528093929190818152602001838380828437600081840152601f19601f82011690508083019250505050505050612278612cfd565b6107d6565b815260200190815260200160002060030160009054906101000a900460ff166122db576040517f08c379a00000000000000000000000000000000000000000000000000000000081526004016122d290614ebf565b60405180910390fd5b6122ee8686600080600089896000612463565b505050505050565b6123277f2de84d9fbdf6d06e2cc584295043dbd76046423b9f8bae9426d4fa5e7c03f4a7612322612cfd565b611f59565b612366576040517f08c379a000000000000000000000000000000000000000000000000000000000815260040161235d90614e7f565b60405180910390fd5b61237688888888888888886139af565b5050505050505050565b6123b17f2de84d9fbdf6d06e2cc584295043dbd76046423b9f8bae9426d4fa5e7c03f4a76123ac612cfd565b611f59565b6123f0576040517f08c379a00000000000000000000000000000000000000000000000000000000081526004016123e790614e7f565b60405180910390fd5b818160038686604051612404929190614a8b565b9081526020016040518091039020919061241f929190613de5565b507fa60b7935888a7ab31214282090f1ab7207ab6d7abbf3c11080b75ce91d9a36d0848484846040516124559493929190614cd3565b60405180910390a150505050565b878760028282604051612477929190614a8b565b908152602001604051809103902060006124dc84848080601f016020809104026020016040519081016040528093929190818152602001838380828437600081840152601f19601f820116905080830192505050505050506124d7612cfd565b6107d6565b815260200190815260200160002060030160009054906101000a900460ff1661253a576040517f08c379a000000000000000000000000000000000000000000000000000000000815260040161253190614ebf565b60405180910390fd5b61254a8a8a8a8a8a8a8a8a6139af565b50505050505050505050565b61255f82610883565b6125708161256b612cfd565b61314e565b61257a83836132cb565b505050565b612587613eab565b838361259382826108a3565b6125d2576040517f08c379a00000000000000000000000000000000000000000000000000000000081526004016125c990614e9f565b60405180910390fd5b600286866040516125e4929190614a8b565b9081526020016040518091039020600061264288888080601f016020809104026020016040519081016040528093929190818152602001838380828437600081840152601f19601f82011690508083019250505050505050876107d6565b81526020019081526020016000206040518060a00160405290816000820160009054906101000a900460ff161515151581526020016000820160019054906101000a900460ff1615151515815260200160018201548152602001600282015481526020016003820160009054906101000a900460ff16151515158152505092506000600287876040516126d6929190614a8b565b9081526020016040518091039020600061273589898080601f016020809104026020016040519081016040528093929190818152602001838380828437600081840152601f19601f8201169050808301925050505050505060006107d6565b81526020019081526020016000206040518060a00160405290816000820160009054906101000a900460ff161515151581526020016000820160019054906101000a900460ff1615151515815260200160018201548152602001600282015481526020016003820160009054906101000a900460ff16151515158152505090504284604001511080156127cc575042816040015110155b156127e05780604001518460400181815250505b4284606001511080156127f7575042816060015110155b1561280b5780606001518460600181815250505b5050509392505050565b600282805160208101820180518482526020830160208501208183528095505050505050602052806000526040600020600091509150508060000160009054906101000a900460ff16908060000160019054906101000a900460ff16908060010154908060020154908060030160009054906101000a900460ff16905085565b60008060048111156128aa576128a961534c565b5b8260048111156128bd576128bc61534c565b5b141561295957600285856040516128d5929190614a8b565b9081526020016040518091039020600061293387878080601f016020809104026020016040519081016040528093929190818152602001838380828437600081840152601f19601f82011690508083019250505050505050866107d6565b815260200190815260200160002060000160009054906101000a900460ff169050612c51565b6001600481111561296d5761296c61534c565b5b8260048111156129805761297f61534c565b5b1415612a1c5760028585604051612998929190614a8b565b908152602001604051809103902060006129f687878080601f016020809104026020016040519081016040528093929190818152602001838380828437600081840152601f19601f82011690508083019250505050505050866107d6565b815260200190815260200160002060000160019054906101000a900460ff169050612c51565b60026004811115612a3057612a2f61534c565b5b826004811115612a4357612a4261534c565b5b1415612ad5574260028686604051612a5c929190614a8b565b90815260200160405180910390206000612aba88888080601f016020809104026020016040519081016040528093929190818152602001838380828437600081840152601f19601f82011690508083019250505050505050876107d6565b81526020019081526020016000206001015410159050612c51565b60036004811115612ae957612ae861534c565b5b826004811115612afc57612afb61534c565b5b1415612b8e574260028686604051612b15929190614a8b565b90815260200160405180910390206000612b7388888080601f016020809104026020016040519081016040528093929190818152602001838380828437600081840152601f19601f82011690508083019250505050505050876107d6565b81526020019081526020016000206002015410159050612c51565b600480811115612ba157612ba061534c565b5b826004811115612bb457612bb361534c565b5b1415612c505760028585604051612bcc929190614a8b565b90815260200160405180910390206000612c2a87878080601f016020809104026020016040519081016040528093929190818152602001838380828437600081840152601f19601f82011690508083019250505050505050866107d6565b815260200190815260200160002060030160009054906101000a900460ff169050612c51565b5b949350505050565b6000612c643361107a565b15612c7857601436033560601c9050612c87565b612c80612c8b565b9050612c88565b5b90565b600033905090565b60007f01ffc9a7000000000000000000000000000000000000000000000000000000007bffffffffffffffffffffffffffffffffffffffffffffffffffffffff1916827bffffffffffffffffffffffffffffffffffffffffffffffffffffffff1916149050919050565b6000612d07612c59565b905090565b6000828290501415612d53576040517f08c379a0000000000000000000000000000000000000000000000000000000008152600401612d4a90614eff565b60405180910390fd5b600084848080601f016020809104026020016040519081016040528093929190818152602001838380828437600081840152601f19601f8201169050808301925050505050505090507f2f0000000000000000000000000000000000000000000000000000000000000081600081518110612dd157612dd06153aa565b5b602001015160f81c60f81b7effffffffffffffffffffffffffffffffffffffffffffffffffffffffffffff191614612e3e576040517f08c379a0000000000000000000000000000000000000000000000000000000008152600401612e3590614e3f565b60405180910390fd5b6000868686604051602001612e5593929190614abb565b60405160208183030381529060405290506000600382604051612e789190614aa4565b90815260200160405180910390208054612e9190615271565b905014612ed3576040517f08c379a0000000000000000000000000000000000000000000000000000000008152600401612eca90614f1f565b60405180910390fd5b6001600582604051612ee59190614aa4565b908152602001604051809103902060009054906101000a900463ffffffff16612f0e91906150d1565b600582604051612f1e9190614aa4565b908152602001604051809103902060006101000a81548163ffffffff021916908363ffffffff1602179055508383600383604051612f5c9190614aa4565b90815260200160405180910390209190612f77929190613de5565b506040518060a001604052806001151581526020016001151581526020017fffffffffffffffffffffffffffffffffffffffffffffffffffffffffffffffff81526020017fffffffffffffffffffffffffffffffffffffffffffffffffffffffffffffffff815260200160011515815250600282604051612ff89190614aa4565b9081526020016040518091039020600061301984613014612cfd565b6107d6565b815260200190815260200160002060008201518160000160006101000a81548160ff02191690831515021790555060208201518160000160016101000a81548160ff021916908315150217905550604082015181600101556060820151816002015560808201518160030160006101000a81548160ff0219169083151502179055509050507f0db027888a30ca08149af1347f6ce2f48daffedd9d6d21ab6249c4d802ce592f8185856040516130d193929190614da6565b60405180910390a17fd22d58032f55c61c3896b3f67eb399b25071b61e122a23d4cd06bc87d4b7b8c181613103612cfd565b6001807fffffffffffffffffffffffffffffffffffffffffffffffffffffffffffffffff80600160405161313d9796959493929190614d30565b60405180910390a150505050505050565b6131588282611f59565b6131e75761317d8173ffffffffffffffffffffffffffffffffffffffff166014613ba9565b61318b8360001c6020613ba9565b60405160200161319c929190614ae1565b6040516020818303038152906040526040517f08c379a00000000000000000000000000000000000000000000000000000000081526004016131de9190614d0e565b60405180910390fd5b5050565b6131f58282611f59565b6132c757600180600084815260200190815260200160002060000160008373ffffffffffffffffffffffffffffffffffffffff1673ffffffffffffffffffffffffffffffffffffffff16815260200190815260200160002060006101000a81548160ff02191690831515021790555061326c612cfd565b73ffffffffffffffffffffffffffffffffffffffff168173ffffffffffffffffffffffffffffffffffffffff16837f2f8788117e7eff1d82e926ec794901d17c78024a50270940304540a733656f0d60405160405180910390a45b5050565b6132d58282611f59565b156133a95760006001600084815260200190815260200160002060000160008373ffffffffffffffffffffffffffffffffffffffff1673ffffffffffffffffffffffffffffffffffffffff16815260200190815260200160002060006101000a81548160ff02191690831515021790555061334e612cfd565b73ffffffffffffffffffffffffffffffffffffffff168173ffffffffffffffffffffffffffffffffffffffff16837ff6391f5c32d9c69d2a47ea670b442974b53935d1edc7fd64eb21e047a839171b60405160405180910390a45b5050565b600073ffffffffffffffffffffffffffffffffffffffff168373ffffffffffffffffffffffffffffffffffffffff1614158061340d5750600360048111156133f8576133f761534c565b5b82600481111561340b5761340a61534c565b5b145b8061343c5750600260048111156134275761342661534c565b5b82600481111561343a5761343961534c565b5b145b61347b576040517f08c379a000000000000000000000000000000000000000000000000000000000815260040161347290614dff565b60405180910390fd5b6000600481111561348f5761348e61534c565b5b8260048111156134a2576134a161534c565b5b14156135465780600286866040516134bb929190614a8b565b9081526020016040518091039020600061351988888080601f016020809104026020016040519081016040528093929190818152602001838380828437600081840152601f19601f82011690508083019250505050505050876107d6565b815260200190815260200160002060000160006101000a81548160ff0219169083151502179055506138a5565b6001600481111561355a5761355961534c565b5b82600481111561356d5761356c61534c565b5b1415613611578060028686604051613586929190614a8b565b908152602001604051809103902060006135e488888080601f016020809104026020016040519081016040528093929190818152602001838380828437600081840152601f19601f82011690508083019250505050505050876107d6565b815260200190815260200160002060000160016101000a81548160ff0219169083151502179055506138a4565b600260048111156136255761362461534c565b5b8260048111156136385761363761534c565b5b14156136f6578061364a57600061366c565b7fffffffffffffffffffffffffffffffffffffffffffffffffffffffffffffffff5b6002868660405161367e929190614a8b565b908152602001604051809103902060006136dc88888080601f016020809104026020016040519081016040528093929190818152602001838380828437600081840152601f19601f82011690508083019250505050505050876107d6565b8152602001908152602001600020600101819055506138a3565b6003600481111561370a5761370961534c565b5b82600481111561371d5761371c61534c565b5b14156137db578061372f576000613751565b7fffffffffffffffffffffffffffffffffffffffffffffffffffffffffffffffff5b60028686604051613763929190614a8b565b908152602001604051809103902060006137c188888080601f016020809104026020016040519081016040528093929190818152602001838380828437600081840152601f19601f82011690508083019250505050505050876107d6565b8152602001908152602001600020600201819055506138a2565b6004808111156137ee576137ed61534c565b5b8260048111156138015761380061534c565b5b14156138a157806002868660405161381a929190614a8b565b9081526020016040518091039020600061387888888080601f016020809104026020016040519081016040528093929190818152602001838380828437600081840152601f19601f82011690508083019250505050505050876107d6565b815260200190815260200160002060030160006101000a81548160ff0219169083151502179055505b5b5b5b5b6000600286866040516138b9929190614a8b565b9081526020016040518091039020600061391788888080601f016020809104026020016040519081016040528093929190818152602001838380828437600081840152601f19601f82011690508083019250505050505050876107d6565b815260200190815260200160002090507fd22d58032f55c61c3896b3f67eb399b25071b61e122a23d4cd06bc87d4b7b8c18686868460000160009054906101000a900460ff168560000160019054906101000a900460ff16866001015487600201548860030160009054906101000a900460ff1660405161399f989796959493929190614c5b565b60405180910390a1505050505050565b600073ffffffffffffffffffffffffffffffffffffffff168673ffffffffffffffffffffffffffffffffffffffff161415806139f9575084806139ef5750835b806139f75750805b155b613a38576040517f08c379a0000000000000000000000000000000000000000000000000000000008152600401613a2f90614dff565b60405180910390fd5b6040518060a001604052808615158152602001851515815260200184815260200183815260200182151581525060028989604051613a77929190614a8b565b90815260200160405180910390206000613ad58b8b8080601f016020809104026020016040519081016040528093929190818152602001838380828437600081840152601f19601f820116905080830192505050505050508a6107d6565b815260200190815260200160002060008201518160000160006101000a81548160ff02191690831515021790555060208201518160000160016101000a81548160ff021916908315150217905550604082015181600101556060820151816002015560808201518160030160006101000a81548160ff0219169083151502179055509050507fd22d58032f55c61c3896b3f67eb399b25071b61e122a23d4cd06bc87d4b7b8c18888888888888888604051613b97989796959493929190614c5b565b60405180910390a15050505050505050565b606060006002836002613bbc919061510b565b613bc6919061507b565b67ffffffffffffffff811115613bdf57613bde6153d9565b5b6040519080825280601f01601f191660200182016040528015613c115781602001600182028036833780820191505090505b5090507f300000000000000000000000000000000000000000000000000000000000000081600081518110613c4957613c486153aa565b5b60200101907effffffffffffffffffffffffffffffffffffffffffffffffffffffffffffff1916908160001a9053507f780000000000000000000000000000000000000000000000000000000000000081600181518110613cad57613cac6153aa565b5b60200101907effffffffffffffffffffffffffffffffffffffffffffffffffffffffffffff1916908160001a90535060006001846002613ced919061510b565b613cf7919061507b565b90505b6001811115613d97577f3031323334353637383961626364656600000000000000000000000000000000600f861660108110613d3957613d386153aa565b5b1a60f81b828281518110613d5057613d4f6153aa565b5b60200101907effffffffffffffffffffffffffffffffffffffffffffffffffffffffffffff1916908160001a905350600485901c945080613d9090615247565b9050613cfa565b5060008414613ddb576040517f08c379a0000000000000000000000000000000000000000000000000000000008152600401613dd290614ddf565b60405180910390fd5b8091505092915050565b828054613df190615271565b90600052602060002090601f016020900481019282613e135760008555613e5a565b82601f10613e2c57803560ff1916838001178555613e5a565b82800160010185558215613e5a579182015b82811115613e59578235825591602001919060010190613e3e565b5b509050613e679190613ee0565b5090565b508054613e7790615271565b6000825580601f10613e895750613ea8565b601f016020900490600052602060002090810190613ea79190613ee0565b5b50565b6040518060a0016040528060001515815260200160001515815260200160008152602001600081526020016000151581525090565b5b80821115613ef9576000816000905550600101613ee1565b5090565b6000613f10613f0b84615023565b614ffe565b905082815260208101848484011115613f2c57613f2b615417565b5b613f37848285615205565b509392505050565b600081359050613f4e816156ed565b92915050565b600081519050613f63816156ed565b92915050565b600081359050613f7881615704565b92915050565b600081359050613f8d8161571b565b92915050565b600081359050613fa281615732565b92915050565b600081359050613fb781615749565b92915050565b60008083601f840112613fd357613fd261540d565b5b8235905067ffffffffffffffff811115613ff057613fef615408565b5b60208301915083600182028301111561400c5761400b615412565b5b9250929050565b600082601f8301126140285761402761540d565b5b8135614038848260208601613efd565b91505092915050565b60008135905061405081615759565b92915050565b60006020828403121561406c5761406b615421565b5b600061407a84828501613f3f565b91505092915050565b60006020828403121561409957614098615421565b5b60006140a784828501613f54565b91505092915050565b6000602082840312156140c6576140c5615421565b5b60006140d484828501613f7e565b91505092915050565b600080604083850312156140f4576140f3615421565b5b600061410285828601613f7e565b925050602061411385828601613f3f565b9150509250929050565b60006020828403121561413357614132615421565b5b600061414184828501613f93565b91505092915050565b6000806020838503121561416157614160615421565b5b600083013567ffffffffffffffff81111561417f5761417e61541c565b5b61418b85828601613fbd565b92509250509250929050565b6000806000604084860312156141b0576141af615421565b5b600084013567ffffffffffffffff8111156141ce576141cd61541c565b5b6141da86828701613fbd565b935093505060206141ed86828701613f3f565b9150509250925092565b60008060008060008060008060e0898b03121561421757614216615421565b5b600089013567ffffffffffffffff8111156142355761423461541c565b5b6142418b828c01613fbd565b985098505060206142548b828c01613f3f565b96505060406142658b828c01613f69565b95505060606142768b828c01613f69565b94505060806142878b828c01614041565b93505060a06142988b828c01614041565b92505060c06142a98b828c01613f69565b9150509295985092959890939650565b600080600080606085870312156142d3576142d2615421565b5b600085013567ffffffffffffffff8111156142f1576142f061541c565b5b6142fd87828801613fbd565b9450945050602061431087828801613f3f565b925050604061432187828801613fa8565b91505092959194509250565b60008060008060006080868803121561434957614348615421565b5b600086013567ffffffffffffffff8111156143675761436661541c565b5b61437388828901613fbd565b9550955050602061438688828901613f3f565b935050604061439788828901613fa8565b92505060606143a888828901614041565b9150509295509295909350565b6000806000604084860312156143ce576143cd615421565b5b600084013567ffffffffffffffff8111156143ec576143eb61541c565b5b6143f886828701613fbd565b9350935050602061440b86828701613fa8565b9150509250925092565b6000806000806040858703121561442f5761442e615421565b5b600085013567ffffffffffffffff81111561444d5761444c61541c565b5b61445987828801613fbd565b9450945050602085013567ffffffffffffffff81111561447c5761447b61541c565b5b61448887828801613fbd565b925092505092959194509250565b600080600080600080606087890312156144b3576144b2615421565b5b600087013567ffffffffffffffff8111156144d1576144d061541c565b5b6144dd89828a01613fbd565b9650965050602087013567ffffffffffffffff811115614500576144ff61541c565b5b61450c89828a01613fbd565b9450945050604087013567ffffffffffffffff81111561452f5761452e61541c565b5b61453b89828a01613fbd565b92509250509295509295509295565b6000806000806060858703121561456457614563615421565b5b600085013567ffffffffffffffff8111156145825761458161541c565b5b61458e87828801613fbd565b945094505060206145a187828801614041565b92505060406145b287828801614041565b91505092959194509250565b6000602082840312156145d4576145d3615421565b5b600082013567ffffffffffffffff8111156145f2576145f161541c565b5b6145fe84828501614013565b91505092915050565b6000806040838503121561461e5761461d615421565b5b600083013567ffffffffffffffff81111561463c5761463b61541c565b5b61464885828601614013565b925050602061465985828601613f3f565b9150509250929050565b6000806040838503121561467a57614679615421565b5b600083013567ffffffffffffffff8111156146985761469761541c565b5b6146a485828601614013565b92505060206146b585828601613f7e565b9150509250929050565b6146c881615165565b82525050565b6146d781615177565b82525050565b6146e681615177565b82525050565b6146f581615183565b82525050565b614704816151f3565b82525050565b6000614716838561505f565b9350614723838584615205565b61472c83615426565b840190509392505050565b60006147438385615070565b9350614750838584615205565b82840190509392505050565b600061476782615054565b614771818561505f565b9350614781818560208601615214565b61478a81615426565b840191505092915050565b60006147a082615054565b6147aa8185615070565b93506147ba818560208601615214565b80840191505092915050565b60006147d360208361505f565b91506147de82615437565b602082019050919050565b60006147f6601b8361505f565b915061480182615460565b602082019050919050565b600061481960168361505f565b915061482482615489565b602082019050919050565b600061483c601c8361505f565b9150614847826154b2565b602082019050919050565b600061485f60168361505f565b915061486a826154db565b602082019050919050565b600061488260178361505f565b915061488d82615504565b602082019050919050565b60006148a560188361505f565b91506148b08261552d565b602082019050919050565b60006148c860178361505f565b91506148d382615556565b602082019050919050565b60006148eb601c8361505f565b91506148f68261557f565b602082019050919050565b600061490e601f8361505f565b9150614919826155a8565b602082019050919050565b600061493160198361505f565b915061493c826155d1565b602082019050919050565b6000614954601783615070565b915061495f826155fa565b601782019050919050565b600061497760188361505f565b915061498282615623565b602082019050919050565b600061499a601183615070565b91506149a58261564c565b601182019050919050565b60006149bd602f8361505f565b91506149c882615675565b604082019050919050565b60006149e060178361505f565b91506149eb826156c4565b602082019050919050565b60a082016000820151614a0c60008501826146ce565b506020820151614a1f60208501826146ce565b506040820151614a326040850182614a5e565b506060820151614a456060850182614a5e565b506080820151614a5860808501826146ce565b50505050565b614a67816151d9565b82525050565b614a76816151d9565b82525050565b614a85816151e3565b82525050565b6000614a98828486614737565b91508190509392505050565b6000614ab08284614795565b915081905092915050565b6000614ac78286614795565b9150614ad4828486614737565b9150819050949350505050565b6000614aec82614947565b9150614af88285614795565b9150614b038261498d565b9150614b0f8284614795565b91508190509392505050565b6000602082019050614b3060008301846146bf565b92915050565b6000602082019050614b4b60008301846146dd565b92915050565b600060a082019050614b6660008301886146dd565b614b7360208301876146dd565b614b806040830186614a6d565b614b8d6060830185614a6d565b614b9a60808301846146dd565b9695505050505050565b6000602082019050614bb960008301846146ec565b92915050565b60006020820190508181036000830152614bda81848661470a565b90509392505050565b600060e0820190508181036000830152614bfe818a8c61470a565b9050614c0d60208301896146bf565b614c1a60408301886146dd565b614c2760608301876146dd565b614c3460808301866146fb565b614c4160a08301856146fb565b614c4e60c08301846146dd565b9998505050505050505050565b600060e0820190508181036000830152614c76818a8c61470a565b9050614c8560208301896146bf565b614c9260408301886146dd565b614c9f60608301876146dd565b614cac6080830186614a6d565b614cb960a0830185614a6d565b614cc660c08301846146dd565b9998505050505050505050565b60006040820190508181036000830152614cee81868861470a565b90508181036020830152614d0381848661470a565b905095945050505050565b60006020820190508181036000830152614d28818461475c565b905092915050565b600060e0820190508181036000830152614d4a818a61475c565b9050614d5960208301896146bf565b614d6660408301886146dd565b614d7360608301876146dd565b614d806080830186614a6d565b614d8d60a0830185614a6d565b614d9a60c08301846146dd565b98975050505050505050565b60006040820190508181036000830152614dc0818661475c565b90508181036020830152614dd581848661470a565b9050949350505050565b60006020820190508181036000830152614df8816147c6565b9050919050565b60006020820190508181036000830152614e18816147e9565b9050919050565b60006020820190508181036000830152614e388161480c565b9050919050565b60006020820190508181036000830152614e588161482f565b9050919050565b60006020820190508181036000830152614e7881614852565b9050919050565b60006020820190508181036000830152614e9881614875565b9050919050565b60006020820190508181036000830152614eb881614898565b9050919050565b60006020820190508181036000830152614ed8816148bb565b9050919050565b60006020820190508181036000830152614ef8816148de565b9050919050565b60006020820190508181036000830152614f1881614901565b9050919050565b60006020820190508181036000830152614f3881614924565b9050919050565b60006020820190508181036000830152614f588161496a565b9050919050565b60006020820190508181036000830152614f78816149b0565b9050919050565b60006020820190508181036000830152614f98816149d3565b9050919050565b600060a082019050614fb460008301846149f6565b92915050565b6000602082019050614fcf6000830184614a6d565b92915050565b6000604082019050614fea6000830185614a7c565b614ff760208301846146bf565b9392505050565b6000615008615019565b905061501482826152a3565b919050565b6000604051905090565b600067ffffffffffffffff82111561503e5761503d6153d9565b5b61504782615426565b9050602081019050919050565b600081519050919050565b600082825260208201905092915050565b600081905092915050565b6000615086826151d9565b9150615091836151d9565b9250827fffffffffffffffffffffffffffffffffffffffffffffffffffffffffffffffff038211156150c6576150c561531d565b5b828201905092915050565b60006150dc826151e3565b91506150e7836151e3565b92508263ffffffff03821115615100576150ff61531d565b5b828201905092915050565b6000615116826151d9565b9150615121836151d9565b9250817fffffffffffffffffffffffffffffffffffffffffffffffffffffffffffffffff048311821515161561515a5761515961531d565b5b828202905092915050565b6000615170826151b9565b9050919050565b60008115159050919050565b6000819050919050565b60007fffffffff0000000000000000000000000000000000000000000000000000000082169050919050565b600073ffffffffffffffffffffffffffffffffffffffff82169050919050565b6000819050919050565b600063ffffffff82169050919050565b60006151fe826151d9565b9050919050565b82818337600083830152505050565b60005b83811015615232578082015181840152602081019050615217565b83811115615241576000848401525b50505050565b6000615252826151d9565b915060008214156152665761526561531d565b5b600182039050919050565b6000600282049050600182168061528957607f821691505b6020821081141561529d5761529c61537b565b5b50919050565b6152ac82615426565b810181811067ffffffffffffffff821117156152cb576152ca6153d9565b5b80604052505050565b60006152df826151d9565b91507fffffffffffffffffffffffffffffffffffffffffffffffffffffffffffffffff8214156153125761531161531d565b5b600182019050919050565b7f4e487b7100000000000000000000000000000000000000000000000000000000600052601160045260246000fd5b7f4e487b7100000000000000000000000000000000000000000000000000000000600052602160045260246000fd5b7f4e487b7100000000000000000000000000000000000000000000000000000000600052602260045260246000fd5b7f4e487b7100000000000000000000000000000000000000000000000000000000600052603260045260246000fd5b7f4e487b7100000000000000000000000000000000000000000000000000000000600052604160045260246000fd5b600080fd5b600080fd5b600080fd5b600080fd5b600080fd5b600080fd5b6000601f19601f8301169050919050565b7f537472696e67733a20686578206c656e67746820696e73756666696369656e74600082015250565b7f6572726f725f7075626c696343616e4f6e6c79537562735075626c0000000000600082015250565b7f6572726f725f74696d654f6e6c794f6250756253756200000000000000000000600082015250565b7f6572726f725f706174684d757374537461727457697468536c61736800000000600082015250565b7f6572726f725f6e6f456469745065726d697373696f6e00000000000000000000600082015250565b7f6572726f725f6d757374426554727573746564526f6c65000000000000000000600082015250565b7f6572726f725f73747265616d446f65734e6f7445786973740000000000000000600082015250565b7f6572726f725f6e6f53686172655065726d697373696f6e000000000000000000600082015250565b7f6572726f725f6e6f5065726d697373696f6e546f5472616e7366657200000000600082015250565b7f6572726f725f6d657461646174614a736f6e537472696e674973456d70747900600082015250565b7f6572726f725f73747265616d416c726561647945786973747300000000000000600082015250565b7f416363657373436f6e74726f6c3a206163636f756e7420000000000000000000600082015250565b7f6572726f725f6e6f44656c6574655065726d697373696f6e0000000000000000600082015250565b7f206973206d697373696e6720726f6c6520000000000000000000000000000000600082015250565b7f416363657373436f6e74726f6c3a2063616e206f6e6c792072656e6f756e636560008201527f20726f6c657320666f722073656c660000000000000000000000000000000000602082015250565b7f6572726f725f6e6f744f776e65724f66454e534e616d65000000000000000000600082015250565b6156f681615165565b811461570157600080fd5b50565b61570d81615177565b811461571857600080fd5b50565b61572481615183565b811461572f57600080fd5b50565b61573b8161518d565b811461574657600080fd5b50565b6005811061575657600080fd5b50565b615762816151d9565b811461576d57600080fd5b5056fea264697066735822122075936086964d7fdd700083a6997f4f30f1cdf52c8b56966ade825e294f898f6664736f6c63430008060033",
  "linkReferences": {},
  "deployedLinkReferences": {}
}