{
  "_format": "hh-sol-artifact-1",
  "contractName": "StreamRegistry",
  "sourceName": "contracts/StreamRegistry/StreamRegistry.sol",
  "abi": [
    {
      "inputs": [
        {
          "internalType": "address",
          "name": "ensCacheAddr",
          "type": "address"
        },
        {
          "internalType": "address",
          "name": "trustedForwarderAddress",
          "type": "address"
        }
      ],
      "stateMutability": "nonpayable",
      "type": "constructor"
    },
    {
      "anonymous": false,
      "inputs": [
        {
          "indexed": false,
          "internalType": "string",
          "name": "streamId",
          "type": "string"
        },
        {
          "indexed": false,
          "internalType": "address",
          "name": "user",
          "type": "address"
        },
        {
          "indexed": false,
          "internalType": "bool",
          "name": "canEdit",
          "type": "bool"
        },
        {
          "indexed": false,
          "internalType": "bool",
          "name": "canDelete",
          "type": "bool"
        },
        {
          "indexed": false,
          "internalType": "uint256",
          "name": "publishExpiration",
          "type": "uint256"
        },
        {
          "indexed": false,
          "internalType": "uint256",
          "name": "subscribeExpiration",
          "type": "uint256"
        },
        {
          "indexed": false,
          "internalType": "bool",
          "name": "canGrant",
          "type": "bool"
        }
      ],
      "name": "PermissionUpdated",
      "type": "event"
    },
    {
      "anonymous": false,
      "inputs": [
        {
          "indexed": true,
          "internalType": "bytes32",
          "name": "role",
          "type": "bytes32"
        },
        {
          "indexed": true,
          "internalType": "bytes32",
          "name": "previousAdminRole",
          "type": "bytes32"
        },
        {
          "indexed": true,
          "internalType": "bytes32",
          "name": "newAdminRole",
          "type": "bytes32"
        }
      ],
      "name": "RoleAdminChanged",
      "type": "event"
    },
    {
      "anonymous": false,
      "inputs": [
        {
          "indexed": true,
          "internalType": "bytes32",
          "name": "role",
          "type": "bytes32"
        },
        {
          "indexed": true,
          "internalType": "address",
          "name": "account",
          "type": "address"
        },
        {
          "indexed": true,
          "internalType": "address",
          "name": "sender",
          "type": "address"
        }
      ],
      "name": "RoleGranted",
      "type": "event"
    },
    {
      "anonymous": false,
      "inputs": [
        {
          "indexed": true,
          "internalType": "bytes32",
          "name": "role",
          "type": "bytes32"
        },
        {
          "indexed": true,
          "internalType": "address",
          "name": "account",
          "type": "address"
        },
        {
          "indexed": true,
          "internalType": "address",
          "name": "sender",
          "type": "address"
        }
      ],
      "name": "RoleRevoked",
      "type": "event"
    },
    {
      "anonymous": false,
      "inputs": [
        {
          "indexed": false,
          "internalType": "string",
          "name": "id",
          "type": "string"
        },
        {
          "indexed": false,
          "internalType": "string",
          "name": "metadata",
          "type": "string"
        }
      ],
      "name": "StreamCreated",
      "type": "event"
    },
    {
      "anonymous": false,
      "inputs": [
        {
          "indexed": false,
          "internalType": "string",
          "name": "id",
          "type": "string"
        }
      ],
      "name": "StreamDeleted",
      "type": "event"
    },
    {
      "anonymous": false,
      "inputs": [
        {
          "indexed": false,
          "internalType": "string",
          "name": "id",
          "type": "string"
        },
        {
          "indexed": false,
          "internalType": "string",
          "name": "metadata",
          "type": "string"
        }
      ],
      "name": "StreamUpdated",
      "type": "event"
    },
    {
      "inputs": [],
      "name": "DEFAULT_ADMIN_ROLE",
      "outputs": [
        {
          "internalType": "bytes32",
          "name": "",
          "type": "bytes32"
        }
      ],
      "stateMutability": "view",
      "type": "function"
    },
    {
      "inputs": [],
      "name": "MAX_INT",
      "outputs": [
        {
          "internalType": "uint256",
          "name": "",
          "type": "uint256"
        }
      ],
      "stateMutability": "view",
      "type": "function"
    },
    {
      "inputs": [],
      "name": "TRUSTED_ROLE",
      "outputs": [
        {
          "internalType": "bytes32",
          "name": "",
          "type": "bytes32"
        }
      ],
      "stateMutability": "view",
      "type": "function"
    },
    {
      "inputs": [],
      "name": "_trustedForwarder",
      "outputs": [
        {
          "internalType": "address",
          "name": "",
          "type": "address"
        }
      ],
      "stateMutability": "view",
      "type": "function"
    },
    {
      "inputs": [
        {
          "internalType": "address",
          "name": "_address",
          "type": "address"
        }
      ],
      "name": "addressToString",
      "outputs": [
        {
          "internalType": "string",
          "name": "",
          "type": "string"
        }
      ],
      "stateMutability": "pure",
      "type": "function"
    },
    {
      "inputs": [
        {
          "internalType": "string",
          "name": "streamIdPath",
          "type": "string"
        },
        {
          "internalType": "string",
          "name": "metadataJsonString",
          "type": "string"
        }
      ],
      "name": "createStream",
      "outputs": [],
      "stateMutability": "nonpayable",
      "type": "function"
    },
    {
      "inputs": [
        {
          "internalType": "string",
          "name": "ensName",
          "type": "string"
        },
        {
          "internalType": "string",
          "name": "streamIdPath",
          "type": "string"
        },
        {
          "internalType": "string",
          "name": "metadataJsonString",
          "type": "string"
        }
      ],
      "name": "createStreamWithENS",
      "outputs": [],
      "stateMutability": "nonpayable",
      "type": "function"
    },
    {
      "inputs": [
        {
          "internalType": "string",
          "name": "streamId",
          "type": "string"
        }
      ],
      "name": "deleteStream",
      "outputs": [],
      "stateMutability": "nonpayable",
      "type": "function"
    },
    {
      "inputs": [
        {
          "internalType": "string",
          "name": "streamId",
          "type": "string"
        }
      ],
      "name": "exists",
      "outputs": [
        {
          "internalType": "bool",
          "name": "",
          "type": "bool"
        }
      ],
      "stateMutability": "view",
      "type": "function"
    },
    {
      "inputs": [
        {
          "internalType": "string",
          "name": "streamId",
          "type": "string"
        },
        {
          "internalType": "address",
          "name": "user",
          "type": "address"
        }
      ],
      "name": "getAddressKey",
      "outputs": [
        {
          "internalType": "bytes32",
          "name": "",
          "type": "bytes32"
        }
      ],
      "stateMutability": "view",
      "type": "function"
    },
    {
      "inputs": [
        {
          "internalType": "string",
          "name": "streamId",
          "type": "string"
        },
        {
          "internalType": "address",
          "name": "user",
          "type": "address"
        }
      ],
      "name": "getDirectPermissionsForUser",
      "outputs": [
        {
          "components": [
            {
              "internalType": "bool",
              "name": "canEdit",
              "type": "bool"
            },
            {
              "internalType": "bool",
              "name": "canDelete",
              "type": "bool"
            },
            {
              "internalType": "uint256",
              "name": "publishExpiration",
              "type": "uint256"
            },
            {
              "internalType": "uint256",
              "name": "subscribeExpiration",
              "type": "uint256"
            },
            {
              "internalType": "bool",
              "name": "canGrant",
              "type": "bool"
            }
          ],
          "internalType": "struct StreamRegistry.Permission",
          "name": "permission",
          "type": "tuple"
        }
      ],
      "stateMutability": "view",
      "type": "function"
    },
    {
      "inputs": [
        {
          "internalType": "string",
          "name": "streamId",
          "type": "string"
        },
        {
          "internalType": "address",
          "name": "user",
          "type": "address"
        }
      ],
      "name": "getPermissionsForUser",
      "outputs": [
        {
          "components": [
            {
              "internalType": "bool",
              "name": "canEdit",
              "type": "bool"
            },
            {
              "internalType": "bool",
              "name": "canDelete",
              "type": "bool"
            },
            {
              "internalType": "uint256",
              "name": "publishExpiration",
              "type": "uint256"
            },
            {
              "internalType": "uint256",
              "name": "subscribeExpiration",
              "type": "uint256"
            },
            {
              "internalType": "bool",
              "name": "canGrant",
              "type": "bool"
            }
          ],
          "internalType": "struct StreamRegistry.Permission",
          "name": "permission",
          "type": "tuple"
        }
      ],
      "stateMutability": "view",
      "type": "function"
    },
    {
      "inputs": [
        {
          "internalType": "bytes32",
          "name": "role",
          "type": "bytes32"
        }
      ],
      "name": "getRoleAdmin",
      "outputs": [
        {
          "internalType": "bytes32",
          "name": "",
          "type": "bytes32"
        }
      ],
      "stateMutability": "view",
      "type": "function"
    },
    {
      "inputs": [
        {
          "internalType": "string",
          "name": "streamId",
          "type": "string"
        }
      ],
      "name": "getStreamMetadata",
      "outputs": [
        {
          "internalType": "string",
          "name": "des",
          "type": "string"
        }
      ],
      "stateMutability": "view",
      "type": "function"
    },
    {
      "inputs": [
        {
          "internalType": "string",
          "name": "streamId",
          "type": "string"
        },
        {
          "internalType": "address",
          "name": "user",
          "type": "address"
        },
        {
          "internalType": "enum StreamRegistry.PermissionType",
          "name": "permissionType",
          "type": "uint8"
        }
      ],
      "name": "grantPermission",
      "outputs": [],
      "stateMutability": "nonpayable",
      "type": "function"
    },
    {
      "inputs": [
        {
          "internalType": "string",
          "name": "streamId",
          "type": "string"
        },
        {
          "internalType": "enum StreamRegistry.PermissionType",
          "name": "permissionType",
          "type": "uint8"
        }
      ],
      "name": "grantPublicPermission",
      "outputs": [],
      "stateMutability": "nonpayable",
      "type": "function"
    },
    {
      "inputs": [
        {
          "internalType": "bytes32",
          "name": "role",
          "type": "bytes32"
        },
        {
          "internalType": "address",
          "name": "account",
          "type": "address"
        }
      ],
      "name": "grantRole",
      "outputs": [],
      "stateMutability": "nonpayable",
      "type": "function"
    },
    {
      "inputs": [
        {
          "internalType": "string",
          "name": "streamId",
          "type": "string"
        },
        {
          "internalType": "address",
          "name": "user",
          "type": "address"
        },
        {
          "internalType": "enum StreamRegistry.PermissionType",
          "name": "permissionType",
          "type": "uint8"
        }
      ],
      "name": "hasDirectPermission",
      "outputs": [
        {
          "internalType": "bool",
          "name": "userHasPermission",
          "type": "bool"
        }
      ],
      "stateMutability": "view",
      "type": "function"
    },
    {
      "inputs": [
        {
          "internalType": "string",
          "name": "streamId",
          "type": "string"
        },
        {
          "internalType": "address",
          "name": "user",
          "type": "address"
        },
        {
          "internalType": "enum StreamRegistry.PermissionType",
          "name": "permissionType",
          "type": "uint8"
        }
      ],
      "name": "hasPermission",
      "outputs": [
        {
          "internalType": "bool",
          "name": "userHasPermission",
          "type": "bool"
        }
      ],
      "stateMutability": "view",
      "type": "function"
    },
    {
      "inputs": [
        {
          "internalType": "string",
          "name": "streamId",
          "type": "string"
        },
        {
          "internalType": "enum StreamRegistry.PermissionType",
          "name": "permissionType",
          "type": "uint8"
        }
      ],
      "name": "hasPublicPermission",
      "outputs": [
        {
          "internalType": "bool",
          "name": "userHasPermission",
          "type": "bool"
        }
      ],
      "stateMutability": "view",
      "type": "function"
    },
    {
      "inputs": [
        {
          "internalType": "bytes32",
          "name": "role",
          "type": "bytes32"
        },
        {
          "internalType": "address",
          "name": "account",
          "type": "address"
        }
      ],
      "name": "hasRole",
      "outputs": [
        {
          "internalType": "bool",
          "name": "",
          "type": "bool"
        }
      ],
      "stateMutability": "view",
      "type": "function"
    },
    {
      "inputs": [
        {
          "internalType": "address",
          "name": "forwarder",
          "type": "address"
        }
      ],
      "name": "isTrustedForwarder",
      "outputs": [
        {
          "internalType": "bool",
          "name": "",
          "type": "bool"
        }
      ],
      "stateMutability": "view",
      "type": "function"
    },
    {
      "inputs": [
        {
          "internalType": "bytes32",
          "name": "role",
          "type": "bytes32"
        },
        {
          "internalType": "address",
          "name": "account",
          "type": "address"
        }
      ],
      "name": "renounceRole",
      "outputs": [],
      "stateMutability": "nonpayable",
      "type": "function"
    },
    {
      "inputs": [
        {
          "internalType": "string",
          "name": "streamId",
          "type": "string"
        },
        {
          "internalType": "address",
          "name": "user",
          "type": "address"
        }
      ],
      "name": "revokeAllPermissionsForUser",
      "outputs": [],
      "stateMutability": "nonpayable",
      "type": "function"
    },
    {
      "inputs": [
        {
          "internalType": "string",
          "name": "streamId",
          "type": "string"
        },
        {
          "internalType": "address",
          "name": "user",
          "type": "address"
        },
        {
          "internalType": "enum StreamRegistry.PermissionType",
          "name": "permissionType",
          "type": "uint8"
        }
      ],
      "name": "revokePermission",
      "outputs": [],
      "stateMutability": "nonpayable",
      "type": "function"
    },
    {
      "inputs": [
        {
          "internalType": "string",
          "name": "streamId",
          "type": "string"
        },
        {
          "internalType": "enum StreamRegistry.PermissionType",
          "name": "permissionType",
          "type": "uint8"
        }
      ],
      "name": "revokePublicPermission",
      "outputs": [],
      "stateMutability": "nonpayable",
      "type": "function"
    },
    {
      "inputs": [
        {
          "internalType": "bytes32",
          "name": "role",
          "type": "bytes32"
        },
        {
          "internalType": "address",
          "name": "account",
          "type": "address"
        }
      ],
      "name": "revokeRole",
      "outputs": [],
      "stateMutability": "nonpayable",
      "type": "function"
    },
    {
      "inputs": [
        {
          "internalType": "string",
          "name": "streamId",
          "type": "string"
        },
        {
          "internalType": "address",
          "name": "user",
          "type": "address"
        },
        {
          "internalType": "enum StreamRegistry.PermissionType",
          "name": "permissionType",
          "type": "uint8"
        },
        {
          "internalType": "uint256",
          "name": "expirationTime",
          "type": "uint256"
        }
      ],
      "name": "setExpirationTime",
      "outputs": [],
      "stateMutability": "nonpayable",
      "type": "function"
    },
    {
      "inputs": [
        {
          "internalType": "string",
          "name": "streamId",
          "type": "string"
        },
        {
          "internalType": "address[]",
          "name": "users",
          "type": "address[]"
        },
        {
          "components": [
            {
              "internalType": "bool",
              "name": "canEdit",
              "type": "bool"
            },
            {
              "internalType": "bool",
              "name": "canDelete",
              "type": "bool"
            },
            {
              "internalType": "uint256",
              "name": "publishExpiration",
              "type": "uint256"
            },
            {
              "internalType": "uint256",
              "name": "subscribeExpiration",
              "type": "uint256"
            },
            {
              "internalType": "bool",
              "name": "canGrant",
              "type": "bool"
            }
          ],
          "internalType": "struct StreamRegistry.Permission[]",
          "name": "permissions",
          "type": "tuple[]"
        }
      ],
      "name": "setPermissions",
      "outputs": [],
      "stateMutability": "nonpayable",
      "type": "function"
    },
    {
      "inputs": [
        {
          "internalType": "string",
          "name": "streamId",
          "type": "string"
        },
        {
          "internalType": "address",
          "name": "user",
          "type": "address"
        },
        {
          "internalType": "bool",
          "name": "canEdit",
          "type": "bool"
        },
        {
          "internalType": "bool",
          "name": "deletePerm",
          "type": "bool"
        },
        {
          "internalType": "uint256",
          "name": "publishExpiration",
          "type": "uint256"
        },
        {
          "internalType": "uint256",
          "name": "subscribeExpiration",
          "type": "uint256"
        },
        {
          "internalType": "bool",
          "name": "canGrant",
          "type": "bool"
        }
      ],
      "name": "setPermissionsForUser",
      "outputs": [],
      "stateMutability": "nonpayable",
      "type": "function"
    },
    {
      "inputs": [
        {
          "internalType": "string",
          "name": "streamId",
          "type": "string"
        },
        {
          "internalType": "uint256",
          "name": "publishExpiration",
          "type": "uint256"
        },
        {
          "internalType": "uint256",
          "name": "subscribeExpiration",
          "type": "uint256"
        }
      ],
      "name": "setPublicPermission",
      "outputs": [],
      "stateMutability": "nonpayable",
      "type": "function"
    },
    {
      "inputs": [
        {
          "internalType": "string",
          "name": "",
          "type": "string"
        }
      ],
      "name": "streamIdToMetadata",
      "outputs": [
        {
          "internalType": "string",
          "name": "",
          "type": "string"
        }
      ],
      "stateMutability": "view",
      "type": "function"
    },
    {
      "inputs": [
        {
          "internalType": "string",
          "name": "",
          "type": "string"
        },
        {
          "internalType": "bytes32",
          "name": "",
          "type": "bytes32"
        }
      ],
      "name": "streamIdToPermissions",
      "outputs": [
        {
          "internalType": "bool",
          "name": "canEdit",
          "type": "bool"
        },
        {
          "internalType": "bool",
          "name": "canDelete",
          "type": "bool"
        },
        {
          "internalType": "uint256",
          "name": "publishExpiration",
          "type": "uint256"
        },
        {
          "internalType": "uint256",
          "name": "subscribeExpiration",
          "type": "uint256"
        },
        {
          "internalType": "bool",
          "name": "canGrant",
          "type": "bool"
        }
      ],
      "stateMutability": "view",
      "type": "function"
    },
    {
      "inputs": [
        {
          "internalType": "bytes4",
          "name": "interfaceId",
          "type": "bytes4"
        }
      ],
      "name": "supportsInterface",
      "outputs": [
        {
          "internalType": "bool",
          "name": "",
          "type": "bool"
        }
      ],
      "stateMutability": "view",
      "type": "function"
    },
    {
      "inputs": [
        {
          "internalType": "string",
          "name": "ensName",
          "type": "string"
        },
        {
          "internalType": "string",
          "name": "streamIdPath",
          "type": "string"
        },
        {
          "internalType": "string",
          "name": "metadataJsonString",
          "type": "string"
        }
      ],
      "name": "syncEnsAndCreateStream",
      "outputs": [],
      "stateMutability": "nonpayable",
      "type": "function"
    },
    {
      "inputs": [
        {
          "internalType": "string",
          "name": "streamId",
          "type": "string"
        },
        {
          "internalType": "address",
          "name": "recipient",
          "type": "address"
        }
      ],
      "name": "transferAllPermissionsToUser",
      "outputs": [],
      "stateMutability": "nonpayable",
      "type": "function"
    },
    {
      "inputs": [
        {
          "internalType": "string",
          "name": "streamId",
          "type": "string"
        },
        {
          "internalType": "address",
          "name": "recipient",
          "type": "address"
        },
        {
          "internalType": "enum StreamRegistry.PermissionType",
          "name": "permissionType",
          "type": "uint8"
        }
      ],
      "name": "transferPermissionToUser",
      "outputs": [],
      "stateMutability": "nonpayable",
      "type": "function"
    },
    {
      "inputs": [
        {
          "internalType": "string",
          "name": "streamId",
          "type": "string"
        },
        {
          "internalType": "address",
          "name": "user",
          "type": "address"
        },
        {
          "internalType": "bool",
          "name": "canEdit",
          "type": "bool"
        },
        {
          "internalType": "bool",
          "name": "deletePerm",
          "type": "bool"
        },
        {
          "internalType": "uint256",
          "name": "publishExpiration",
          "type": "uint256"
        },
        {
          "internalType": "uint256",
          "name": "subscribeExpiration",
          "type": "uint256"
        },
        {
          "internalType": "bool",
          "name": "canGrant",
          "type": "bool"
        }
      ],
      "name": "trustedSetPermissionsForUser",
      "outputs": [],
      "stateMutability": "nonpayable",
      "type": "function"
    },
    {
      "inputs": [
        {
          "internalType": "string",
          "name": "streamId",
          "type": "string"
        },
        {
          "internalType": "string",
          "name": "metadata",
          "type": "string"
        }
      ],
      "name": "trustedSetStreamMetadata",
      "outputs": [],
      "stateMutability": "nonpayable",
      "type": "function"
    },
    {
      "inputs": [
        {
          "internalType": "string",
          "name": "streamId",
          "type": "string"
        },
        {
          "internalType": "string",
          "name": "metadata",
          "type": "string"
        },
        {
          "internalType": "address",
          "name": "user",
          "type": "address"
        },
        {
          "internalType": "bool",
          "name": "canEdit",
          "type": "bool"
        },
        {
          "internalType": "bool",
          "name": "deletePerm",
          "type": "bool"
        },
        {
          "internalType": "uint256",
          "name": "publishExpiration",
          "type": "uint256"
        },
        {
          "internalType": "uint256",
          "name": "subscribeExpiration",
          "type": "uint256"
        },
        {
          "internalType": "bool",
          "name": "canGrant",
          "type": "bool"
        }
      ],
      "name": "trustedSetStreamWithPermission",
      "outputs": [],
      "stateMutability": "nonpayable",
      "type": "function"
    },
    {
      "inputs": [
        {
          "internalType": "string[]",
          "name": "streamids",
          "type": "string[]"
        },
        {
          "internalType": "address[]",
          "name": "users",
          "type": "address[]"
        },
        {
          "internalType": "string[]",
          "name": "metadatas",
          "type": "string[]"
        },
        {
          "components": [
            {
              "internalType": "bool",
              "name": "canEdit",
              "type": "bool"
            },
            {
              "internalType": "bool",
              "name": "canDelete",
              "type": "bool"
            },
            {
              "internalType": "uint256",
              "name": "publishExpiration",
              "type": "uint256"
            },
            {
              "internalType": "uint256",
              "name": "subscribeExpiration",
              "type": "uint256"
            },
            {
              "internalType": "bool",
              "name": "canGrant",
              "type": "bool"
            }
          ],
          "internalType": "struct StreamRegistry.Permission[]",
          "name": "permissions",
          "type": "tuple[]"
        }
      ],
      "name": "trustedSetStreams",
      "outputs": [],
      "stateMutability": "nonpayable",
      "type": "function"
    },
    {
      "inputs": [
        {
          "internalType": "string",
          "name": "streamId",
          "type": "string"
        },
        {
          "internalType": "string",
          "name": "metadata",
          "type": "string"
        }
      ],
      "name": "updateStreamMetadata",
      "outputs": [],
      "stateMutability": "nonpayable",
      "type": "function"
    }
  ],
  "bytecode": "0x60806040523480156200001157600080fd5b50604051620044653803806200446583398101604081905262000034916200019f565b600080546001600160a01b038084166001600160a01b031992831617835560048054918616919092161790556200006c903362000074565b5050620001d7565b62000080828262000084565b5050565b60008281526001602090815260408083206001600160a01b038516845290915290205460ff16620000805760008281526001602081815260408084206001600160a01b0386168552909152909120805460ff19169091179055620000e76200012b565b6001600160a01b0316816001600160a01b0316837f2f8788117e7eff1d82e926ec794901d17c78024a50270940304540a733656f0d60405160405180910390a45050565b6000620001426200014760201b6200260a1760201c565b905090565b600080546001600160a01b031633141562000169575060131936013560601c90565b620001426200017e60201b620026311760201c565b3390565b80516001600160a01b03811681146200019a57600080fd5b919050565b60008060408385031215620001b357600080fd5b620001be8362000182565b9150620001ce6020840162000182565b90509250929050565b61427e80620001e76000396000f3fe608060405234801561001057600080fd5b50600436106101ee5760003560e01c806301ffc9a7146101f3578063022bf1d11461021b5780630843564a14610230578063098d32281461025157806309a7e6ef1461025a5780630ef8cdc71461026d578063237e03da14610280578063248a9ca314610293578063261a323e146102a6578063272cc993146102b95780632f2ff15d146102cc57806333fb4ac5146102df57806336568abe146102f25780633e397aea1461030557806342617fe714610318578063466f878e1461032b57806350b5422b1461033e57806356c022bb14610351578063572b6c051461037c5780635901692e1461038f5780635e57966d146103a45780636394fbd2146103c45780636453cbd7146103d75780636beff96d146103ea57806378800c76146103fd5780637b3681b5146104105780638635620c1461042357806386902fe91461043657806388b21038146104495780638a043af81461045c57806391d148541461046f578063997e8aaa14610482578063a020aa9714610495578063a217fddf146104f0578063a8989d3f146104f8578063b6a915971461050b578063d2d78c3e1461051e578063d547741f14610531578063e8f3828e14610544578063f36d484914610557578063f7f5078c146105e0578063fb5642a0146105f3575b600080fd5b610206610201366004613637565b610606565b60405190151581526020015b60405180910390f35b61022e610229366004613863565b61063d565b005b61024361023e366004613b8b565b610835565b604051908152602001610212565b61024360001981565b61022e61026836600461394f565b610893565b61022e61027b36600461394f565b610929565b61022e61028e3660046139ba565b61094c565b6102436102a13660046135ee565b6109f8565b6102066102b4366004613661565b610a0e565b61022e6102c73660046138fc565b610a45565b61022e6102da366004613607565b610aec565b61022e6102ed36600461352b565b610b15565b61022e610300366004613607565b610ce1565b61022e610313366004613791565b610d6f565b61022e61032636600461394f565b610e44565b61022e6103393660046138fc565b610f90565b61022e61034c3660046136a2565b611037565b600054610364906001600160a01b031681565b6040516001600160a01b039091168152602001610212565b61020661038a3660046134f1565b6111c8565b61024360008051602061422983398151915281565b6103b76103b23660046134f1565b6111dc565b6040516102129190613e8c565b6103b76103d2366004613661565b6113c7565b61022e6103e5366004613661565b6114a4565b61022e6103f83660046136a2565b6115f0565b61022e61040b366004613a80565b611866565b61022e61041e3660046137f6565b611990565b61022e610431366004613a80565b611bd2565b6103b7610444366004613b57565b611c39565b610206610457366004613791565b611cde565b61022e61046a366004613791565b611d0a565b61020661047d366004613607565b611d62565b61022e610490366004613791565b611d8d565b6104a86104a33660046136a2565b611e35565b6040516102129190600060a082019050825115158252602083015115156020830152604083015160408301526060830151606083015260808301511515608083015292915050565b610243600081565b61022e610506366004613b07565b611f2d565b61022e6105193660046136f8565b611fda565b61022e61052c3660046136f8565b61202a565b61022e61053f366004613607565b6120d4565b6104a86105523660046136a2565b6120f3565b6105b4610565366004613bd1565b815160208184018101805160028083529383019583019590952094905292909252600090815260409020805460018201549282015460039092015460ff80831694610100909304811693911685565b60408051951515865293151560208601529284019190915260608301521515608082015260a001610212565b6102066105ee366004613791565b6122f8565b6102066106013660046138fc565b6125fb565b60006001600160e01b03198216637965db0b60e01b148061063757506301ffc9a760e01b6001600160e01b03198316145b92915050565b858560028282604051610651929190613ce9565b908152602001604051809103902060006106a484848080601f01602080910402602001604051908101604052809392919081815260200183838082843760009201919091525061023e9250612635915050565b815260208101919091526040016000206003015460ff166106e05760405162461bcd60e51b81526004016106d790613fb6565b60405180910390fd5b84831461072f5760405162461bcd60e51b815260206004820152601e60248201527f6572726f725f696e76616c6964496e70757441727261794c656e67746873000060448201526064016106d7565b8460005b8181101561082957600086868381811061074f5761074f614187565b905060a002018036038101906107659190613c15565b90506107ae8b8b8b8b8681811061077e5761077e614187565b905060200201602081019061079391906134f1565b8451602086015160408701516060880151608089015161263f565b6000805160206141c98339815191528b8b8b8b868181106107d1576107d1614187565b90506020020160208101906107e691906134f1565b84516020860151604080880151606089015160808a0151925161080e98979695949390613dc0565b60405180910390a1508061082181614140565b915050610733565b50505050505050505050565b60006005836040516108479190613cf9565b9081526040805191829003602090810183205463ffffffff16908301526001600160a01b0384169082015260600160405160208183030381529060405280519060200120905092915050565b6108ad60008051602061422983398151915261047d612635565b6108c95760405162461bcd60e51b81526004016106d790613f53565b8181600386866040516108dd929190613ce9565b9081526040519081900360200190206108f792909161326d565b506000805160206142098339815191528484848460405161091b9493929190613e11565b60405180910390a150505050565b60006109366103b2612635565b905061094581868686866127a2565b5050505050565b61096660008051602061422983398151915261047d612635565b6109825760405162461bcd60e51b81526004016106d790613f53565b878760038c8c604051610996929190613ce9565b9081526040519081900360200190206109b092909161326d565b506109c18a8a88888888888861263f565b6000805160206142098339815191528a8a8a8a6040516109e49493929190613e11565b60405180910390a150505050505050505050565b6000908152600160208190526040909120015490565b600060038383604051610a22929190613ce9565b90815260200160405180910390208054610a3b90614105565b1515949350505050565b828260028282604051610a59929190613ce9565b90815260200160405180910390206000610aac84848080601f01602080910402602001604051908101604052809392919081815260200183838082843760009201919091525061023e9250612635915050565b815260208101919091526040016000206003015460ff16610adf5760405162461bcd60e51b81526004016106d790613fb6565b6109458585600086610d6f565b610af5826109f8565b610b0681610b01612635565b612b00565b610b108383612b64565b505050565b610b2f60008051602061422983398151915261047d612635565b610b4b5760405162461bcd60e51b81526004016106d790613f53565b8660005b81811015610829573660008b8b84818110610b6c57610b6c614187565b9050602002810190610b7e919061401d565b91509150878784818110610b9457610b94614187565b9050602002810190610ba6919061401d565b60038484604051610bb8929190613ce9565b908152604051908190036020019020610bd292909161326d565b506000868685818110610be757610be7614187565b905060a00201803603810190610bfd9190613c15565b9050610c1683838d8d8881811061077e5761077e614187565b6000805160206141e983398151915283838b8b88818110610c3957610c39614187565b9050602002810190610c4b919061401d565b604051610c5b9493929190613e11565b60405180910390a16000805160206141c983398151915283838d8d88818110610c8657610c86614187565b9050602002016020810190610c9b91906134f1565b84516020860151604080880151606089015160808a01519251610cc398979695949390613dc0565b60405180910390a15050508080610cd990614140565b915050610b4f565b610ce9612635565b6001600160a01b0316816001600160a01b031614610d615760405162461bcd60e51b815260206004820152602f60248201527f416363657373436f6e74726f6c3a2063616e206f6e6c792072656e6f756e636560448201526e103937b632b9903337b91039b2b63360891b60648201526084016106d7565b610d6b8282612bec565b5050565b83838360028383604051610d84929190613ce9565b90815260200160405180910390206000610dd785858080601f01602080910402602001604051908101604052809392919081815260200183838082843760009201919091525061023e9250612635915050565b815260208101919091526040016000206003015460ff1680610e115750806001600160a01b0316610e06612635565b6001600160a01b0316145b610e2d5760405162461bcd60e51b81526004016106d790613fb6565b610e3b878787876000612c71565b50505050505050565b8383610e508282610a0e565b610e6c5760405162461bcd60e51b81526004016106d790613f84565b858560028282604051610e80929190613ce9565b90815260200160405180910390206000610ed384848080601f01602080910402602001604051908101604052809392919081815260200183838082843760009201919091525061023e9250612635915050565b815260208101919091526040016000205460ff16610f2c5760405162461bcd60e51b815260206004820152601660248201527532b93937b92fb737a2b234ba2832b936b4b9b9b4b7b760511b60448201526064016106d7565b858560038a8a604051610f40929190613ce9565b908152604051908190036020019020610f5a92909161326d565b5060008051602061420983398151915288888888604051610f7e9493929190613e11565b60405180910390a15050505050505050565b828260028282604051610fa4929190613ce9565b90815260200160405180910390206000610ff784848080601f01602080910402602001604051908101604052809392919081815260200183838082843760009201919091525061023e9250612635915050565b815260208101919091526040016000206003015460ff1661102a5760405162461bcd60e51b81526004016106d790613fb6565b6109458585600086611d8d565b8282826002838360405161104c929190613ce9565b9081526020016040518091039020600061109f85858080601f01602080910402602001604051908101604052809392919081815260200183838082843760009201919091525061023e9250612635915050565b815260208101919091526040016000206003015460ff16806110d95750806001600160a01b03166110ce612635565b6001600160a01b0316145b6110f55760405162461bcd60e51b81526004016106d790613fb6565b60028686604051611107929190613ce9565b9081526020016040518091039020600061115888888080601f0160208091040260200160405190810160405280939291908181526020018383808284376000920191909152508a9250610835915050565b8152602081019190915260409081016000908120805461ffff191681556001810182905560028101829055600301805460ff1916905590516000805160206141c9833981519152916111b891899189918991908190819081908190613dc0565b60405180910390a1505050505050565b6000546001600160a01b0391821691161490565b604080518082018252601081526f181899199a1a9b1b9c1cb0b131b232b360811b60208201528151602a80825260608281019094526001600160a01b0385169291600091602082018180368337019050509050600360fc1b8160008151811061124757611247614187565b60200101906001600160f81b031916908160001a905350600f60fb1b8160018151811061127657611276614187565b60200101906001600160f81b031916908160001a90535060005b60148110156113be57826004856112a884600c614063565b602081106112b8576112b8614187565b1a60f81b6001600160f81b031916901c60f81c60ff16815181106112de576112de614187565b01602001516001600160f81b031916826112f98360026140a3565b611304906002614063565b8151811061131457611314614187565b60200101906001600160f81b031916908160001a905350828461133883600c614063565b6020811061134857611348614187565b825191901a600f1690811061135f5761135f614187565b01602001516001600160f81b0319168261137a8360026140a3565b611385906003614063565b8151811061139557611395614187565b60200101906001600160f81b031916908160001a905350806113b681614140565b915050611290565b50949350505050565b606082826113d58282610a0e565b6113f15760405162461bcd60e51b81526004016106d790613f84565b60038585604051611403929190613ce9565b9081526020016040518091039020805461141c90614105565b80601f016020809104026020016040519081016040528092919081815260200182805461144890614105565b80156114955780601f1061146a57610100808354040283529160200191611495565b820191906000526020600020905b81548152906001019060200180831161147857829003601f168201915b50505050509250505092915050565b81816114b08282610a0e565b6114cc5760405162461bcd60e51b81526004016106d790613f84565b8383600282826040516114e0929190613ce9565b9081526020016040518091039020600061153384848080601f01602080910402602001604051908101604052809392919081815260200183838082843760009201919091525061023e9250612635915050565b8152602081019190915260400160002054610100900460ff166115935760405162461bcd60e51b815260206004820152601860248201527732b93937b92fb737a232b632ba32a832b936b4b9b9b4b7b760411b60448201526064016106d7565b600386866040516115a5929190613ce9565b908152602001604051809103902060006115bf91906132f1565b7f74b7395f46349d84fba706c4d226c68bbf9206c2567ae3ec2a001b5a98128eae86866040516111b8929190613dac565b600060028484604051611604929190613ce9565b9081526020016040518091039020600061165786868080601f01602080910402602001604051908101604052809392919081815260200183838082843760009201919091525061023e9250612635915050565b81526020808201929092526040908101600020815160a081018352815460ff808216151580845261010090920481161515958301959095526001830154938201939093526002820154606082015260039091015490921615156080830152909150806116c4575080602001515b806116d3575060008160400151115b806116e2575060008160600151115b806116ee575080608001515b61170a5760405162461bcd60e51b81526004016106d790613fe7565b60006002858560405161171e929190613ce9565b9081526020016040518091039020600061176f87878080601f016020809104026020016040519081016040528093929190818152602001838380828437600092019190915250899250610835915050565b815260208082019290925260409081016000908120825160a081018452815460ff808216151583526101009091048116151595820195909552600182015481850181905260028301546060830152600390920154909416151560808501529185015192935091116117e45781604001516117ea565b82604001515b90506000826060015184606001511161180757826060015161180d565b83606001515b905061184c878787876000015180611823575086515b886020015180611834575087602001515b87878b608001518061184757508a608001515b61263f565b610e3b8787611859612635565b600080600080600061263f565b61186e612635565b60048054604051632b1fd99560e01b81526001600160a01b039384169390911691632b1fd995916118a3918b918b9101613dac565b60206040518083038186803b1580156118bb57600080fd5b505afa1580156118cf573d6000803e3d6000fd5b505050506040513d601f19601f820116820180604052508101906118f3919061350e565b6001600160a01b0316146119435760405162461bcd60e51b81526020600482015260176024820152766572726f725f6e6f744f776e65724f66454e534e616d6560481b60448201526064016106d7565b61198886868080601f016020809104026020016040519081016040528093929190818152602001838380828437600092019190915250889250879150869050856127a2565b505050505050565b8484600282826040516119a4929190613ce9565b908152602001604051809103902060006119f784848080601f01602080910402602001604051908101604052809392919081815260200183838082843760009201919091525061023e9250612635915050565b815260208101919091526040016000206003015460ff16611a2a5760405162461bcd60e51b81526004016106d790613fb6565b6003846004811115611a3e57611a3e614171565b1480611a5b57506002846004811115611a5957611a59614171565b145b611aa05760405162461bcd60e51b815260206004820152601660248201527532b93937b92fba34b6b2a7b7363ca7b1283ab129bab160511b60448201526064016106d7565b6002846004811115611ab457611ab4614171565b1415611b37578260028888604051611acd929190613ce9565b90815260200160405180910390206000611b1e8a8a8080601f0160208091040260200160405190810160405280939291908181526020018383808284376000920191909152508c9250610835915050565b8152602081019190915260400160002060010155610e3b565b6003846004811115611b4b57611b4b614171565b1415610e3b578260028888604051611b64929190613ce9565b90815260200160405180910390206000611bb58a8a8080601f0160208091040260200160405190810160405280939291908181526020018383808284376000920191909152508c9250610835915050565b815260208101919091526040016000206002015550505050505050565b60048054604051635244c7a360e01b81526001600160a01b0390911691635244c7a391611c0b918a918a918a918a918a918a9101613e43565b600060405180830381600087803b158015611c2557600080fd5b505af1158015610829573d6000803e3d6000fd5b805160208183018101805160038252928201919093012091528054611c5d90614105565b80601f0160208091040260200160405190810160405280929190818152602001828054611c8990614105565b8015611cd65780601f10611cab57610100808354040283529160200191611cd6565b820191906000526020600020905b815481529060010190602001808311611cb957829003601f168201915b505050505081565b6000611cec858585856122f8565b80611cff5750611cff85856000856122f8565b90505b949350505050565b611d1d8484611d17612635565b846122f8565b611d395760405162461bcd60e51b81526004016106d790613fe7565b611d4e8484611d46612635565b846000612c71565b611d5c848484846001612c71565b50505050565b60009182526001602090815260408084206001600160a01b0393909316845291905290205460ff1690565b838360028282604051611da1929190613ce9565b90815260200160405180910390206000611df484848080601f01602080910402602001604051908101604052809392919081815260200183838082843760009201919091525061023e9250612635915050565b815260208101919091526040016000206003015460ff16611e275760405162461bcd60e51b81526004016106d790613fb6565b611988868686866001612c71565b611e3d61332e565b8383611e498282610a0e565b611e655760405162461bcd60e51b81526004016106d790613f84565b60028686604051611e77929190613ce9565b90815260200160405180910390206000611ec888888080601f0160208091040260200160405190810160405280939291908181526020018383808284376000920191909152508a9250610835915050565b81526020808201929092526040908101600020815160a081018352815460ff8082161515835261010090910481161515948201949094526001820154928101929092526002810154606083015260030154909116151560808201529695505050505050565b838360028282604051611f41929190613ce9565b90815260200160405180910390206000611f9484848080601f01602080910402602001604051908101604052809392919081815260200183838082843760009201919091525061023e9250612635915050565b815260208101919091526040016000206003015460ff16611fc75760405162461bcd60e51b81526004016106d790613fb6565b611988868660008060008989600061202a565b611ff460008051602061422983398151915261047d612635565b6120105760405162461bcd60e51b81526004016106d790613f53565b612020888888888888888861263f565b5050505050505050565b87876002828260405161203e929190613ce9565b9081526020016040518091039020600061209184848080601f01602080910402602001604051908101604052809392919081815260200183838082843760009201919091525061023e9250612635915050565b815260208101919091526040016000206003015460ff166120c45760405162461bcd60e51b81526004016106d790613fb6565b6108298a8a8a8a8a8a8a8a61263f565b6120dd826109f8565b6120e981610b01612635565b610b108383612bec565b6120fb61332e565b83836121078282610a0e565b6121235760405162461bcd60e51b81526004016106d790613f84565b60028686604051612135929190613ce9565b9081526020016040518091039020600061218688888080601f0160208091040260200160405190810160405280939291908181526020018383808284376000920191909152508a9250610835915050565b815260208082019290925260409081016000908120825160a081018452815460ff8082161515835261010090910481161515958201959095526001820154818501526002808301546060830152600390920154909416151560808501529151929550916121f69089908990613ce9565b9081526020016040518091039020600061224589898080601f01602080910402602001604051908101604052809392919081815260200183838082843760009201829052509250610835915050565b81526020808201929092526040908101600020815160a081018352815460ff8082161515835261010090910481161515948201949094526001820154818401526002820154606082015260039091015490921615156080830152850151909150421180156122b7575042816040015110155b156122c757604080820151908501525b4284606001511080156122de575042816060015110155b156122ee57606080820151908501525b5050509392505050565b60008082600481111561230d5761230d614171565b14156123915760028585604051612325929190613ce9565b9081526020016040518091039020600061237687878080601f016020809104026020016040519081016040528093929190818152602001838380828437600092019190915250899250610835915050565b815260208101919091526040016000205460ff169050611d02565b60018260048111156123a5576123a5614171565b141561242e57600285856040516123bd929190613ce9565b9081526020016040518091039020600061240e87878080601f016020809104026020016040519081016040528093929190818152602001838380828437600092019190915250899250610835915050565b8152602081019190915260400160002054610100900460ff169050611d02565b600282600481111561244257612442614171565b14156124c757426002868660405161245b929190613ce9565b908152602001604051809103902060006124ac88888080601f0160208091040260200160405190810160405280939291908181526020018383808284376000920191909152508a9250610835915050565b81526020019081526020016000206001015410159050611d02565b60038260048111156124db576124db614171565b14156125605742600286866040516124f4929190613ce9565b9081526020016040518091039020600061254588888080601f0160208091040260200160405190810160405280939291908181526020018383808284376000920191909152508a9250610835915050565b81526020019081526020016000206002015410159050611d02565b600482600481111561257457612574614171565b1415611d02576002858560405161258c929190613ce9565b908152602001604051809103902060006125dd87878080601f016020809104026020016040519081016040528093929190818152602001838380828437600092019190915250899250610835915050565b815260208101919091526040016000206003015460ff169050611d02565b6000611d0284846000856122f8565b6000612615336111c8565b15612627575060131936013560601c90565b503390565b905090565b3390565b600061262c61260a565b6001600160a01b0386161515806126645750848061265a5750835b806126625750805b155b6126805760405162461bcd60e51b81526004016106d790613f1e565b6040518060a0016040528086151581526020018515158152602001848152602001838152602001821515815250600289896040516126bf929190613ce9565b908152602001604051809103902060006127108b8b8080601f0160208091040260200160405190810160405280939291908181526020018383808284376000920191909152508d9250610835915050565b81526020808201929092526040908101600020835181549385015161ffff1990941690151561ff0019161761010093151593909302929092178255828101516001830155606083015160028301556080909201516003909101805460ff1916911515919091179055516000805160206141c983398151915290610f7e908a908a908a908a908a908a908a908a90613dc0565b806127ef5760405162461bcd60e51b815260206004820152601f60248201527f6572726f725f6d657461646174614a736f6e537472696e674973456d7074790060448201526064016106d7565b600084848080601f0160208091040260200160405190810160405280939291908181526020018383808284376000920182905250845194955085949093501515915061283f90505761283f614187565b6020910101516001600160f81b031916602f60f81b146128a05760405162461bcd60e51b815260206004820152601c60248201527b0cae4e4dee4bee0c2e8d09aeae6e8a6e8c2e4e8aed2e8d0a6d8c2e6d60231b60448201526064016106d7565b60008686866040516020016128b793929190613d15565b60405160208183030381529060405290506003816040516128d89190613cf9565b908152602001604051809103902080546128f190614105565b15905061293c5760405162461bcd60e51b81526020600482015260196024820152786572726f725f73747265616d416c726561647945786973747360381b60448201526064016106d7565b60058160405161294c9190613cf9565b9081526040519081900360200190205461296d9063ffffffff16600161407b565b60058260405161297d9190613cf9565b908152602001604051809103902060006101000a81548163ffffffff021916908363ffffffff16021790555083836003836040516129bb9190613cf9565b9081526040519081900360200190206129d592909161326d565b506040805160a081018252600180825260208201819052600019828401819052606083015260808201529051600290612a0f908490613cf9565b90815260200160405180910390206000612a2b8461023e612635565b81526020808201929092526040908101600020835181549385015161ffff1990941690151561ff0019161761010093151593909302929092178255828101516001830155606083015160028301556080909201516003909101805460ff1916911515919091179055516000805160206141e983398151915290612ab390839087908790613eee565b60405180910390a16000805160206141c983398151915281612ad3612635565b600180600019806001604051612aef9796959493929190613e9f565b60405180910390a150505050505050565b612b0a8282611d62565b610d6b57612b22816001600160a01b031660146130cb565b612b2d8360206130cb565b604051602001612b3e929190613d3d565b60408051601f198184030181529082905262461bcd60e51b82526106d791600401613e8c565b612b6e8282611d62565b610d6b5760008281526001602081815260408084206001600160a01b0386168552909152909120805460ff19169091179055612ba8612635565b6001600160a01b0316816001600160a01b0316837f2f8788117e7eff1d82e926ec794901d17c78024a50270940304540a733656f0d60405160405180910390a45050565b612bf68282611d62565b15610d6b5760008281526001602090815260408083206001600160a01b03851684529091529020805460ff19169055612c2d612635565b6001600160a01b0316816001600160a01b0316837ff6391f5c32d9c69d2a47ea670b442974b53935d1edc7fd64eb21e047a839171b60405160405180910390a45050565b6001600160a01b038316151580612c9957506003826004811115612c9757612c97614171565b145b80612cb557506002826004811115612cb357612cb3614171565b145b612cd15760405162461bcd60e51b81526004016106d790613f1e565b6000826004811115612ce557612ce5614171565b1415612d73578060028686604051612cfe929190613ce9565b90815260200160405180910390206000612d4f88888080601f0160208091040260200160405190810160405280939291908181526020018383808284376000920191909152508a9250610835915050565b81526020810191909152604001600020805460ff1916911515919091179055613009565b6001826004811115612d8757612d87614171565b1415612e1c578060028686604051612da0929190613ce9565b90815260200160405180910390206000612df188888080601f0160208091040260200160405190810160405280939291908181526020018383808284376000920191909152508a9250610835915050565b8152602081019190915260400160002080549115156101000261ff0019909216919091179055613009565b6002826004811115612e3057612e30614171565b1415612ec25780612e42576000612e46565b6000195b60028686604051612e58929190613ce9565b90815260200160405180910390206000612ea988888080601f0160208091040260200160405190810160405280939291908181526020018383808284376000920191909152508a9250610835915050565b8152602081019190915260400160002060010155613009565b6003826004811115612ed657612ed6614171565b1415612f685780612ee8576000612eec565b6000195b60028686604051612efe929190613ce9565b90815260200160405180910390206000612f4f88888080601f0160208091040260200160405190810160405280939291908181526020018383808284376000920191909152508a9250610835915050565b8152602081019190915260400160002060020155613009565b6004826004811115612f7c57612f7c614171565b1415613009578060028686604051612f95929190613ce9565b90815260200160405180910390206000612fe688888080601f0160208091040260200160405190810160405280939291908181526020018383808284376000920191909152508a9250610835915050565b81526020810191909152604001600020600301805460ff19169115159190911790555b60006002868660405161301d929190613ce9565b9081526020016040518091039020600061306e88888080601f0160208091040260200160405190810160405280939291908181526020018383808284376000920191909152508a9250610835915050565b815260208101919091526040908101600020805460018201546002830154600384015494519395506000805160206141c9833981519152946111b8948c948c948c9460ff8084169561010090940481169492939192911690613dc0565b606060006130da8360026140a3565b6130e5906002614063565b6001600160401b038111156130fc576130fc61419d565b6040519080825280601f01601f191660200182016040528015613126576020820181803683370190505b509050600360fc1b8160008151811061314157613141614187565b60200101906001600160f81b031916908160001a905350600f60fb1b8160018151811061317057613170614187565b60200101906001600160f81b031916908160001a90535060006131948460026140a3565b61319f906001614063565b90505b6001811115613217576f181899199a1a9b1b9c1cb0b131b232b360811b85600f16601081106131d3576131d3614187565b1a60f81b8282815181106131e9576131e9614187565b60200101906001600160f81b031916908160001a90535060049490941c93613210816140ee565b90506131a2565b5083156132665760405162461bcd60e51b815260206004820181905260248201527f537472696e67733a20686578206c656e67746820696e73756666696369656e7460448201526064016106d7565b9392505050565b82805461327990614105565b90600052602060002090601f01602090048101928261329b57600085556132e1565b82601f106132b45782800160ff198235161785556132e1565b828001600101855582156132e1579182015b828111156132e15782358255916020019190600101906132c6565b506132ed92915061335c565b5090565b5080546132fd90614105565b6000825580601f1061330d575050565b601f01602090049060005260206000209081019061332b919061335c565b50565b6040805160a08101825260008082526020820181905291810182905260608101829052608081019190915290565b5b808211156132ed576000815560010161335d565b60008083601f84011261338357600080fd5b5081356001600160401b0381111561339a57600080fd5b6020830191508360208260051b85010111156133b557600080fd5b9250929050565b60008083601f8401126133ce57600080fd5b5081356001600160401b038111156133e557600080fd5b60208301915083602060a0830285010111156133b557600080fd5b8035801515811461341057600080fd5b919050565b80356005811061341057600080fd5b60008083601f84011261343657600080fd5b5081356001600160401b0381111561344d57600080fd5b6020830191508360208285010111156133b557600080fd5b600082601f83011261347657600080fd5b81356001600160401b03808211156134905761349061419d565b604051601f8301601f19908116603f011681019082821181831017156134b8576134b861419d565b816040528381528660208588010111156134d157600080fd5b836020870160208301376000602085830101528094505050505092915050565b60006020828403121561350357600080fd5b8135613266816141b3565b60006020828403121561352057600080fd5b8151613266816141b3565b6000806000806000806000806080898b03121561354757600080fd5b88356001600160401b038082111561355e57600080fd5b61356a8c838d01613371565b909a50985060208b013591508082111561358357600080fd5b61358f8c838d01613371565b909850965060408b01359150808211156135a857600080fd5b6135b48c838d01613371565b909650945060608b01359150808211156135cd57600080fd5b506135da8b828c016133bc565b999c989b5096995094979396929594505050565b60006020828403121561360057600080fd5b5035919050565b6000806040838503121561361a57600080fd5b82359150602083013561362c816141b3565b809150509250929050565b60006020828403121561364957600080fd5b81356001600160e01b03198116811461326657600080fd5b6000806020838503121561367457600080fd5b82356001600160401b0381111561368a57600080fd5b61369685828601613424565b90969095509350505050565b6000806000604084860312156136b757600080fd5b83356001600160401b038111156136cd57600080fd5b6136d986828701613424565b90945092505060208401356136ed816141b3565b809150509250925092565b60008060008060008060008060e0898b03121561371457600080fd5b88356001600160401b0381111561372a57600080fd5b6137368b828c01613424565b909950975050602089013561374a816141b3565b955061375860408a01613400565b945061376660608a01613400565b93506080890135925060a0890135915061378260c08a01613400565b90509295985092959890939650565b600080600080606085870312156137a757600080fd5b84356001600160401b038111156137bd57600080fd5b6137c987828801613424565b90955093505060208501356137dd816141b3565b91506137eb60408601613415565b905092959194509250565b60008060008060006080868803121561380e57600080fd5b85356001600160401b0381111561382457600080fd5b61383088828901613424565b9096509450506020860135613844816141b3565b925061385260408701613415565b949793965091946060013592915050565b6000806000806000806060878903121561387c57600080fd5b86356001600160401b038082111561389357600080fd5b61389f8a838b01613424565b909850965060208901359150808211156138b857600080fd5b6138c48a838b01613371565b909650945060408901359150808211156138dd57600080fd5b506138ea89828a016133bc565b979a9699509497509295939492505050565b60008060006040848603121561391157600080fd5b83356001600160401b0381111561392757600080fd5b61393386828701613424565b9094509250613946905060208501613415565b90509250925092565b6000806000806040858703121561396557600080fd5b84356001600160401b038082111561397c57600080fd5b61398888838901613424565b909650945060208701359150808211156139a157600080fd5b506139ae87828801613424565b95989497509550505050565b6000806000806000806000806000806101008b8d0312156139da57600080fd5b8a356001600160401b03808211156139f157600080fd5b6139fd8e838f01613424565b909c509a5060208d0135915080821115613a1657600080fd5b50613a238d828e01613424565b90995097505060408b0135613a37816141b3565b9550613a4560608c01613400565b9450613a5360808c01613400565b935060a08b0135925060c08b01359150613a6f60e08c01613400565b90509295989b9194979a5092959850565b60008060008060008060608789031215613a9957600080fd5b86356001600160401b0380821115613ab057600080fd5b613abc8a838b01613424565b90985096506020890135915080821115613ad557600080fd5b613ae18a838b01613424565b90965094506040890135915080821115613afa57600080fd5b506138ea89828a01613424565b60008060008060608587031215613b1d57600080fd5b84356001600160401b03811115613b3357600080fd5b613b3f87828801613424565b90989097506020870135966040013595509350505050565b600060208284031215613b6957600080fd5b81356001600160401b03811115613b7f57600080fd5b611d0284828501613465565b60008060408385031215613b9e57600080fd5b82356001600160401b03811115613bb457600080fd5b613bc085828601613465565b925050602083013561362c816141b3565b60008060408385031215613be457600080fd5b82356001600160401b03811115613bfa57600080fd5b613c0685828601613465565b95602094909401359450505050565b600060a08284031215613c2757600080fd5b60405160a081016001600160401b0381118282101715613c4957613c4961419d565b604052613c5583613400565b8152613c6360208401613400565b60208201526040830135604082015260608301356060820152613c8860808401613400565b60808201529392505050565b81835281816020850137506000828201602090810191909152601f909101601f19169091010190565b60008151808452613cd58160208601602086016140c2565b601f01601f19169290920160200192915050565b8183823760009101908152919050565b60008251613d0b8184602087016140c2565b9190910192915050565b60008451613d278184602089016140c2565b8201838582376000930192835250909392505050565b76020b1b1b2b9b9a1b7b73a3937b61d1030b1b1b7bab73a1604d1b815260008351613d6f8160178501602088016140c2565b7001034b99036b4b9b9b4b733903937b6329607d1b6017918401918201528351613da08160288401602088016140c2565b01602801949350505050565b602081526000611d02602083018486613c94565b60e081526000613dd460e083018a8c613c94565b6001600160a01b039890981660208301525094151560408601529215156060850152608084019190915260a0830152151560c09091015292915050565b604081526000613e25604083018688613c94565b8281036020840152613e38818587613c94565b979650505050505050565b606081526000613e5760608301888a613c94565b8281036020840152613e6a818789613c94565b90508281036040840152613e7f818587613c94565b9998505050505050505050565b6020815260006132666020830184613cbd565b60e081526000613eb260e083018a613cbd565b6001600160a01b039890981660208301525094151560408601529215156060850152608084019190915260a0830152151560c090910152919050565b604081526000613f016040830186613cbd565b8281036020840152613f14818587613c94565b9695505050505050565b6020808252601b908201527a195c9c9bdc97dc1d589b1a58d0d85b93db9b1e54dd589cd41d589b602a1b604082015260600190565b6020808252601790820152766572726f725f6d757374426554727573746564526f6c6560481b604082015260600190565b602080825260189082015277195c9c9bdc97dcdd1c99585b511bd95cd39bdd115e1a5cdd60421b604082015260600190565b60208082526017908201527632b93937b92fb737a9b430b932a832b936b4b9b9b4b7b760491b604082015260600190565b6020808252601c908201527b32b93937b92fb737a832b936b4b9b9b4b7b72a37aa3930b739b332b960211b604082015260600190565b6000808335601e1984360301811261403457600080fd5b8301803591506001600160401b0382111561404e57600080fd5b6020019150368190038213156133b557600080fd5b600082198211156140765761407661415b565b500190565b600063ffffffff80831681851680830382111561409a5761409a61415b565b01949350505050565b60008160001904831182151516156140bd576140bd61415b565b500290565b60005b838110156140dd5781810151838201526020016140c5565b83811115611d5c5750506000910152565b6000816140fd576140fd61415b565b506000190190565b600181811c9082168061411957607f821691505b6020821081141561413a57634e487b7160e01b600052602260045260246000fd5b50919050565b60006000198214156141545761415461415b565b5060010190565b634e487b7160e01b600052601160045260246000fd5b634e487b7160e01b600052602160045260246000fd5b634e487b7160e01b600052603260045260246000fd5b634e487b7160e01b600052604160045260246000fd5b6001600160a01b038116811461332b57600080fdfed22d58032f55c61c3896b3f67eb399b25071b61e122a23d4cd06bc87d4b7b8c10db027888a30ca08149af1347f6ce2f48daffedd9d6d21ab6249c4d802ce592fa60b7935888a7ab31214282090f1ab7207ab6d7abbf3c11080b75ce91d9a36d02de84d9fbdf6d06e2cc584295043dbd76046423b9f8bae9426d4fa5e7c03f4a7a2646970667358221220d10fdd9f640955a3c54a75e732da2bbf7dc03f7514b8333ea9750f75e852156264736f6c63430008060033",
  "linkReferences": {},
  "deployedLinkReferences": {}
}