{
  "contractName": "DataUnionFactoryMainnet",
  "abi": [
    {
      "inputs": [
        {
          "internalType": "address",
          "name": "_token_mediator",
          "type": "address"
        },
        {
          "internalType": "address",
          "name": "_data_union_mainnet_template",
          "type": "address"
        },
        {
          "internalType": "address",
          "name": "_data_union_sidechain_template",
          "type": "address"
        },
        {
          "internalType": "address",
          "name": "_data_union_sidechain_factory",
          "type": "address"
        },
        {
          "internalType": "uint256",
          "name": "_sidechain_maxgas",
          "type": "uint256"
        }
      ],
      "stateMutability": "nonpayable",
      "type": "constructor"
    },
    {
      "anonymous": false,
      "inputs": [
        {
          "indexed": true,
          "internalType": "address",
          "name": "mainnet",
          "type": "address"
        },
        {
          "indexed": true,
          "internalType": "address",
          "name": "sidechain",
          "type": "address"
        },
        {
          "indexed": true,
          "internalType": "address",
          "name": "owner",
          "type": "address"
        },
        {
          "indexed": false,
          "internalType": "address",
          "name": "template",
          "type": "address"
        }
      ],
      "name": "MainnetDUCreated",
      "type": "event"
    },
    {
      "inputs": [],
      "name": "amb",
      "outputs": [
        {
          "internalType": "contract IAMB",
          "name": "",
          "type": "address"
        }
      ],
      "stateMutability": "view",
      "type": "function"
    },
    {
      "inputs": [],
      "name": "data_union_mainnet_template",
      "outputs": [
        {
          "internalType": "address",
          "name": "",
          "type": "address"
        }
      ],
      "stateMutability": "view",
      "type": "function"
    },
    {
      "inputs": [],
      "name": "data_union_sidechain_factory",
      "outputs": [
        {
          "internalType": "address",
          "name": "",
          "type": "address"
        }
      ],
      "stateMutability": "view",
      "type": "function"
    },
    {
      "inputs": [],
      "name": "data_union_sidechain_template",
      "outputs": [
        {
          "internalType": "address",
          "name": "",
          "type": "address"
        }
      ],
      "stateMutability": "view",
      "type": "function"
    },
    {
      "inputs": [],
      "name": "sidechain_maxgas",
      "outputs": [
        {
          "internalType": "uint256",
          "name": "",
          "type": "uint256"
        }
      ],
      "stateMutability": "view",
      "type": "function"
    },
    {
      "inputs": [],
      "name": "token_mediator",
      "outputs": [
        {
          "internalType": "contract ITokenMediator",
          "name": "",
          "type": "address"
        }
      ],
      "stateMutability": "view",
      "type": "function"
    },
    {
      "inputs": [
        {
          "internalType": "address",
          "name": "mainet_address",
          "type": "address"
        }
      ],
      "name": "sidechainAddress",
      "outputs": [
        {
          "internalType": "address",
          "name": "proxy",
          "type": "address"
        }
      ],
      "stateMutability": "view",
      "type": "function"
    },
    {
      "inputs": [
        {
          "internalType": "address",
          "name": "owner",
          "type": "address"
        },
        {
          "internalType": "uint256",
          "name": "adminFeeFraction",
          "type": "uint256"
        },
        {
          "internalType": "address[]",
          "name": "agents",
          "type": "address[]"
        }
      ],
      "name": "deployNewDUMainnet",
      "outputs": [
        {
          "internalType": "address",
          "name": "",
          "type": "address"
        }
      ],
      "stateMutability": "nonpayable",
      "type": "function"
    }
  ],
  "bytecode": "0x608060405234801561001057600080fd5b50604051610711380380610711833981810160405260a081101561003357600080fd5b5080516020808301516040808501516060860151608090960151600580546001600160a01b03199081166001600160a01b03808a16919091179283905560008054831682891617905560018054831682871617905560028054909216818b1617909155845163cd59658360e01b81529451979895979396929491169263cd59658392600483810193919291829003018186803b1580156100d257600080fd5b505afa1580156100e6573d6000803e3d6000fd5b505050506040513d60208110156100fc57600080fd5b5051600480546001600160a01b039092166001600160a01b0319909216919091179055600355505050506105dc806101356000396000f3fe608060405234801561001057600080fd5b50600436106100885760003560e01c8063692199d41161005b578063692199d4146100e7578063c5a8c91f14610101578063d96346e614610109578063e4a154a4146101c157610088565b8063015a0da01461008d5780631062b39a146100b157806317c2a98c146100b957806335813bc1146100df575b600080fd5b6100956101c9565b604080516001600160a01b039092168252519081900360200190f35b6100956101d8565b610095600480360360208110156100cf57600080fd5b50356001600160a01b03166101e7565b610095610220565b6100ef61022f565b60408051918252519081900360200190f35b610095610235565b6100956004803603606081101561011f57600080fd5b6001600160a01b038235169160208101359181019060608101604082013564010000000081111561014f57600080fd5b82018360208201111561016157600080fd5b8035906020019184602083028401116401000000008311171561018357600080fd5b919080806020026020016040519081016040528093929190818152602001838360200280828437600092019190915250929550610244945050505050565b610095610409565b6000546001600160a01b031681565b6004546001600160a01b031681565b60015460025460009161021a916001600160a01b0391821691166bffffffffffffffffffffffff19606086901b16610418565b92915050565b6002546001600160a01b031681565b60035481565b6005546001600160a01b031681565b60006060600560009054906101000a90046001600160a01b0316600260009054906101000a90046001600160a01b0316600354600160009054906101000a90046001600160a01b031688888860405160240180886001600160a01b03166001600160a01b03168152602001876001600160a01b03166001600160a01b03168152602001868152602001856001600160a01b03166001600160a01b03168152602001846001600160a01b03166001600160a01b0316815260200183815260200180602001828103825283818151815260200191508051906020019060200280838360005b8381101561033f578181015183820152602001610327565b50506040805193909501838103601f190184529094525060208101805163f658af4560e01b6001600160e01b0390911617905260008054919d509b506103a39a5061039d99506001600160a01b031697506104849650505050505050565b836104d6565b9050856001600160a01b03166103b8826101e7565b600054604080516001600160a01b039283168152905192821692918516917f7bb36c64b37ae129eda8a24fd78defec04cc7a06bb27863c5a4571dd5d70acee9181900360200190a495945050505050565b6001546001600160a01b031681565b60008061042485610484565b8051602091820120604080516001600160f81b0319818501526bffffffffffffffffffffffff19606089901b1660218201526035810187905260558082019390935281518082039093018352607501905280519101209150509392505050565b604080516057810190915260378152733d602d80600a3d3981f3363d3d373d3d3d363d7360601b602082015260609190911b60348201526e5af43d82803e903d91602b57fd5bf360881b604882015290565b8151600090806020850183f083519092501561059f576000826001600160a01b0316846040518082805190602001908083835b602083106105285780518252601f199092019160209182019101610509565b6001836020036101000a0380198251168184511680821785525050505050509050019150506000604051808303816000865af19150503d806000811461058a576040519150601f19603f3d011682016040523d82523d6000602084013e61058f565b606091505b505090508061059d57600080fd5b505b509291505056fea26469706673582212200973e0b1105f7b2ffaf34faca1bd1e0e9f063f47eb9a0beb937c29ad81f0cea464736f6c63430006060033",
  "immutableReferences": {},
  "source": "pragma solidity ^0.6.0;\n\nimport \"openzeppelin-solidity/contracts/token/ERC20/IERC20.sol\";\nimport \"openzeppelin-solidity/contracts/math/SafeMath.sol\";\nimport \"./Ownable.sol\";\nimport \"./CloneLib.sol\";\n\ninterface IAMB {\n    function messageSender() external view returns (address);\n\n    function maxGasPerTx() external view returns (uint256);\n\n    function transactionHash() external view returns (bytes32);\n\n    function messageId() external view returns (bytes32);\n\n    function messageSourceChainId() external view returns (bytes32);\n\n    function messageCallStatus(bytes32 _messageId) external view returns (bool);\n\n    function failedMessageDataHash(bytes32 _messageId)\n        external\n        view\n        returns (bytes32);\n\n    function failedMessageReceiver(bytes32 _messageId)\n        external\n        view\n        returns (address);\n\n    function failedMessageSender(bytes32 _messageId)\n        external\n        view\n        returns (address);\n\n    function requireToPassMessage(\n        address _contract,\n        bytes calldata _data,\n        uint256 _gas\n    ) external returns (bytes32);\n}\n\ninterface ITokenMediator {\n    function erc677token() external view returns (address);\n    function bridgeContract() external view returns (address);\n    function relayTokens(address _from, address _receiver, uint256 _value) external;\n}\n\ninterface IDataUnionMainnet {\n        function sidechainAddress() external view returns (address proxy);\n}\n\n\ncontract DataUnionFactoryMainnet {\n    event MainnetDUCreated(address indexed mainnet, address indexed sidechain, address indexed owner, address template);\n\n    address public data_union_mainnet_template;\n\n    //needed to calculate address of sidechain contract\n    address public data_union_sidechain_template;\n    address public data_union_sidechain_factory;\n    uint256 public sidechain_maxgas;\n    IAMB public amb;\n    ITokenMediator public token_mediator;\n\n    constructor( address _token_mediator, \n                address _data_union_mainnet_template,\n                address _data_union_sidechain_template,\n                address _data_union_sidechain_factory,\n                uint256 _sidechain_maxgas) public {\n        token_mediator = ITokenMediator(_token_mediator);\n        data_union_mainnet_template = _data_union_mainnet_template;\n        data_union_sidechain_template = _data_union_sidechain_template;\n        data_union_sidechain_factory = _data_union_sidechain_factory;\n        amb = IAMB(token_mediator.bridgeContract());\n        sidechain_maxgas = _sidechain_maxgas;\n    }\n\n    function sidechainAddress(address mainet_address)\n        public view\n        returns (address proxy)\n    {\n        return CloneLib.predictCloneAddressCreate2(\n            data_union_sidechain_template,\n            data_union_sidechain_factory,\n            bytes32(bytes20(mainet_address)));\n    }\n\n/*\n    function initialize(\n        address _token_mediator,\n        address _sidechain_DU_factory,\n        uint256 _sidechain_maxgas,\n        address _sidechain_template_DU,\n        address _owner,\n        uint256 adminFeeFraction,\n        address[] memory agents\n    )  public {\n    users can only deploy with salt = their key.\n*/\n    function deployNewDUMainnet(address owner, uint256 adminFeeFraction, address[] memory agents) public returns (address) {\n        bytes memory data = abi.encodeWithSignature(\"initialize(address,address,uint256,address,address,uint256,address[])\",\n            token_mediator,\n            data_union_sidechain_factory,\n            sidechain_maxgas,\n            data_union_sidechain_template,\n            owner,\n            adminFeeFraction,\n            agents\n        );\n        address du = CloneLib.deployCodeAndInitUsingCreate(CloneLib.cloneBytecode(data_union_mainnet_template), data);\n        emit MainnetDUCreated(du, sidechainAddress(du), owner, data_union_mainnet_template);\n        return du;\n    }\n}\n",
  "sourcePath": "/home/heynow/streamr/data-union-solidity/contracts/DataUnionFactoryMainnet.sol",
  "compiler": {
    "name": "solc",
    "version": "0.6.6+commit.6c089d02.Emscripten.clang"
  },
  "schemaVersion": "3.2.0",
  "updatedAt": "2020-07-06T16:48:16.054Z",
  "devdoc": {
    "methods": {}
  },
  "userdoc": {
    "methods": {}
  }
}