{
  "contractName": "HomeMultiAMBErc20ToErc677",
  "abi": [
    {
      "constant": false,
      "inputs": [
        {
          "name": "token",
          "type": "address"
        },
        {
          "name": "_value",
          "type": "uint256"
        }
      ],
      "name": "relayTokens",
      "outputs": [],
      "payable": false,
      "stateMutability": "nonpayable",
      "type": "function"
    },
    {
      "constant": false,
      "inputs": [
        {
          "name": "_token",
          "type": "address"
        },
        {
          "name": "_maxPerTx",
          "type": "uint256"
        }
      ],
      "name": "setExecutionMaxPerTx",
      "outputs": [],
      "payable": false,
      "stateMutability": "nonpayable",
      "type": "function"
    },
    {
      "constant": true,
      "inputs": [
        {
          "name": "_token",
          "type": "address"
        }
      ],
      "name": "maxPerTx",
      "outputs": [
        {
          "name": "",
          "type": "uint256"
        }
      ],
      "payable": false,
      "stateMutability": "view",
      "type": "function"
    },
    {
      "constant": true,
      "inputs": [
        {
          "name": "_addr",
          "type": "address"
        }
      ],
      "name": "isRewardAddress",
      "outputs": [
        {
          "name": "",
          "type": "bool"
        }
      ],
      "payable": false,
      "stateMutability": "view",
      "type": "function"
    },
    {
      "constant": false,
      "inputs": [
        {
          "name": "_messageId",
          "type": "bytes32"
        }
      ],
      "name": "fixFailedMessage",
      "outputs": [],
      "payable": false,
      "stateMutability": "nonpayable",
      "type": "function"
    },
    {
      "constant": false,
      "inputs": [
        {
          "name": "_bridgeContract",
          "type": "address"
        }
      ],
      "name": "setBridgeContract",
      "outputs": [],
      "payable": false,
      "stateMutability": "nonpayable",
      "type": "function"
    },
    {
      "constant": true,
      "inputs": [
        {
          "name": "_token",
          "type": "address"
        },
        {
          "name": "_amount",
          "type": "uint256"
        }
      ],
      "name": "withinLimit",
      "outputs": [
        {
          "name": "",
          "type": "bool"
        }
      ],
      "payable": false,
      "stateMutability": "view",
      "type": "function"
    },
    {
      "constant": false,
      "inputs": [
        {
          "name": "_addr",
          "type": "address"
        }
      ],
      "name": "removeRewardAddress",
      "outputs": [],
      "payable": false,
      "stateMutability": "nonpayable",
      "type": "function"
    },
    {
      "constant": true,
      "inputs": [
        {
          "name": "_token",
          "type": "address"
        }
      ],
      "name": "executionMaxPerTx",
      "outputs": [
        {
          "name": "",
          "type": "uint256"
        }
      ],
      "payable": false,
      "stateMutability": "view",
      "type": "function"
    },
    {
      "constant": false,
      "inputs": [
        {
          "name": "_token",
          "type": "address"
        },
        {
          "name": "_enable",
          "type": "bool"
        }
      ],
      "name": "setTokenForwardingRule",
      "outputs": [],
      "payable": false,
      "stateMutability": "nonpayable",
      "type": "function"
    },
    {
      "constant": true,
      "inputs": [
        {
          "name": "_token",
          "type": "address"
        }
      ],
      "name": "isTokenRegistered",
      "outputs": [
        {
          "name": "",
          "type": "bool"
        }
      ],
      "payable": false,
      "stateMutability": "view",
      "type": "function"
    },
    {
      "constant": false,
      "inputs": [
        {
          "name": "_token",
          "type": "address"
        },
        {
          "name": "_dailyLimit",
          "type": "uint256"
        }
      ],
      "name": "setDailyLimit",
      "outputs": [],
      "payable": false,
      "stateMutability": "nonpayable",
      "type": "function"
    },
    {
      "constant": true,
      "inputs": [],
      "name": "isInitialized",
      "outputs": [
        {
          "name": "",
          "type": "bool"
        }
      ],
      "payable": false,
      "stateMutability": "view",
      "type": "function"
    },
    {
      "constant": true,
      "inputs": [
        {
          "name": "_token",
          "type": "address"
        },
        {
          "name": "_amount",
          "type": "uint256"
        }
      ],
      "name": "withinExecutionLimit",
      "outputs": [
        {
          "name": "",
          "type": "bool"
        }
      ],
      "payable": false,
      "stateMutability": "view",
      "type": "function"
    },
    {
      "constant": true,
      "inputs": [],
      "name": "getCurrentDay",
      "outputs": [
        {
          "name": "",
          "type": "uint256"
        }
      ],
      "payable": false,
      "stateMutability": "view",
      "type": "function"
    },
    {
      "constant": true,
      "inputs": [
        {
          "name": "_token",
          "type": "address"
        }
      ],
      "name": "executionDailyLimit",
      "outputs": [
        {
          "name": "",
          "type": "uint256"
        }
      ],
      "payable": false,
      "stateMutability": "view",
      "type": "function"
    },
    {
      "constant": true,
      "inputs": [],
      "name": "getBridgeMode",
      "outputs": [
        {
          "name": "_data",
          "type": "bytes4"
        }
      ],
      "payable": false,
      "stateMutability": "pure",
      "type": "function"
    },
    {
      "constant": false,
      "inputs": [
        {
          "name": "_receiver",
          "type": "address"
        },
        {
          "name": "_enable",
          "type": "bool"
        }
      ],
      "name": "setReceiverForwardingRule",
      "outputs": [],
      "payable": false,
      "stateMutability": "nonpayable",
      "type": "function"
    },
    {
      "constant": false,
      "inputs": [
        {
          "name": "_feeType",
          "type": "bytes32"
        },
        {
          "name": "_token",
          "type": "address"
        },
        {
          "name": "_fee",
          "type": "uint256"
        }
      ],
      "name": "setFee",
      "outputs": [],
      "payable": false,
      "stateMutability": "nonpayable",
      "type": "function"
    },
    {
      "constant": true,
      "inputs": [
        {
          "name": "_messageId",
          "type": "bytes32"
        }
      ],
      "name": "messageFixed",
      "outputs": [
        {
          "name": "",
          "type": "bool"
        }
      ],
      "payable": false,
      "stateMutability": "view",
      "type": "function"
    },
    {
      "constant": true,
      "inputs": [
        {
          "name": "_feeType",
          "type": "bytes32"
        },
        {
          "name": "_token",
          "type": "address"
        }
      ],
      "name": "getFee",
      "outputs": [
        {
          "name": "",
          "type": "uint256"
        }
      ],
      "payable": false,
      "stateMutability": "view",
      "type": "function"
    },
    {
      "constant": false,
      "inputs": [
        {
          "name": "_token",
          "type": "address"
        },
        {
          "name": "_to",
          "type": "address"
        }
      ],
      "name": "claimTokens",
      "outputs": [],
      "payable": false,
      "stateMutability": "nonpayable",
      "type": "function"
    },
    {
      "constant": true,
      "inputs": [
        {
          "name": "_address",
          "type": "address"
        }
      ],
      "name": "getNextRewardAddress",
      "outputs": [
        {
          "name": "",
          "type": "address"
        }
      ],
      "payable": false,
      "stateMutability": "view",
      "type": "function"
    },
    {
      "constant": false,
      "inputs": [
        {
          "name": "_mediatorContract",
          "type": "address"
        }
      ],
      "name": "setMediatorContractOnOtherSide",
      "outputs": [],
      "payable": false,
      "stateMutability": "nonpayable",
      "type": "function"
    },
    {
      "constant": true,
      "inputs": [
        {
          "name": "_token",
          "type": "address"
        },
        {
          "name": "_sender",
          "type": "address"
        },
        {
          "name": "_receiver",
          "type": "address"
        }
      ],
      "name": "forwardingRule",
      "outputs": [
        {
          "name": "",
          "type": "int256"
        }
      ],
      "payable": false,
      "stateMutability": "view",
      "type": "function"
    },
    {
      "constant": true,
      "inputs": [
        {
          "name": "_feeType",
          "type": "bytes32"
        },
        {
          "name": "_token",
          "type": "address"
        },
        {
          "name": "_value",
          "type": "uint256"
        }
      ],
      "name": "calculateFee",
      "outputs": [
        {
          "name": "",
          "type": "uint256"
        }
      ],
      "payable": false,
      "stateMutability": "view",
      "type": "function"
    },
    {
      "constant": true,
      "inputs": [],
      "name": "rewardAddressCount",
      "outputs": [
        {
          "name": "",
          "type": "uint256"
        }
      ],
      "payable": false,
      "stateMutability": "view",
      "type": "function"
    },
    {
      "constant": true,
      "inputs": [
        {
          "name": "_token",
          "type": "address"
        }
      ],
      "name": "maxAvailablePerTx",
      "outputs": [
        {
          "name": "",
          "type": "uint256"
        }
      ],
      "payable": false,
      "stateMutability": "view",
      "type": "function"
    },
    {
      "constant": false,
      "inputs": [
        {
          "name": "_token",
          "type": "address"
        },
        {
          "name": "_dailyLimit",
          "type": "uint256"
        }
      ],
      "name": "setExecutionDailyLimit",
      "outputs": [],
      "payable": false,
      "stateMutability": "nonpayable",
      "type": "function"
    },
    {
      "constant": true,
      "inputs": [],
      "name": "mediatorContractOnOtherSide",
      "outputs": [
        {
          "name": "",
          "type": "address"
        }
      ],
      "payable": false,
      "stateMutability": "view",
      "type": "function"
    },
    {
      "constant": false,
      "inputs": [
        {
          "name": "_sender",
          "type": "address"
        },
        {
          "name": "_enable",
          "type": "bool"
        }
      ],
      "name": "setSenderForwardingRule",
      "outputs": [],
      "payable": false,
      "stateMutability": "nonpayable",
      "type": "function"
    },
    {
      "constant": true,
      "inputs": [],
      "name": "owner",
      "outputs": [
        {
          "name": "",
          "type": "address"
        }
      ],
      "payable": false,
      "stateMutability": "view",
      "type": "function"
    },
    {
      "constant": false,
      "inputs": [
        {
          "name": "_token",
          "type": "address"
        },
        {
          "name": "_sender",
          "type": "address"
        },
        {
          "name": "_enable",
          "type": "bool"
        }
      ],
      "name": "setSenderExceptionForTokenForwardingRule",
      "outputs": [],
      "payable": false,
      "stateMutability": "nonpayable",
      "type": "function"
    },
    {
      "constant": false,
      "inputs": [
        {
          "name": "_messageId",
          "type": "bytes32"
        }
      ],
      "name": "requestFailedMessageFix",
      "outputs": [],
      "payable": false,
      "stateMutability": "nonpayable",
      "type": "function"
    },
    {
      "constant": true,
      "inputs": [],
      "name": "getBridgeInterfacesVersion",
      "outputs": [
        {
          "name": "major",
          "type": "uint64"
        },
        {
          "name": "minor",
          "type": "uint64"
        },
        {
          "name": "patch",
          "type": "uint64"
        }
      ],
      "payable": false,
      "stateMutability": "pure",
      "type": "function"
    },
    {
      "constant": true,
      "inputs": [
        {
          "name": "_token",
          "type": "address"
        }
      ],
      "name": "minPerTx",
      "outputs": [
        {
          "name": "",
          "type": "uint256"
        }
      ],
      "payable": false,
      "stateMutability": "view",
      "type": "function"
    },
    {
      "constant": true,
      "inputs": [
        {
          "name": "_token",
          "type": "address"
        },
        {
          "name": "_day",
          "type": "uint256"
        }
      ],
      "name": "totalSpentPerDay",
      "outputs": [
        {
          "name": "",
          "type": "uint256"
        }
      ],
      "payable": false,
      "stateMutability": "view",
      "type": "function"
    },
    {
      "constant": false,
      "inputs": [
        {
          "name": "token",
          "type": "address"
        },
        {
          "name": "_receiver",
          "type": "address"
        },
        {
          "name": "_value",
          "type": "uint256"
        }
      ],
      "name": "relayTokens",
      "outputs": [],
      "payable": false,
      "stateMutability": "nonpayable",
      "type": "function"
    },
    {
      "constant": false,
      "inputs": [
        {
          "name": "_addr",
          "type": "address"
        }
      ],
      "name": "addRewardAddress",
      "outputs": [],
      "payable": false,
      "stateMutability": "nonpayable",
      "type": "function"
    },
    {
      "constant": true,
      "inputs": [],
      "name": "requestGasLimit",
      "outputs": [
        {
          "name": "",
          "type": "uint256"
        }
      ],
      "payable": false,
      "stateMutability": "view",
      "type": "function"
    },
    {
      "constant": true,
      "inputs": [],
      "name": "F_ADDR",
      "outputs": [
        {
          "name": "",
          "type": "address"
        }
      ],
      "payable": false,
      "stateMutability": "view",
      "type": "function"
    },
    {
      "constant": false,
      "inputs": [
        {
          "name": "_token",
          "type": "address"
        },
        {
          "name": "_receiver",
          "type": "address"
        },
        {
          "name": "_enable",
          "type": "bool"
        }
      ],
      "name": "setReceiverExceptionForTokenForwardingRule",
      "outputs": [],
      "payable": false,
      "stateMutability": "nonpayable",
      "type": "function"
    },
    {
      "constant": true,
      "inputs": [],
      "name": "bridgeContract",
      "outputs": [
        {
          "name": "",
          "type": "address"
        }
      ],
      "payable": false,
      "stateMutability": "view",
      "type": "function"
    },
    {
      "constant": false,
      "inputs": [
        {
          "name": "_token",
          "type": "address"
        },
        {
          "name": "_maxPerTx",
          "type": "uint256"
        }
      ],
      "name": "setMaxPerTx",
      "outputs": [],
      "payable": false,
      "stateMutability": "nonpayable",
      "type": "function"
    },
    {
      "constant": true,
      "inputs": [],
      "name": "rewardAddressList",
      "outputs": [
        {
          "name": "",
          "type": "address[]"
        }
      ],
      "payable": false,
      "stateMutability": "view",
      "type": "function"
    },
    {
      "constant": false,
      "inputs": [
        {
          "name": "_token",
          "type": "address"
        },
        {
          "name": "_minPerTx",
          "type": "uint256"
        }
      ],
      "name": "setMinPerTx",
      "outputs": [],
      "payable": false,
      "stateMutability": "nonpayable",
      "type": "function"
    },
    {
      "constant": true,
      "inputs": [
        {
          "name": "_token",
          "type": "address"
        },
        {
          "name": "_day",
          "type": "uint256"
        }
      ],
      "name": "totalExecutedPerDay",
      "outputs": [
        {
          "name": "",
          "type": "uint256"
        }
      ],
      "payable": false,
      "stateMutability": "view",
      "type": "function"
    },
    {
      "constant": false,
      "inputs": [
        {
          "name": "newOwner",
          "type": "address"
        }
      ],
      "name": "transferOwnership",
      "outputs": [],
      "payable": false,
      "stateMutability": "nonpayable",
      "type": "function"
    },
    {
      "constant": false,
      "inputs": [
        {
          "name": "_requestGasLimit",
          "type": "uint256"
        }
      ],
      "name": "setRequestGasLimit",
      "outputs": [],
      "payable": false,
      "stateMutability": "nonpayable",
      "type": "function"
    },
    {
      "constant": true,
      "inputs": [],
      "name": "FOREIGN_TO_HOME_FEE",
      "outputs": [
        {
          "name": "",
          "type": "bytes32"
        }
      ],
      "payable": false,
      "stateMutability": "view",
      "type": "function"
    },
    {
      "constant": true,
      "inputs": [
        {
          "name": "_token",
          "type": "address"
        }
      ],
      "name": "dailyLimit",
      "outputs": [
        {
          "name": "",
          "type": "uint256"
        }
      ],
      "payable": false,
      "stateMutability": "view",
      "type": "function"
    },
    {
      "constant": true,
      "inputs": [
        {
          "name": "_token",
          "type": "address"
        },
        {
          "name": "_sender",
          "type": "address"
        },
        {
          "name": "_receiver",
          "type": "address"
        }
      ],
      "name": "destinationLane",
      "outputs": [
        {
          "name": "",
          "type": "int256"
        }
      ],
      "payable": false,
      "stateMutability": "view",
      "type": "function"
    },
    {
      "constant": true,
      "inputs": [],
      "name": "HOME_TO_FOREIGN_FEE",
      "outputs": [
        {
          "name": "",
          "type": "bytes32"
        }
      ],
      "payable": false,
      "stateMutability": "view",
      "type": "function"
    },
    {
      "anonymous": false,
      "inputs": [
        {
          "indexed": true,
          "name": "foreignToken",
          "type": "address"
        },
        {
          "indexed": true,
          "name": "homeToken",
          "type": "address"
        }
      ],
      "name": "NewTokenRegistered",
      "type": "event"
    },
    {
      "anonymous": false,
      "inputs": [
        {
          "indexed": false,
          "name": "token",
          "type": "address"
        },
        {
          "indexed": false,
          "name": "sender",
          "type": "address"
        },
        {
          "indexed": false,
          "name": "receiver",
          "type": "address"
        },
        {
          "indexed": false,
          "name": "lane",
          "type": "int256"
        }
      ],
      "name": "ForwardingRuleUpdated",
      "type": "event"
    },
    {
      "anonymous": false,
      "inputs": [
        {
          "indexed": false,
          "name": "feeType",
          "type": "bytes32"
        },
        {
          "indexed": true,
          "name": "token",
          "type": "address"
        },
        {
          "indexed": false,
          "name": "fee",
          "type": "uint256"
        }
      ],
      "name": "FeeUpdated",
      "type": "event"
    },
    {
      "anonymous": false,
      "inputs": [
        {
          "indexed": false,
          "name": "fee",
          "type": "uint256"
        },
        {
          "indexed": true,
          "name": "token",
          "type": "address"
        },
        {
          "indexed": true,
          "name": "messageId",
          "type": "bytes32"
        }
      ],
      "name": "FeeDistributed",
      "type": "event"
    },
    {
      "anonymous": false,
      "inputs": [
        {
          "indexed": true,
          "name": "messageId",
          "type": "bytes32"
        },
        {
          "indexed": false,
          "name": "token",
          "type": "address"
        },
        {
          "indexed": false,
          "name": "recipient",
          "type": "address"
        },
        {
          "indexed": false,
          "name": "value",
          "type": "uint256"
        }
      ],
      "name": "FailedMessageFixed",
      "type": "event"
    },
    {
      "anonymous": false,
      "inputs": [
        {
          "indexed": true,
          "name": "token",
          "type": "address"
        },
        {
          "indexed": true,
          "name": "sender",
          "type": "address"
        },
        {
          "indexed": false,
          "name": "value",
          "type": "uint256"
        },
        {
          "indexed": true,
          "name": "messageId",
          "type": "bytes32"
        }
      ],
      "name": "TokensBridgingInitiated",
      "type": "event"
    },
    {
      "anonymous": false,
      "inputs": [
        {
          "indexed": true,
          "name": "token",
          "type": "address"
        },
        {
          "indexed": true,
          "name": "recipient",
          "type": "address"
        },
        {
          "indexed": false,
          "name": "value",
          "type": "uint256"
        },
        {
          "indexed": true,
          "name": "messageId",
          "type": "bytes32"
        }
      ],
      "name": "TokensBridged",
      "type": "event"
    },
    {
      "anonymous": false,
      "inputs": [
        {
          "indexed": true,
          "name": "token",
          "type": "address"
        },
        {
          "indexed": false,
          "name": "newLimit",
          "type": "uint256"
        }
      ],
      "name": "DailyLimitChanged",
      "type": "event"
    },
    {
      "anonymous": false,
      "inputs": [
        {
          "indexed": true,
          "name": "token",
          "type": "address"
        },
        {
          "indexed": false,
          "name": "newLimit",
          "type": "uint256"
        }
      ],
      "name": "ExecutionDailyLimitChanged",
      "type": "event"
    },
    {
      "anonymous": false,
      "inputs": [
        {
          "indexed": false,
          "name": "previousOwner",
          "type": "address"
        },
        {
          "indexed": false,
          "name": "newOwner",
          "type": "address"
        }
      ],
      "name": "OwnershipTransferred",
      "type": "event"
    },
    {
      "anonymous": false,
      "inputs": [
        {
          "indexed": true,
          "name": "addr",
          "type": "address"
        }
      ],
      "name": "RewardAddressAdded",
      "type": "event"
    },
    {
      "anonymous": false,
      "inputs": [
        {
          "indexed": true,
          "name": "addr",
          "type": "address"
        }
      ],
      "name": "RewardAddressRemoved",
      "type": "event"
    },
    {
      "constant": false,
      "inputs": [
        {
          "name": "_bridgeContract",
          "type": "address"
        },
        {
          "name": "_mediatorContract",
          "type": "address"
        },
        {
          "name": "_dailyLimitMaxPerTxMinPerTxArray",
          "type": "uint256[3]"
        },
        {
          "name": "_executionDailyLimitExecutionMaxPerTxArray",
          "type": "uint256[2]"
        },
        {
          "name": "_requestGasLimit",
          "type": "uint256"
        },
        {
          "name": "_owner",
          "type": "address"
        },
        {
          "name": "_tokenImage",
          "type": "address"
        },
        {
          "name": "_rewardAddresses",
          "type": "address[]"
        },
        {
          "name": "_fees",
          "type": "uint256[2]"
        }
      ],
      "name": "initialize",
      "outputs": [
        {
          "name": "",
          "type": "bool"
        }
      ],
      "payable": false,
      "stateMutability": "nonpayable",
      "type": "function"
    },
    {
      "constant": false,
      "inputs": [
        {
          "name": "_tokenImage",
          "type": "address"
        }
      ],
      "name": "setTokenImage",
      "outputs": [],
      "payable": false,
      "stateMutability": "nonpayable",
      "type": "function"
    },
    {
      "constant": true,
      "inputs": [],
      "name": "tokenImage",
      "outputs": [
        {
          "name": "",
          "type": "address"
        }
      ],
      "payable": false,
      "stateMutability": "view",
      "type": "function"
    },
    {
      "constant": false,
      "inputs": [
        {
          "name": "_token",
          "type": "address"
        },
        {
          "name": "_name",
          "type": "string"
        },
        {
          "name": "_symbol",
          "type": "string"
        },
        {
          "name": "_decimals",
          "type": "uint8"
        },
        {
          "name": "_recipient",
          "type": "address"
        },
        {
          "name": "_value",
          "type": "uint256"
        }
      ],
      "name": "deployAndHandleBridgedTokens",
      "outputs": [],
      "payable": false,
      "stateMutability": "nonpayable",
      "type": "function"
    },
    {
      "constant": false,
      "inputs": [
        {
          "name": "_token",
          "type": "address"
        },
        {
          "name": "_recipient",
          "type": "address"
        },
        {
          "name": "_value",
          "type": "uint256"
        }
      ],
      "name": "handleBridgedTokens",
      "outputs": [],
      "payable": false,
      "stateMutability": "nonpayable",
      "type": "function"
    },
    {
      "constant": false,
      "inputs": [
        {
          "name": "_from",
          "type": "address"
        },
        {
          "name": "_value",
          "type": "uint256"
        },
        {
          "name": "_data",
          "type": "bytes"
        }
      ],
      "name": "onTokenTransfer",
      "outputs": [
        {
          "name": "",
          "type": "bool"
        }
      ],
      "payable": false,
      "stateMutability": "nonpayable",
      "type": "function"
    },
    {
      "constant": true,
      "inputs": [
        {
          "name": "_foreignToken",
          "type": "address"
        }
      ],
      "name": "homeTokenAddress",
      "outputs": [
        {
          "name": "",
          "type": "address"
        }
      ],
      "payable": false,
      "stateMutability": "view",
      "type": "function"
    },
    {
      "constant": true,
      "inputs": [
        {
          "name": "_homeToken",
          "type": "address"
        }
      ],
      "name": "foreignTokenAddress",
      "outputs": [
        {
          "name": "",
          "type": "address"
        }
      ],
      "payable": false,
      "stateMutability": "view",
      "type": "function"
    }
  ],
  "bytecode": "0x608060405234801561001057600080fd5b50615e9b80620000216000396000f300608060405260043610620002f95763ffffffff60e060020a60003504166301e4f53a8114620002fe57806301fcc1d31462000327578063032f693f146200034e578063071664c514620003845780630950d51514620003bc5780630b26cf6614620003d75780631077523814620003fb57806310b8075b1462000422578063125e4cfb146200044657806316ef191314620004735780631fa2195f146200049757806324d05aa214620004bb57806326aa101f14620004e45780632803212f14620005085780632ae87cdd146200052f578063392e53cd146200057c5780633a50bc8714620005945780633e6968b614620005bb57806340f8dd8614620005d3578063437764df14620005f75780634721ff79146200064157806347ac7d6a146200066a5780634b1a758214620006aa5780635933998214620006d45780636840096314620006ef57806369ffa08a14620007165780636d92f50914620007405780636e5d6bea14620007645780637060ed891462000788578063710c601314620007b857806371e9a8b214620007e25780637610722f14620007fa5780637837cf91146200081e578063871c0760146200084557806387823619146200085d5780638da5cb5b14620008865780638efeb22d146200089e5780639a4a439514620008cd5780639cb7595a14620008e8578063a4b1c243146200092c578063a4c0ed361462000950578063ab3a25d914620009bc578063ad58bdd114620009e3578063b4be506e1462000a10578063be3b625b1462000a34578063c1aef4f21462000a4c578063c794c7691462000a64578063c98cb30e1462000a7c578063cd5965831462000aab578063db6fff8c1462000ac3578063dfbe4ae01462000aea578063e9d6c0591462000b0e578063ec47de2a1462000b78578063f07e71a61462000b9f578063f2c54fe81462000bf1578063f2fde38b1462000c18578063f3b837911462000c3c578063f3ce14c21462000c57578063f3f514151462000c6f578063f7baa0491462000c93578063fab190911462000cc3575b600080fd5b3480156200030b57600080fd5b5062000325600160a060020a036004351660243562000cdb565b005b3480156200033457600080fd5b5062000325600160a060020a036004351660243562000cec565b3480156200035b57600080fd5b5062000372600160a060020a036004351662000e28565b60408051918252519081900360200190f35b3480156200039157600080fd5b50620003a8600160a060020a036004351662000eff565b604080519115158252519081900360200190f35b348015620003c957600080fd5b506200032560043562000f35565b348015620003e457600080fd5b5062000325600160a060020a036004351662001032565b3480156200040857600080fd5b50620003a8600160a060020a03600435166024356200105f565b3480156200042f57600080fd5b5062000325600160a060020a0360043516620010e7565b3480156200045357600080fd5b5062000325600160a060020a036004358116906024351660443562001111565b3480156200048057600080fd5b5062000372600160a060020a03600435166200119a565b348015620004a457600080fd5b5062000325600160a060020a03600435166200122f565b348015620004c857600080fd5b5062000325600160a060020a0360043516602435151562001259565b348015620004f157600080fd5b50620003a8600160a060020a036004351662001296565b3480156200051557600080fd5b5062000325600160a060020a0360043516602435620012ab565b3480156200053c57600080fd5b506200032560048035600160a060020a0390811691602480358082019390830135926044359283019201359060643560ff16906084351660a43562001418565b3480156200058957600080fd5b50620003a862001809565b348015620005a157600080fd5b50620003a8600160a060020a03600435166024356200185a565b348015620005c857600080fd5b5062000372620018bd565b348015620005e057600080fd5b5062000372600160a060020a0360043516620018c6565b3480156200060457600080fd5b506200060f6200195b565b604080517bffffffffffffffffffffffffffffffffffffffffffffffffffffffff199092168252519081900360200190f35b3480156200064e57600080fd5b5062000325600160a060020a036004351660243515156200197f565b3480156200067757600080fd5b506200068e600160a060020a0360043516620019b2565b60408051600160a060020a039092168252519081900360200190f35b348015620006b757600080fd5b5062000325600435600160a060020a036024351660443562001a93565b348015620006e157600080fd5b50620003a860043562001ac4565b348015620006fc57600080fd5b5062000372600435600160a060020a036024351662001b8f565b3480156200072357600080fd5b5062000325600160a060020a036004358116906024351662001c74565b3480156200074d57600080fd5b506200068e600160a060020a036004351662001d2d565b3480156200077157600080fd5b5062000325600160a060020a036004351662001dc3565b3480156200079557600080fd5b5062000372600160a060020a036004358116906024358116906044351662001ded565b348015620007c557600080fd5b5062000372600435600160a060020a036024351660443562001e8c565b348015620007ef57600080fd5b506200037262001ed2565b3480156200080757600080fd5b5062000372600160a060020a036004351662001f20565b3480156200082b57600080fd5b5062000325600160a060020a036004351660243562001f84565b3480156200085257600080fd5b506200068e620020f1565b3480156200086a57600080fd5b5062000325600160a060020a0360043516602435151562002148565b3480156200089357600080fd5b506200068e62002182565b348015620008ab57600080fd5b5062000325600160a060020a03600435811690602435166044351515620021d9565b348015620008da57600080fd5b50620003256004356200222b565b348015620008f557600080fd5b50620009006200259c565b6040805167ffffffffffffffff9485168152928416602084015292168183015290519081900360600190f35b3480156200093957600080fd5b5062000372600160a060020a0360043516620025a7565b3480156200095d57600080fd5b50604080516020600460443581810135601f8101849004840285018401909552848452620003a8948235600160a060020a03169460248035953695946064949201919081908401838280828437509497506200263c9650505050505050565b348015620009c957600080fd5b5062000372600160a060020a0360043516602435620026a4565b348015620009f057600080fd5b5062000325600160a060020a036004358116906024351660443562002785565b34801562000a1d57600080fd5b5062000325600160a060020a036004351662002792565b34801562000a4157600080fd5b5062000372620027bc565b34801562000a5957600080fd5b506200068e6200280a565b34801562000a7157600080fd5b506200068e62002861565b34801562000a8957600080fd5b5062000325600160a060020a036004358116906024351660443515156200286c565b34801562000ab857600080fd5b506200068e620028b6565b34801562000ad057600080fd5b5062000325600160a060020a03600435166024356200290d565b34801562000af757600080fd5b506200068e600160a060020a036004351662002a0f565b34801562000b1b57600080fd5b5062000b2662002aa5565b60408051602080825283518183015283519192839290830191858101910280838360005b8381101562000b6457818101518382015260200162000b4a565b505050509050019250505060405180910390f35b34801562000b8557600080fd5b5062000325600160a060020a036004351660243562002b6a565b34801562000bac57600080fd5b50620003a8600160a060020a03600480358216916024803582169260449260a49260e43592610104358316926101243516916101443590810191013561016462002c70565b34801562000bfe57600080fd5b5062000372600160a060020a036004351660243562002f1d565b34801562000c2557600080fd5b5062000325600160a060020a036004351662002fba565b34801562000c4957600080fd5b506200032560043562002fe4565b34801562000c6457600080fd5b50620003726200300e565b34801562000c7c57600080fd5b5062000372600160a060020a036004351662003021565b34801562000ca057600080fd5b5062000372600160a060020a0360043581169060243581169060443516620030b6565b34801562000cd057600080fd5b50620003726200317d565b62000ce882338362003190565b5050565b62000cf662002182565b600160a060020a0316331462000d0b57600080fd5b62000d168262001296565b151562000d2257600080fd5b80158062000d45575060008111801562000d45575062000d4282620018c6565b81105b151562000d5157600080fd5b806000808460405160200180807f657865637574696f6e4d6178506572547800000000000000000000000000000081525060110182600160a060020a0316600160a060020a0316606060020a0281526014019150506040516020818303038152906040526040518082805190602001908083835b6020831062000de65780518252601f19909201916020918201910162000dc5565b51815160209384036101000a60001901801990921691161790526040805192909401829003909120865285019590955292909201600020939093555050505050565b60008060008360405160200180807f6d6178506572547800000000000000000000000000000000000000000000000081525060080182600160a060020a0316600160a060020a0316606060020a0281526014019150506040516020818303038152906040526040518082805190602001908083835b6020831062000ebe5780518252601f19909201916020918201910162000e9d565b51815160209384036101000a600019018019909216911617905260408051929094018290039091208652850195909552929092016000205495945050505050565b6000600160a060020a038281161480159062000f2f5750600062000f238362001d2d565b600160a060020a031614155b92915050565b600080600062000f44620028b6565b600160a060020a0316331462000f5957600080fd5b62000f63620020f1565b600160a060020a031662000f766200329f565b600160a060020a03161462000f8a57600080fd5b62000f958462001ac4565b1562000fa057600080fd5b62000fab846200331c565b925062000fb884620033a2565b915062000fc58462003428565b905062000fd284620034ad565b62000fdf83838362003581565b60408051600160a060020a03808616825284166020820152808201839052905185917f07b5483b8e4bd8ea240a474d5117738350e7d431e3668c48a97910b0b397796a919081900360600190a250505050565b6200103c62002182565b600160a060020a031633146200105157600080fd5b6200105c81620035e5565b50565b60008062001089836200107c8662001076620018bd565b620026a4565b9063ffffffff6200366616565b9050600062001099600062003021565b118015620010b1575080620010ae8562003021565b10155b8015620010c85750620010c48462000e28565b8311155b8015620010df5750620010db84620025a7565b8310155b949350505050565b620010f162002182565b600160a060020a031633146200110657600080fd5b6200105c8162003674565b60006200111d620028b6565b600160a060020a031633146200113257600080fd5b6200113c620020f1565b600160a060020a03166200114f6200329f565b600160a060020a0316146200116357600080fd5b6200116e8462002a0f565b90506200117b8162001296565b15156200118757600080fd5b620011948184846200381e565b50505050565b60008060008360405160200180807f657865637574696f6e4d6178506572547800000000000000000000000000000081525060110182600160a060020a0316600160a060020a0316606060020a0281526014019150506040516020818303038152906040526040518082805190602001908083836020831062000ebe5780518252601f19909201916020918201910162000e9d565b6200123962002182565b600160a060020a031633146200124e57600080fd5b6200105c8162003866565b600160a060020a0382811614156200127057600080fd5b62000ce882600160a060020a0380846200128c57600062001290565b6000195b620038e7565b600080620012a483620025a7565b1192915050565b620012b562002182565b600160a060020a03163314620012ca57600080fd5b620012d58262001296565b1515620012e157600080fd5b620012ec8262000e28565b811180620012f8575080155b15156200130457600080fd5b806000808460405160200180807f6461696c794c696d697400000000000000000000000000000000000000000000815250600a0182600160a060020a0316600160a060020a0316606060020a0281526014019150506040516020818303038152906040526040518082805190602001908083835b60208310620013995780518252601f19909201916020918201910162001378565b51815160209384036101000a6000190180199092169116179052604080519290940182900390912086528581019690965250928301600020949094555080518481529051600160a060020a03861693507fca0b3dabefdbd8c72c0a9cf4a6e9d107da897abf036ef3f3f3b010cdd2594159929181900390910190a25050565b606080600062001427620028b6565b600160a060020a031633146200143c57600080fd5b62001446620020f1565b600160a060020a0316620014596200329f565b600160a060020a0316146200146d57600080fd5b89898080601f0160208091040260200160405190810160405280939291908181526020018383808284375050604080516020601f8f018190048102820181019092528d81529598508d94508c9350839250850190508382808284378201915050505050509150600083511180620014e5575060008251115b1515620014f157600080fd5b82511515620015035781925062001510565b8151151562001510578291505b826040516020018082805190602001908083835b60208310620015455780518252601f19909201916020918201910162001524565b6001836020036101000a038019825116818451168082178552505050505050905001807f206f6e20784461690000000000000000000000000000000000000000000000008152506008019150506040516020818303038152906040529250620015ad6200280a565b838388620015ba620028b6565b600160a060020a0316631544298e6040518163ffffffff1660e060020a028152600401602060405180830381600087803b158015620015f857600080fd5b505af11580156200160d573d6000803e3d6000fd5b505050506040513d60208110156200162457600080fd5b505162001630620058a5565b600160a060020a038616815260ff831660608201526080810182905260a060208083018281528751928401929092528651604084019160c08501919089019080838360005b838110156200168f57818101518382015260200162001675565b50505050905090810190601f168015620016bd5780820380516001836020036101000a031916815260200191505b50838103825286518152865160209182019188019080838360005b83811015620016f2578181015183820152602001620016d8565b50505050905090810190601f168015620017205780820380516001836020036101000a031916815260200191505b50975050505050505050604051809103906000f08015801562001747573d6000803e3d6000fd5b509050620017568b8262003a40565b62001765818760ff1662003c07565b6200178d60008051602062005e30833981519152826200178782600062001b8f565b62003dbe565b620017af60008051602062005e50833981519152826200178782600062001b8f565b620017bc8186866200381e565b80600160a060020a03168b600160a060020a03167f78d063210f4fb6b4cc932390bb8045fa2465e51349590182dab8b9e84c57a6ee60405160405180910390a35050505050505050505050565b7f0a6f646cd611241d8073675e00d1a1ff700fbf1b53fcf473de56d1e6e4b714ba60005260046020527f078d888f9b66f3f8bfa10909e31f1e16240db73449f0500afdbbe3a70da457cc5460ff1690565b60008062001877836200107c8662001871620018bd565b62002f1d565b90506000620018876000620018c6565b1180156200189f5750806200189c85620018c6565b10155b8015620010df5750620018b2846200119a565b909211159392505050565b62015180420490565b60008060008360405160200180807f657865637574696f6e4461696c794c696d69740000000000000000000000000081525060130182600160a060020a0316600160a060020a0316606060020a0281526014019150506040516020818303038152906040526040518082805190602001908083836020831062000ebe5780518252601f19909201916020918201910162000e9d565b7fb1516c260000000000000000000000000000000000000000000000000000000090565b600160a060020a0382811614156200199657600080fd5b62000ce8600160a060020a038084846200128c57600062001290565b6000600260008360405160200180807f666f726569676e546f6b656e416464726573730000000000000000000000000081525060130182600160a060020a0316600160a060020a0316606060020a0281526014019150506040516020818303038152906040526040518082805190602001908083835b6020831062001a495780518252601f19909201916020918201910162001a28565b51815160209384036101000a6000190180199092169116179052604080519290940182900390912086528501959095529290920160002054600160a060020a031695945050505050565b62001a9d62002182565b600160a060020a0316331462001ab257600080fd5b62001abf83838362003dbe565b505050565b6000600460008360405160200180807f6d65737361676546697865640000000000000000000000000000000000000000815250600c0182600019166000191681526020019150506040516020818303038152906040526040518082805190602001908083835b6020831062001b4b5780518252601f19909201916020918201910162001b2a565b51815160209384036101000a600019018019909216911617905260408051929094018290039091208652850195909552929092016000205460ff1695945050505050565b60008260008051602062005e3083398151915281148062001bbe575060008051602062005e5083398151915281145b151562001bca57600080fd5b604080516020808201879052606060020a600160a060020a0387160282840152825160348184030181526054909201928390528151600093849392909182918401908083835b6020831062001c315780518252601f19909201916020918201910162001c10565b51815160209384036101000a6000190180199092169116179052604080519290940182900390912086528501959095529290920160002054979650505050505050565b30600160a060020a0316636fde82026040518163ffffffff1660e060020a028152600401602060405180830381600087803b15801562001cb357600080fd5b505af115801562001cc8573d6000803e3d6000fd5b505050506040513d602081101562001cdf57600080fd5b5051600160a060020a0316331462001cf657600080fd5b600160a060020a038216158062001d15575062001d138262001296565b155b151562001d2157600080fd5b62000ce8828262003f13565b6000600260008360405160200180807f726577617264416464726573734c69737400000000000000000000000000000081525060110182600160a060020a0316600160a060020a0316606060020a0281526014019150506040516020818303038152906040526040518082805190602001908083836020831062001a495780518252601f19909201916020918201910162001a28565b62001dcd62002182565b600160a060020a0316331462001de257600080fd5b6200105c8162003f52565b604080517f666f7277617264546f0000000000000000000000000000000000000000000000602080830191909152606060020a600160a060020a03808816820260298501528087168202603d85015285160260518301528251604581840301815260659092019283905281516000936005938593909282918401908083836020831062001c315780518252601f19909201916020918201910162001c10565b60008062001e9b858562001b8f565b905062001ec9670de0b6b3a764000062001ebc858463ffffffff62003fbc16565b9063ffffffff62003fe916565b95945050505050565b7fabc77c82721ced73eef2645facebe8c30249e6ac372cce6eb9d1fed31bd6648f60009081526020527f75fbf9e7a88379132f510aaafa152e59a595fda8e70d0b76dd34200dac99f82e5490565b600080600080600062001f338662000e28565b935062001f408662003021565b925062001f518662001076620018bd565b915081831162001f6357600062001f67565b8183035b905080841062001f78578062001f7a565b835b9695505050505050565b62001f8e62002182565b600160a060020a0316331462001fa357600080fd5b62001fae8262001296565b151562001fba57600080fd5b62001fc5826200119a565b81118062001fd1575080155b151562001fdd57600080fd5b806000808460405160200180807f657865637574696f6e4461696c794c696d69740000000000000000000000000081525060130182600160a060020a0316600160a060020a0316606060020a0281526014019150506040516020818303038152906040526040518082805190602001908083835b60208310620020725780518252601f19909201916020918201910162002051565b51815160209384036101000a6000190180199092169116179052604080519290940182900390912086528581019690965250928301600020949094555080518481529051600160a060020a03861693507f4c177b42dbe934b3abbc0208c11a42e46589983431616f1710ab19969c5ed62e929181900390910190a25050565b7f98aa806e31e94a687a31c65769cb99670064dd7f5a87526da075c5fb4eab988060005260026020527f0c1206883be66049a02d4937078367c00b3d71dd1a9465df969363c6ddeac96d54600160a060020a031690565b600160a060020a0382811614156200215f57600080fd5b62000ce8600160a060020a0383600160a060020a03846200128c57600062001290565b7f02016836a56b71f0d02689e69e326f4f4c1b9057164ef592671cf0d37c8040c060005260026020527fb7802e97e87ef2842a6cce7da7ffaeaedaa2f61a6a7870b23d9d01fc9b73712e54600160a060020a031690565b600160a060020a038381161415620021f057600080fd5b600160a060020a0382811614156200220757600080fd5b62001abf8383600160a060020a03846200222357600062001290565b6001620038e7565b6000606062002239620028b6565b600160a060020a031663cb08a10c846040518263ffffffff1660e060020a028152600401808260001916600019168152602001915050602060405180830381600087803b1580156200228a57600080fd5b505af11580156200229f573d6000803e3d6000fd5b505050506040513d6020811015620022b657600080fd5b505115620022c357600080fd5b30620022ce620028b6565b600160a060020a0316633f9a8e7e856040518263ffffffff1660e060020a028152600401808260001916600019168152602001915050602060405180830381600087803b1580156200231f57600080fd5b505af115801562002334573d6000803e3d6000fd5b505050506040513d60208110156200234b57600080fd5b5051600160a060020a0316146200236157600080fd5b6200236b620020f1565b600160a060020a03166200237e620028b6565b600160a060020a0316634a610b04856040518263ffffffff1660e060020a028152600401808260001916600019168152602001915050602060405180830381600087803b158015620023cf57600080fd5b505af1158015620023e4573d6000803e3d6000fd5b505050506040513d6020811015620023fb57600080fd5b5051600160a060020a0316146200241157600080fd5b50506040805160248082018490528251808303909101815260449091019091526020810180517bffffffffffffffffffffffffffffffffffffffffffffffffffffffff167f0950d515000000000000000000000000000000000000000000000000000000009081179091529062002487620028b6565b600160a060020a031663dc8601b36200249f620020f1565b83620024aa620027bc565b6040518463ffffffff1660e060020a0281526004018084600160a060020a0316600160a060020a0316815260200180602001838152602001828103825284818151815260200191508051906020019080838360005b8381101562002519578181015183820152602001620024ff565b50505050905090810190601f168015620025475780820380516001836020036101000a031916815260200191505b50945050505050602060405180830381600087803b1580156200256957600080fd5b505af11580156200257e573d6000803e3d6000fd5b505050506040513d60208110156200259557600080fd5b5050505050565b600160036000909192565b60008060008360405160200180807f6d696e506572547800000000000000000000000000000000000000000000000081525060080182600160a060020a0316600160a060020a0316606060020a0281526014019150506040516020818303038152906040526040518082805190602001908083836020831062000ebe5780518252601f19909201916020918201910162000e9d565b6000806200264962003fff565b1515620026995750336200265e81856200105f565b15156200266a57600080fd5b620026808162002679620018bd565b8662004024565b62002699818662002692888762004114565b8762004176565b506001949350505050565b6000806000848460405160200180807f746f74616c5370656e745065724461790000000000000000000000000000000081525060100183600160a060020a0316600160a060020a0316606060020a028152601401828152602001925050506040516020818303038152906040526040518082805190602001908083835b60208310620027425780518252601f19909201916020918201910162002721565b51815160209384036101000a6000190180199092169116179052604080519290940182900390912086528501959095529290920160002054935050505092915050565b62001abf83838362003190565b6200279c62002182565b600160a060020a03163314620027b157600080fd5b6200105c8162004286565b7f2dfd6c9f781bb6bbb5369c114e949b69ebb440ef3d4dd6b2836225eb1dc3a2be60009081526020527f2de0d2cdc19d356cb53b5984f91bfd3b31fe0c678a0d190a6db39274bb34753f5490565b7f20b8ca26cc94f39fab299954184cf3a9bd04f69543e4f454fab299f015b8130f60005260026020527f0c25bd6cb8545e46227bc56e841bd085538c74351fb22e98acdfbe596b353cfb54600160a060020a031690565b600160a060020a0381565b600160a060020a0383811614156200288357600080fd5b600160a060020a0382811614156200289a57600080fd5b62001abf83600160a060020a0384846200222357600062001290565b7f811bbb11e8899da471f0e69a3ed55090fc90215227fc5fb1cb0d6e962ea7b74f60005260026020527fb4ed64697d3ef8518241966f7c6f28b0d72f20f51198717d198d2d55076c593d54600160a060020a031690565b6200291762002182565b600160a060020a031633146200292c57600080fd5b620029378262001296565b15156200294357600080fd5b8015806200296f57506200295782620025a7565b811180156200296f57506200296c8262003021565b81105b15156200297b57600080fd5b806000808460405160200180807f6d6178506572547800000000000000000000000000000000000000000000000081525060080182600160a060020a0316600160a060020a0316606060020a0281526014019150506040516020818303038152906040526040518082805190602001908083836020831062000de65780518252601f19909201916020918201910162000dc5565b6000600260008360405160200180807f686f6d65546f6b656e416464726573730000000000000000000000000000000081525060100182600160a060020a0316600160a060020a0316606060020a0281526014019150506040516020818303038152906040526040518082805190602001908083836020831062001a495780518252601f19909201916020918201910162001a28565b60608060008062002ab562001ed2565b60405190808252806020026020018201604052801562002adf578160200160208202803883390190505b5092506000915062002af8600160a060020a0362001d2d565b90505b600160a060020a038181161462002b6257600160a060020a038116151562002b2257600080fd5b80838381518110151562002b3257fe5b600160a060020a0390921660209283029091019091015262002b548162001d2d565b600190920191905062002afb565b509092915050565b62002b7462002182565b600160a060020a0316331462002b8957600080fd5b62002b948262001296565b151562002ba057600080fd5b60008111801562002bba575062002bb78262003021565b81105b801562002bd0575062002bcd8262000e28565b81105b151562002bdc57600080fd5b806000808460405160200180807f6d696e506572547800000000000000000000000000000000000000000000000081525060080182600160a060020a0316600160a060020a0316606060020a0281526014019150506040516020818303038152906040526040518082805190602001908083836020831062000de65780518252601f19909201916020918201910162000dc5565b60408051600481526024810182526020810180517bffffffffffffffffffffffffffffffffffffffffffffffffffffffff167f6fde8202000000000000000000000000000000000000000000000000000000001781529151815160009330939291829190808383895b8381101562002cf357818101518382015260200162002cd9565b50505050905090810190601f16801562002d215780820380516001836020036101000a031916815260200191505b509150506000604051808303816000865af1915050158062002db7575030600160a060020a0316636fde82026040518163ffffffff1660e060020a028152600401602060405180830381600087803b15801562002d7d57600080fd5b505af115801562002d92573d6000803e3d6000fd5b505050506040513d602081101562002da957600080fd5b5051600160a060020a031633145b8062002dc257503330145b151562002dce57600080fd5b62002dd862001809565b1562002de357600080fd5b62002dee8b620035e5565b62002df98a62003f52565b62002e2960008a600380602002604051908101604052809291908260036020028082843750620043299350505050565b60408051808201825262002e5491600091908b90600290839083908082843750620046089350505050565b62002e5f87620047e1565b62002e6a8662004845565b62002e758562003866565b600083111562002eb75762002eb78484808060200260200160405190810160405280939291908181526020018383602002808284375062004912945050505050565b62002edb60008051602062005e30833981519152600084815b602002013562003dbe565b62002efa60008051602062005e50833981519152600084600162002ed0565b62002f0462004ac5565b62002f0e62001809565b9b9a5050505050505050505050565b6000806000848460405160200180807f746f74616c45786563757465645065724461790000000000000000000000000081525060130183600160a060020a0316600160a060020a0316606060020a0281526014018281526020019250505060405160208183030381529060405260405180828051906020019080838360208310620027425780518252601f19909201916020918201910162002721565b62002fc462002182565b600160a060020a0316331462002fd957600080fd5b6200105c8162004845565b62002fee62002182565b600160a060020a031633146200300357600080fd5b6200105c81620047e1565b60008051602062005e5083398151915281565b60008060008360405160200180807f6461696c794c696d697400000000000000000000000000000000000000000000815250600a0182600160a060020a0316600160a060020a0316606060020a0281526014019150506040516020818303038152906040526040518082805190602001908083836020831062000ebe5780518252601f19909201916020918201910162000e9d565b6000806000620030cf86600160a060020a038062001ded565b915060008212156200313057620030ef8686600160a060020a0362001ded565b90508015620031015780925062003174565b6200311586600160a060020a038662001ded565b90508015620031275780925062003174565b81925062003174565b6200314b600160a060020a0386600160a060020a0362001ded565b905080156200315d5780925062003174565b62003171600160a060020a03808662001ded565b92505b50509392505050565b60008051602062005e3083398151915281565b60006200319c62003fff565b15620031a757600080fd5b5030620031b584836200105f565b1515620031c157600080fd5b620031d784620031d0620018bd565b8462004024565b620031e3600162004b1c565b604080517f23b872dd000000000000000000000000000000000000000000000000000000008152336004820152600160a060020a038381166024830152604482018590529151918616916323b872dd916064808201926020929091908290030181600087803b1580156200325657600080fd5b505af11580156200326b573d6000803e3d6000fd5b505050506040513d60208110156200328257600080fd5b50620032919050600062004b1c565b620011948433858562004176565b6000620032ab620028b6565b600160a060020a031663d67bdd256040518163ffffffff1660e060020a028152600401602060405180830381600087803b158015620032e957600080fd5b505af1158015620032fe573d6000803e3d6000fd5b505050506040513d60208110156200331557600080fd5b5051905090565b6000600260008360405160200180807f6d657373616765546f6b656e0000000000000000000000000000000000000000815250600c0182600019166000191681526020019150506040516020818303038152906040526040518082805190602001908083836020831062001a495780518252601f19909201916020918201910162001a28565b6000600260008360405160200180807f6d657373616765526563697069656e740000000000000000000000000000000081525060100182600019166000191681526020019150506040516020818303038152906040526040518082805190602001908083836020831062001a495780518252601f19909201916020918201910162001a28565b60008060008360405160200180807f6d65737361676556616c75650000000000000000000000000000000000000000815250600c0182600019166000191681526020019150506040516020818303038152906040526040518082805190602001908083836020831062000ebe5780518252601f19909201916020918201910162000e9d565b6001600460008360405160200180807f6d65737361676546697865640000000000000000000000000000000000000000815250600c0182600019166000191681526020019150506040516020818303038152906040526040518082805190602001908083835b60208310620035345780518252601f19909201916020918201910162003513565b51815160209384036101000a60001901801990921691161790526040805192909401829003909120865285019590955292909201600020805460ff19169415159490941790935550505050565b82600160a060020a03166340c10f1983836040518363ffffffff1660e060020a0281526004018083600160a060020a0316600160a060020a0316815260200182815260200192505050602060405180830381600087803b1580156200256957600080fd5b620035f08162004b40565b1515620035fc57600080fd5b7f811bbb11e8899da471f0e69a3ed55090fc90215227fc5fb1cb0d6e962ea7b74f60005260026020527fb4ed64697d3ef8518241966f7c6f28b0d72f20f51198717d198d2d55076c593d8054600160a060020a031916600160a060020a0392909216919091179055565b8181018281101562000f2f57fe5b6000806000620036848462000eff565b15156200369057600080fd5b6200369b8462001d2d565b9250600160a060020a039150620036b28262001d2d565b90505b600160a060020a03818116908516146200370c57600160a060020a0381161515620036df57600080fd5b809150620036ed8262001d2d565b9050600160a060020a0380821614156200370657600080fd5b620036b5565b62003718828462004b48565b600260008560405160200180807f726577617264416464726573734c69737400000000000000000000000000000081525060110182600160a060020a0316600160a060020a0316606060020a0281526014019150506040516020818303038152906040526040518082805190602001908083835b60208310620037ad5780518252601f1990920191602091820191016200378c565b51815160209384036101000a600019018019909216911617905260408051929094018290039091208652850195909552929092016000208054600160a060020a03191690555062001194915062003818905060016200380b62001ed2565b9063ffffffff62004bdd16565b62004bf0565b6200382a83826200185a565b15620038595762003846836200383f620018bd565b8362004c4c565b6200385383838362004cf8565b62001abf565b62001abf838383620002f9565b620038718162004b40565b15156200387d57600080fd5b7f20b8ca26cc94f39fab299954184cf3a9bd04f69543e4f454fab299f015b8130f60005260026020527f0c25bd6cb8545e46227bc56e841bd085538c74351fb22e98acdfbe596b353cfb8054600160a060020a031916600160a060020a0392909216919091179055565b620038f162002182565b600160a060020a031633146200390657600080fd5b604080517f666f7277617264546f0000000000000000000000000000000000000000000000602080830191909152606060020a600160a060020a03808916820260298501528088168202603d85015286160260518301528251604581840301815260659092019283905281518493600593600093909282918401908083835b60208310620039a65780518252601f19909201916020918201910162003985565b51815160001960209485036101000a0190811690199190911617905260408051949092018490039093208652858301969096525092840160002094909455508151600160a060020a03808916825280881692820192909252908516818301526060810184905290517fa999f8c73447a5021a8e358783df77bbe2c90529cadb1fb1ef8f30cd9f9d8c9392509081900360800190a150505050565b80600260008460405160200180807f686f6d65546f6b656e416464726573730000000000000000000000000000000081525060100182600160a060020a0316600160a060020a0316606060020a0281526014019150506040516020818303038152906040526040518082805190602001908083835b6020831062003ad65780518252601f19909201916020918201910162003ab5565b51815160209384036101000a600019018019909216911617905260408051929094018290039091208652858101969096525092830160009081208054600160a060020a031916600160a060020a0397881617905583517f666f726569676e546f6b656e416464726573730000000000000000000000000081870152958716606060020a02603387015283518087036027018152604790960193849052855188966002969295909450925082918401908083835b6020831062003baa5780518252601f19909201916020918201910162003b89565b51815160209384036101000a600019018019909216911617905260408051929094018290039091208652850195909552929092016000208054600160a060020a031916600160a060020a0395909516949094179093555050505050565b600080600080600080601287101562003d095786601203600a0a955062003c348662001ebc6000620025a7565b945062003c478662001ebc600062000e28565b935062003c5a8662001ebc600062003021565b925062003c6d8662001ebc60006200119a565b915062003c808662001ebc6000620018c6565b905084151562003cbc576001945084841162003cbc576064935060649150838311158062003cae5750818111155b1562003cbc57506127109150815b62003ce3886060604051908101604052808681526020018781526020018881525062004329565b62003d038860408051908101604052808481526020018581525062004608565b62003db4565b60128703600a0a955062003d758860606040519081016040528062003d418a62003d34600062003021565b9063ffffffff62003fbc16565b815260200162003d578a62003d34600062000e28565b815260200162003d6d8a62003d346000620025a7565b905262004329565b62003db488604080519081016040528062003d968a62003d346000620018c6565b815260200162003dac8a62003d3460006200119a565b905262004608565b5050505050505050565b8260008051602062005e3083398151915281148062003deb575060008051602062005e5083398151915281145b151562003df757600080fd5b81670de0b6b3a7640000811062003e0d57600080fd5b62003e188462001296565b151562003e2457600080fd5b604080516020808201889052606060020a600160a060020a038816028284015282516034818403018152605490920192839052815186936000938493909282918401908083835b6020831062003e8c5780518252601f19909201916020918201910162003e6b565b51815160209384036101000a6000190180199092169116179052604080519290940182900390912086528581019690965250928301600020949094555080518881529182018690528051600160a060020a03881693507fb8ff7722579ab646299f4f7d3ec42f3aaa482cce1e47d6041e8ca971600455309281900390910190a25050505050565b80600160a060020a038116151562003f2a57600080fd5b600160a060020a038316151562003f4657620038538262004e69565b62001abf838362004e77565b7f98aa806e31e94a687a31c65769cb99670064dd7f5a87526da075c5fb4eab988060005260026020527f0c1206883be66049a02d4937078367c00b3d71dd1a9465df969363c6ddeac96d8054600160a060020a031916600160a060020a0392909216919091179055565b600082151562003fcf5750600062000f2f565b5081810281838281151562003fe057fe5b041462000f2f57fe5b6000818381151562003ff757fe5b049392505050565b7f6168652c307c1e813ca11cfb3a601f1cf3b22452021a5052d8b05f1f1f8a3e925490565b62004035816200107c8585620026a4565b600080858560405160200180807f746f74616c5370656e745065724461790000000000000000000000000000000081525060100183600160a060020a0316600160a060020a0316606060020a028152601401828152602001925050506040516020818303038152906040526040518082805190602001908083835b60208310620040d15780518252601f199092019160209182019101620040b0565b51815160209384036101000a6000190180199092169116179052604080519290940182900390912086528501959095529290920160002093909355505050505050565b805182906000101562000f2f5781516014146200413057600080fd5b6200413b8262004f29565b9050600160a060020a03811615156200415357600080fd5b6200415d62004f30565b600160a060020a038281169116141562000f2f57600080fd5b80600080620041858662000eff565b1515620041bf57620041a860008051602062005e30833981519152888562004f41565b9150620041bc838363ffffffff62004bdd16565b92505b86600160a060020a03166342966c68846040518263ffffffff1660e060020a02815260040180828152602001915050600060405180830381600087803b1580156200420957600080fd5b505af11580156200421e573d6000803e3d6000fd5b505050506200423087878786620051e3565b905060008211156200427d576040805183815290518291600160a060020a038a16917fd560a522f77cfb4924d6fe51be1615e540a48a8931c48fe0349c7f47ebabe7479181900360200190a35b50505050505050565b6000600160a060020a03821615801590620042aa5750600160a060020a0382811614155b1515620042b657600080fd5b620042c18262000eff565b15620042cc57600080fd5b620042de600160a060020a0362001d2d565b9050600160a060020a0381161515620042f657600080fd5b62004302828262004b48565b62004315600160a060020a038362004b48565b62000ce86200381860016200107c62001ed2565b6040810151600010801562004345575060408101516020820151115b801562004356575060208101518151115b15156200436257600080fd5b8051604080517f6461696c794c696d697400000000000000000000000000000000000000000000602082810191909152606060020a600160a060020a03871602602a8301528251601e818403018152603e909201928390528151600093849392909182918401908083835b60208310620043ee5780518252601f199092019160209182019101620043cd565b51815160209384036101000a600019018019909216911617905260408051929094018290039091208652858101969096525092830160009081209590955550508382015181517f6d6178506572547800000000000000000000000000000000000000000000000081850152600160a060020a038716606060020a0260288201528251808203601c018152603c9091019283905280519194938493919282918401908083835b60208310620044b45780518252601f19909201916020918201910162004493565b51815160209384036101000a600019018019909216911617905260408051929094018290039091208652858101969096525092830160009081209590955550508381015181517f6d696e506572547800000000000000000000000000000000000000000000000081850152600160a060020a038716606060020a0260288201528251808203601c018152603c9091019283905280519194938493919282918401908083835b602083106200457a5780518252601f19909201916020918201910162004559565b51815160209384036101000a60001901801990921691161790526040805192909401829003909120865285019590955292909201600090812094909455505050600160a060020a038316907fca0b3dabefdbd8c72c0a9cf4a6e9d107da897abf036ef3f3f3b010cdd25941599083905b60200201516040518082815260200191505060405180910390a25050565b80516020820151106200461a57600080fd5b8051604080517f657865637574696f6e4461696c794c696d697400000000000000000000000000602082810191909152606060020a600160a060020a038716026033830152825160278184030181526047909201928390528151600093849392909182918401908083835b60208310620046a65780518252601f19909201916020918201910162004685565b51815160209384036101000a600019018019909216911617905260408051929094018290039091208652858101969096525092830160009081209590955550508382015181517f657865637574696f6e4d6178506572547800000000000000000000000000000081850152600160a060020a038716606060020a0260318201528251808203602501815260459091019283905280519194938493919282918401908083835b602083106200476c5780518252601f1990920191602091820191016200474b565b51815160209384036101000a60001901801990921691161790526040805192909401829003909120865285019590955292909201600090812094909455505050600160a060020a038316907f4c177b42dbe934b3abbc0208c11a42e46589983431616f1710ab19969c5ed62e908390620045ea565b620047eb6200555d565b811115620047f857600080fd5b7f2dfd6c9f781bb6bbb5369c114e949b69ebb440ef3d4dd6b2836225eb1dc3a2be60009081526020527f2de0d2cdc19d356cb53b5984f91bfd3b31fe0c678a0d190a6db39274bb34753f55565b600160a060020a03811615156200485b57600080fd5b7f8be0079c531659141344cd1fd0a4f28419497f9722a3daafe3b4186f6b6457e06200488662002182565b60408051600160a060020a03928316815291841660208301528051918290030190a17f02016836a56b71f0d02689e69e326f4f4c1b9057164ef592671cf0d37c8040c060005260026020527fb7802e97e87ef2842a6cce7da7ffaeaedaa2f61a6a7870b23d9d01fc9b73712e8054600160a060020a031916600160a060020a0392909216919091179055565b60008082511115156200492457600080fd5b62004950600160a060020a038360008151811015156200494057fe5b9060200190602002015162004b48565b5060005b815181101562004ab95781516000908390839081106200497057fe5b90602001906020020151600160a060020a031614158015620049bb57508151600160a060020a0390839083908110620049a557fe5b90602001906020020151600160a060020a031614155b1515620049c757600080fd5b620049ea8282815181101515620049da57fe5b9060200190602002015162000eff565b15620049f557600080fd5b600182510381141562004a335762004a2d828281518110151562004a1557fe5b90602001906020020151600160a060020a0362004b48565b62004a62565b62004a62828281518110151562004a4657fe5b9060200190602002015183836001018151811015156200494057fe5b818181518110151562004a7157fe5b90602001906020020151600160a060020a03167f63aa7448a25a575731a7ec06b055a192c07c9c51fc76dbde2aab575401e4714260405160405180910390a260010162004954565b62000ce8825162004bf0565b7f0a6f646cd611241d8073675e00d1a1ff700fbf1b53fcf473de56d1e6e4b714ba60005260046020527f078d888f9b66f3f8bfa10909e31f1e16240db73449f0500afdbbe3a70da457cc805460ff19166001179055565b7f6168652c307c1e813ca11cfb3a601f1cf3b22452021a5052d8b05f1f1f8a3e9255565b6000903b1190565b80600260008460405160200180807f726577617264416464726573734c69737400000000000000000000000000000081525060110182600160a060020a0316600160a060020a0316606060020a0281526014019150506040516020818303038152906040526040518082805190602001908083836020831062003baa5780518252601f19909201916020918201910162003b89565b60008282111562004bea57fe5b50900390565b603281111562004bff57600080fd5b7fabc77c82721ced73eef2645facebe8c30249e6ac372cce6eb9d1fed31bd6648f60009081526020527f75fbf9e7a88379132f510aaafa152e59a595fda8e70d0b76dd34200dac99f82e55565b62004c5d816200107c858562002f1d565b600080858560405160200180807f746f74616c45786563757465645065724461790000000000000000000000000081525060130183600160a060020a0316600160a060020a0316606060020a0281526014018281526020019250505060405160208183030381529060405260405180828051906020019080838360208310620040d15780518252601f199092019160209182019101620040b0565b600080600062004d07620055a7565b925083915062004d2860008051602062005e50833981519152878462004f41565b9050600081111562004d89576040805182815290518491600160a060020a038916917fd560a522f77cfb4924d6fe51be1615e540a48a8931c48fe0349c7f47ebabe7479181900360200190a362004d86828263ffffffff62004bdd16565b91505b85600160a060020a03166340c10f1986846040518363ffffffff1660e060020a0281526004018083600160a060020a0316600160a060020a0316815260200182815260200192505050602060405180830381600087803b15801562004ded57600080fd5b505af115801562004e02573d6000803e3d6000fd5b505050506040513d602081101562004e1957600080fd5b50506040805183815290518491600160a060020a0380891692908a16917f9afd47907e25028cdaca89d193518c302bbb128617d5a992c5abd45815526593919081900360200190a4505050505050565b303162000ce88282620055f1565b604080517f70a0823100000000000000000000000000000000000000000000000000000000815230600482015290518391600091600160a060020a038416916370a0823191602480830192602092919082900301818787803b15801562004edd57600080fd5b505af115801562004ef2573d6000803e3d6000fd5b505050506040513d602081101562004f0957600080fd5b5051905062001194600160a060020a038516848363ffffffff6200565616565b6014015190565b600062004f3c620020f1565b905090565b600080600080600080600080600062004f5962001ed2565b975062004f688c8c8c62001e8c565b965087158062004f76575086155b1562004f865760009850620051d4565b62004f98878963ffffffff62003fe916565b955062004fbe62004fb0878a63ffffffff62003fbc16565b889063ffffffff62004bdd16565b9350600084111562004fd85762004fd588620056ef565b94505b62004fea600160a060020a0362001d2d565b9250600160a060020a03808416148015906200500e5750600160a060020a03831615155b15156200501a57600080fd5b600091505b600160a060020a0383811614620051d05750846000841180156200504257508185145b156200505d576200505a818563ffffffff6200366616565b90505b60008051602062005e308339815191528c14156200510e578a600160a060020a031663a9059cbb84836040518363ffffffff1660e060020a0281526004018083600160a060020a0316600160a060020a0316815260200182815260200192505050602060405180830381600087803b158015620050d957600080fd5b505af1158015620050ee573d6000803e3d6000fd5b505050506040513d60208110156200510557600080fd5b50620051a19050565b8a600160a060020a03166340c10f1984836040518363ffffffff1660e060020a0281526004018083600160a060020a0316600160a060020a0316815260200182815260200192505050602060405180830381600087803b1580156200517257600080fd5b505af115801562005187573d6000803e3d6000fd5b505050506040513d60208110156200519e57600080fd5b50505b620051ac8362001d2d565b9250600160a060020a0383161515620051c457600080fd5b8160010191506200501f565b8698505b50505050505050509392505050565b60007f125e4cfb0000000000000000000000000000000000000000000000000000000081606081808080620052188c620019b2565b60408051600160a060020a0380841660248301528d16604482015260648082018d90528251808303909101815260849091019091526020810180517bffffffffffffffffffffffffffffffffffffffffffffffffffffffff167bffffffffffffffffffffffffffffffffffffffffffffffffffffffff198b161790529096509450620052a3620020f1565b9350620052af620027bc565b9250620052bb620028b6565b91506000620052cc878d8d620030b6565b1215620053d85781600160a060020a03166394643f718587866040518463ffffffff1660e060020a0281526004018084600160a060020a0316600160a060020a0316815260200180602001838152602001828103825284818151815260200191508051906020019080838360005b83811015620053545781810151838201526020016200533a565b50505050905090810190601f168015620053825780820380516001836020036101000a031916815260200191505b50945050505050602060405180830381600087803b158015620053a457600080fd5b505af1158015620053b9573d6000803e3d6000fd5b505050506040513d6020811015620053d057600080fd5b5051620054d8565b81600160a060020a031663dc8601b38587866040518463ffffffff1660e060020a0281526004018084600160a060020a0316600160a060020a0316815260200180602001838152602001828103825284818151815260200191508051906020019080838360005b83811015620054595781810151838201526020016200543f565b50505050905090810190601f168015620054875780820380516001836020036101000a031916815260200191505b50945050505050602060405180830381600087803b158015620054a957600080fd5b505af1158015620054be573d6000803e3d6000fd5b505050506040513d6020811015620054d557600080fd5b50515b9050620054e6818d62005717565b620054f2818a6200579c565b620054fe818c62005820565b80600019168b600160a060020a03168d600160a060020a03167f59a9a8027b9c87b961e254899821c9a276b5efc35d1f7409ea4f291470f1629a8c6040518082815260200191505060405180910390a49b9a5050505050505050505050565b600062005569620028b6565b600160a060020a031663e5789d036040518163ffffffff1660e060020a028152600401602060405180830381600087803b158015620032e957600080fd5b6000620055b3620028b6565b600160a060020a031663669f618b6040518163ffffffff1660e060020a028152600401602060405180830381600087803b158015620032e957600080fd5b604051600160a060020a0383169082156108fc029083906000818181858888f19350505050151562000ce857808262005629620058b6565b600160a060020a039091168152604051908190036020019082f08015801562002595573d6000803e3d6000fd5b82600160a060020a031663a9059cbb83836040518363ffffffff1660e060020a0281526004018083600160a060020a0316600160a060020a0316815260200182815260200192505050600060405180830381600087803b158015620056ba57600080fd5b505af1158015620056cf573d6000803e3d6000fd5b505050503d1562001abf5760206000803e600051151562001abf57600080fd5b6000816200570543600163ffffffff62004bdd16565b408115156200571057fe5b0692915050565b80600260008460405160200180807f6d657373616765546f6b656e0000000000000000000000000000000000000000815250600c0182600019166000191681526020019150506040516020818303038152906040526040518082805190602001908083836020831062003baa5780518252601f19909201916020918201910162003b89565b806000808460405160200180807f6d65737361676556616c75650000000000000000000000000000000000000000815250600c0182600019166000191681526020019150506040516020818303038152906040526040518082805190602001908083836020831062000de65780518252601f19909201916020918201910162000dc5565b80600260008460405160200180807f6d657373616765526563697069656e740000000000000000000000000000000081525060100182600019166000191681526020019150506040516020818303038152906040526040518082805190602001908083836020831062003baa5780518252601f19909201916020918201910162003b89565b60405161054880620058c783390190565b60405160218062005e0f833901905600608060405234801561001057600080fd5b50604051610548380380610548833981016040818152825160208401518285015160608087015160808801517f54fd4d500000000000000000000000000000000000000000000000000000000088529551949793840196929093019492939091600160a060020a038816916354fd4d509160048082019260009290919082900301818387803b1580156100a257600080fd5b505af11580156100b6573d6000803e3d6000fd5b505050506040513d6000823e601f3d908101601f1916820160405260208110156100df57600080fd5b8101908080516401000000008111156100f757600080fd5b8201602081018481111561010a57600080fd5b815164010000000081118282018710171561012457600080fd5b50507f360894a13ba1a3210667c828492db98dca3e2076cc3735a920a3ca505d382bbc8a90558851909450610163935060009250602089019150610380565b508351610177906001906020870190610380565b506002805460ff851660ff1990911617905560068054600160a060020a031990811633908117909255600780549091169091179055604080517f454950373132446f6d61696e28737472696e67206e616d652c737472696e672081527f76657273696f6e2c75696e7432353620636861696e49642c61646472657373206020808301919091527f766572696679696e67436f6e74726163742900000000000000000000000000008284015291519081900360520181208751909288929182918401908083835b6020831061025c5780518252601f19909201916020918201910161023d565b51815160209384036101000a6000190180199092169116179052604051919093018190038120875190955087945090928392508401908083835b602083106102b55780518252601f199092019160209182019101610296565b51815160209384036101000a6000190180199092169116179052604080519290940182900382208282019890985281840196909652606081019690965250608085018790523060a0808701919091528151808703909101815260c09095019081905284519093849350850191508083835b602083106103455780518252601f199092019160209182019101610326565b5181516020939093036101000a600019018019909116921691909117905260405192018290039091206008555061041b975050505050505050565b828054600181600116156101000203166002900490600052602060002090601f016020900481019282601f106103c157805160ff19168380011785556103ee565b828001600101855582156103ee579182015b828111156103ee5782518255916020019190600101906103d3565b506103fa9291506103fe565b5090565b61041891905b808211156103fa5760008155600101610404565b90565b61011e8061042a6000396000f300608060405260043610603e5763ffffffff7c01000000000000000000000000000000000000000000000000000000006000350416635c60da1b81146092575b6000604660cd565b905073ffffffffffffffffffffffffffffffffffffffff81161515606957600080fd5b60405136600082376000803683855af43d82016040523d6000833e808015608e573d83f35b3d83fd5b348015609d57600080fd5b5060a460cd565b6040805173ffffffffffffffffffffffffffffffffffffffff9092168252519081900360200190f35b7f360894a13ba1a3210667c828492db98dca3e2076cc3735a920a3ca505d382bbc54905600a165627a7a72305820cd82fe3a947b35920fdab8cc8fd7ebe5c3f35e012d1887b667828af586ab34d10029608060405260405160208060218339810160405251600160a060020a038116ff00741ede137d0537e88e0ea0ff25b1f22d837903dbbee8980b4a06e8523247ee2603be2b2875cb41e0e77355e802a16769bb8dfcf825061cde185c73bf94f12625a165627a7a723058204f2e334e69e2c76069efe8f1e4628055e341893ed3117ae7c0a1a91c508cf2340029",
  "source": "pragma solidity 0.4.24;\n\nimport \"./BasicMultiAMBErc20ToErc677.sol\";\nimport \"./TokenProxy.sol\";\nimport \"./HomeFeeManagerMultiAMBErc20ToErc677.sol\";\nimport \"../../interfaces/IBurnableMintableERC677Token.sol\";\nimport \"./MultiTokenForwardingRules.sol\";\n\n/**\n* @title HomeMultiAMBErc20ToErc677\n* @dev Home side implementation for multi-erc20-to-erc677 mediator intended to work on top of AMB bridge.\n* It is designed to be used as an implementation contract of EternalStorageProxy contract.\n*/\ncontract HomeMultiAMBErc20ToErc677 is\n    BasicMultiAMBErc20ToErc677,\n    HomeFeeManagerMultiAMBErc20ToErc677,\n    MultiTokenForwardingRules\n{\n    bytes32 internal constant TOKEN_IMAGE_CONTRACT = 0x20b8ca26cc94f39fab299954184cf3a9bd04f69543e4f454fab299f015b8130f; // keccak256(abi.encodePacked(\"tokenImageContract\"))\n\n    event NewTokenRegistered(address indexed foreignToken, address indexed homeToken);\n\n    /**\n    * @dev Stores the initial parameters of the mediator.\n    * @param _bridgeContract the address of the AMB bridge contract.\n    * @param _mediatorContract the address of the mediator contract on the other network.\n    * @param _dailyLimitMaxPerTxMinPerTxArray array with limit values for the assets to be bridged to the other network.\n    *   [ 0 = dailyLimit, 1 = maxPerTx, 2 = minPerTx ]\n    * @param _executionDailyLimitExecutionMaxPerTxArray array with limit values for the assets bridged from the other network.\n    *   [ 0 = executionDailyLimit, 1 = executionMaxPerTx ]\n    * @param _requestGasLimit the gas limit for the message execution.\n    * @param _owner address of the owner of the mediator contract.\n    * @param _tokenImage address of the PermittableToken contract that will be used for deploying of new tokens.\n    * @param _rewardAddresses list of reward addresses, between whom fees will be distributed.\n    * @param _fees array with initial fees for both bridge directions.\n    *   [ 0 = homeToForeignFee, 1 = foreignToHomeFee ]\n    */\n    function initialize(\n        address _bridgeContract,\n        address _mediatorContract,\n        uint256[3] _dailyLimitMaxPerTxMinPerTxArray, // [ 0 = _dailyLimit, 1 = _maxPerTx, 2 = _minPerTx ]\n        uint256[2] _executionDailyLimitExecutionMaxPerTxArray, // [ 0 = _executionDailyLimit, 1 = _executionMaxPerTx ]\n        uint256 _requestGasLimit,\n        address _owner,\n        address _tokenImage,\n        address[] _rewardAddresses,\n        uint256[2] _fees // [ 0 = homeToForeignFee, 1 = foreignToHomeFee ]\n    ) external onlyRelevantSender returns (bool) {\n        require(!isInitialized());\n\n        _setBridgeContract(_bridgeContract);\n        _setMediatorContractOnOtherSide(_mediatorContract);\n        _setLimits(address(0), _dailyLimitMaxPerTxMinPerTxArray);\n        _setExecutionLimits(address(0), _executionDailyLimitExecutionMaxPerTxArray);\n        _setRequestGasLimit(_requestGasLimit);\n        _setOwner(_owner);\n        _setTokenImage(_tokenImage);\n        if (_rewardAddresses.length > 0) {\n            _setRewardAddressList(_rewardAddresses);\n        }\n        _setFee(HOME_TO_FOREIGN_FEE, address(0), _fees[0]);\n        _setFee(FOREIGN_TO_HOME_FEE, address(0), _fees[1]);\n\n        setInitialize();\n\n        return isInitialized();\n    }\n\n    /**\n    * @dev Updates an address of the token image contract used for proxifying newly created tokens.\n    * @param _tokenImage address of PermittableToken contract.\n    */\n    function setTokenImage(address _tokenImage) external onlyOwner {\n        _setTokenImage(_tokenImage);\n    }\n\n    /**\n    * @dev Retrieves address of the token image contract.\n    * @return address of block reward contract.\n    */\n    function tokenImage() public view returns (address) {\n        return addressStorage[TOKEN_IMAGE_CONTRACT];\n    }\n\n    /**\n    * @dev Handles the bridged tokens for the first time, includes deployment of new TokenProxy contract.\n    * Checks that the value is inside the execution limits and invokes the method\n    * to execute the Mint or Unlock accordingly.\n    * @param _token address of the bridged ERC20/ERC677 token on the foreign side.\n    * @param _name name of the bridged token, \"x\" will be appended, if empty, symbol will be used instead.\n    * @param _symbol symbol of the bridged token, \"x\" will be appended, if empty, name will be used instead.\n    * @param _decimals decimals of the bridge foreign token.\n    * @param _recipient address that will receive the tokens.\n    * @param _value amount of tokens to be received.\n    */\n    function deployAndHandleBridgedTokens(\n        address _token,\n        string _name,\n        string _symbol,\n        uint8 _decimals,\n        address _recipient,\n        uint256 _value\n    ) external onlyMediator {\n        string memory name = _name;\n        string memory symbol = _symbol;\n        require(bytes(name).length > 0 || bytes(symbol).length > 0);\n        if (bytes(name).length == 0) {\n            name = symbol;\n        } else if (bytes(symbol).length == 0) {\n            symbol = name;\n        }\n        name = string(abi.encodePacked(name, \" on xDai\"));\n        address homeToken = new TokenProxy(tokenImage(), name, symbol, _decimals, bridgeContract().sourceChainId());\n        _setTokenAddressPair(_token, homeToken);\n        _initializeTokenBridgeLimits(homeToken, _decimals);\n        _setFee(HOME_TO_FOREIGN_FEE, homeToken, getFee(HOME_TO_FOREIGN_FEE, address(0)));\n        _setFee(FOREIGN_TO_HOME_FEE, homeToken, getFee(FOREIGN_TO_HOME_FEE, address(0)));\n        _handleBridgedTokens(ERC677(homeToken), _recipient, _value);\n\n        emit NewTokenRegistered(_token, homeToken);\n    }\n\n    /**\n    * @dev Handles the bridged tokens. Checks that the value is inside the execution limits and invokes the method\n    * to execute the Mint or Unlock accordingly.\n    * @param _token bridged ERC20 token.\n    * @param _recipient address that will receive the tokens.\n    * @param _value amount of tokens to be received.\n    */\n    function handleBridgedTokens(ERC677 _token, address _recipient, uint256 _value) external onlyMediator {\n        ERC677 homeToken = ERC677(homeTokenAddress(_token));\n        require(isTokenRegistered(homeToken));\n        _handleBridgedTokens(homeToken, _recipient, _value);\n    }\n\n    /**\n    * @dev ERC677 transfer callback function.\n    * @param _from address of tokens sender.\n    * @param _value amount of transferred tokens.\n    * @param _data additional transfer data, can be used for passing alternative receiver address.\n    */\n    function onTokenTransfer(address _from, uint256 _value, bytes _data) public returns (bool) {\n        // if onTokenTransfer is called as a part of call to _relayTokens, this callback does nothing\n        if (!lock()) {\n            ERC677 token = ERC677(msg.sender);\n            // if msg.sender if not a valid token contract, this check will fail, since limits are zeros\n            // so the following check is not needed\n            // require(isTokenRegistered(token));\n            require(withinLimit(token, _value));\n            addTotalSpentPerDay(token, getCurrentDay(), _value);\n            bridgeSpecificActionsOnTokenTransfer(token, _from, chooseReceiver(_from, _data), _value);\n        }\n        return true;\n    }\n\n    /**\n    * @dev Validates that the token amount is inside the limits, calls transferFrom to transfer the tokens to the contract\n    * and invokes the method to burn/lock the tokens and unlock/mint the tokens on the other network.\n    * The user should first call Approve method of the ERC677 token.\n    * @param token bridge token contract address.\n    * @param _receiver address that will receive the native tokens on the other network.\n    * @param _value amount of tokens to be transferred to the other network.\n    */\n    function _relayTokens(ERC677 token, address _receiver, uint256 _value) internal {\n        // This lock is to prevent calling passMessage twice if a ERC677 token is used.\n        // When transferFrom is called, after the transfer, the ERC677 token will call onTokenTransfer from this contract\n        // which will call passMessage.\n        require(!lock());\n        address to = address(this);\n        // if msg.sender if not a valid token contract, this check will fail, since limits are zeros\n        // so the following check is not needed\n        // require(isTokenRegistered(token));\n        require(withinLimit(token, _value));\n        addTotalSpentPerDay(token, getCurrentDay(), _value);\n\n        setLock(true);\n        token.transferFrom(msg.sender, to, _value);\n        setLock(false);\n        bridgeSpecificActionsOnTokenTransfer(token, msg.sender, _receiver, _value);\n    }\n\n    /**\n     * @dev Executes action on the request to deposit tokens relayed from the other network\n     * @param _recipient address of tokens receiver\n     * @param _value amount of bridged tokens\n     */\n    function executeActionOnBridgedTokens(address _token, address _recipient, uint256 _value) internal {\n        bytes32 _messageId = messageId();\n        uint256 valueToMint = _value;\n        uint256 fee = _distributeFee(FOREIGN_TO_HOME_FEE, _token, valueToMint);\n        if (fee > 0) {\n            emit FeeDistributed(fee, _token, _messageId);\n            valueToMint = valueToMint.sub(fee);\n        }\n        IBurnableMintableERC677Token(_token).mint(_recipient, valueToMint);\n        emit TokensBridged(_token, _recipient, valueToMint, _messageId);\n    }\n\n    /**\n    * @dev Mints back the amount of tokens that were bridged to the other network but failed.\n    * @param _token address that bridged token contract.\n    * @param _recipient address that will receive the tokens.\n    * @param _value amount of tokens to be received.\n    */\n    function executeActionOnFixedTokens(address _token, address _recipient, uint256 _value) internal {\n        IBurnableMintableERC677Token(_token).mint(_recipient, _value);\n    }\n\n    /**\n    * @dev Retrieves address of the home bridged token contract associated with a specific foreign token contract.\n    * @param _foreignToken address of the created home token contract.\n    * @return address of the home token contract.\n    */\n    function homeTokenAddress(address _foreignToken) public view returns (address) {\n        return addressStorage[keccak256(abi.encodePacked(\"homeTokenAddress\", _foreignToken))];\n    }\n\n    /**\n    * @dev Retrieves address of the foreign bridged token contract associated with a specific home token contract.\n    * @param _homeToken address of the created home token contract.\n    * @return address of the foreign token contract.\n    */\n    function foreignTokenAddress(address _homeToken) public view returns (address) {\n        return addressStorage[keccak256(abi.encodePacked(\"foreignTokenAddress\", _homeToken))];\n    }\n\n    /**\n    * @dev Internal function for updating an address of the token image contract.\n    * @param _foreignToken address of bridged foreign token contract.\n    * @param _foreignToken address of created home token contract.\n    */\n    function _setTokenAddressPair(address _foreignToken, address _homeToken) internal {\n        addressStorage[keccak256(abi.encodePacked(\"homeTokenAddress\", _foreignToken))] = _homeToken;\n        addressStorage[keccak256(abi.encodePacked(\"foreignTokenAddress\", _homeToken))] = _foreignToken;\n    }\n\n    /**\n    * @dev Internal function for updating an address of the token image contract.\n    * @param _tokenImage address of deployed PermittableToken contract.\n    */\n    function _setTokenImage(address _tokenImage) internal {\n        require(AddressUtils.isContract(_tokenImage));\n        addressStorage[TOKEN_IMAGE_CONTRACT] = _tokenImage;\n    }\n\n    /**\n     * @dev Executes action on withdrawal of bridged tokens\n     * @param _token address of token contract\n     * @param _from address of tokens sender\n     * @param _receiver address of tokens receiver on the other side\n     * @param _value requested amount of bridged tokens\n     */\n    function bridgeSpecificActionsOnTokenTransfer(ERC677 _token, address _from, address _receiver, uint256 _value)\n        internal\n    {\n        uint256 valueToBridge = _value;\n        uint256 fee = 0;\n        // Next line disables fee collection in case sender is one of the reward addresses.\n        // It is needed to allow a 100% withdrawal of tokens from the home side.\n        // If fees are not disabled for reward receivers, small fraction of tokens will always\n        // be redistributed between the same set of reward addresses, which is not the desired behaviour.\n        if (!isRewardAddress(_from)) {\n            fee = _distributeFee(HOME_TO_FOREIGN_FEE, _token, valueToBridge);\n            valueToBridge = valueToBridge.sub(fee);\n        }\n        IBurnableMintableERC677Token(_token).burn(valueToBridge);\n        bytes32 _messageId = passMessage(_token, _from, _receiver, valueToBridge);\n        if (fee > 0) {\n            emit FeeDistributed(fee, _token, _messageId);\n        }\n    }\n\n    /**\n    * @dev Call AMB bridge to require the invocation of handleBridgedTokens method of the mediator on the other network.\n    * Store information related to the bridged tokens in case the message execution fails on the other network\n    * and the action needs to be fixed/rolled back.\n    * @param _token bridged ERC20 token\n    * @param _from address of sender, if bridge operation fails, tokens will be returned to this address\n    * @param _receiver address of receiver on the other side, will eventually receive bridged tokens\n    * @param _value bridged amount of tokens\n    * @return id of the created and passed message\n    */\n    function passMessage(ERC677 _token, address _from, address _receiver, uint256 _value) internal returns (bytes32) {\n        bytes4 methodSelector = this.handleBridgedTokens.selector;\n        address foreignToken = foreignTokenAddress(_token);\n        bytes memory data = abi.encodeWithSelector(methodSelector, foreignToken, _receiver, _value);\n\n        address executor = mediatorContractOnOtherSide();\n        uint256 gasLimit = requestGasLimit();\n        IAMB bridge = bridgeContract();\n\n        // Address of the foreign token is used here for determining lane permissions.\n        // Such decision makes it possible to set rules for tokens that are not bridged yet.\n        bytes32 _messageId = destinationLane(foreignToken, _from, _receiver) >= 0\n            ? bridge.requireToPassMessage(executor, data, gasLimit)\n            : bridge.requireToConfirmMessage(executor, data, gasLimit);\n\n        setMessageToken(_messageId, _token);\n        setMessageValue(_messageId, _value);\n        setMessageRecipient(_messageId, _from);\n\n        emit TokensBridgingInitiated(_token, _from, _value, _messageId);\n\n        return _messageId;\n    }\n}\n",
  "sourcePath": "/home/heynow/streamr/tokenbridge-contracts/contracts/upgradeable_contracts/multi_amb_erc20_to_erc677/HomeMultiAMBErc20ToErc677.sol",
  "compiler": {
    "name": "solc",
    "version": "0.4.24+commit.e67f0147.Emscripten.clang"
  },
  "schemaVersion": "3.0.15",
  "updatedAt": "2021-03-02T20:35:45.315Z",
  "devdoc": {
    "methods": {
      "addRewardAddress(address)": {
        "details": "Adds a new reward address to the list, which will receive fees collected from the bridge operations. Only the owner can call this method.",
        "params": {
          "_addr": "new reward account."
        }
      },
      "bridgeContract()": {
        "details": "Get the AMB interface for the bridge contract address",
        "return": "AMB interface for the bridge contract address"
      },
      "calculateFee(bytes32,address,uint256)": {
        "details": "Calculates the amount of fee to pay for the value of the particular fee type.",
        "params": {
          "_feeType": "type of the updated fee, can be one of [HOME_TO_FOREIGN_FEE, FOREIGN_TO_HOME_FEE].",
          "_token": "address of the token contract for which fee should apply, 0x00..00 describes the initial fee for newly created tokens.",
          "_value": "bridged value, for which fee should be evaluated."
        },
        "return": "amount of fee to be subtracted from the transferred value."
      },
      "claimTokens(address,address)": {
        "details": "Claims stucked tokens. Only unsupported tokens can be claimed. When dealing with already supported tokens, fixMediatorBalance can be used instead.",
        "params": {
          "_to": "address of tokens receiver",
          "_token": "address of claimed token, address(0) for native"
        }
      },
      "dailyLimit(address)": {
        "details": "Retrieves current daily limit for a particular token contract.",
        "params": {
          "_token": "address of the token contract."
        },
        "return": "daily limit on tokens that can be sent through the bridge per day."
      },
      "deployAndHandleBridgedTokens(address,string,string,uint8,address,uint256)": {
        "details": "Handles the bridged tokens for the first time, includes deployment of new TokenProxy contract. Checks that the value is inside the execution limits and invokes the method to execute the Mint or Unlock accordingly.",
        "params": {
          "_decimals": "decimals of the bridge foreign token.",
          "_name": "name of the bridged token, \"x\" will be appended, if empty, symbol will be used instead.",
          "_recipient": "address that will receive the tokens.",
          "_symbol": "symbol of the bridged token, \"x\" will be appended, if empty, name will be used instead.",
          "_token": "address of the bridged ERC20/ERC677 token on the foreign side.",
          "_value": "amount of tokens to be received."
        }
      },
      "destinationLane(address,address,address)": {
        "details": "Tells the destination lane for a particular bridge operation by checking several wildcard forwarding rules.",
        "params": {
          "_receiver": "address of the tokens receiver on the foreign side of the bridge.",
          "_sender": "address of the tokens sender on the home side of the bridge.",
          "_token": "address of the token contract on the foreign side of the bridge."
        },
        "return": "destination lane identifier, where the message should be forwarded to. 1 - oracle-driven-lane should be used. 0 - default behaviour should be applied. -1 - manual lane should be used."
      },
      "executionDailyLimit(address)": {
        "details": "Retrieves current execution daily limit for a particular token contract.",
        "params": {
          "_token": "address of the token contract."
        },
        "return": "daily limit on tokens that can be received from the bridge on the other side per day."
      },
      "executionMaxPerTx(address)": {
        "details": "Retrieves current maximum execution amount of tokens per one transfer for a particular token contract.",
        "params": {
          "_token": "address of the token contract."
        },
        "return": "maximum amount on tokens that can received from the bridge on the other side in one transaction."
      },
      "fixFailedMessage(bytes32)": {
        "details": "Handles the request to fix transferred assets which bridged message execution failed on the other network. It uses the information stored by passMessage method when the assets were initially transferred",
        "params": {
          "_messageId": "id of the message which execution failed on the other network."
        }
      },
      "foreignTokenAddress(address)": {
        "details": "Retrieves address of the foreign bridged token contract associated with a specific home token contract.",
        "params": {
          "_homeToken": "address of the created home token contract."
        },
        "return": "address of the foreign token contract."
      },
      "forwardingRule(address,address,address)": {
        "details": "Tells forwarding rule set up for a particular bridge operation.",
        "params": {
          "_receiver": "address of the tokens receiver on the foreign side of the bridge.",
          "_sender": "address of the tokens sender on the home side of the bridge.",
          "_token": "address of the token contract on the foreign side of the bridge."
        },
        "return": "preferred destination lane for the particular bridge operation."
      },
      "getBridgeInterfacesVersion()": {
        "details": "Tells the bridge interface version that this contract supports.",
        "return": "major value of the versionminor value of the versionpatch value of the version"
      },
      "getBridgeMode()": {
        "details": "Tells the bridge mode that this contract supports.",
        "return": "_data 4 bytes representing the bridge mode"
      },
      "getCurrentDay()": {
        "details": "Returns current day number.",
        "return": "day number."
      },
      "getFee(bytes32,address)": {
        "details": "Retrieves the value for the particular fee type.",
        "params": {
          "_feeType": "type of the updated fee, can be one of [HOME_TO_FOREIGN_FEE, FOREIGN_TO_HOME_FEE].",
          "_token": "address of the token contract for which fee should apply, 0x00..00 describes the initial fee for newly created tokens."
        },
        "return": "fee value associated with the requested fee type."
      },
      "getNextRewardAddress(address)": {
        "details": "Retrieves next reward address in the linked list, or F_ADDR if given address is the last one.",
        "params": {
          "_address": "address of some reward account."
        },
        "return": "address of the next reward receiver."
      },
      "handleBridgedTokens(address,address,uint256)": {
        "details": "Handles the bridged tokens. Checks that the value is inside the execution limits and invokes the method to execute the Mint or Unlock accordingly.",
        "params": {
          "_recipient": "address that will receive the tokens.",
          "_token": "bridged ERC20 token.",
          "_value": "amount of tokens to be received."
        }
      },
      "homeTokenAddress(address)": {
        "details": "Retrieves address of the home bridged token contract associated with a specific foreign token contract.",
        "params": {
          "_foreignToken": "address of the created home token contract."
        },
        "return": "address of the home token contract."
      },
      "initialize(address,address,uint256[3],uint256[2],uint256,address,address,address[],uint256[2])": {
        "details": "Stores the initial parameters of the mediator.",
        "params": {
          "_bridgeContract": "the address of the AMB bridge contract.",
          "_dailyLimitMaxPerTxMinPerTxArray": "array with limit values for the assets to be bridged to the other network.  [ 0 = dailyLimit, 1 = maxPerTx, 2 = minPerTx ]",
          "_executionDailyLimitExecutionMaxPerTxArray": "array with limit values for the assets bridged from the other network.  [ 0 = executionDailyLimit, 1 = executionMaxPerTx ]",
          "_fees": "array with initial fees for both bridge directions.  [ 0 = homeToForeignFee, 1 = foreignToHomeFee ]",
          "_mediatorContract": "the address of the mediator contract on the other network.",
          "_owner": "address of the owner of the mediator contract.",
          "_requestGasLimit": "the gas limit for the message execution.",
          "_rewardAddresses": "list of reward addresses, between whom fees will be distributed.",
          "_tokenImage": "address of the PermittableToken contract that will be used for deploying of new tokens."
        }
      },
      "isRewardAddress(address)": {
        "details": "Checks if specified address is included into the registered rewards receivers list.",
        "params": {
          "_addr": "address to verify."
        },
        "return": "true, if specified address is associated with one of the registered reward accounts."
      },
      "isTokenRegistered(address)": {
        "details": "Checks if specified token was already bridged at least once.",
        "params": {
          "_token": "address of the token contract."
        },
        "return": "true, if token address is address(0) or token was already bridged."
      },
      "maxAvailablePerTx(address)": {
        "details": "Retrieves maximum available bridge amount per one transaction taking into account maxPerTx() and dailyLimit() parameters.",
        "params": {
          "_token": "address of the token contract, or address(0) for the default limit."
        },
        "return": "minimum of maxPerTx parameter and remaining daily quota."
      },
      "maxPerTx(address)": {
        "details": "Retrieves current maximum amount of tokens per one transfer for a particular token contract.",
        "params": {
          "_token": "address of the token contract."
        },
        "return": "maximum amount on tokens that can be sent through the bridge in one transfer."
      },
      "mediatorContractOnOtherSide()": {
        "details": "Tells the mediator contract address from the other network.",
        "return": "the address of the mediator contract."
      },
      "messageFixed(bytes32)": {
        "details": "Tells if a message sent to the AMB bridge has been fixed.",
        "return": "bool indicating the status of the message."
      },
      "minPerTx(address)": {
        "details": "Retrieves current minimum amount of tokens per one transfer for a particular token contract.",
        "params": {
          "_token": "address of the token contract."
        },
        "return": "minimum amount on tokens that can be sent through the bridge in one transfer."
      },
      "onTokenTransfer(address,uint256,bytes)": {
        "details": "ERC677 transfer callback function.",
        "params": {
          "_data": "additional transfer data, can be used for passing alternative receiver address.",
          "_from": "address of tokens sender.",
          "_value": "amount of transferred tokens."
        }
      },
      "owner()": {
        "details": "Tells the address of the owner",
        "return": "the address of the owner"
      },
      "relayTokens(address,address,uint256)": {
        "details": "Initiate the bridge operation for some amount of tokens from msg.sender. The user should first call Approve method of the ERC677 token.",
        "params": {
          "_receiver": "address that will receive the native tokens on the other network.",
          "_value": "amount of tokens to be transferred to the other network.",
          "token": "bridged token contract address."
        }
      },
      "relayTokens(address,uint256)": {
        "details": "Initiate the bridge operation for some amount of tokens from msg.sender to msg.sender on the other side. The user should first call Approve method of the ERC677 token.",
        "params": {
          "_value": "amount of tokens to be transferred to the other network.",
          "token": "bridged token contract address."
        }
      },
      "removeRewardAddress(address)": {
        "details": "Removes a reward address from the rewards list. Only the owner can call this method.",
        "params": {
          "_addr": "old reward account, that should be removed."
        }
      },
      "requestFailedMessageFix(bytes32)": {
        "details": "Method to be called when a bridged message execution failed. It will generate a new message requesting to fix/roll back the transferred assets on the other network.",
        "params": {
          "_messageId": "id of the message which execution failed."
        }
      },
      "requestGasLimit()": {
        "details": "Tells the gas limit to be used in the message execution by the AMB bridge on the other network.",
        "return": "the gas limit for the message execution."
      },
      "rewardAddressCount()": {
        "details": "Retrieves amount of registered reward accounts.",
        "return": "length of reward addresses list."
      },
      "rewardAddressList()": {
        "details": "Retrieves all registered reward accounts.",
        "return": "address list of the registered reward receivers."
      },
      "setBridgeContract(address)": {
        "details": "Sets the AMB bridge contract address. Only the owner can call this method.",
        "params": {
          "_bridgeContract": "the address of the bridge contract."
        }
      },
      "setDailyLimit(address,uint256)": {
        "details": "Updates daily limit for the particular token. Only owner can call this method.",
        "params": {
          "_dailyLimit": "daily allowed amount of bridged tokens, should be greater than maxPerTx. 0 value is also allowed, will stop the bridge operations in outgoing direction.",
          "_token": "address of the token contract, or address(0) for configuring the efault limit."
        }
      },
      "setExecutionDailyLimit(address,uint256)": {
        "details": "Updates execution daily limit for the particular token. Only owner can call this method.",
        "params": {
          "_dailyLimit": "daily allowed amount of executed tokens, should be greater than executionMaxPerTx. 0 value is also allowed, will stop the bridge operations in incoming direction.",
          "_token": "address of the token contract, or address(0) for configuring the default limit."
        }
      },
      "setExecutionMaxPerTx(address,uint256)": {
        "details": "Updates execution maximum per transaction for the particular token. Only owner can call this method.",
        "params": {
          "_maxPerTx": "maximum amount of executed tokens per one transaction, should be less than executionDailyLimit. 0 value is also allowed, will stop the bridge operations in incoming direction.",
          "_token": "address of the token contract, or address(0) for configuring the default limit."
        }
      },
      "setFee(bytes32,address,uint256)": {
        "details": "Updates the value for the particular fee type. Only the owner can call this method.",
        "params": {
          "_fee": "new fee value, in percentage (1 ether == 10**18 == 100%).",
          "_feeType": "type of the updated fee, can be one of [HOME_TO_FOREIGN_FEE, FOREIGN_TO_HOME_FEE].",
          "_token": "address of the token contract for which fee should apply, 0x00..00 describes the initial fee for newly created tokens."
        }
      },
      "setMaxPerTx(address,uint256)": {
        "details": "Updates maximum per transaction for the particular token. Only owner can call this method.",
        "params": {
          "_maxPerTx": "maximum amount of tokens per one transaction, should be less than dailyLimit, greater than minPerTx. 0 value is also allowed, will stop the bridge operations in outgoing direction.",
          "_token": "address of the token contract, or address(0) for configuring the default limit."
        }
      },
      "setMediatorContractOnOtherSide(address)": {
        "details": "Sets the mediator contract address from the other network. Only the owner can call this method.",
        "params": {
          "_mediatorContract": "the address of the mediator contract."
        }
      },
      "setMinPerTx(address,uint256)": {
        "details": "Updates minumum per transaction for the particular token. Only owner can call this method.",
        "params": {
          "_minPerTx": "minumum amount of tokens per one transaction, should be less than maxPerTx and dailyLimit.",
          "_token": "address of the token contract, or address(0) for configuring the default limit."
        }
      },
      "setReceiverExceptionForTokenForwardingRule(address,address,bool)": {
        "params": {
          "_enable": "true, if bridge operations for a given token and receiver should be forwarded to the oracle-driven lane.",
          "_receiver": "address of the tokens receiver on the foreign side of the bridge.",
          "_token": "address of the token contract on the foreign side."
        }
      },
      "setReceiverForwardingRule(address,bool)": {
        "params": {
          "_enable": "true, if all bridge operations to a given receiver should be forwarded to the manual lane.",
          "_receiver": "address of the tokens receiver on the foreign side."
        }
      },
      "setRequestGasLimit(uint256)": {
        "details": "Sets the gas limit to be used in the message execution by the AMB bridge on the other network. This value can't exceed the parameter maxGasPerTx defined on the AMB bridge. Only the owner can call this method.",
        "params": {
          "_requestGasLimit": "the gas limit for the message execution."
        }
      },
      "setSenderExceptionForTokenForwardingRule(address,address,bool)": {
        "params": {
          "_enable": "true, if bridge operations for a given token and sender should be forwarded to the oracle-driven lane.",
          "_sender": "address of the tokens sender on the home side of the bridge.",
          "_token": "address of the token contract on the foreign side."
        }
      },
      "setSenderForwardingRule(address,bool)": {
        "params": {
          "_enable": "true, if all bridge operations from a given sender should be forwarded to the manual lane.",
          "_sender": "address of the tokens sender on the home side."
        }
      },
      "setTokenForwardingRule(address,bool)": {
        "params": {
          "_enable": "true, if bridge operations for a given token should be forwarded to the manual lane.",
          "_token": "address of the token contract on the foreign side."
        }
      },
      "setTokenImage(address)": {
        "details": "Updates an address of the token image contract used for proxifying newly created tokens.",
        "params": {
          "_tokenImage": "address of PermittableToken contract."
        }
      },
      "tokenImage()": {
        "details": "Retrieves address of the token image contract.",
        "return": "address of block reward contract."
      },
      "totalExecutedPerDay(address,uint256)": {
        "details": "Retrieves the total executed amount for particular token during specific day.",
        "params": {
          "_day": "day number for which spent amount if requested.",
          "_token": "address of the token contract."
        },
        "return": "amount of tokens received from the bridge from the other side."
      },
      "totalSpentPerDay(address,uint256)": {
        "details": "Retrieves the total spent amount for particular token during specific day.",
        "params": {
          "_day": "day number for which spent amount if requested.",
          "_token": "address of the token contract."
        },
        "return": "amount of tokens sent through the bridge to the other side."
      },
      "transferOwnership(address)": {
        "details": "Allows the current owner to transfer control of the contract to a newOwner.",
        "params": {
          "newOwner": "the address to transfer ownership to."
        }
      },
      "withinExecutionLimit(address,uint256)": {
        "details": "Checks that bridged amount of tokens conforms to the configured execution limits.",
        "params": {
          "_amount": "amount of bridge tokens.",
          "_token": "address of the token contract."
        },
        "return": "true, if specified amount can be processed and executed."
      },
      "withinLimit(address,uint256)": {
        "details": "Checks that bridged amount of tokens conforms to the configured limits.",
        "params": {
          "_amount": "amount of bridge tokens.",
          "_token": "address of the token contract."
        },
        "return": "true, if specified amount can be bridged."
      }
    },
    "title": "HomeMultiAMBErc20ToErc677"
  },
  "userdoc": {
    "methods": {
      "setReceiverExceptionForTokenForwardingRule(address,address,bool)": {
        "notice": "Allows a particular address to receive bridged tokens from the oracle-driven lane for a particular token. Only owner can call this method."
      },
      "setReceiverForwardingRule(address,bool)": {
        "notice": "Updates the forwarding rule for the specific receiver. Only owner can call this method."
      },
      "setSenderExceptionForTokenForwardingRule(address,address,bool)": {
        "notice": "Allows a particular address to send bridge requests to the oracle-driven lane for a particular token. Only owner can call this method."
      },
      "setSenderForwardingRule(address,bool)": {
        "notice": "Updates the forwarding rule for the specific sender. Only owner can call this method."
      },
      "setTokenForwardingRule(address,bool)": {
        "notice": "Updates the forwarding rule for bridging specific token. Only owner can call this method."
      }
    }
  }
}