{
  "contractName": "HomeAMBErc677ToErc677",
  "abi": [
    {
      "constant": false,
      "inputs": [
        {
          "name": "_receiver",
          "type": "address"
        },
        {
          "name": "_value",
          "type": "uint256"
        }
      ],
      "name": "relayTokens",
      "outputs": [],
      "payable": false,
      "stateMutability": "nonpayable",
      "type": "function"
    },
    {
      "constant": false,
      "inputs": [
        {
          "name": "_messageId",
          "type": "bytes32"
        }
      ],
      "name": "fixFailedMessage",
      "outputs": [],
      "payable": false,
      "stateMutability": "nonpayable",
      "type": "function"
    },
    {
      "constant": false,
      "inputs": [
        {
          "name": "_bridgeContract",
          "type": "address"
        }
      ],
      "name": "setBridgeContract",
      "outputs": [],
      "payable": false,
      "stateMutability": "nonpayable",
      "type": "function"
    },
    {
      "constant": true,
      "inputs": [],
      "name": "erc677token",
      "outputs": [
        {
          "name": "",
          "type": "address"
        }
      ],
      "payable": false,
      "stateMutability": "view",
      "type": "function"
    },
    {
      "constant": true,
      "inputs": [
        {
          "name": "_day",
          "type": "uint256"
        }
      ],
      "name": "totalSpentPerDay",
      "outputs": [
        {
          "name": "",
          "type": "uint256"
        }
      ],
      "payable": false,
      "stateMutability": "view",
      "type": "function"
    },
    {
      "constant": true,
      "inputs": [],
      "name": "isInitialized",
      "outputs": [
        {
          "name": "",
          "type": "bool"
        }
      ],
      "payable": false,
      "stateMutability": "view",
      "type": "function"
    },
    {
      "constant": false,
      "inputs": [
        {
          "name": "_dailyLimit",
          "type": "uint256"
        }
      ],
      "name": "setExecutionDailyLimit",
      "outputs": [],
      "payable": false,
      "stateMutability": "nonpayable",
      "type": "function"
    },
    {
      "constant": true,
      "inputs": [],
      "name": "getCurrentDay",
      "outputs": [
        {
          "name": "",
          "type": "uint256"
        }
      ],
      "payable": false,
      "stateMutability": "view",
      "type": "function"
    },
    {
      "constant": true,
      "inputs": [],
      "name": "getBridgeMode",
      "outputs": [
        {
          "name": "_data",
          "type": "bytes4"
        }
      ],
      "payable": false,
      "stateMutability": "pure",
      "type": "function"
    },
    {
      "constant": true,
      "inputs": [],
      "name": "executionDailyLimit",
      "outputs": [
        {
          "name": "",
          "type": "uint256"
        }
      ],
      "payable": false,
      "stateMutability": "view",
      "type": "function"
    },
    {
      "constant": true,
      "inputs": [
        {
          "name": "_day",
          "type": "uint256"
        }
      ],
      "name": "totalExecutedPerDay",
      "outputs": [
        {
          "name": "",
          "type": "uint256"
        }
      ],
      "payable": false,
      "stateMutability": "view",
      "type": "function"
    },
    {
      "constant": true,
      "inputs": [
        {
          "name": "_messageId",
          "type": "bytes32"
        }
      ],
      "name": "messageFixed",
      "outputs": [
        {
          "name": "",
          "type": "bool"
        }
      ],
      "payable": false,
      "stateMutability": "view",
      "type": "function"
    },
    {
      "constant": true,
      "inputs": [],
      "name": "dailyLimit",
      "outputs": [
        {
          "name": "",
          "type": "uint256"
        }
      ],
      "payable": false,
      "stateMutability": "view",
      "type": "function"
    },
    {
      "constant": false,
      "inputs": [
        {
          "name": "_mediatorContract",
          "type": "address"
        }
      ],
      "name": "setMediatorContractOnOtherSide",
      "outputs": [],
      "payable": false,
      "stateMutability": "nonpayable",
      "type": "function"
    },
    {
      "constant": true,
      "inputs": [],
      "name": "mediatorContractOnOtherSide",
      "outputs": [
        {
          "name": "",
          "type": "address"
        }
      ],
      "payable": false,
      "stateMutability": "view",
      "type": "function"
    },
    {
      "constant": true,
      "inputs": [
        {
          "name": "_amount",
          "type": "uint256"
        }
      ],
      "name": "withinExecutionLimit",
      "outputs": [
        {
          "name": "",
          "type": "bool"
        }
      ],
      "payable": false,
      "stateMutability": "view",
      "type": "function"
    },
    {
      "constant": true,
      "inputs": [],
      "name": "executionMaxPerTx",
      "outputs": [
        {
          "name": "",
          "type": "uint256"
        }
      ],
      "payable": false,
      "stateMutability": "view",
      "type": "function"
    },
    {
      "constant": false,
      "inputs": [
        {
          "name": "_recipient",
          "type": "address"
        },
        {
          "name": "_value",
          "type": "uint256"
        }
      ],
      "name": "handleBridgedTokens",
      "outputs": [],
      "payable": false,
      "stateMutability": "nonpayable",
      "type": "function"
    },
    {
      "constant": true,
      "inputs": [],
      "name": "owner",
      "outputs": [
        {
          "name": "",
          "type": "address"
        }
      ],
      "payable": false,
      "stateMutability": "view",
      "type": "function"
    },
    {
      "constant": true,
      "inputs": [],
      "name": "maxAvailablePerTx",
      "outputs": [
        {
          "name": "",
          "type": "uint256"
        }
      ],
      "payable": false,
      "stateMutability": "view",
      "type": "function"
    },
    {
      "constant": false,
      "inputs": [
        {
          "name": "_messageId",
          "type": "bytes32"
        }
      ],
      "name": "requestFailedMessageFix",
      "outputs": [],
      "payable": false,
      "stateMutability": "nonpayable",
      "type": "function"
    },
    {
      "constant": true,
      "inputs": [],
      "name": "getBridgeInterfacesVersion",
      "outputs": [
        {
          "name": "major",
          "type": "uint64"
        },
        {
          "name": "minor",
          "type": "uint64"
        },
        {
          "name": "patch",
          "type": "uint64"
        }
      ],
      "payable": false,
      "stateMutability": "pure",
      "type": "function"
    },
    {
      "constant": true,
      "inputs": [],
      "name": "outOfLimitAmount",
      "outputs": [
        {
          "name": "",
          "type": "uint256"
        }
      ],
      "payable": false,
      "stateMutability": "view",
      "type": "function"
    },
    {
      "constant": false,
      "inputs": [
        {
          "name": "_minPerTx",
          "type": "uint256"
        }
      ],
      "name": "setMinPerTx",
      "outputs": [],
      "payable": false,
      "stateMutability": "nonpayable",
      "type": "function"
    },
    {
      "constant": false,
      "inputs": [
        {
          "name": "_from",
          "type": "address"
        },
        {
          "name": "_value",
          "type": "uint256"
        },
        {
          "name": "_data",
          "type": "bytes"
        }
      ],
      "name": "onTokenTransfer",
      "outputs": [
        {
          "name": "",
          "type": "bool"
        }
      ],
      "payable": false,
      "stateMutability": "nonpayable",
      "type": "function"
    },
    {
      "constant": false,
      "inputs": [
        {
          "name": "messageId",
          "type": "bytes32"
        },
        {
          "name": "unlockOnOtherSide",
          "type": "bool"
        },
        {
          "name": "valueToUnlock",
          "type": "uint256"
        }
      ],
      "name": "fixAssetsAboveLimits",
      "outputs": [],
      "payable": false,
      "stateMutability": "nonpayable",
      "type": "function"
    },
    {
      "constant": false,
      "inputs": [
        {
          "name": "_dailyLimit",
          "type": "uint256"
        }
      ],
      "name": "setDailyLimit",
      "outputs": [],
      "payable": false,
      "stateMutability": "nonpayable",
      "type": "function"
    },
    {
      "constant": true,
      "inputs": [],
      "name": "requestGasLimit",
      "outputs": [
        {
          "name": "",
          "type": "uint256"
        }
      ],
      "payable": false,
      "stateMutability": "view",
      "type": "function"
    },
    {
      "constant": false,
      "inputs": [
        {
          "name": "_bridgeContract",
          "type": "address"
        },
        {
          "name": "_mediatorContract",
          "type": "address"
        },
        {
          "name": "_erc677token",
          "type": "address"
        },
        {
          "name": "_dailyLimitMaxPerTxMinPerTxArray",
          "type": "uint256[3]"
        },
        {
          "name": "_executionDailyLimitExecutionMaxPerTxArray",
          "type": "uint256[2]"
        },
        {
          "name": "_requestGasLimit",
          "type": "uint256"
        },
        {
          "name": "_decimalShift",
          "type": "int256"
        },
        {
          "name": "_owner",
          "type": "address"
        }
      ],
      "name": "initialize",
      "outputs": [
        {
          "name": "",
          "type": "bool"
        }
      ],
      "payable": false,
      "stateMutability": "nonpayable",
      "type": "function"
    },
    {
      "constant": false,
      "inputs": [
        {
          "name": "_maxPerTx",
          "type": "uint256"
        }
      ],
      "name": "setMaxPerTx",
      "outputs": [],
      "payable": false,
      "stateMutability": "nonpayable",
      "type": "function"
    },
    {
      "constant": true,
      "inputs": [],
      "name": "bridgeContract",
      "outputs": [
        {
          "name": "",
          "type": "address"
        }
      ],
      "payable": false,
      "stateMutability": "view",
      "type": "function"
    },
    {
      "constant": true,
      "inputs": [],
      "name": "decimalShift",
      "outputs": [
        {
          "name": "",
          "type": "int256"
        }
      ],
      "payable": false,
      "stateMutability": "view",
      "type": "function"
    },
    {
      "constant": true,
      "inputs": [],
      "name": "minPerTx",
      "outputs": [
        {
          "name": "",
          "type": "uint256"
        }
      ],
      "payable": false,
      "stateMutability": "view",
      "type": "function"
    },
    {
      "constant": true,
      "inputs": [
        {
          "name": "_amount",
          "type": "uint256"
        }
      ],
      "name": "withinLimit",
      "outputs": [
        {
          "name": "",
          "type": "bool"
        }
      ],
      "payable": false,
      "stateMutability": "view",
      "type": "function"
    },
    {
      "constant": false,
      "inputs": [
        {
          "name": "_maxPerTx",
          "type": "uint256"
        }
      ],
      "name": "setExecutionMaxPerTx",
      "outputs": [],
      "payable": false,
      "stateMutability": "nonpayable",
      "type": "function"
    },
    {
      "constant": false,
      "inputs": [
        {
          "name": "newOwner",
          "type": "address"
        }
      ],
      "name": "transferOwnership",
      "outputs": [],
      "payable": false,
      "stateMutability": "nonpayable",
      "type": "function"
    },
    {
      "constant": false,
      "inputs": [
        {
          "name": "_requestGasLimit",
          "type": "uint256"
        }
      ],
      "name": "setRequestGasLimit",
      "outputs": [],
      "payable": false,
      "stateMutability": "nonpayable",
      "type": "function"
    },
    {
      "constant": true,
      "inputs": [],
      "name": "maxPerTx",
      "outputs": [
        {
          "name": "",
          "type": "uint256"
        }
      ],
      "payable": false,
      "stateMutability": "view",
      "type": "function"
    },
    {
      "anonymous": false,
      "inputs": [
        {
          "indexed": true,
          "name": "messageId",
          "type": "bytes32"
        },
        {
          "indexed": false,
          "name": "recipient",
          "type": "address"
        },
        {
          "indexed": false,
          "name": "value",
          "type": "uint256"
        }
      ],
      "name": "FailedMessageFixed",
      "type": "event"
    },
    {
      "anonymous": false,
      "inputs": [
        {
          "indexed": true,
          "name": "sender",
          "type": "address"
        },
        {
          "indexed": false,
          "name": "value",
          "type": "uint256"
        },
        {
          "indexed": true,
          "name": "messageId",
          "type": "bytes32"
        }
      ],
      "name": "TokensBridgingInitiated",
      "type": "event"
    },
    {
      "anonymous": false,
      "inputs": [
        {
          "indexed": true,
          "name": "recipient",
          "type": "address"
        },
        {
          "indexed": false,
          "name": "value",
          "type": "uint256"
        },
        {
          "indexed": true,
          "name": "messageId",
          "type": "bytes32"
        }
      ],
      "name": "TokensBridged",
      "type": "event"
    },
    {
      "anonymous": false,
      "inputs": [
        {
          "indexed": false,
          "name": "newLimit",
          "type": "uint256"
        }
      ],
      "name": "DailyLimitChanged",
      "type": "event"
    },
    {
      "anonymous": false,
      "inputs": [
        {
          "indexed": false,
          "name": "newLimit",
          "type": "uint256"
        }
      ],
      "name": "ExecutionDailyLimitChanged",
      "type": "event"
    },
    {
      "anonymous": false,
      "inputs": [
        {
          "indexed": false,
          "name": "previousOwner",
          "type": "address"
        },
        {
          "indexed": false,
          "name": "newOwner",
          "type": "address"
        }
      ],
      "name": "OwnershipTransferred",
      "type": "event"
    },
    {
      "anonymous": false,
      "inputs": [
        {
          "indexed": false,
          "name": "recipient",
          "type": "address"
        },
        {
          "indexed": false,
          "name": "value",
          "type": "uint256"
        },
        {
          "indexed": true,
          "name": "messageId",
          "type": "bytes32"
        }
      ],
      "name": "MediatorAmountLimitExceeded",
      "type": "event"
    },
    {
      "anonymous": false,
      "inputs": [
        {
          "indexed": false,
          "name": "recipient",
          "type": "address"
        },
        {
          "indexed": false,
          "name": "value",
          "type": "uint256"
        },
        {
          "indexed": true,
          "name": "transactionHash",
          "type": "bytes32"
        },
        {
          "indexed": false,
          "name": "messageId",
          "type": "bytes32"
        }
      ],
      "name": "AmountLimitExceeded",
      "type": "event"
    },
    {
      "anonymous": false,
      "inputs": [
        {
          "indexed": true,
          "name": "messageId",
          "type": "bytes32"
        },
        {
          "indexed": false,
          "name": "value",
          "type": "uint256"
        },
        {
          "indexed": false,
          "name": "remaining",
          "type": "uint256"
        }
      ],
      "name": "AssetAboveLimitsFixed",
      "type": "event"
    },
    {
      "constant": false,
      "inputs": [
        {
          "name": "newOwner",
          "type": "address"
        }
      ],
      "name": "transferTokenOwnership",
      "outputs": [],
      "payable": false,
      "stateMutability": "nonpayable",
      "type": "function"
    },
    {
      "constant": false,
      "inputs": [
        {
          "name": "_token",
          "type": "address"
        },
        {
          "name": "_to",
          "type": "address"
        }
      ],
      "name": "claimTokens",
      "outputs": [],
      "payable": false,
      "stateMutability": "nonpayable",
      "type": "function"
    }
  ],
  "bytecode": "0x608060405234801561001057600080fd5b506135b5806100206000396000f3006080604052600436106101d45763ffffffff60e060020a60003504166301e4f53a81146101d95780630950d515146101ff5780630b26cf661461021757806318d8f9c91461023857806321e6b53d146102695780632bd0bb051461028a578063392e53cd146102b45780633dd95d1b146102dd5780633e6968b6146102f5578063437764df1461030a57806343b37dd3146103545780634fb3fef714610369578063593399821461038157806367eeba0c1461039957806369ffa08a146103ae5780636e5d6bea146103d5578063871c0760146103f6578063879ce6761461040b5780638aa1949a146104235780638b6c0354146104385780638da5cb5b1461045c57806395e54a17146104715780639a4a4395146104865780639cb7595a1461049e578063a0189345146104df578063a2a6ca27146104f4578063a4c0ed361461050c578063a7444c0d1461053d578063b20d30a91461055d578063be3b625b14610575578063c0b0d0221461058a578063c6f6f2161461061f578063cd59658314610637578063dae5f0fd1461064c578063df25f3f014610661578063ea9f496814610676578063f20151e11461068e578063f2fde38b146106a6578063f3b83791146106c7578063f968adbe146106df575b600080fd5b3480156101e557600080fd5b506101fd600160a060020a03600435166024356106f4565b005b34801561020b57600080fd5b506101fd600435610840565b34801561022357600080fd5b506101fd600160a060020a036004351661090f565b34801561024457600080fd5b5061024d610937565b60408051600160a060020a039092168252519081900360200190f35b34801561027557600080fd5b506101fd600160a060020a0360043516610946565b34801561029657600080fd5b506102a26004356109df565b60408051918252519081900360200190f35b3480156102c057600080fd5b506102c9610a9c565b604080519115158252519081900360200190f35b3480156102e957600080fd5b506101fd600435610aed565b34801561030157600080fd5b506102a2610bad565b34801561031657600080fd5b5061031f610bb6565b604080517fffffffff000000000000000000000000000000000000000000000000000000009092168252519081900360200190f35b34801561036057600080fd5b506102a2610bda565b34801561037557600080fd5b506102a2600435610c28565b34801561038d57600080fd5b506102c9600435610ca3565b3480156103a557600080fd5b506102a2610d6c565b3480156103ba57600080fd5b506101fd600160a060020a0360043581169060243516610dba565b3480156103e157600080fd5b506101fd600160a060020a0360043516610e46565b34801561040257600080fd5b5061024d610e6b565b34801561041757600080fd5b506102c9600435610ec2565b34801561042f57600080fd5b506102a2610f0c565b34801561044457600080fd5b506101fd600160a060020a0360043516602435610f5a565b34801561046857600080fd5b5061024d610fda565b34801561047d57600080fd5b506102a2611031565b34801561049257600080fd5b506101fd60043561108b565b3480156104aa57600080fd5b506104b36113d5565b6040805167ffffffffffffffff9485168152928416602084015292168183015290519081900360600190f35b3480156104eb57600080fd5b506102a26113e0565b34801561050057600080fd5b506101fd60043561142e565b34801561051857600080fd5b506102c960048035600160a060020a03169060248035916044359182019101356114ca565b34801561054957600080fd5b506101fd6004356024351515604435611567565b34801561056957600080fd5b506101fd6004356116ca565b34801561058157600080fd5b506102a261178a565b34801561059657600080fd5b506040805160608181019092526102c991600160a060020a03600480358216936024358316936044359093169236929160c49160649060039083908390808284375050604080518082018252949796958181019594509250600291508390839080828437509396505083359450505060208201359160400135600160a060020a031690506117d8565b34801561062b57600080fd5b506101fd6004356119a4565b34801561064357600080fd5b5061024d611a3c565b34801561065857600080fd5b506102a2611a93565b34801561066d57600080fd5b506102a2611ae1565b34801561068257600080fd5b506102c9600435611b2f565b34801561069a57600080fd5b506101fd600435611b7a565b3480156106b257600080fd5b506101fd600160a060020a0360043516611bf6565b3480156106d357600080fd5b506101fd600435611c1b565b3480156106eb57600080fd5b506102a2611c40565b6000806106ff611c8e565b1561070957600080fd5b610711610937565b915030905061071f83611b2f565b151561072a57600080fd5b61073b610735610bad565b84611cb3565b6107456001611d7c565b604080517f23b872dd000000000000000000000000000000000000000000000000000000008152336004820152600160a060020a038381166024830152604482018690529151918416916323b872dd916064808201926020929091908290030181600087803b1580156107b757600080fd5b505af11580156107cb573d6000803e3d6000fd5b505050506040513d60208110156107e157600080fd5b506107ee90506000611d7c565b61083a823385876040516020018082600160a060020a0316600160a060020a03166c01000000000000000000000000028152601401915050604051602081830303815290604052611da0565b50505050565b60008061084b611a3c565b600160a060020a0316331461085f57600080fd5b610867610e6b565b600160a060020a0316610878611e23565b600160a060020a03161461088b57600080fd5b61089483610ca3565b1561089e57600080fd5b6108a783611e9b565b91506108b283611f6a565b90506108bd83611fed565b6108c782826120bf565b60408051600160a060020a038416815260208101839052815185927f06297b0797e3363e96e454edd4ab62862051bf559a7a431ce09415306771d133928290030190a2505050565b610917610fda565b600160a060020a0316331461092b57600080fd5b61093481612153565b50565b60006109416121de565b905090565b61094e610fda565b600160a060020a0316331461096257600080fd5b61096a610937565b600160a060020a031663f2fde38b826040518263ffffffff1660e060020a0281526004018082600160a060020a0316600160a060020a03168152602001915050600060405180830381600087803b1580156109c457600080fd5b505af11580156109d8573d6000803e3d6000fd5b5050505050565b60008060008360405160200180807f746f74616c5370656e74506572446179000000000000000000000000000000008152506010018281526020019150506040516020818303038152906040526040518082805190602001908083835b60208310610a5b5780518252601f199092019160209182019101610a3c565b51815160209384036101000a600019018019909216911617905260408051929094018290039091208652850195909552929092016000205495945050505050565b7f0a6f646cd611241d8073675e00d1a1ff700fbf1b53fcf473de56d1e6e4b714ba60005260046020527f078d888f9b66f3f8bfa10909e31f1e16240db73449f0500afdbbe3a70da457cc5460ff1690565b610af5610fda565b600160a060020a03163314610b0957600080fd5b610b11610f0c565b811180610b1c575080155b1515610b2757600080fd5b7f21dbcab260e413c20dc13c28b7db95e2b423d1135f42bb8b7d5214a92270d237600090815260209081527fadd938dbd083a16bae12238cd914fca0afc7a30edb55b1cd5c7f1823f1b0e4218290556040805183815290517f9bebf928b90863f24cc31f726a3a7545efd409f1dcf552301b1ee3710da70d3b929181900390910190a150565b62015180420490565b7f76595b560000000000000000000000000000000000000000000000000000000090565b7f21dbcab260e413c20dc13c28b7db95e2b423d1135f42bb8b7d5214a92270d23760009081526020527fadd938dbd083a16bae12238cd914fca0afc7a30edb55b1cd5c7f1823f1b0e4215490565b60008060008360405160200180807f746f74616c45786563757465645065724461790000000000000000000000000081525060130182815260200191505060405160208183030381529060405260405180828051906020019080838360208310610a5b5780518252601f199092019160209182019101610a3c565b6000600460008360405160200180807f6d65737361676546697865640000000000000000000000000000000000000000815250600c0182600019166000191681526020019150506040516020818303038152906040526040518082805190602001908083835b60208310610d285780518252601f199092019160209182019101610d09565b51815160209384036101000a600019018019909216911617905260408051929094018290039091208652850195909552929092016000205460ff1695945050505050565b7f4a6a899679f26b73530d8cf1001e83b6f7702e04b6fdb98f3c62dc7e47e041a560009081526020527f1ab29a5cca988aee50edccdd61c5bcaa7ad4b29a03b7ee50f298ceccfe14cc4e5490565b30600160a060020a0316636fde82026040518163ffffffff1660e060020a028152600401602060405180830381600087803b158015610df857600080fd5b505af1158015610e0c573d6000803e3d6000fd5b505050506040513d6020811015610e2257600080fd5b5051600160a060020a03163314610e3857600080fd5b610e428282612235565b5050565b610e4e610fda565b600160a060020a03163314610e6257600080fd5b61093481612278565b7f98aa806e31e94a687a31c65769cb99670064dd7f5a87526da075c5fb4eab988060005260026020527f0c1206883be66049a02d4937078367c00b3d71dd1a9465df969363c6ddeac96d54600160a060020a031690565b600080610ee583610ed9610ed4610bad565b610c28565b9063ffffffff6122ef16565b905080610ef0610bda565b10158015610f055750610f01610f0c565b8311155b9392505050565b7fc0ed44c192c86d1cc1ba51340b032c2766b4a2b0041031de13c46dd7104888d560009081526020527ff8e983ee86e5e377e9e34c9131b266382c3f04113d20de077f9e12663c7a646b5490565b610f62611a3c565b600160a060020a03163314610f7657600080fd5b610f7e610e6b565b600160a060020a0316610f8f611e23565b600160a060020a031614610fa257600080fd5b610fab81610ec2565b15610fd057610fc1610fbb610bad565b82612302565b610fcb8282612388565b610e42565b610e428282612602565b7f02016836a56b71f0d02689e69e326f4f4c1b9057164ef592671cf0d37c8040c060005260026020527fb7802e97e87ef2842a6cce7da7ffaeaedaa2f61a6a7870b23d9d01fc9b73712e54600160a060020a031690565b6000806000806000611041611c40565b935061104b610d6c565b925061105d611058610bad565b6109df565b915081831161106d576000611071565b8183035b90508084106110805780611082565b835b94505050505090565b60006060611097611a3c565b600160a060020a031663cb08a10c846040518263ffffffff1660e060020a028152600401808260001916600019168152602001915050602060405180830381600087803b1580156110e757600080fd5b505af11580156110fb573d6000803e3d6000fd5b505050506040513d602081101561111157600080fd5b50511561111d57600080fd5b30611126611a3c565b600160a060020a0316633f9a8e7e856040518263ffffffff1660e060020a028152600401808260001916600019168152602001915050602060405180830381600087803b15801561117657600080fd5b505af115801561118a573d6000803e3d6000fd5b505050506040513d60208110156111a057600080fd5b5051600160a060020a0316146111b557600080fd5b6111bd610e6b565b600160a060020a03166111ce611a3c565b600160a060020a0316634a610b04856040518263ffffffff1660e060020a028152600401808260001916600019168152602001915050602060405180830381600087803b15801561121e57600080fd5b505af1158015611232573d6000803e3d6000fd5b505050506040513d602081101561124857600080fd5b5051600160a060020a03161461125d57600080fd5b50506040805160248082018490528251808303909101815260449091019091526020810180517bffffffffffffffffffffffffffffffffffffffffffffffffffffffff167f0950d51500000000000000000000000000000000000000000000000000000000908117909152906112d1611a3c565b600160a060020a031663dc8601b36112e7610e6b565b836112f061178a565b6040518463ffffffff1660e060020a0281526004018084600160a060020a0316600160a060020a0316815260200180602001838152602001828103825284818151815260200191508051906020019080838360005b8381101561135d578181015183820152602001611345565b50505050905090810190601f16801561138a5780820380516001836020036101000a031916815260200191505b50945050505050602060405180830381600087803b1580156113ab57600080fd5b505af11580156113bf573d6000803e3d6000fd5b505050506040513d60208110156109d857600080fd5b600160046000909192565b7f145286dc85799b6fb9fe322391ba2d95683077b2adf34dd576dedc437e537ba760009081526020527fba10c7a68bf463c41368d64adcf7df23c0de931ea3b09f061e2dfec302fef95f5490565b611436610fda565b600160a060020a0316331461144a57600080fd5b600081118015611460575061145d610d6c565b81105b8015611472575061146f611c40565b81105b151561147d57600080fd5b7fbbb088c505d18e049d114c7c91f11724e69c55ad6c5397e2b929e68b41fa05d160009081526020527f8df5c48c6b6e11d97548adc824ba0c99103ec09830fa5d53a179984085e6eaa055565b6000806114d5610937565b905033600160a060020a038216146114ec57600080fd5b6114f4611c8e565b151561151f5761150385611b2f565b151561150e57600080fd5b61151f611519610bad565b86611cb3565b61155b81878787878080601f01602080910402602001604051908101604052809392919081815260200183838082843750611da0945050505050565b50600195945050505050565b600080600030600160a060020a0316636fde82026040518163ffffffff1660e060020a028152600401602060405180830381600087803b1580156115aa57600080fd5b505af11580156115be573d6000803e3d6000fd5b505050506040513d60208110156115d457600080fd5b5051600160a060020a031633146115ea57600080fd5b6115f3866126a3565b9093509150600160a060020a038316158015906116105750600082115b801561161c5750838210155b151561162757600080fd5b611647611642856116366113e0565b9063ffffffff61282a16565b61283c565b611657828563ffffffff61282a16565b90506116638187612889565b6040805185815260208101839052815188927f5bcec6564fe8d2cbb4e4eb8237510ceb6b291a5c2ee2e429948d25e9c924c1fa928290030190a284156116c2576116ab611c40565b8411156116b757600080fd5b6116c283848661290b565b505050505050565b6116d2610fda565b600160a060020a031633146116e657600080fd5b6116ee611c40565b8111806116f9575080155b151561170457600080fd5b7f4a6a899679f26b73530d8cf1001e83b6f7702e04b6fdb98f3c62dc7e47e041a5600090815260209081527f1ab29a5cca988aee50edccdd61c5bcaa7ad4b29a03b7ee50f298ceccfe14cc4e8290556040805183815290517fad4123ae17c414d9c6d2fec478b402e6b01856cc250fd01fbfd252fda0089d3c929181900390910190a150565b7f2dfd6c9f781bb6bbb5369c114e949b69ebb440ef3d4dd6b2836225eb1dc3a2be60009081526020527f2de0d2cdc19d356cb53b5984f91bfd3b31fe0c678a0d190a6db39274bb34753f5490565b60408051600481526024810182526020810180517bffffffffffffffffffffffffffffffffffffffffffffffffffffffff167f6fde8202000000000000000000000000000000000000000000000000000000001781529151815160009330939291829190808383895b83811015611859578181015183820152602001611841565b50505050905090810190601f1680156118865780820380516001836020036101000a031916815260200191505b509150506000604051808303816000865af19150501580611918575030600160a060020a0316636fde82026040518163ffffffff1660e060020a028152600401602060405180830381600087803b1580156118e057600080fd5b505af11580156118f4573d6000803e3d6000fd5b505050506040513d602081101561190a57600080fd5b5051600160a060020a031633145b8061192257503330145b151561192d57600080fd5b611935610a9c565b1561193f57600080fd5b61194889612153565b61195188612278565b61195a87612af2565b61196386612b7d565b61196c85612cda565b61197584612daf565b61197e83612e10565b61198782612e79565b61198f612f50565b611997610a9c565b9998505050505050505050565b6119ac610fda565b600160a060020a031633146119c057600080fd5b8015806119e457506119d0611ae1565b811180156119e457506119e1610d6c565b81105b15156119ef57600080fd5b7f0f8803acad17c63ee38bf2de71e1888bc7a079a6f73658e274b08018bea4e29c60009081526020527f9de0f81379b4d8e60fe509315d071b56e7b732abaf193e74e0d15808b0951d0955565b7f811bbb11e8899da471f0e69a3ed55090fc90215227fc5fb1cb0d6e962ea7b74f60005260026020527fb4ed64697d3ef8518241966f7c6f28b0d72f20f51198717d198d2d55076c593d54600160a060020a031690565b7f1e8ecaafaddea96ed9ac6d2642dcdfe1bebe58a930b1085842d8fc122b371ee560009081526020527fd5c78dd9468716ca9bb96be25d56436811b20aab3523a9904b12deef1cab239d5490565b7fbbb088c505d18e049d114c7c91f11724e69c55ad6c5397e2b929e68b41fa05d160009081526020527f8df5c48c6b6e11d97548adc824ba0c99103ec09830fa5d53a179984085e6eaa05490565b600080611b4183610ed9611058610bad565b905080611b4c610d6c565b10158015611b615750611b5d611c40565b8311155b8015610f055750611b70611ae1565b9092101592915050565b611b82610fda565b600160a060020a03163314611b9657600080fd5b611b9e610bda565b8110611ba957600080fd5b7fc0ed44c192c86d1cc1ba51340b032c2766b4a2b0041031de13c46dd7104888d560009081526020527ff8e983ee86e5e377e9e34c9131b266382c3f04113d20de077f9e12663c7a646b55565b611bfe610fda565b600160a060020a03163314611c1257600080fd5b61093481612e79565b611c23610fda565b600160a060020a03163314611c3757600080fd5b61093481612daf565b7f0f8803acad17c63ee38bf2de71e1888bc7a079a6f73658e274b08018bea4e29c60009081526020527f9de0f81379b4d8e60fe509315d071b56e7b732abaf193e74e0d15808b0951d095490565b7f6168652c307c1e813ca11cfb3a601f1cf3b22452021a5052d8b05f1f1f8a3e925490565b611cc081610ed9846109df565b6000808460405160200180807f746f74616c5370656e74506572446179000000000000000000000000000000008152506010018281526020019150506040516020818303038152906040526040518082805190602001908083835b60208310611d3a5780518252601f199092019160209182019101611d1b565b51815160209384036101000a60001901801990921691161790526040805192909401829003909120865285019590955292909201600020939093555050505050565b7f6168652c307c1e813ca11cfb3a601f1cf3b22452021a5052d8b05f1f1f8a3e9255565b611da8611c8e565b151561083a5783600160a060020a03166342966c68836040518263ffffffff1660e060020a02815260040180828152602001915050600060405180830381600087803b158015611df757600080fd5b505af1158015611e0b573d6000803e3d6000fd5b5050505061083a83611e1d8584612fa7565b8461290b565b6000611e2d611a3c565b600160a060020a031663d67bdd256040518163ffffffff1660e060020a028152600401602060405180830381600087803b158015611e6a57600080fd5b505af1158015611e7e573d6000803e3d6000fd5b505050506040513d6020811015611e9457600080fd5b5051905090565b6000600260008360405160200180807f6d657373616765526563697069656e740000000000000000000000000000000081525060100182600019166000191681526020019150506040516020818303038152906040526040518082805190602001908083835b60208310611f205780518252601f199092019160209182019101611f01565b51815160209384036101000a6000190180199092169116179052604080519290940182900390912086528501959095529290920160002054600160a060020a031695945050505050565b60008060008360405160200180807f6d65737361676556616c75650000000000000000000000000000000000000000815250600c01826000191660001916815260200191505060405160208183030381529060405260405180828051906020019080838360208310610a5b5780518252601f199092019160209182019101610a3c565b6001600460008360405160200180807f6d65737361676546697865640000000000000000000000000000000000000000815250600c0182600019166000191681526020019150506040516020818303038152906040526040518082805190602001908083835b602083106120725780518252601f199092019160209182019101612053565b51815160209384036101000a60001901801990921691161790526040805192909401829003909120865285019590955292909201600020805460ff19169415159490941790935550505050565b6120c7610937565b600160a060020a03166340c10f1983836040518363ffffffff1660e060020a0281526004018083600160a060020a0316600160a060020a0316815260200182815260200192505050602060405180830381600087803b15801561212957600080fd5b505af115801561213d573d6000803e3d6000fd5b505050506040513d602081101561083a57600080fd5b61215c81613001565b151561216757600080fd5b7f811bbb11e8899da471f0e69a3ed55090fc90215227fc5fb1cb0d6e962ea7b74f60005260026020527fb4ed64697d3ef8518241966f7c6f28b0d72f20f51198717d198d2d55076c593d805473ffffffffffffffffffffffffffffffffffffffff1916600160a060020a0392909216919091179055565b7fa8b0ade3e2b734f043ce298aca4cc8d19d74270223f34531d0988b7d00cba21d60005260026020527f603cd9dcbfa185d5c37504f4c8b3f16117ed744fba48d08b7aad44a162af1c9354600160a060020a031690565b80600160a060020a038116151561224b57600080fd5b600160a060020a03831615156122695761226482613009565b612273565b6122738383613015565b505050565b7f98aa806e31e94a687a31c65769cb99670064dd7f5a87526da075c5fb4eab988060005260026020527f0c1206883be66049a02d4937078367c00b3d71dd1a9465df969363c6ddeac96d805473ffffffffffffffffffffffffffffffffffffffff1916600160a060020a0392909216919091179055565b818101828110156122fc57fe5b92915050565b61230f81610ed984610c28565b6000808460405160200180807f746f74616c45786563757465645065724461790000000000000000000000000081525060130182815260200191505060405160208183030381529060405260405180828051906020019080838360208310611d3a5780518252601f199092019160209182019101611d1b565b600080612394836130c2565b915061239e6130d5565b90506123a8610937565b600160a060020a03166340c10f1930846040518363ffffffff1660e060020a0281526004018083600160a060020a0316600160a060020a0316815260200182815260200192505050602060405180830381600087803b15801561240a57600080fd5b505af115801561241e573d6000803e3d6000fd5b505050506040513d602081101561243457600080fd5b5061243f9050610937565b60408051600080825260208201928390527f4000aea0000000000000000000000000000000000000000000000000000000008352600160a060020a0388811660248401908152604484018890526060606485019081528451608486018190529690921695634000aea0958b958a9590949260a4860192918190849084905b838110156124d55781810151838201526020016124bd565b50505050905090810190601f1680156125025780820380516001836020036101000a031916815260200191505b50945050505050602060405180830381600087803b15801561252357600080fd5b505af1158015612537573d6000803e3d6000fd5b505050506040513d602081101561254d57600080fd5b505115156125bc57604080517f08c379a000000000000000000000000000000000000000000000000000000000815260206004820152600f60248201527f7472616e736665725f6661696c65640000000000000000000000000000000000604482015290519081900360640190fd5b6040805183815290518291600160a060020a038716917f2f9a6098d4503a127779ba975f5f6b04f842362b1809f346989e9abc0b4dedb69181900360200190a350505050565b600080600061260f6130d5565b925061261a836126a3565b9092509050600160a060020a038216158015612634575080155b151561263f57600080fd5b61264e61164285610ed96113e0565b61265985858561311c565b60408051600160a060020a038716815260208101869052815185927f3344bbb992063ed4b833dabd5d5e55fc18df085bb96654e83aafbfe22e4116ff928290030190a25050505050565b600080600260008460405160200180807f74784f75744f664c696d6974526563697069656e74000000000000000000000081525060150182600019166000191681526020019150506040516020818303038152906040526040518082805190602001908083835b602083106127295780518252601f19909201916020918201910161270a565b51815160209384036101000a600019018019909216911617905260408051929094018290039091208652858101969096525092830160009081205484517f74784f75744f664c696d697456616c75650000000000000000000000000000008188015260318082018b9052865180830390910181526051909101958690528051600160a060020a0390921698509195869592945091925082918401908083835b602083106127e75780518252601f1990920191602091820191016127c8565b51815160209384036101000a6000190180199092169116179052604080519290940182900390912086528501959095529290920160002054949694955050505050565b60008282111561283657fe5b50900390565b7f145286dc85799b6fb9fe322391ba2d95683077b2adf34dd576dedc437e537ba760009081526020527fba10c7a68bf463c41368d64adcf7df23c0de931ea3b09f061e2dfec302fef95f55565b816000808360405160200180807f74784f75744f664c696d697456616c7565000000000000000000000000000000815250601101826000191660001916815260200191505060405160208183030381529060405260405180828051906020019080838360208310611d3a5780518252601f199092019160209182019101611d1b565b60408051600160a060020a038416602482015260448082018490528251808303909101815260649091019091526020810180517bffffffffffffffffffffffffffffffffffffffffffffffffffffffff167f8b6c03540000000000000000000000000000000000000000000000000000000090811790915290600061298e611a3c565b600160a060020a031663dc8601b36129a4610e6b565b846129ad61178a565b6040518463ffffffff1660e060020a0281526004018084600160a060020a0316600160a060020a0316815260200180602001838152602001828103825284818151815260200191508051906020019080838360005b83811015612a1a578181015183820152602001612a02565b50505050905090810190601f168015612a475780820380516001836020036101000a031916815260200191505b50945050505050602060405180830381600087803b158015612a6857600080fd5b505af1158015612a7c573d6000803e3d6000fd5b505050506040513d6020811015612a9257600080fd5b50519050612aa08185613212565b612aaa8187613294565b6040805185815290518291600160a060020a038916917f3a5557a7cf72d28e8da836aeff2de822440d01a036e571c12c4c48611a0a41799181900360200190a3505050505050565b612afb81613001565b1515612b0657600080fd5b7fa8b0ade3e2b734f043ce298aca4cc8d19d74270223f34531d0988b7d00cba21d60005260026020527f603cd9dcbfa185d5c37504f4c8b3f16117ed744fba48d08b7aad44a162af1c93805473ffffffffffffffffffffffffffffffffffffffff1916600160a060020a0392909216919091179055565b60408101516000108015612b98575060408101516020820151115b8015612ba8575060208101518151115b1515612bb357600080fd5b80517f4a6a899679f26b73530d8cf1001e83b6f7702e04b6fdb98f3c62dc7e47e041a5600090815260208181527f1ab29a5cca988aee50edccdd61c5bcaa7ad4b29a03b7ee50f298ceccfe14cc4e92909255908201517f0f8803acad17c63ee38bf2de71e1888bc7a079a6f73658e274b08018bea4e29c82527f9de0f81379b4d8e60fe509315d071b56e7b732abaf193e74e0d15808b0951d095560408201517fbbb088c505d18e049d114c7c91f11724e69c55ad6c5397e2b929e68b41fa05d182527f8df5c48c6b6e11d97548adc824ba0c99103ec09830fa5d53a179984085e6eaa0557fad4123ae17c414d9c6d2fec478b402e6b01856cc250fd01fbfd252fda0089d3c9082905b60200201516040518082815260200191505060405180910390a150565b8051602082015110612ceb57600080fd5b80517f21dbcab260e413c20dc13c28b7db95e2b423d1135f42bb8b7d5214a92270d237600090815260208181527fadd938dbd083a16bae12238cd914fca0afc7a30edb55b1cd5c7f1823f1b0e42192909255908201517fc0ed44c192c86d1cc1ba51340b032c2766b4a2b0041031de13c46dd7104888d582527ff8e983ee86e5e377e9e34c9131b266382c3f04113d20de077f9e12663c7a646b557f9bebf928b90863f24cc31f726a3a7545efd409f1dcf552301b1ee3710da70d3b908290612cbd565b612db7613382565b811115612dc357600080fd5b7f2dfd6c9f781bb6bbb5369c114e949b69ebb440ef3d4dd6b2836225eb1dc3a2be60009081526020527f2de0d2cdc19d356cb53b5984f91bfd3b31fe0c678a0d190a6db39274bb34753f55565b604c1981138015612e215750604d81125b1515612e2c57600080fd5b7f1e8ecaafaddea96ed9ac6d2642dcdfe1bebe58a930b1085842d8fc122b371ee560009081526020527fd5c78dd9468716ca9bb96be25d56436811b20aab3523a9904b12deef1cab239d55565b600160a060020a0381161515612e8e57600080fd5b7f8be0079c531659141344cd1fd0a4f28419497f9722a3daafe3b4186f6b6457e0612eb7610fda565b60408051600160a060020a03928316815291841660208301528051918290030190a17f02016836a56b71f0d02689e69e326f4f4c1b9057164ef592671cf0d37c8040c060005260026020527fb7802e97e87ef2842a6cce7da7ffaeaedaa2f61a6a7870b23d9d01fc9b73712e805473ffffffffffffffffffffffffffffffffffffffff1916600160a060020a0392909216919091179055565b7f0a6f646cd611241d8073675e00d1a1ff700fbf1b53fcf473de56d1e6e4b714ba60005260046020527f078d888f9b66f3f8bfa10909e31f1e16240db73449f0500afdbbe3a70da457cc805460ff19166001179055565b80518290600010156122fc578151601414612fc157600080fd5b612fca826133c9565b9050600160a060020a0381161515612fe157600080fd5b612fe96133d0565b600160a060020a03828116911614156122fc57600080fd5b6000903b1190565b3031610e4282826133da565b604080517f70a0823100000000000000000000000000000000000000000000000000000000815230600482015290518391600091600160a060020a038416916370a0823191602480830192602092919082900301818787803b15801561307a57600080fd5b505af115801561308e573d6000803e3d6000fd5b505050506040513d60208110156130a457600080fd5b5051905061083a600160a060020a038516848363ffffffff61343b16565b60006122fc826130d0611a93565b6134d0565b60006130df611a3c565b600160a060020a031663669f618b6040518163ffffffff1660e060020a028152600401602060405180830381600087803b158015611e6a57600080fd5b82600260008360405160200180807f74784f75744f664c696d6974526563697069656e74000000000000000000000081525060150182600019166000191681526020019150506040516020818303038152906040526040518082805190602001908083835b602083106131a05780518252601f199092019160209182019101613181565b51815160209384036101000a60001901801990921691161790526040805192909401829003909120865285019590955292909201600020805473ffffffffffffffffffffffffffffffffffffffff1916600160a060020a03959095169490941790935550612273915083905082612889565b806000808460405160200180807f6d65737361676556616c75650000000000000000000000000000000000000000815250600c01826000191660001916815260200191505060405160208183030381529060405260405180828051906020019080838360208310611d3a5780518252601f199092019160209182019101611d1b565b80600260008460405160200180807f6d657373616765526563697069656e740000000000000000000000000000000081525060100182600019166000191681526020019150506040516020818303038152906040526040518082805190602001908083835b602083106133185780518252601f1990920191602091820191016132f9565b51815160209384036101000a60001901801990921691161790526040805192909401829003909120865285019590955292909201600020805473ffffffffffffffffffffffffffffffffffffffff1916600160a060020a0395909516949094179093555050505050565b600061338c611a3c565b600160a060020a031663e5789d036040518163ffffffff1660e060020a028152600401602060405180830381600087803b158015611e6a57600080fd5b6014015190565b6000610941610e6b565b604051600160a060020a0383169082156108fc029083906000818181858888f193505050501515610e4257808261340f613559565b600160a060020a039091168152604051908190036020019082f0801580156109d8573d6000803e3d6000fd5b82600160a060020a031663a9059cbb83836040518363ffffffff1660e060020a0281526004018083600160a060020a0316600160a060020a0316815260200182815260200192505050600060405180830381600087803b15801561349e57600080fd5b505af11580156134b2573d6000803e3d6000fd5b505050503d156122735760206000803e600051151561227357600080fd5b60008115156134e05750816122fc565b6000821315613504576134fd83600a84900a63ffffffff61351b16565b90506122fc565b610f05836000849003600a0a63ffffffff61354416565b600082151561352c575060006122fc565b5081810281838281151561353c57fe5b04146122fc57fe5b6000818381151561355157fe5b049392505050565b604051602180613569833901905600608060405260405160208060218339810160405251600160a060020a038116ff00a165627a7a7230582008852be8b90dc0c3ad5684503297605bad5fce8b440557efac71998ad538eac20029",
  "source": "pragma solidity 0.4.24;\n\nimport \"./BasicAMBErc677ToErc677.sol\";\nimport \"../../interfaces/IBurnableMintableERC677Token.sol\";\n\n/**\n* @title HomeAMBErc677ToErc677\n* @dev Home side implementation for erc677-to-erc677 mediator intended to work on top of AMB bridge.\n* It is designed to be used as an implementation contract of EternalStorageProxy contract.\n*/\ncontract HomeAMBErc677ToErc677 is BasicAMBErc677ToErc677 {\n    /**\n     * @dev Executes action on the request to deposit tokens relayed from the other network\n     * @param _recipient address of tokens receiver\n     * @param _value amount of bridged tokens\n     */\n    function executeActionOnBridgedTokens(address _recipient, uint256 _value) internal {\n        uint256 value = _shiftValue(_value);\n        bytes32 _messageId = messageId();\n        //MOD: mint and then transferAndCall\n        IBurnableMintableERC677Token(erc677token()).mint(address(this), value);\n        require(erc677token().transferAndCall(_recipient, value, new bytes(0)), \"transfer_failed\");\n        emit TokensBridged(_recipient, value, _messageId);\n    }\n\n    //MOD: allow token ownership to be transferred to facilitate upgrade\n    function transferTokenOwnership(address newOwner) onlyOwner {\n        Ownable(erc677token()).transferOwnership(newOwner);\n    }\n\n    /**\n     * @dev Executes action on withdrawal of bridged tokens\n     * @param _token address of token contract\n     * @param _from address of tokens sender\n     * @param _value requsted amount of bridged tokens\n     * @param _data alternative receiver, if specified\n     */\n    function bridgeSpecificActionsOnTokenTransfer(ERC677 _token, address _from, uint256 _value, bytes _data) internal {\n        if (!lock()) {\n            IBurnableMintableERC677Token(_token).burn(_value);\n            passMessage(_from, chooseReceiver(_from, _data), _value);\n        }\n    }\n\n    /**\n     * @dev Withdraws the erc20 tokens or native coins from this contract.\n     * @param _token address of the claimed token or address(0) for native coins.\n     * @param _to address of the tokens/coins receiver.\n     */\n    function claimTokens(address _token, address _to) external onlyIfUpgradeabilityOwner {\n        // For home side of the bridge, tokens are not locked at the contract, they are minted and burned instead.\n        // So, its is safe to allow claiming of any tokens. Native coins are allowed as well.\n        claimValues(_token, _to);\n    }\n\n    function executeActionOnFixedTokens(address _recipient, uint256 _value) internal {\n        IBurnableMintableERC677Token(erc677token()).mint(_recipient, _value);\n    }\n}\n",
  "sourcePath": "/home/heynow/streamr/tokenbridge-contracts/contracts/upgradeable_contracts/amb_erc677_to_erc677/HomeAMBErc677ToErc677.sol",
  "compiler": {
    "name": "solc",
    "version": "0.4.24+commit.e67f0147.Emscripten.clang"
  },
  "schemaVersion": "3.0.15",
  "updatedAt": "2021-02-03T10:36:47.802Z",
  "devdoc": {
    "methods": {
      "bridgeContract()": {
        "details": "Get the AMB interface for the bridge contract address",
        "return": "AMB interface for the bridge contract address"
      },
      "claimTokens(address,address)": {
        "details": "Withdraws the erc20 tokens or native coins from this contract.",
        "params": {
          "_to": "address of the tokens/coins receiver.",
          "_token": "address of the claimed token or address(0) for native coins."
        }
      },
      "decimalShift()": {
        "details": "Returns the value of foreign-to-home decimal shift.",
        "return": "decimal shift."
      },
      "erc677token()": {
        "details": "Public getter for token contract.",
        "return": "address of the used token contract"
      },
      "fixAssetsAboveLimits(bytes32,bool,uint256)": {
        "details": "Fixes locked tokens, that were out of execution limits during the call to handleBridgedTokens",
        "params": {
          "messageId": "reference for bridge operation that was out of execution limits",
          "unlockOnOtherSide": "true if fixed tokens should be unlocked to the other side of the bridge",
          "valueToUnlock": "unlocked amount of tokens, should be less than saved txAboveLimitsValue. Should be less than maxPerTx(), if tokens need to be unlocked on the other side."
        }
      },
      "fixFailedMessage(bytes32)": {
        "details": "Handles the request to fix transferred assets which bridged message execution failed on the other network. It uses the information stored by passMessage method when the assets were initially transferred",
        "params": {
          "_messageId": "id of the message which execution failed on the other network."
        }
      },
      "handleBridgedTokens(address,uint256)": {
        "details": "Handles the bridged tokens. Checks that the value is inside the execution limits and invokes the method to execute the Mint or Unlock accordingly.",
        "params": {
          "_recipient": "address that will receive the tokens",
          "_value": "amount of tokens to be received"
        }
      },
      "maxAvailablePerTx()": {
        "details": "Retrieves maximum available bridge amount per one transaction taking into account maxPerTx() and dailyLimit() parameters.",
        "return": "minimum of maxPerTx parameter and remaining daily quota."
      },
      "mediatorContractOnOtherSide()": {
        "details": "Tells the mediator contract address from the other network.",
        "return": "the address of the mediator contract."
      },
      "messageFixed(bytes32)": {
        "details": "Tells if a message sent to the AMB bridge has been fixed.",
        "return": "bool indicating the status of the message."
      },
      "outOfLimitAmount()": {
        "details": "Total amount coins/tokens that were bridged from the other side and are out of execution limits.",
        "return": "total amount of all bridge operations above limits."
      },
      "owner()": {
        "details": "Tells the address of the owner",
        "return": "the address of the owner"
      },
      "relayTokens(address,uint256)": {
        "details": "Initiates the bridge operation that will lock the amount of tokens transferred and mint the tokens on the other network. The user should first call Approve method of the ERC677 token.",
        "params": {
          "_receiver": "address that will receive the minted tokens on the other network.",
          "_value": "amount of tokens to be transferred to the other network."
        }
      },
      "requestFailedMessageFix(bytes32)": {
        "details": "Method to be called when a bridged message execution failed. It will generate a new message requesting to fix/roll back the transferred assets on the other network.",
        "params": {
          "_messageId": "id of the message which execution failed."
        }
      },
      "requestGasLimit()": {
        "details": "Tells the gas limit to be used in the message execution by the AMB bridge on the other network.",
        "return": "the gas limit for the message execution."
      },
      "setBridgeContract(address)": {
        "details": "Sets the AMB bridge contract address. Only the owner can call this method.",
        "params": {
          "_bridgeContract": "the address of the bridge contract."
        }
      },
      "setMediatorContractOnOtherSide(address)": {
        "details": "Sets the mediator contract address from the other network. Only the owner can call this method.",
        "params": {
          "_mediatorContract": "the address of the mediator contract."
        }
      },
      "setRequestGasLimit(uint256)": {
        "details": "Sets the gas limit to be used in the message execution by the AMB bridge on the other network. This value can't exceed the parameter maxGasPerTx defined on the AMB bridge. Only the owner can call this method.",
        "params": {
          "_requestGasLimit": "the gas limit for the message execution."
        }
      },
      "transferOwnership(address)": {
        "details": "Allows the current owner to transfer control of the contract to a newOwner.",
        "params": {
          "newOwner": "the address to transfer ownership to."
        }
      }
    },
    "title": "HomeAMBErc677ToErc677"
  },
  "userdoc": {
    "methods": {}
  }
}